{
	"data": {
		"bytecode": {
			"linkReferences": {},
			"object": "61016060405234801562000011575f80fd5b5060405162002b7c38038062002b7c833981810160405281019062000037919062000326565b6040518060400160405280601381526020017f417574686f72697a6174696f6e20746f6b656e000000000000000000000000008152506040518060400160405280600181526020017f31000000000000000000000000000000000000000000000000000000000000008152508181620000ba5f836200019d60201b90919060201c565b6101208181525050620000d86001826200019d60201b90919060201c565b6101408181525050818051906020012060e08181525050808051906020012061010081815250504660a0818152505062000117620001f260201b60201c565b608081815250503073ffffffffffffffffffffffffffffffffffffffff1660c08173ffffffffffffffffffffffffffffffffffffffff1681525050505050508060025f6101000a81548173ffffffffffffffffffffffffffffffffffffffff021916908373ffffffffffffffffffffffffffffffffffffffff160217905550506200087f565b5f602083511015620001c257620001ba836200024e60201b60201c565b9050620001ec565b82620001d483620002b860201b60201c565b5f019081620001e49190620005ba565b5060ff5f1b90505b92915050565b5f7f8b73c3c69bb8fe3d512ecc4cf759cc79239f7b179b0ffacaa9a75d522b39400f60e05161010051463060405160200162000233959493929190620006da565b60405160208183030381529060405280519060200120905090565b5f80829050601f815111156200029d57826040517f305a27a9000000000000000000000000000000000000000000000000000000008152600401620002949190620007bf565b60405180910390fd5b805181620002ab9062000810565b5f1c175f1b915050919050565b5f819050919050565b5f80fd5b5f73ffffffffffffffffffffffffffffffffffffffff82169050919050565b5f620002f082620002c5565b9050919050565b6200030281620002e4565b81146200030d575f80fd5b50565b5f815190506200032081620002f7565b92915050565b5f602082840312156200033e576200033d620002c1565b5b5f6200034d8482850162000310565b91505092915050565b5f81519050919050565b7f4e487b71000000000000000000000000000000000000000000000000000000005f52604160045260245ffd5b7f4e487b71000000000000000000000000000000000000000000000000000000005f52602260045260245ffd5b5f6002820490506001821680620003d257607f821691505b602082108103620003e857620003e76200038d565b5b50919050565b5f819050815f5260205f209050919050565b5f6020601f8301049050919050565b5f82821b905092915050565b5f600883026200044c7fffffffffffffffffffffffffffffffffffffffffffffffffffffffffffffffff826200040f565b6200045886836200040f565b95508019841693508086168417925050509392505050565b5f819050919050565b5f819050919050565b5f620004a26200049c620004968462000470565b62000479565b62000470565b9050919050565b5f819050919050565b620004bd8362000482565b620004d5620004cc82620004a9565b8484546200041b565b825550505050565b5f90565b620004eb620004dd565b620004f8818484620004b2565b505050565b5b818110156200051f57620005135f82620004e1565b600181019050620004fe565b5050565b601f8211156200056e576200053881620003ee565b620005438462000400565b8101602085101562000553578190505b6200056b620005628562000400565b830182620004fd565b50505b505050565b5f82821c905092915050565b5f620005905f198460080262000573565b1980831691505092915050565b5f620005aa83836200057f565b9150826002028217905092915050565b620005c58262000356565b67ffffffffffffffff811115620005e157620005e062000360565b5b620005ed8254620003ba565b620005fa82828562000523565b5f60209050601f83116001811462000630575f84156200061b578287015190505b6200062785826200059d565b86555062000696565b601f1984166200064086620003ee565b5f5b82811015620006695784890151825560018201915060208501945060208101905062000642565b8683101562000689578489015162000685601f8916826200057f565b8355505b6001600288020188555050505b505050505050565b5f819050919050565b620006b2816200069e565b82525050565b620006c38162000470565b82525050565b620006d481620002e4565b82525050565b5f60a082019050620006ef5f830188620006a7565b620006fe6020830187620006a7565b6200070d6040830186620006a7565b6200071c6060830185620006b8565b6200072b6080830184620006c9565b9695505050505050565b5f82825260208201905092915050565b5f5b838110156200076457808201518184015260208101905062000747565b5f8484015250505050565b5f601f19601f8301169050919050565b5f6200078b8262000356565b62000797818562000735565b9350620007a981856020860162000745565b620007b4816200076f565b840191505092915050565b5f6020820190508181035f830152620007d981846200077f565b905092915050565b5f81519050919050565b5f819050602082019050919050565b5f6200080782516200069e565b80915050919050565b5f6200081c82620007e1565b826200082884620007eb565b90506200083581620007fa565b925060208210156200087857620008737fffffffffffffffffffffffffffffffffffffffffffffffffffffffffffffffff836020036008026200040f565b831692505b5050919050565b60805160a05160c05160e0516101005161012051610140516122ab620008d15f395f61104601525f61100b01525f6114b401525f61149301525f61107b01525f6110d101525f6110fa01526122ab5ff3fe608060405234801561000f575f80fd5b5060043610610091575f3560e01c80635f5d4d4a116100645780635f5d4d4a1461015557806369fa32b01461018557806384b0196e146101b557806387908527146101d9578063e959f1501461020957610091565b80630ef6df0214610095578063274c727c146100c5578063286c29c5146100f55780635cf1920014610125575b5f80fd5b6100af60048036038101906100aa9190611885565b610239565b6040516100bc9190611980565b60405180910390f35b6100df60048036038101906100da9190611885565b61037f565b6040516100ec9190611980565b60405180910390f35b61010f600480360381019061010a9190611885565b61050e565b60405161011c9190611980565b60405180910390f35b61013f600480360381019061013a9190611885565b610654565b60405161014c9190611980565b60405180910390f35b61016f600480360381019061016a9190611885565b61079a565b60405161017c9190611980565b60405180910390f35b61019f600480360381019061019a9190611885565b6108e0565b6040516101ac9190611980565b60405180910390f35b6101bd610a6f565b6040516101d09796959493929190611b49565b60405180910390f35b6101f360048036038101906101ee9190611885565b610b14565b6040516102009190611980565b60405180910390f35b610223600480360381019061021e9190611885565b610ca2565b6040516102309190611980565b60405180910390f35b60608383838080601f0160208091040260200160405190810160405280939291908181526020018383808284375f81840152601f19601f820116905080830192505050505050505f6102d27f051d137ae0e1fae6e3b6559fed4442b35a85a9a39789838ad5c9ea05e7da2dce846040516020016102b7929190611bcb565b60405160208183030381529060405280519060200120610e31565b90505f6102df8284610e4a565b90503373ffffffffffffffffffffffffffffffffffffffff168173ffffffffffffffffffffffffffffffffffffffff161461034f576040517f08c379a000000000000000000000000000000000000000000000000000000000815260040161034690611c62565b60405180910390fd5b5f61035a8a33610e74565b90505f61036c82606001518b5f610f1f565b9050809650505050505050949350505050565b6060845f61038c82610f5b565b9050806020015173ffffffffffffffffffffffffffffffffffffffff163373ffffffffffffffffffffffffffffffffffffffff16146103c9575f80fd5b8585858080601f0160208091040260200160405190810160405280939291908181526020018383808284375f81840152601f19601f820116905080830192505050505050505f6104607f051d137ae0e1fae6e3b6559fed4442b35a85a9a39789838ad5c9ea05e7da2dce84604051602001610445929190611bcb565b60405160208183030381529060405280519060200120610e31565b90505f61046d8284610e4a565b90503373ffffffffffffffffffffffffffffffffffffffff168173ffffffffffffffffffffffffffffffffffffffff16146104dd576040517f08c379a00000000000000000000000000000000000000000000000000000000081526004016104d490611c62565b60405180910390fd5b5f6104e78c610f5b565b90505f6104f982604001518d5f610f1f565b90508098505050505050505050949350505050565b60608383838080601f0160208091040260200160405190810160405280939291908181526020018383808284375f81840152601f19601f820116905080830192505050505050505f6105a77f051d137ae0e1fae6e3b6559fed4442b35a85a9a39789838ad5c9ea05e7da2dce8460405160200161058c929190611bcb565b60405160208183030381529060405280519060200120610e31565b90505f6105b48284610e4a565b90503373ffffffffffffffffffffffffffffffffffffffff168173ffffffffffffffffffffffffffffffffffffffff1614610624576040517f08c379a000000000000000000000000000000000000000000000000000000000815260040161061b90611c62565b60405180910390fd5b5f61062f8a33610e74565b90505f61064182604001518b5f610f1f565b9050809650505050505050949350505050565b60608383838080601f0160208091040260200160405190810160405280939291908181526020018383808284375f81840152601f19601f820116905080830192505050505050505f6106ed7f051d137ae0e1fae6e3b6559fed4442b35a85a9a39789838ad5c9ea05e7da2dce846040516020016106d2929190611bcb565b60405160208183030381529060405280519060200120610e31565b90505f6106fa8284610e4a565b90503373ffffffffffffffffffffffffffffffffffffffff168173ffffffffffffffffffffffffffffffffffffffff161461076a576040517f08c379a000000000000000000000000000000000000000000000000000000000815260040161076190611c62565b60405180910390fd5b5f6107758a33610e74565b90505f61078782602001518b5f610f1f565b9050809650505050505050949350505050565b60608383838080601f0160208091040260200160405190810160405280939291908181526020018383808284375f81840152601f19601f820116905080830192505050505050505f6108337f051d137ae0e1fae6e3b6559fed4442b35a85a9a39789838ad5c9ea05e7da2dce84604051602001610818929190611bcb565b60405160208183030381529060405280519060200120610e31565b90505f6108408284610e4a565b90503373ffffffffffffffffffffffffffffffffffffffff168173ffffffffffffffffffffffffffffffffffffffff16146108b0576040517f08c379a00000000000000000000000000000000000000000000000000000000081526004016108a790611c62565b60405180910390fd5b5f6108bb8a33610e74565b90505f6108cd8260c001518b5f610f1f565b9050809650505050505050949350505050565b6060845f6108ed82610f5b565b9050806020015173ffffffffffffffffffffffffffffffffffffffff163373ffffffffffffffffffffffffffffffffffffffff161461092a575f80fd5b8585858080601f0160208091040260200160405190810160405280939291908181526020018383808284375f81840152601f19601f820116905080830192505050505050505f6109c17f051d137ae0e1fae6e3b6559fed4442b35a85a9a39789838ad5c9ea05e7da2dce846040516020016109a6929190611bcb565b60405160208183030381529060405280519060200120610e31565b90505f6109ce8284610e4a565b90503373ffffffffffffffffffffffffffffffffffffffff168173ffffffffffffffffffffffffffffffffffffffff1614610a3e576040517f08c379a0000000000000000000000000000000000000000000000000000000008152600401610a3590611c62565b60405180910390fd5b5f610a488c610f5b565b90505f610a5a82606001518d5f610f1f565b90508098505050505050505050949350505050565b5f6060805f805f6060610a80611003565b610a8861103d565b46305f801b5f67ffffffffffffffff811115610aa757610aa6611c80565b5b604051908082528060200260200182016040528015610ad55781602001602082028036833780820191505090505b507f0f00000000000000000000000000000000000000000000000000000000000000959493929190965096509650965096509650965090919293949596565b6060845f610b2182610f5b565b9050806020015173ffffffffffffffffffffffffffffffffffffffff163373ffffffffffffffffffffffffffffffffffffffff1614610b5e575f80fd5b8585858080601f0160208091040260200160405190810160405280939291908181526020018383808284375f81840152601f19601f820116905080830192505050505050505f610bf57f051d137ae0e1fae6e3b6559fed4442b35a85a9a39789838ad5c9ea05e7da2dce84604051602001610bda929190611bcb565b60405160208183030381529060405280519060200120610e31565b90505f610c028284610e4a565b90503373ffffffffffffffffffffffffffffffffffffffff168173ffffffffffffffffffffffffffffffffffffffff1614610c72576040517f08c379a0000000000000000000000000000000000000000000000000000000008152600401610c6990611c62565b60405180910390fd5b5f610c7c8c610f5b565b90505f610c8d825f01518d5f610f1f565b90508098505050505050505050949350505050565b6060845f610caf82610f5b565b9050806020015173ffffffffffffffffffffffffffffffffffffffff163373ffffffffffffffffffffffffffffffffffffffff1614610cec575f80fd5b8585858080601f0160208091040260200160405190810160405280939291908181526020018383808284375f81840152601f19601f820116905080830192505050505050505f610d837f051d137ae0e1fae6e3b6559fed4442b35a85a9a39789838ad5c9ea05e7da2dce84604051602001610d68929190611bcb565b60405160208183030381529060405280519060200120610e31565b90505f610d908284610e4a565b90503373ffffffffffffffffffffffffffffffffffffffff168173ffffffffffffffffffffffffffffffffffffffff1614610e00576040517f08c379a0000000000000000000000000000000000000000000000000000000008152600401610df790611c62565b60405180910390fd5b5f610e0a8c610f5b565b90505f610e1c82608001518d5f610f1f565b90508098505050505050505050949350505050565b5f610e43610e3d611078565b8361112e565b9050919050565b5f805f80610e58868661116e565b925092509250610e6882826111c3565b82935050505092915050565b610e7c611732565b60025f9054906101000a900473ffffffffffffffffffffffffffffffffffffffff1673ffffffffffffffffffffffffffffffffffffffff166380dc8ae884846040518363ffffffff1660e01b8152600401610ed8929190611cad565b60e060405180830381865afa158015610ef3573d5f803e3d5ffd5b505050506040513d601f19601f82011682018060405250810190610f179190611e8b565b905092915050565b60605f8414610f3957610f328484611325565b9050610f54565b610f51610f4b8363ffffffff166113af565b84611325565b90505b9392505050565b610f63611784565b60025f9054906101000a900473ffffffffffffffffffffffffffffffffffffffff1673ffffffffffffffffffffffffffffffffffffffff166330f37b44836040518263ffffffff1660e01b8152600401610fbd9190611eb6565b60c060405180830381865afa158015610fd8573d5f803e3d5ffd5b505050506040513d601f19601f82011682018060405250810190610ffc9190611f6c565b9050919050565b60606110385f7f00000000000000000000000000000000000000000000000000000000000000006113c290919063ffffffff16565b905090565b606061107360017f00000000000000000000000000000000000000000000000000000000000000006113c290919063ffffffff16565b905090565b5f7f000000000000000000000000000000000000000000000000000000000000000073ffffffffffffffffffffffffffffffffffffffff163073ffffffffffffffffffffffffffffffffffffffff161480156110f357507f000000000000000000000000000000000000000000000000000000000000000046145b15611120577f0000000000000000000000000000000000000000000000000000000000000000905061112b565b61112861146f565b90505b90565b5f6040517f190100000000000000000000000000000000000000000000000000000000000081528360028201528260228201526042812091505092915050565b5f805f60418451036111ae575f805f602087015192506040870151915060608701515f1a90506111a088828585611504565b9550955095505050506111bc565b5f600285515f1b9250925092505b9250925092565b5f60038111156111d6576111d5611f97565b5b8260038111156111e9576111e8611f97565b5b0315611321576001600381111561120357611202611f97565b5b82600381111561121657611215611f97565b5b0361124d576040517ff645eedf00000000000000000000000000000000000000000000000000000000815260040160405180910390fd5b6002600381111561126157611260611f97565b5b82600381111561127457611273611f97565b5b036112b857805f1c6040517ffce698f70000000000000000000000000000000000000000000000000000000081526004016112af9190611fc4565b60405180910390fd5b6003808111156112cb576112ca611f97565b5b8260038111156112de576112dd611f97565b5b0361132057806040517fd78bce0c0000000000000000000000000000000000000000000000000000000081526004016113179190611eb6565b60405180910390fd5b5b5050565b6060605d73ffffffffffffffffffffffffffffffffffffffff1663d6ad57cd84845f1c6040518363ffffffff1660e01b8152600401611365929190611fdd565b5f60405180830381865afa15801561137f573d5f803e3d5ffd5b505050506040513d5f823e3d601f19601f820116820180604052508101906113a791906120a6565b905092915050565b5f6113bb8260026115eb565b9050919050565b606060ff5f1b83146113de576113d783611672565b9050611469565b8180546113ea9061211a565b80601f01602080910402602001604051908101604052809291908181526020018280546114169061211a565b80156114615780601f1061143857610100808354040283529160200191611461565b820191905f5260205f20905b81548152906001019060200180831161144457829003601f168201915b505050505090505b92915050565b5f7f8b73c3c69bb8fe3d512ecc4cf759cc79239f7b179b0ffacaa9a75d522b39400f7f00000000000000000000000000000000000000000000000000000000000000007f000000000000000000000000000000000000000000000000000000000000000046306040516020016114e995949392919061214a565b60405160208183030381529060405280519060200120905090565b5f805f7f7fffffffffffffffffffffffffffffff5d576e7357a4501ddfe92f46681b20a0845f1c1115611540575f6003859250925092506115e1565b5f6001888888886040515f815260200160405260405161156394939291906121b6565b6020604051602081039080840390855afa158015611583573d5f803e3d5ffd5b5050506020604051035190505f73ffffffffffffffffffffffffffffffffffffffff168173ffffffffffffffffffffffffffffffffffffffff16036115d4575f60015f801b935093509350506115e1565b805f805f1b935093509350505b9450945094915050565b5f605d73ffffffffffffffffffffffffffffffffffffffff1663e71746b8848460f81b6040518363ffffffff1660e01b815260040161162b9291906121f9565b602060405180830381865afa158015611646573d5f803e3d5ffd5b505050506040513d601f19601f8201168201806040525081019061166a919061224a565b905092915050565b60605f61167e836116e4565b90505f602067ffffffffffffffff81111561169c5761169b611c80565b5b6040519080825280601f01601f1916602001820160405280156116ce5781602001600182028036833780820191505090505b5090508181528360208201528092505050919050565b5f8060ff835f1c169050601f811115611729576040517fb3512b0c00000000000000000000000000000000000000000000000000000000815260040160405180910390fd5b80915050919050565b6040518060e001604052805f73ffffffffffffffffffffffffffffffffffffffff1681526020015f81526020015f81526020015f81526020015f81526020015f63ffffffff1681526020015f81525090565b6040518060c001604052805f81526020015f73ffffffffffffffffffffffffffffffffffffffff1681526020015f81526020015f81526020015f81526020015f73ffffffffffffffffffffffffffffffffffffffff1681525090565b5f604051905090565b5f80fd5b5f80fd5b5f819050919050565b611803816117f1565b811461180d575f80fd5b50565b5f8135905061181e816117fa565b92915050565b5f80fd5b5f80fd5b5f80fd5b5f8083601f84011261184557611844611824565b5b8235905067ffffffffffffffff81111561186257611861611828565b5b60208301915083600182028301111561187e5761187d61182c565b5b9250929050565b5f805f806060858703121561189d5761189c6117e9565b5b5f6118aa87828801611810565b94505060206118bb87828801611810565b935050604085013567ffffffffffffffff8111156118dc576118db6117ed565b5b6118e887828801611830565b925092505092959194509250565b5f81519050919050565b5f82825260208201905092915050565b5f5b8381101561192d578082015181840152602081019050611912565b5f8484015250505050565b5f601f19601f8301169050919050565b5f611952826118f6565b61195c8185611900565b935061196c818560208601611910565b61197581611938565b840191505092915050565b5f6020820190508181035f8301526119988184611948565b905092915050565b5f7fff0000000000000000000000000000000000000000000000000000000000000082169050919050565b6119d4816119a0565b82525050565b5f81519050919050565b5f82825260208201905092915050565b5f6119fe826119da565b611a0881856119e4565b9350611a18818560208601611910565b611a2181611938565b840191505092915050565b5f819050919050565b611a3e81611a2c565b82525050565b5f73ffffffffffffffffffffffffffffffffffffffff82169050919050565b5f611a6d82611a44565b9050919050565b611a7d81611a63565b82525050565b611a8c816117f1565b82525050565b5f81519050919050565b5f82825260208201905092915050565b5f819050602082019050919050565b611ac481611a2c565b82525050565b5f611ad58383611abb565b60208301905092915050565b5f602082019050919050565b5f611af782611a92565b611b018185611a9c565b9350611b0c83611aac565b805f5b83811015611b3c578151611b238882611aca565b9750611b2e83611ae1565b925050600181019050611b0f565b5085935050505092915050565b5f60e082019050611b5c5f83018a6119cb565b8181036020830152611b6e81896119f4565b90508181036040830152611b8281886119f4565b9050611b916060830187611a35565b611b9e6080830186611a74565b611bab60a0830185611a83565b81810360c0830152611bbd8184611aed565b905098975050505050505050565b5f604082019050611bde5f830185611a83565b611beb6020830184611a83565b9392505050565b7f454950373132207369676e657220616e64207472616e73616374696f6e2073695f8201527f676e657220646f206e6f74206d61746368000000000000000000000000000000602082015250565b5f611c4c6031836119e4565b9150611c5782611bf2565b604082019050919050565b5f6020820190508181035f830152611c7981611c40565b9050919050565b7f4e487b71000000000000000000000000000000000000000000000000000000005f52604160045260245ffd5b5f604082019050611cc05f830185611a83565b611ccd6020830184611a74565b9392505050565b5f80fd5b611ce182611938565b810181811067ffffffffffffffff82111715611d0057611cff611c80565b5b80604052505050565b5f611d126117e0565b9050611d1e8282611cd8565b919050565b611d2c81611a63565b8114611d36575f80fd5b50565b5f81519050611d4781611d23565b92915050565b611d5681611a2c565b8114611d60575f80fd5b50565b5f81519050611d7181611d4d565b92915050565b611d8081611a2c565b8114611d8a575f80fd5b50565b5f81519050611d9b81611d77565b92915050565b5f63ffffffff82169050919050565b611db981611da1565b8114611dc3575f80fd5b50565b5f81519050611dd481611db0565b92915050565b5f60e08284031215611def57611dee611cd4565b5b611df960e0611d09565b90505f611e0884828501611d39565b5f830152506020611e1b84828501611d63565b6020830152506040611e2f84828501611d63565b6040830152506060611e4384828501611d63565b6060830152506080611e5784828501611d8d565b60808301525060a0611e6b84828501611dc6565b60a08301525060c0611e7f84828501611d63565b60c08301525092915050565b5f60e08284031215611ea057611e9f6117e9565b5b5f611ead84828501611dda565b91505092915050565b5f602082019050611ec95f830184611a83565b92915050565b5f60c08284031215611ee457611ee3611cd4565b5b611eee60c0611d09565b90505f611efd84828501611d63565b5f830152506020611f1084828501611d39565b6020830152506040611f2484828501611d63565b6040830152506060611f3884828501611d63565b6060830152506080611f4c84828501611d63565b60808301525060a0611f6084828501611d39565b60a08301525092915050565b5f60c08284031215611f8157611f806117e9565b5b5f611f8e84828501611ecf565b91505092915050565b7f4e487b71000000000000000000000000000000000000000000000000000000005f52602160045260245ffd5b5f602082019050611fd75f830184611a35565b92915050565b5f604082019050611ff05f830185611a35565b611ffd6020830184611a35565b9392505050565b5f80fd5b5f67ffffffffffffffff82111561202257612021611c80565b5b61202b82611938565b9050602081019050919050565b5f61204a61204584612008565b611d09565b90508281526020810184848401111561206657612065612004565b5b612071848285611910565b509392505050565b5f82601f83011261208d5761208c611824565b5b815161209d848260208601612038565b91505092915050565b5f602082840312156120bb576120ba6117e9565b5b5f82015167ffffffffffffffff8111156120d8576120d76117ed565b5b6120e484828501612079565b91505092915050565b7f4e487b71000000000000000000000000000000000000000000000000000000005f52602260045260245ffd5b5f600282049050600182168061213157607f821691505b602082108103612144576121436120ed565b5b50919050565b5f60a08201905061215d5f830188611a83565b61216a6020830187611a83565b6121776040830186611a83565b6121846060830185611a35565b6121916080830184611a74565b9695505050505050565b5f60ff82169050919050565b6121b08161219b565b82525050565b5f6080820190506121c95f830187611a83565b6121d660208301866121a7565b6121e36040830185611a83565b6121f06060830184611a83565b95945050505050565b5f60408201905061220c5f830185611a35565b61221960208301846119cb565b9392505050565b61222981611a2c565b8114612233575f80fd5b50565b5f8151905061224481612220565b92915050565b5f6020828403121561225f5761225e6117e9565b5b5f61226c84828501612236565b9150509291505056fea2646970667358221220e2d1fb69044f6dde70f3a20a167a1fa41a39fae2e0d21d8c8f6677b031a83afe64736f6c63430008180033",
			"opcodes": "PUSH2 0x160 PUSH1 0x40 MSTORE CALLVALUE DUP1 ISZERO PUSH3 0x11 JUMPI PUSH0 DUP1 REVERT JUMPDEST POP PUSH1 0x40 MLOAD PUSH3 0x2B7C CODESIZE SUB DUP1 PUSH3 0x2B7C DUP4 CODECOPY DUP2 DUP2 ADD PUSH1 0x40 MSTORE DUP2 ADD SWAP1 PUSH3 0x37 SWAP2 SWAP1 PUSH3 0x326 JUMP JUMPDEST PUSH1 0x40 MLOAD DUP1 PUSH1 0x40 ADD PUSH1 0x40 MSTORE DUP1 PUSH1 0x13 DUP2 MSTORE PUSH1 0x20 ADD PUSH32 0x417574686F72697A6174696F6E20746F6B656E00000000000000000000000000 DUP2 MSTORE POP PUSH1 0x40 MLOAD DUP1 PUSH1 0x40 ADD PUSH1 0x40 MSTORE DUP1 PUSH1 0x1 DUP2 MSTORE PUSH1 0x20 ADD PUSH32 0x3100000000000000000000000000000000000000000000000000000000000000 DUP2 MSTORE POP DUP2 DUP2 PUSH3 0xBA PUSH0 DUP4 PUSH3 0x19D PUSH1 0x20 SHL SWAP1 SWAP2 SWAP1 PUSH1 0x20 SHR JUMP JUMPDEST PUSH2 0x120 DUP2 DUP2 MSTORE POP POP PUSH3 0xD8 PUSH1 0x1 DUP3 PUSH3 0x19D PUSH1 0x20 SHL SWAP1 SWAP2 SWAP1 PUSH1 0x20 SHR JUMP JUMPDEST PUSH2 0x140 DUP2 DUP2 MSTORE POP POP DUP2 DUP1 MLOAD SWAP1 PUSH1 0x20 ADD KECCAK256 PUSH1 0xE0 DUP2 DUP2 MSTORE POP POP DUP1 DUP1 MLOAD SWAP1 PUSH1 0x20 ADD KECCAK256 PUSH2 0x100 DUP2 DUP2 MSTORE POP POP CHAINID PUSH1 0xA0 DUP2 DUP2 MSTORE POP POP PUSH3 0x117 PUSH3 0x1F2 PUSH1 0x20 SHL PUSH1 0x20 SHR JUMP JUMPDEST PUSH1 0x80 DUP2 DUP2 MSTORE POP POP ADDRESS PUSH20 0xFFFFFFFFFFFFFFFFFFFFFFFFFFFFFFFFFFFFFFFF AND PUSH1 0xC0 DUP2 PUSH20 0xFFFFFFFFFFFFFFFFFFFFFFFFFFFFFFFFFFFFFFFF AND DUP2 MSTORE POP POP POP POP POP POP DUP1 PUSH1 0x2 PUSH0 PUSH2 0x100 EXP DUP2 SLOAD DUP2 PUSH20 0xFFFFFFFFFFFFFFFFFFFFFFFFFFFFFFFFFFFFFFFF MUL NOT AND SWAP1 DUP4 PUSH20 0xFFFFFFFFFFFFFFFFFFFFFFFFFFFFFFFFFFFFFFFF AND MUL OR SWAP1 SSTORE POP POP PUSH3 0x87F JUMP JUMPDEST PUSH0 PUSH1 0x20 DUP4 MLOAD LT ISZERO PUSH3 0x1C2 JUMPI PUSH3 0x1BA DUP4 PUSH3 0x24E PUSH1 0x20 SHL PUSH1 0x20 SHR JUMP JUMPDEST SWAP1 POP PUSH3 0x1EC JUMP JUMPDEST DUP3 PUSH3 0x1D4 DUP4 PUSH3 0x2B8 PUSH1 0x20 SHL PUSH1 0x20 SHR JUMP JUMPDEST PUSH0 ADD SWAP1 DUP2 PUSH3 0x1E4 SWAP2 SWAP1 PUSH3 0x5BA JUMP JUMPDEST POP PUSH1 0xFF PUSH0 SHL SWAP1 POP JUMPDEST SWAP3 SWAP2 POP POP JUMP JUMPDEST PUSH0 PUSH32 0x8B73C3C69BB8FE3D512ECC4CF759CC79239F7B179B0FFACAA9A75D522B39400F PUSH1 0xE0 MLOAD PUSH2 0x100 MLOAD CHAINID ADDRESS PUSH1 0x40 MLOAD PUSH1 0x20 ADD PUSH3 0x233 SWAP6 SWAP5 SWAP4 SWAP3 SWAP2 SWAP1 PUSH3 0x6DA JUMP JUMPDEST PUSH1 0x40 MLOAD PUSH1 0x20 DUP2 DUP4 SUB SUB DUP2 MSTORE SWAP1 PUSH1 0x40 MSTORE DUP1 MLOAD SWAP1 PUSH1 0x20 ADD KECCAK256 SWAP1 POP SWAP1 JUMP JUMPDEST PUSH0 DUP1 DUP3 SWAP1 POP PUSH1 0x1F DUP2 MLOAD GT ISZERO PUSH3 0x29D JUMPI DUP3 PUSH1 0x40 MLOAD PUSH32 0x305A27A900000000000000000000000000000000000000000000000000000000 DUP2 MSTORE PUSH1 0x4 ADD PUSH3 0x294 SWAP2 SWAP1 PUSH3 0x7BF JUMP JUMPDEST PUSH1 0x40 MLOAD DUP1 SWAP2 SUB SWAP1 REVERT JUMPDEST DUP1 MLOAD DUP2 PUSH3 0x2AB SWAP1 PUSH3 0x810 JUMP JUMPDEST PUSH0 SHR OR PUSH0 SHL SWAP2 POP POP SWAP2 SWAP1 POP JUMP JUMPDEST PUSH0 DUP2 SWAP1 POP SWAP2 SWAP1 POP JUMP JUMPDEST PUSH0 DUP1 REVERT JUMPDEST PUSH0 PUSH20 0xFFFFFFFFFFFFFFFFFFFFFFFFFFFFFFFFFFFFFFFF DUP3 AND SWAP1 POP SWAP2 SWAP1 POP JUMP JUMPDEST PUSH0 PUSH3 0x2F0 DUP3 PUSH3 0x2C5 JUMP JUMPDEST SWAP1 POP SWAP2 SWAP1 POP JUMP JUMPDEST PUSH3 0x302 DUP2 PUSH3 0x2E4 JUMP JUMPDEST DUP2 EQ PUSH3 0x30D JUMPI PUSH0 DUP1 REVERT JUMPDEST POP JUMP JUMPDEST PUSH0 DUP2 MLOAD SWAP1 POP PUSH3 0x320 DUP2 PUSH3 0x2F7 JUMP JUMPDEST SWAP3 SWAP2 POP POP JUMP JUMPDEST PUSH0 PUSH1 0x20 DUP3 DUP5 SUB SLT ISZERO PUSH3 0x33E JUMPI PUSH3 0x33D PUSH3 0x2C1 JUMP JUMPDEST JUMPDEST PUSH0 PUSH3 0x34D DUP5 DUP3 DUP6 ADD PUSH3 0x310 JUMP JUMPDEST SWAP2 POP POP SWAP3 SWAP2 POP POP JUMP JUMPDEST PUSH0 DUP2 MLOAD SWAP1 POP SWAP2 SWAP1 POP JUMP JUMPDEST PUSH32 0x4E487B7100000000000000000000000000000000000000000000000000000000 PUSH0 MSTORE PUSH1 0x41 PUSH1 0x4 MSTORE PUSH1 0x24 PUSH0 REVERT JUMPDEST PUSH32 0x4E487B7100000000000000000000000000000000000000000000000000000000 PUSH0 MSTORE PUSH1 0x22 PUSH1 0x4 MSTORE PUSH1 0x24 PUSH0 REVERT JUMPDEST PUSH0 PUSH1 0x2 DUP3 DIV SWAP1 POP PUSH1 0x1 DUP3 AND DUP1 PUSH3 0x3D2 JUMPI PUSH1 0x7F DUP3 AND SWAP2 POP JUMPDEST PUSH1 0x20 DUP3 LT DUP2 SUB PUSH3 0x3E8 JUMPI PUSH3 0x3E7 PUSH3 0x38D JUMP JUMPDEST JUMPDEST POP SWAP2 SWAP1 POP JUMP JUMPDEST PUSH0 DUP2 SWAP1 POP DUP2 PUSH0 MSTORE PUSH1 0x20 PUSH0 KECCAK256 SWAP1 POP SWAP2 SWAP1 POP JUMP JUMPDEST PUSH0 PUSH1 0x20 PUSH1 0x1F DUP4 ADD DIV SWAP1 POP SWAP2 SWAP1 POP JUMP JUMPDEST PUSH0 DUP3 DUP3 SHL SWAP1 POP SWAP3 SWAP2 POP POP JUMP JUMPDEST PUSH0 PUSH1 0x8 DUP4 MUL PUSH3 0x44C PUSH32 0xFFFFFFFFFFFFFFFFFFFFFFFFFFFFFFFFFFFFFFFFFFFFFFFFFFFFFFFFFFFFFFFF DUP3 PUSH3 0x40F JUMP JUMPDEST PUSH3 0x458 DUP7 DUP4 PUSH3 0x40F JUMP JUMPDEST SWAP6 POP DUP1 NOT DUP5 AND SWAP4 POP DUP1 DUP7 AND DUP5 OR SWAP3 POP POP POP SWAP4 SWAP3 POP POP POP JUMP JUMPDEST PUSH0 DUP2 SWAP1 POP SWAP2 SWAP1 POP JUMP JUMPDEST PUSH0 DUP2 SWAP1 POP SWAP2 SWAP1 POP JUMP JUMPDEST PUSH0 PUSH3 0x4A2 PUSH3 0x49C PUSH3 0x496 DUP5 PUSH3 0x470 JUMP JUMPDEST PUSH3 0x479 JUMP JUMPDEST PUSH3 0x470 JUMP JUMPDEST SWAP1 POP SWAP2 SWAP1 POP JUMP JUMPDEST PUSH0 DUP2 SWAP1 POP SWAP2 SWAP1 POP JUMP JUMPDEST PUSH3 0x4BD DUP4 PUSH3 0x482 JUMP JUMPDEST PUSH3 0x4D5 PUSH3 0x4CC DUP3 PUSH3 0x4A9 JUMP JUMPDEST DUP5 DUP5 SLOAD PUSH3 0x41B JUMP JUMPDEST DUP3 SSTORE POP POP POP POP JUMP JUMPDEST PUSH0 SWAP1 JUMP JUMPDEST PUSH3 0x4EB PUSH3 0x4DD JUMP JUMPDEST PUSH3 0x4F8 DUP2 DUP5 DUP5 PUSH3 0x4B2 JUMP JUMPDEST POP POP POP JUMP JUMPDEST JUMPDEST DUP2 DUP2 LT ISZERO PUSH3 0x51F JUMPI PUSH3 0x513 PUSH0 DUP3 PUSH3 0x4E1 JUMP JUMPDEST PUSH1 0x1 DUP2 ADD SWAP1 POP PUSH3 0x4FE JUMP JUMPDEST POP POP JUMP JUMPDEST PUSH1 0x1F DUP3 GT ISZERO PUSH3 0x56E JUMPI PUSH3 0x538 DUP2 PUSH3 0x3EE JUMP JUMPDEST PUSH3 0x543 DUP5 PUSH3 0x400 JUMP JUMPDEST DUP2 ADD PUSH1 0x20 DUP6 LT ISZERO PUSH3 0x553 JUMPI DUP2 SWAP1 POP JUMPDEST PUSH3 0x56B PUSH3 0x562 DUP6 PUSH3 0x400 JUMP JUMPDEST DUP4 ADD DUP3 PUSH3 0x4FD JUMP JUMPDEST POP POP JUMPDEST POP POP POP JUMP JUMPDEST PUSH0 DUP3 DUP3 SHR SWAP1 POP SWAP3 SWAP2 POP POP JUMP JUMPDEST PUSH0 PUSH3 0x590 PUSH0 NOT DUP5 PUSH1 0x8 MUL PUSH3 0x573 JUMP JUMPDEST NOT DUP1 DUP4 AND SWAP2 POP POP SWAP3 SWAP2 POP POP JUMP JUMPDEST PUSH0 PUSH3 0x5AA DUP4 DUP4 PUSH3 0x57F JUMP JUMPDEST SWAP2 POP DUP3 PUSH1 0x2 MUL DUP3 OR SWAP1 POP SWAP3 SWAP2 POP POP JUMP JUMPDEST PUSH3 0x5C5 DUP3 PUSH3 0x356 JUMP JUMPDEST PUSH8 0xFFFFFFFFFFFFFFFF DUP2 GT ISZERO PUSH3 0x5E1 JUMPI PUSH3 0x5E0 PUSH3 0x360 JUMP JUMPDEST JUMPDEST PUSH3 0x5ED DUP3 SLOAD PUSH3 0x3BA JUMP JUMPDEST PUSH3 0x5FA DUP3 DUP3 DUP6 PUSH3 0x523 JUMP JUMPDEST PUSH0 PUSH1 0x20 SWAP1 POP PUSH1 0x1F DUP4 GT PUSH1 0x1 DUP2 EQ PUSH3 0x630 JUMPI PUSH0 DUP5 ISZERO PUSH3 0x61B JUMPI DUP3 DUP8 ADD MLOAD SWAP1 POP JUMPDEST PUSH3 0x627 DUP6 DUP3 PUSH3 0x59D JUMP JUMPDEST DUP7 SSTORE POP PUSH3 0x696 JUMP JUMPDEST PUSH1 0x1F NOT DUP5 AND PUSH3 0x640 DUP7 PUSH3 0x3EE JUMP JUMPDEST PUSH0 JUMPDEST DUP3 DUP2 LT ISZERO PUSH3 0x669 JUMPI DUP5 DUP10 ADD MLOAD DUP3 SSTORE PUSH1 0x1 DUP3 ADD SWAP2 POP PUSH1 0x20 DUP6 ADD SWAP5 POP PUSH1 0x20 DUP2 ADD SWAP1 POP PUSH3 0x642 JUMP JUMPDEST DUP7 DUP4 LT ISZERO PUSH3 0x689 JUMPI DUP5 DUP10 ADD MLOAD PUSH3 0x685 PUSH1 0x1F DUP10 AND DUP3 PUSH3 0x57F JUMP JUMPDEST DUP4 SSTORE POP JUMPDEST PUSH1 0x1 PUSH1 0x2 DUP9 MUL ADD DUP9 SSTORE POP POP POP JUMPDEST POP POP POP POP POP POP JUMP JUMPDEST PUSH0 DUP2 SWAP1 POP SWAP2 SWAP1 POP JUMP JUMPDEST PUSH3 0x6B2 DUP2 PUSH3 0x69E JUMP JUMPDEST DUP3 MSTORE POP POP JUMP JUMPDEST PUSH3 0x6C3 DUP2 PUSH3 0x470 JUMP JUMPDEST DUP3 MSTORE POP POP JUMP JUMPDEST PUSH3 0x6D4 DUP2 PUSH3 0x2E4 JUMP JUMPDEST DUP3 MSTORE POP POP JUMP JUMPDEST PUSH0 PUSH1 0xA0 DUP3 ADD SWAP1 POP PUSH3 0x6EF PUSH0 DUP4 ADD DUP9 PUSH3 0x6A7 JUMP JUMPDEST PUSH3 0x6FE PUSH1 0x20 DUP4 ADD DUP8 PUSH3 0x6A7 JUMP JUMPDEST PUSH3 0x70D PUSH1 0x40 DUP4 ADD DUP7 PUSH3 0x6A7 JUMP JUMPDEST PUSH3 0x71C PUSH1 0x60 DUP4 ADD DUP6 PUSH3 0x6B8 JUMP JUMPDEST PUSH3 0x72B PUSH1 0x80 DUP4 ADD DUP5 PUSH3 0x6C9 JUMP JUMPDEST SWAP7 SWAP6 POP POP POP POP POP POP JUMP JUMPDEST PUSH0 DUP3 DUP3 MSTORE PUSH1 0x20 DUP3 ADD SWAP1 POP SWAP3 SWAP2 POP POP JUMP JUMPDEST PUSH0 JUMPDEST DUP4 DUP2 LT ISZERO PUSH3 0x764 JUMPI DUP1 DUP3 ADD MLOAD DUP2 DUP5 ADD MSTORE PUSH1 0x20 DUP2 ADD SWAP1 POP PUSH3 0x747 JUMP JUMPDEST PUSH0 DUP5 DUP5 ADD MSTORE POP POP POP POP JUMP JUMPDEST PUSH0 PUSH1 0x1F NOT PUSH1 0x1F DUP4 ADD AND SWAP1 POP SWAP2 SWAP1 POP JUMP JUMPDEST PUSH0 PUSH3 0x78B DUP3 PUSH3 0x356 JUMP JUMPDEST PUSH3 0x797 DUP2 DUP6 PUSH3 0x735 JUMP JUMPDEST SWAP4 POP PUSH3 0x7A9 DUP2 DUP6 PUSH1 0x20 DUP7 ADD PUSH3 0x745 JUMP JUMPDEST PUSH3 0x7B4 DUP2 PUSH3 0x76F JUMP JUMPDEST DUP5 ADD SWAP2 POP POP SWAP3 SWAP2 POP POP JUMP JUMPDEST PUSH0 PUSH1 0x20 DUP3 ADD SWAP1 POP DUP2 DUP2 SUB PUSH0 DUP4 ADD MSTORE PUSH3 0x7D9 DUP2 DUP5 PUSH3 0x77F JUMP JUMPDEST SWAP1 POP SWAP3 SWAP2 POP POP JUMP JUMPDEST PUSH0 DUP2 MLOAD SWAP1 POP SWAP2 SWAP1 POP JUMP JUMPDEST PUSH0 DUP2 SWAP1 POP PUSH1 0x20 DUP3 ADD SWAP1 POP SWAP2 SWAP1 POP JUMP JUMPDEST PUSH0 PUSH3 0x807 DUP3 MLOAD PUSH3 0x69E JUMP JUMPDEST DUP1 SWAP2 POP POP SWAP2 SWAP1 POP JUMP JUMPDEST PUSH0 PUSH3 0x81C DUP3 PUSH3 0x7E1 JUMP JUMPDEST DUP3 PUSH3 0x828 DUP5 PUSH3 0x7EB JUMP JUMPDEST SWAP1 POP PUSH3 0x835 DUP2 PUSH3 0x7FA JUMP JUMPDEST SWAP3 POP PUSH1 0x20 DUP3 LT ISZERO PUSH3 0x878 JUMPI PUSH3 0x873 PUSH32 0xFFFFFFFFFFFFFFFFFFFFFFFFFFFFFFFFFFFFFFFFFFFFFFFFFFFFFFFFFFFFFFFF DUP4 PUSH1 0x20 SUB PUSH1 0x8 MUL PUSH3 0x40F JUMP JUMPDEST DUP4 AND SWAP3 POP JUMPDEST POP POP SWAP2 SWAP1 POP JUMP JUMPDEST PUSH1 0x80 MLOAD PUSH1 0xA0 MLOAD PUSH1 0xC0 MLOAD PUSH1 0xE0 MLOAD PUSH2 0x100 MLOAD PUSH2 0x120 MLOAD PUSH2 0x140 MLOAD PUSH2 0x22AB PUSH3 0x8D1 PUSH0 CODECOPY PUSH0 PUSH2 0x1046 ADD MSTORE PUSH0 PUSH2 0x100B ADD MSTORE PUSH0 PUSH2 0x14B4 ADD MSTORE PUSH0 PUSH2 0x1493 ADD MSTORE PUSH0 PUSH2 0x107B ADD MSTORE PUSH0 PUSH2 0x10D1 ADD MSTORE PUSH0 PUSH2 0x10FA ADD MSTORE PUSH2 0x22AB PUSH0 RETURN INVALID PUSH1 0x80 PUSH1 0x40 MSTORE CALLVALUE DUP1 ISZERO PUSH2 0xF JUMPI PUSH0 DUP1 REVERT JUMPDEST POP PUSH1 0x4 CALLDATASIZE LT PUSH2 0x91 JUMPI PUSH0 CALLDATALOAD PUSH1 0xE0 SHR DUP1 PUSH4 0x5F5D4D4A GT PUSH2 0x64 JUMPI DUP1 PUSH4 0x5F5D4D4A EQ PUSH2 0x155 JUMPI DUP1 PUSH4 0x69FA32B0 EQ PUSH2 0x185 JUMPI DUP1 PUSH4 0x84B0196E EQ PUSH2 0x1B5 JUMPI DUP1 PUSH4 0x87908527 EQ PUSH2 0x1D9 JUMPI DUP1 PUSH4 0xE959F150 EQ PUSH2 0x209 JUMPI PUSH2 0x91 JUMP JUMPDEST DUP1 PUSH4 0xEF6DF02 EQ PUSH2 0x95 JUMPI DUP1 PUSH4 0x274C727C EQ PUSH2 0xC5 JUMPI DUP1 PUSH4 0x286C29C5 EQ PUSH2 0xF5 JUMPI DUP1 PUSH4 0x5CF19200 EQ PUSH2 0x125 JUMPI JUMPDEST PUSH0 DUP1 REVERT JUMPDEST PUSH2 0xAF PUSH1 0x4 DUP1 CALLDATASIZE SUB DUP2 ADD SWAP1 PUSH2 0xAA SWAP2 SWAP1 PUSH2 0x1885 JUMP JUMPDEST PUSH2 0x239 JUMP JUMPDEST PUSH1 0x40 MLOAD PUSH2 0xBC SWAP2 SWAP1 PUSH2 0x1980 JUMP JUMPDEST PUSH1 0x40 MLOAD DUP1 SWAP2 SUB SWAP1 RETURN JUMPDEST PUSH2 0xDF PUSH1 0x4 DUP1 CALLDATASIZE SUB DUP2 ADD SWAP1 PUSH2 0xDA SWAP2 SWAP1 PUSH2 0x1885 JUMP JUMPDEST PUSH2 0x37F JUMP JUMPDEST PUSH1 0x40 MLOAD PUSH2 0xEC SWAP2 SWAP1 PUSH2 0x1980 JUMP JUMPDEST PUSH1 0x40 MLOAD DUP1 SWAP2 SUB SWAP1 RETURN JUMPDEST PUSH2 0x10F PUSH1 0x4 DUP1 CALLDATASIZE SUB DUP2 ADD SWAP1 PUSH2 0x10A SWAP2 SWAP1 PUSH2 0x1885 JUMP JUMPDEST PUSH2 0x50E JUMP JUMPDEST PUSH1 0x40 MLOAD PUSH2 0x11C SWAP2 SWAP1 PUSH2 0x1980 JUMP JUMPDEST PUSH1 0x40 MLOAD DUP1 SWAP2 SUB SWAP1 RETURN JUMPDEST PUSH2 0x13F PUSH1 0x4 DUP1 CALLDATASIZE SUB DUP2 ADD SWAP1 PUSH2 0x13A SWAP2 SWAP1 PUSH2 0x1885 JUMP JUMPDEST PUSH2 0x654 JUMP JUMPDEST PUSH1 0x40 MLOAD PUSH2 0x14C SWAP2 SWAP1 PUSH2 0x1980 JUMP JUMPDEST PUSH1 0x40 MLOAD DUP1 SWAP2 SUB SWAP1 RETURN JUMPDEST PUSH2 0x16F PUSH1 0x4 DUP1 CALLDATASIZE SUB DUP2 ADD SWAP1 PUSH2 0x16A SWAP2 SWAP1 PUSH2 0x1885 JUMP JUMPDEST PUSH2 0x79A JUMP JUMPDEST PUSH1 0x40 MLOAD PUSH2 0x17C SWAP2 SWAP1 PUSH2 0x1980 JUMP JUMPDEST PUSH1 0x40 MLOAD DUP1 SWAP2 SUB SWAP1 RETURN JUMPDEST PUSH2 0x19F PUSH1 0x4 DUP1 CALLDATASIZE SUB DUP2 ADD SWAP1 PUSH2 0x19A SWAP2 SWAP1 PUSH2 0x1885 JUMP JUMPDEST PUSH2 0x8E0 JUMP JUMPDEST PUSH1 0x40 MLOAD PUSH2 0x1AC SWAP2 SWAP1 PUSH2 0x1980 JUMP JUMPDEST PUSH1 0x40 MLOAD DUP1 SWAP2 SUB SWAP1 RETURN JUMPDEST PUSH2 0x1BD PUSH2 0xA6F JUMP JUMPDEST PUSH1 0x40 MLOAD PUSH2 0x1D0 SWAP8 SWAP7 SWAP6 SWAP5 SWAP4 SWAP3 SWAP2 SWAP1 PUSH2 0x1B49 JUMP JUMPDEST PUSH1 0x40 MLOAD DUP1 SWAP2 SUB SWAP1 RETURN JUMPDEST PUSH2 0x1F3 PUSH1 0x4 DUP1 CALLDATASIZE SUB DUP2 ADD SWAP1 PUSH2 0x1EE SWAP2 SWAP1 PUSH2 0x1885 JUMP JUMPDEST PUSH2 0xB14 JUMP JUMPDEST PUSH1 0x40 MLOAD PUSH2 0x200 SWAP2 SWAP1 PUSH2 0x1980 JUMP JUMPDEST PUSH1 0x40 MLOAD DUP1 SWAP2 SUB SWAP1 RETURN JUMPDEST PUSH2 0x223 PUSH1 0x4 DUP1 CALLDATASIZE SUB DUP2 ADD SWAP1 PUSH2 0x21E SWAP2 SWAP1 PUSH2 0x1885 JUMP JUMPDEST PUSH2 0xCA2 JUMP JUMPDEST PUSH1 0x40 MLOAD PUSH2 0x230 SWAP2 SWAP1 PUSH2 0x1980 JUMP JUMPDEST PUSH1 0x40 MLOAD DUP1 SWAP2 SUB SWAP1 RETURN JUMPDEST PUSH1 0x60 DUP4 DUP4 DUP4 DUP1 DUP1 PUSH1 0x1F ADD PUSH1 0x20 DUP1 SWAP2 DIV MUL PUSH1 0x20 ADD PUSH1 0x40 MLOAD SWAP1 DUP2 ADD PUSH1 0x40 MSTORE DUP1 SWAP4 SWAP3 SWAP2 SWAP1 DUP2 DUP2 MSTORE PUSH1 0x20 ADD DUP4 DUP4 DUP1 DUP3 DUP5 CALLDATACOPY PUSH0 DUP2 DUP5 ADD MSTORE PUSH1 0x1F NOT PUSH1 0x1F DUP3 ADD AND SWAP1 POP DUP1 DUP4 ADD SWAP3 POP POP POP POP POP POP POP PUSH0 PUSH2 0x2D2 PUSH32 0x51D137AE0E1FAE6E3B6559FED4442B35A85A9A39789838AD5C9EA05E7DA2DCE DUP5 PUSH1 0x40 MLOAD PUSH1 0x20 ADD PUSH2 0x2B7 SWAP3 SWAP2 SWAP1 PUSH2 0x1BCB JUMP JUMPDEST PUSH1 0x40 MLOAD PUSH1 0x20 DUP2 DUP4 SUB SUB DUP2 MSTORE SWAP1 PUSH1 0x40 MSTORE DUP1 MLOAD SWAP1 PUSH1 0x20 ADD KECCAK256 PUSH2 0xE31 JUMP JUMPDEST SWAP1 POP PUSH0 PUSH2 0x2DF DUP3 DUP5 PUSH2 0xE4A JUMP JUMPDEST SWAP1 POP CALLER PUSH20 0xFFFFFFFFFFFFFFFFFFFFFFFFFFFFFFFFFFFFFFFF AND DUP2 PUSH20 0xFFFFFFFFFFFFFFFFFFFFFFFFFFFFFFFFFFFFFFFF AND EQ PUSH2 0x34F JUMPI PUSH1 0x40 MLOAD PUSH32 0x8C379A000000000000000000000000000000000000000000000000000000000 DUP2 MSTORE PUSH1 0x4 ADD PUSH2 0x346 SWAP1 PUSH2 0x1C62 JUMP JUMPDEST PUSH1 0x40 MLOAD DUP1 SWAP2 SUB SWAP1 REVERT JUMPDEST PUSH0 PUSH2 0x35A DUP11 CALLER PUSH2 0xE74 JUMP JUMPDEST SWAP1 POP PUSH0 PUSH2 0x36C DUP3 PUSH1 0x60 ADD MLOAD DUP12 PUSH0 PUSH2 0xF1F JUMP JUMPDEST SWAP1 POP DUP1 SWAP7 POP POP POP POP POP POP POP SWAP5 SWAP4 POP POP POP POP JUMP JUMPDEST PUSH1 0x60 DUP5 PUSH0 PUSH2 0x38C DUP3 PUSH2 0xF5B JUMP JUMPDEST SWAP1 POP DUP1 PUSH1 0x20 ADD MLOAD PUSH20 0xFFFFFFFFFFFFFFFFFFFFFFFFFFFFFFFFFFFFFFFF AND CALLER PUSH20 0xFFFFFFFFFFFFFFFFFFFFFFFFFFFFFFFFFFFFFFFF AND EQ PUSH2 0x3C9 JUMPI PUSH0 DUP1 REVERT JUMPDEST DUP6 DUP6 DUP6 DUP1 DUP1 PUSH1 0x1F ADD PUSH1 0x20 DUP1 SWAP2 DIV MUL PUSH1 0x20 ADD PUSH1 0x40 MLOAD SWAP1 DUP2 ADD PUSH1 0x40 MSTORE DUP1 SWAP4 SWAP3 SWAP2 SWAP1 DUP2 DUP2 MSTORE PUSH1 0x20 ADD DUP4 DUP4 DUP1 DUP3 DUP5 CALLDATACOPY PUSH0 DUP2 DUP5 ADD MSTORE PUSH1 0x1F NOT PUSH1 0x1F DUP3 ADD AND SWAP1 POP DUP1 DUP4 ADD SWAP3 POP POP POP POP POP POP POP PUSH0 PUSH2 0x460 PUSH32 0x51D137AE0E1FAE6E3B6559FED4442B35A85A9A39789838AD5C9EA05E7DA2DCE DUP5 PUSH1 0x40 MLOAD PUSH1 0x20 ADD PUSH2 0x445 SWAP3 SWAP2 SWAP1 PUSH2 0x1BCB JUMP JUMPDEST PUSH1 0x40 MLOAD PUSH1 0x20 DUP2 DUP4 SUB SUB DUP2 MSTORE SWAP1 PUSH1 0x40 MSTORE DUP1 MLOAD SWAP1 PUSH1 0x20 ADD KECCAK256 PUSH2 0xE31 JUMP JUMPDEST SWAP1 POP PUSH0 PUSH2 0x46D DUP3 DUP5 PUSH2 0xE4A JUMP JUMPDEST SWAP1 POP CALLER PUSH20 0xFFFFFFFFFFFFFFFFFFFFFFFFFFFFFFFFFFFFFFFF AND DUP2 PUSH20 0xFFFFFFFFFFFFFFFFFFFFFFFFFFFFFFFFFFFFFFFF AND EQ PUSH2 0x4DD JUMPI PUSH1 0x40 MLOAD PUSH32 0x8C379A000000000000000000000000000000000000000000000000000000000 DUP2 MSTORE PUSH1 0x4 ADD PUSH2 0x4D4 SWAP1 PUSH2 0x1C62 JUMP JUMPDEST PUSH1 0x40 MLOAD DUP1 SWAP2 SUB SWAP1 REVERT JUMPDEST PUSH0 PUSH2 0x4E7 DUP13 PUSH2 0xF5B JUMP JUMPDEST SWAP1 POP PUSH0 PUSH2 0x4F9 DUP3 PUSH1 0x40 ADD MLOAD DUP14 PUSH0 PUSH2 0xF1F JUMP JUMPDEST SWAP1 POP DUP1 SWAP9 POP POP POP POP POP POP POP POP POP SWAP5 SWAP4 POP POP POP POP JUMP JUMPDEST PUSH1 0x60 DUP4 DUP4 DUP4 DUP1 DUP1 PUSH1 0x1F ADD PUSH1 0x20 DUP1 SWAP2 DIV MUL PUSH1 0x20 ADD PUSH1 0x40 MLOAD SWAP1 DUP2 ADD PUSH1 0x40 MSTORE DUP1 SWAP4 SWAP3 SWAP2 SWAP1 DUP2 DUP2 MSTORE PUSH1 0x20 ADD DUP4 DUP4 DUP1 DUP3 DUP5 CALLDATACOPY PUSH0 DUP2 DUP5 ADD MSTORE PUSH1 0x1F NOT PUSH1 0x1F DUP3 ADD AND SWAP1 POP DUP1 DUP4 ADD SWAP3 POP POP POP POP POP POP POP PUSH0 PUSH2 0x5A7 PUSH32 0x51D137AE0E1FAE6E3B6559FED4442B35A85A9A39789838AD5C9EA05E7DA2DCE DUP5 PUSH1 0x40 MLOAD PUSH1 0x20 ADD PUSH2 0x58C SWAP3 SWAP2 SWAP1 PUSH2 0x1BCB JUMP JUMPDEST PUSH1 0x40 MLOAD PUSH1 0x20 DUP2 DUP4 SUB SUB DUP2 MSTORE SWAP1 PUSH1 0x40 MSTORE DUP1 MLOAD SWAP1 PUSH1 0x20 ADD KECCAK256 PUSH2 0xE31 JUMP JUMPDEST SWAP1 POP PUSH0 PUSH2 0x5B4 DUP3 DUP5 PUSH2 0xE4A JUMP JUMPDEST SWAP1 POP CALLER PUSH20 0xFFFFFFFFFFFFFFFFFFFFFFFFFFFFFFFFFFFFFFFF AND DUP2 PUSH20 0xFFFFFFFFFFFFFFFFFFFFFFFFFFFFFFFFFFFFFFFF AND EQ PUSH2 0x624 JUMPI PUSH1 0x40 MLOAD PUSH32 0x8C379A000000000000000000000000000000000000000000000000000000000 DUP2 MSTORE PUSH1 0x4 ADD PUSH2 0x61B SWAP1 PUSH2 0x1C62 JUMP JUMPDEST PUSH1 0x40 MLOAD DUP1 SWAP2 SUB SWAP1 REVERT JUMPDEST PUSH0 PUSH2 0x62F DUP11 CALLER PUSH2 0xE74 JUMP JUMPDEST SWAP1 POP PUSH0 PUSH2 0x641 DUP3 PUSH1 0x40 ADD MLOAD DUP12 PUSH0 PUSH2 0xF1F JUMP JUMPDEST SWAP1 POP DUP1 SWAP7 POP POP POP POP POP POP POP SWAP5 SWAP4 POP POP POP POP JUMP JUMPDEST PUSH1 0x60 DUP4 DUP4 DUP4 DUP1 DUP1 PUSH1 0x1F ADD PUSH1 0x20 DUP1 SWAP2 DIV MUL PUSH1 0x20 ADD PUSH1 0x40 MLOAD SWAP1 DUP2 ADD PUSH1 0x40 MSTORE DUP1 SWAP4 SWAP3 SWAP2 SWAP1 DUP2 DUP2 MSTORE PUSH1 0x20 ADD DUP4 DUP4 DUP1 DUP3 DUP5 CALLDATACOPY PUSH0 DUP2 DUP5 ADD MSTORE PUSH1 0x1F NOT PUSH1 0x1F DUP3 ADD AND SWAP1 POP DUP1 DUP4 ADD SWAP3 POP POP POP POP POP POP POP PUSH0 PUSH2 0x6ED PUSH32 0x51D137AE0E1FAE6E3B6559FED4442B35A85A9A39789838AD5C9EA05E7DA2DCE DUP5 PUSH1 0x40 MLOAD PUSH1 0x20 ADD PUSH2 0x6D2 SWAP3 SWAP2 SWAP1 PUSH2 0x1BCB JUMP JUMPDEST PUSH1 0x40 MLOAD PUSH1 0x20 DUP2 DUP4 SUB SUB DUP2 MSTORE SWAP1 PUSH1 0x40 MSTORE DUP1 MLOAD SWAP1 PUSH1 0x20 ADD KECCAK256 PUSH2 0xE31 JUMP JUMPDEST SWAP1 POP PUSH0 PUSH2 0x6FA DUP3 DUP5 PUSH2 0xE4A JUMP JUMPDEST SWAP1 POP CALLER PUSH20 0xFFFFFFFFFFFFFFFFFFFFFFFFFFFFFFFFFFFFFFFF AND DUP2 PUSH20 0xFFFFFFFFFFFFFFFFFFFFFFFFFFFFFFFFFFFFFFFF AND EQ PUSH2 0x76A JUMPI PUSH1 0x40 MLOAD PUSH32 0x8C379A000000000000000000000000000000000000000000000000000000000 DUP2 MSTORE PUSH1 0x4 ADD PUSH2 0x761 SWAP1 PUSH2 0x1C62 JUMP JUMPDEST PUSH1 0x40 MLOAD DUP1 SWAP2 SUB SWAP1 REVERT JUMPDEST PUSH0 PUSH2 0x775 DUP11 CALLER PUSH2 0xE74 JUMP JUMPDEST SWAP1 POP PUSH0 PUSH2 0x787 DUP3 PUSH1 0x20 ADD MLOAD DUP12 PUSH0 PUSH2 0xF1F JUMP JUMPDEST SWAP1 POP DUP1 SWAP7 POP POP POP POP POP POP POP SWAP5 SWAP4 POP POP POP POP JUMP JUMPDEST PUSH1 0x60 DUP4 DUP4 DUP4 DUP1 DUP1 PUSH1 0x1F ADD PUSH1 0x20 DUP1 SWAP2 DIV MUL PUSH1 0x20 ADD PUSH1 0x40 MLOAD SWAP1 DUP2 ADD PUSH1 0x40 MSTORE DUP1 SWAP4 SWAP3 SWAP2 SWAP1 DUP2 DUP2 MSTORE PUSH1 0x20 ADD DUP4 DUP4 DUP1 DUP3 DUP5 CALLDATACOPY PUSH0 DUP2 DUP5 ADD MSTORE PUSH1 0x1F NOT PUSH1 0x1F DUP3 ADD AND SWAP1 POP DUP1 DUP4 ADD SWAP3 POP POP POP POP POP POP POP PUSH0 PUSH2 0x833 PUSH32 0x51D137AE0E1FAE6E3B6559FED4442B35A85A9A39789838AD5C9EA05E7DA2DCE DUP5 PUSH1 0x40 MLOAD PUSH1 0x20 ADD PUSH2 0x818 SWAP3 SWAP2 SWAP1 PUSH2 0x1BCB JUMP JUMPDEST PUSH1 0x40 MLOAD PUSH1 0x20 DUP2 DUP4 SUB SUB DUP2 MSTORE SWAP1 PUSH1 0x40 MSTORE DUP1 MLOAD SWAP1 PUSH1 0x20 ADD KECCAK256 PUSH2 0xE31 JUMP JUMPDEST SWAP1 POP PUSH0 PUSH2 0x840 DUP3 DUP5 PUSH2 0xE4A JUMP JUMPDEST SWAP1 POP CALLER PUSH20 0xFFFFFFFFFFFFFFFFFFFFFFFFFFFFFFFFFFFFFFFF AND DUP2 PUSH20 0xFFFFFFFFFFFFFFFFFFFFFFFFFFFFFFFFFFFFFFFF AND EQ PUSH2 0x8B0 JUMPI PUSH1 0x40 MLOAD PUSH32 0x8C379A000000000000000000000000000000000000000000000000000000000 DUP2 MSTORE PUSH1 0x4 ADD PUSH2 0x8A7 SWAP1 PUSH2 0x1C62 JUMP JUMPDEST PUSH1 0x40 MLOAD DUP1 SWAP2 SUB SWAP1 REVERT JUMPDEST PUSH0 PUSH2 0x8BB DUP11 CALLER PUSH2 0xE74 JUMP JUMPDEST SWAP1 POP PUSH0 PUSH2 0x8CD DUP3 PUSH1 0xC0 ADD MLOAD DUP12 PUSH0 PUSH2 0xF1F JUMP JUMPDEST SWAP1 POP DUP1 SWAP7 POP POP POP POP POP POP POP SWAP5 SWAP4 POP POP POP POP JUMP JUMPDEST PUSH1 0x60 DUP5 PUSH0 PUSH2 0x8ED DUP3 PUSH2 0xF5B JUMP JUMPDEST SWAP1 POP DUP1 PUSH1 0x20 ADD MLOAD PUSH20 0xFFFFFFFFFFFFFFFFFFFFFFFFFFFFFFFFFFFFFFFF AND CALLER PUSH20 0xFFFFFFFFFFFFFFFFFFFFFFFFFFFFFFFFFFFFFFFF AND EQ PUSH2 0x92A JUMPI PUSH0 DUP1 REVERT JUMPDEST DUP6 DUP6 DUP6 DUP1 DUP1 PUSH1 0x1F ADD PUSH1 0x20 DUP1 SWAP2 DIV MUL PUSH1 0x20 ADD PUSH1 0x40 MLOAD SWAP1 DUP2 ADD PUSH1 0x40 MSTORE DUP1 SWAP4 SWAP3 SWAP2 SWAP1 DUP2 DUP2 MSTORE PUSH1 0x20 ADD DUP4 DUP4 DUP1 DUP3 DUP5 CALLDATACOPY PUSH0 DUP2 DUP5 ADD MSTORE PUSH1 0x1F NOT PUSH1 0x1F DUP3 ADD AND SWAP1 POP DUP1 DUP4 ADD SWAP3 POP POP POP POP POP POP POP PUSH0 PUSH2 0x9C1 PUSH32 0x51D137AE0E1FAE6E3B6559FED4442B35A85A9A39789838AD5C9EA05E7DA2DCE DUP5 PUSH1 0x40 MLOAD PUSH1 0x20 ADD PUSH2 0x9A6 SWAP3 SWAP2 SWAP1 PUSH2 0x1BCB JUMP JUMPDEST PUSH1 0x40 MLOAD PUSH1 0x20 DUP2 DUP4 SUB SUB DUP2 MSTORE SWAP1 PUSH1 0x40 MSTORE DUP1 MLOAD SWAP1 PUSH1 0x20 ADD KECCAK256 PUSH2 0xE31 JUMP JUMPDEST SWAP1 POP PUSH0 PUSH2 0x9CE DUP3 DUP5 PUSH2 0xE4A JUMP JUMPDEST SWAP1 POP CALLER PUSH20 0xFFFFFFFFFFFFFFFFFFFFFFFFFFFFFFFFFFFFFFFF AND DUP2 PUSH20 0xFFFFFFFFFFFFFFFFFFFFFFFFFFFFFFFFFFFFFFFF AND EQ PUSH2 0xA3E JUMPI PUSH1 0x40 MLOAD PUSH32 0x8C379A000000000000000000000000000000000000000000000000000000000 DUP2 MSTORE PUSH1 0x4 ADD PUSH2 0xA35 SWAP1 PUSH2 0x1C62 JUMP JUMPDEST PUSH1 0x40 MLOAD DUP1 SWAP2 SUB SWAP1 REVERT JUMPDEST PUSH0 PUSH2 0xA48 DUP13 PUSH2 0xF5B JUMP JUMPDEST SWAP1 POP PUSH0 PUSH2 0xA5A DUP3 PUSH1 0x60 ADD MLOAD DUP14 PUSH0 PUSH2 0xF1F JUMP JUMPDEST SWAP1 POP DUP1 SWAP9 POP POP POP POP POP POP POP POP POP SWAP5 SWAP4 POP POP POP POP JUMP JUMPDEST PUSH0 PUSH1 0x60 DUP1 PUSH0 DUP1 PUSH0 PUSH1 0x60 PUSH2 0xA80 PUSH2 0x1003 JUMP JUMPDEST PUSH2 0xA88 PUSH2 0x103D JUMP JUMPDEST CHAINID ADDRESS PUSH0 DUP1 SHL PUSH0 PUSH8 0xFFFFFFFFFFFFFFFF DUP2 GT ISZERO PUSH2 0xAA7 JUMPI PUSH2 0xAA6 PUSH2 0x1C80 JUMP JUMPDEST JUMPDEST PUSH1 0x40 MLOAD SWAP1 DUP1 DUP3 MSTORE DUP1 PUSH1 0x20 MUL PUSH1 0x20 ADD DUP3 ADD PUSH1 0x40 MSTORE DUP1 ISZERO PUSH2 0xAD5 JUMPI DUP2 PUSH1 0x20 ADD PUSH1 0x20 DUP3 MUL DUP1 CALLDATASIZE DUP4 CALLDATACOPY DUP1 DUP3 ADD SWAP2 POP POP SWAP1 POP JUMPDEST POP PUSH32 0xF00000000000000000000000000000000000000000000000000000000000000 SWAP6 SWAP5 SWAP4 SWAP3 SWAP2 SWAP1 SWAP7 POP SWAP7 POP SWAP7 POP SWAP7 POP SWAP7 POP SWAP7 POP SWAP7 POP SWAP1 SWAP2 SWAP3 SWAP4 SWAP5 SWAP6 SWAP7 JUMP JUMPDEST PUSH1 0x60 DUP5 PUSH0 PUSH2 0xB21 DUP3 PUSH2 0xF5B JUMP JUMPDEST SWAP1 POP DUP1 PUSH1 0x20 ADD MLOAD PUSH20 0xFFFFFFFFFFFFFFFFFFFFFFFFFFFFFFFFFFFFFFFF AND CALLER PUSH20 0xFFFFFFFFFFFFFFFFFFFFFFFFFFFFFFFFFFFFFFFF AND EQ PUSH2 0xB5E JUMPI PUSH0 DUP1 REVERT JUMPDEST DUP6 DUP6 DUP6 DUP1 DUP1 PUSH1 0x1F ADD PUSH1 0x20 DUP1 SWAP2 DIV MUL PUSH1 0x20 ADD PUSH1 0x40 MLOAD SWAP1 DUP2 ADD PUSH1 0x40 MSTORE DUP1 SWAP4 SWAP3 SWAP2 SWAP1 DUP2 DUP2 MSTORE PUSH1 0x20 ADD DUP4 DUP4 DUP1 DUP3 DUP5 CALLDATACOPY PUSH0 DUP2 DUP5 ADD MSTORE PUSH1 0x1F NOT PUSH1 0x1F DUP3 ADD AND SWAP1 POP DUP1 DUP4 ADD SWAP3 POP POP POP POP POP POP POP PUSH0 PUSH2 0xBF5 PUSH32 0x51D137AE0E1FAE6E3B6559FED4442B35A85A9A39789838AD5C9EA05E7DA2DCE DUP5 PUSH1 0x40 MLOAD PUSH1 0x20 ADD PUSH2 0xBDA SWAP3 SWAP2 SWAP1 PUSH2 0x1BCB JUMP JUMPDEST PUSH1 0x40 MLOAD PUSH1 0x20 DUP2 DUP4 SUB SUB DUP2 MSTORE SWAP1 PUSH1 0x40 MSTORE DUP1 MLOAD SWAP1 PUSH1 0x20 ADD KECCAK256 PUSH2 0xE31 JUMP JUMPDEST SWAP1 POP PUSH0 PUSH2 0xC02 DUP3 DUP5 PUSH2 0xE4A JUMP JUMPDEST SWAP1 POP CALLER PUSH20 0xFFFFFFFFFFFFFFFFFFFFFFFFFFFFFFFFFFFFFFFF AND DUP2 PUSH20 0xFFFFFFFFFFFFFFFFFFFFFFFFFFFFFFFFFFFFFFFF AND EQ PUSH2 0xC72 JUMPI PUSH1 0x40 MLOAD PUSH32 0x8C379A000000000000000000000000000000000000000000000000000000000 DUP2 MSTORE PUSH1 0x4 ADD PUSH2 0xC69 SWAP1 PUSH2 0x1C62 JUMP JUMPDEST PUSH1 0x40 MLOAD DUP1 SWAP2 SUB SWAP1 REVERT JUMPDEST PUSH0 PUSH2 0xC7C DUP13 PUSH2 0xF5B JUMP JUMPDEST SWAP1 POP PUSH0 PUSH2 0xC8D DUP3 PUSH0 ADD MLOAD DUP14 PUSH0 PUSH2 0xF1F JUMP JUMPDEST SWAP1 POP DUP1 SWAP9 POP POP POP POP POP POP POP POP POP SWAP5 SWAP4 POP POP POP POP JUMP JUMPDEST PUSH1 0x60 DUP5 PUSH0 PUSH2 0xCAF DUP3 PUSH2 0xF5B JUMP JUMPDEST SWAP1 POP DUP1 PUSH1 0x20 ADD MLOAD PUSH20 0xFFFFFFFFFFFFFFFFFFFFFFFFFFFFFFFFFFFFFFFF AND CALLER PUSH20 0xFFFFFFFFFFFFFFFFFFFFFFFFFFFFFFFFFFFFFFFF AND EQ PUSH2 0xCEC JUMPI PUSH0 DUP1 REVERT JUMPDEST DUP6 DUP6 DUP6 DUP1 DUP1 PUSH1 0x1F ADD PUSH1 0x20 DUP1 SWAP2 DIV MUL PUSH1 0x20 ADD PUSH1 0x40 MLOAD SWAP1 DUP2 ADD PUSH1 0x40 MSTORE DUP1 SWAP4 SWAP3 SWAP2 SWAP1 DUP2 DUP2 MSTORE PUSH1 0x20 ADD DUP4 DUP4 DUP1 DUP3 DUP5 CALLDATACOPY PUSH0 DUP2 DUP5 ADD MSTORE PUSH1 0x1F NOT PUSH1 0x1F DUP3 ADD AND SWAP1 POP DUP1 DUP4 ADD SWAP3 POP POP POP POP POP POP POP PUSH0 PUSH2 0xD83 PUSH32 0x51D137AE0E1FAE6E3B6559FED4442B35A85A9A39789838AD5C9EA05E7DA2DCE DUP5 PUSH1 0x40 MLOAD PUSH1 0x20 ADD PUSH2 0xD68 SWAP3 SWAP2 SWAP1 PUSH2 0x1BCB JUMP JUMPDEST PUSH1 0x40 MLOAD PUSH1 0x20 DUP2 DUP4 SUB SUB DUP2 MSTORE SWAP1 PUSH1 0x40 MSTORE DUP1 MLOAD SWAP1 PUSH1 0x20 ADD KECCAK256 PUSH2 0xE31 JUMP JUMPDEST SWAP1 POP PUSH0 PUSH2 0xD90 DUP3 DUP5 PUSH2 0xE4A JUMP JUMPDEST SWAP1 POP CALLER PUSH20 0xFFFFFFFFFFFFFFFFFFFFFFFFFFFFFFFFFFFFFFFF AND DUP2 PUSH20 0xFFFFFFFFFFFFFFFFFFFFFFFFFFFFFFFFFFFFFFFF AND EQ PUSH2 0xE00 JUMPI PUSH1 0x40 MLOAD PUSH32 0x8C379A000000000000000000000000000000000000000000000000000000000 DUP2 MSTORE PUSH1 0x4 ADD PUSH2 0xDF7 SWAP1 PUSH2 0x1C62 JUMP JUMPDEST PUSH1 0x40 MLOAD DUP1 SWAP2 SUB SWAP1 REVERT JUMPDEST PUSH0 PUSH2 0xE0A DUP13 PUSH2 0xF5B JUMP JUMPDEST SWAP1 POP PUSH0 PUSH2 0xE1C DUP3 PUSH1 0x80 ADD MLOAD DUP14 PUSH0 PUSH2 0xF1F JUMP JUMPDEST SWAP1 POP DUP1 SWAP9 POP POP POP POP POP POP POP POP POP SWAP5 SWAP4 POP POP POP POP JUMP JUMPDEST PUSH0 PUSH2 0xE43 PUSH2 0xE3D PUSH2 0x1078 JUMP JUMPDEST DUP4 PUSH2 0x112E JUMP JUMPDEST SWAP1 POP SWAP2 SWAP1 POP JUMP JUMPDEST PUSH0 DUP1 PUSH0 DUP1 PUSH2 0xE58 DUP7 DUP7 PUSH2 0x116E JUMP JUMPDEST SWAP3 POP SWAP3 POP SWAP3 POP PUSH2 0xE68 DUP3 DUP3 PUSH2 0x11C3 JUMP JUMPDEST DUP3 SWAP4 POP POP POP POP SWAP3 SWAP2 POP POP JUMP JUMPDEST PUSH2 0xE7C PUSH2 0x1732 JUMP JUMPDEST PUSH1 0x2 PUSH0 SWAP1 SLOAD SWAP1 PUSH2 0x100 EXP SWAP1 DIV PUSH20 0xFFFFFFFFFFFFFFFFFFFFFFFFFFFFFFFFFFFFFFFF AND PUSH20 0xFFFFFFFFFFFFFFFFFFFFFFFFFFFFFFFFFFFFFFFF AND PUSH4 0x80DC8AE8 DUP5 DUP5 PUSH1 0x40 MLOAD DUP4 PUSH4 0xFFFFFFFF AND PUSH1 0xE0 SHL DUP2 MSTORE PUSH1 0x4 ADD PUSH2 0xED8 SWAP3 SWAP2 SWAP1 PUSH2 0x1CAD JUMP JUMPDEST PUSH1 0xE0 PUSH1 0x40 MLOAD DUP1 DUP4 SUB DUP2 DUP7 GAS STATICCALL ISZERO DUP1 ISZERO PUSH2 0xEF3 JUMPI RETURNDATASIZE PUSH0 DUP1 RETURNDATACOPY RETURNDATASIZE PUSH0 REVERT JUMPDEST POP POP POP POP PUSH1 0x40 MLOAD RETURNDATASIZE PUSH1 0x1F NOT PUSH1 0x1F DUP3 ADD AND DUP3 ADD DUP1 PUSH1 0x40 MSTORE POP DUP2 ADD SWAP1 PUSH2 0xF17 SWAP2 SWAP1 PUSH2 0x1E8B JUMP JUMPDEST SWAP1 POP SWAP3 SWAP2 POP POP JUMP JUMPDEST PUSH1 0x60 PUSH0 DUP5 EQ PUSH2 0xF39 JUMPI PUSH2 0xF32 DUP5 DUP5 PUSH2 0x1325 JUMP JUMPDEST SWAP1 POP PUSH2 0xF54 JUMP JUMPDEST PUSH2 0xF51 PUSH2 0xF4B DUP4 PUSH4 0xFFFFFFFF AND PUSH2 0x13AF JUMP JUMPDEST DUP5 PUSH2 0x1325 JUMP JUMPDEST SWAP1 POP JUMPDEST SWAP4 SWAP3 POP POP POP JUMP JUMPDEST PUSH2 0xF63 PUSH2 0x1784 JUMP JUMPDEST PUSH1 0x2 PUSH0 SWAP1 SLOAD SWAP1 PUSH2 0x100 EXP SWAP1 DIV PUSH20 0xFFFFFFFFFFFFFFFFFFFFFFFFFFFFFFFFFFFFFFFF AND PUSH20 0xFFFFFFFFFFFFFFFFFFFFFFFFFFFFFFFFFFFFFFFF AND PUSH4 0x30F37B44 DUP4 PUSH1 0x40 MLOAD DUP3 PUSH4 0xFFFFFFFF AND PUSH1 0xE0 SHL DUP2 MSTORE PUSH1 0x4 ADD PUSH2 0xFBD SWAP2 SWAP1 PUSH2 0x1EB6 JUMP JUMPDEST PUSH1 0xC0 PUSH1 0x40 MLOAD DUP1 DUP4 SUB DUP2 DUP7 GAS STATICCALL ISZERO DUP1 ISZERO PUSH2 0xFD8 JUMPI RETURNDATASIZE PUSH0 DUP1 RETURNDATACOPY RETURNDATASIZE PUSH0 REVERT JUMPDEST POP POP POP POP PUSH1 0x40 MLOAD RETURNDATASIZE PUSH1 0x1F NOT PUSH1 0x1F DUP3 ADD AND DUP3 ADD DUP1 PUSH1 0x40 MSTORE POP DUP2 ADD SWAP1 PUSH2 0xFFC SWAP2 SWAP1 PUSH2 0x1F6C JUMP JUMPDEST SWAP1 POP SWAP2 SWAP1 POP JUMP JUMPDEST PUSH1 0x60 PUSH2 0x1038 PUSH0 PUSH32 0x0 PUSH2 0x13C2 SWAP1 SWAP2 SWAP1 PUSH4 0xFFFFFFFF AND JUMP JUMPDEST SWAP1 POP SWAP1 JUMP JUMPDEST PUSH1 0x60 PUSH2 0x1073 PUSH1 0x1 PUSH32 0x0 PUSH2 0x13C2 SWAP1 SWAP2 SWAP1 PUSH4 0xFFFFFFFF AND JUMP JUMPDEST SWAP1 POP SWAP1 JUMP JUMPDEST PUSH0 PUSH32 0x0 PUSH20 0xFFFFFFFFFFFFFFFFFFFFFFFFFFFFFFFFFFFFFFFF AND ADDRESS PUSH20 0xFFFFFFFFFFFFFFFFFFFFFFFFFFFFFFFFFFFFFFFF AND EQ DUP1 ISZERO PUSH2 0x10F3 JUMPI POP PUSH32 0x0 CHAINID EQ JUMPDEST ISZERO PUSH2 0x1120 JUMPI PUSH32 0x0 SWAP1 POP PUSH2 0x112B JUMP JUMPDEST PUSH2 0x1128 PUSH2 0x146F JUMP JUMPDEST SWAP1 POP JUMPDEST SWAP1 JUMP JUMPDEST PUSH0 PUSH1 0x40 MLOAD PUSH32 0x1901000000000000000000000000000000000000000000000000000000000000 DUP2 MSTORE DUP4 PUSH1 0x2 DUP3 ADD MSTORE DUP3 PUSH1 0x22 DUP3 ADD MSTORE PUSH1 0x42 DUP2 KECCAK256 SWAP2 POP POP SWAP3 SWAP2 POP POP JUMP JUMPDEST PUSH0 DUP1 PUSH0 PUSH1 0x41 DUP5 MLOAD SUB PUSH2 0x11AE JUMPI PUSH0 DUP1 PUSH0 PUSH1 0x20 DUP8 ADD MLOAD SWAP3 POP PUSH1 0x40 DUP8 ADD MLOAD SWAP2 POP PUSH1 0x60 DUP8 ADD MLOAD PUSH0 BYTE SWAP1 POP PUSH2 0x11A0 DUP9 DUP3 DUP6 DUP6 PUSH2 0x1504 JUMP JUMPDEST SWAP6 POP SWAP6 POP SWAP6 POP POP POP POP PUSH2 0x11BC JUMP JUMPDEST PUSH0 PUSH1 0x2 DUP6 MLOAD PUSH0 SHL SWAP3 POP SWAP3 POP SWAP3 POP JUMPDEST SWAP3 POP SWAP3 POP SWAP3 JUMP JUMPDEST PUSH0 PUSH1 0x3 DUP2 GT ISZERO PUSH2 0x11D6 JUMPI PUSH2 0x11D5 PUSH2 0x1F97 JUMP JUMPDEST JUMPDEST DUP3 PUSH1 0x3 DUP2 GT ISZERO PUSH2 0x11E9 JUMPI PUSH2 0x11E8 PUSH2 0x1F97 JUMP JUMPDEST JUMPDEST SUB ISZERO PUSH2 0x1321 JUMPI PUSH1 0x1 PUSH1 0x3 DUP2 GT ISZERO PUSH2 0x1203 JUMPI PUSH2 0x1202 PUSH2 0x1F97 JUMP JUMPDEST JUMPDEST DUP3 PUSH1 0x3 DUP2 GT ISZERO PUSH2 0x1216 JUMPI PUSH2 0x1215 PUSH2 0x1F97 JUMP JUMPDEST JUMPDEST SUB PUSH2 0x124D JUMPI PUSH1 0x40 MLOAD PUSH32 0xF645EEDF00000000000000000000000000000000000000000000000000000000 DUP2 MSTORE PUSH1 0x4 ADD PUSH1 0x40 MLOAD DUP1 SWAP2 SUB SWAP1 REVERT JUMPDEST PUSH1 0x2 PUSH1 0x3 DUP2 GT ISZERO PUSH2 0x1261 JUMPI PUSH2 0x1260 PUSH2 0x1F97 JUMP JUMPDEST JUMPDEST DUP3 PUSH1 0x3 DUP2 GT ISZERO PUSH2 0x1274 JUMPI PUSH2 0x1273 PUSH2 0x1F97 JUMP JUMPDEST JUMPDEST SUB PUSH2 0x12B8 JUMPI DUP1 PUSH0 SHR PUSH1 0x40 MLOAD PUSH32 0xFCE698F700000000000000000000000000000000000000000000000000000000 DUP2 MSTORE PUSH1 0x4 ADD PUSH2 0x12AF SWAP2 SWAP1 PUSH2 0x1FC4 JUMP JUMPDEST PUSH1 0x40 MLOAD DUP1 SWAP2 SUB SWAP1 REVERT JUMPDEST PUSH1 0x3 DUP1 DUP2 GT ISZERO PUSH2 0x12CB JUMPI PUSH2 0x12CA PUSH2 0x1F97 JUMP JUMPDEST JUMPDEST DUP3 PUSH1 0x3 DUP2 GT ISZERO PUSH2 0x12DE JUMPI PUSH2 0x12DD PUSH2 0x1F97 JUMP JUMPDEST JUMPDEST SUB PUSH2 0x1320 JUMPI DUP1 PUSH1 0x40 MLOAD PUSH32 0xD78BCE0C00000000000000000000000000000000000000000000000000000000 DUP2 MSTORE PUSH1 0x4 ADD PUSH2 0x1317 SWAP2 SWAP1 PUSH2 0x1EB6 JUMP JUMPDEST PUSH1 0x40 MLOAD DUP1 SWAP2 SUB SWAP1 REVERT JUMPDEST JUMPDEST POP POP JUMP JUMPDEST PUSH1 0x60 PUSH1 0x5D PUSH20 0xFFFFFFFFFFFFFFFFFFFFFFFFFFFFFFFFFFFFFFFF AND PUSH4 0xD6AD57CD DUP5 DUP5 PUSH0 SHR PUSH1 0x40 MLOAD DUP4 PUSH4 0xFFFFFFFF AND PUSH1 0xE0 SHL DUP2 MSTORE PUSH1 0x4 ADD PUSH2 0x1365 SWAP3 SWAP2 SWAP1 PUSH2 0x1FDD JUMP JUMPDEST PUSH0 PUSH1 0x40 MLOAD DUP1 DUP4 SUB DUP2 DUP7 GAS STATICCALL ISZERO DUP1 ISZERO PUSH2 0x137F JUMPI RETURNDATASIZE PUSH0 DUP1 RETURNDATACOPY RETURNDATASIZE PUSH0 REVERT JUMPDEST POP POP POP POP PUSH1 0x40 MLOAD RETURNDATASIZE PUSH0 DUP3 RETURNDATACOPY RETURNDATASIZE PUSH1 0x1F NOT PUSH1 0x1F DUP3 ADD AND DUP3 ADD DUP1 PUSH1 0x40 MSTORE POP DUP2 ADD SWAP1 PUSH2 0x13A7 SWAP2 SWAP1 PUSH2 0x20A6 JUMP JUMPDEST SWAP1 POP SWAP3 SWAP2 POP POP JUMP JUMPDEST PUSH0 PUSH2 0x13BB DUP3 PUSH1 0x2 PUSH2 0x15EB JUMP JUMPDEST SWAP1 POP SWAP2 SWAP1 POP JUMP JUMPDEST PUSH1 0x60 PUSH1 0xFF PUSH0 SHL DUP4 EQ PUSH2 0x13DE JUMPI PUSH2 0x13D7 DUP4 PUSH2 0x1672 JUMP JUMPDEST SWAP1 POP PUSH2 0x1469 JUMP JUMPDEST DUP2 DUP1 SLOAD PUSH2 0x13EA SWAP1 PUSH2 0x211A JUMP JUMPDEST DUP1 PUSH1 0x1F ADD PUSH1 0x20 DUP1 SWAP2 DIV MUL PUSH1 0x20 ADD PUSH1 0x40 MLOAD SWAP1 DUP2 ADD PUSH1 0x40 MSTORE DUP1 SWAP3 SWAP2 SWAP1 DUP2 DUP2 MSTORE PUSH1 0x20 ADD DUP3 DUP1 SLOAD PUSH2 0x1416 SWAP1 PUSH2 0x211A JUMP JUMPDEST DUP1 ISZERO PUSH2 0x1461 JUMPI DUP1 PUSH1 0x1F LT PUSH2 0x1438 JUMPI PUSH2 0x100 DUP1 DUP4 SLOAD DIV MUL DUP4 MSTORE SWAP2 PUSH1 0x20 ADD SWAP2 PUSH2 0x1461 JUMP JUMPDEST DUP3 ADD SWAP2 SWAP1 PUSH0 MSTORE PUSH1 0x20 PUSH0 KECCAK256 SWAP1 JUMPDEST DUP2 SLOAD DUP2 MSTORE SWAP1 PUSH1 0x1 ADD SWAP1 PUSH1 0x20 ADD DUP1 DUP4 GT PUSH2 0x1444 JUMPI DUP3 SWAP1 SUB PUSH1 0x1F AND DUP3 ADD SWAP2 JUMPDEST POP POP POP POP POP SWAP1 POP JUMPDEST SWAP3 SWAP2 POP POP JUMP JUMPDEST PUSH0 PUSH32 0x8B73C3C69BB8FE3D512ECC4CF759CC79239F7B179B0FFACAA9A75D522B39400F PUSH32 0x0 PUSH32 0x0 CHAINID ADDRESS PUSH1 0x40 MLOAD PUSH1 0x20 ADD PUSH2 0x14E9 SWAP6 SWAP5 SWAP4 SWAP3 SWAP2 SWAP1 PUSH2 0x214A JUMP JUMPDEST PUSH1 0x40 MLOAD PUSH1 0x20 DUP2 DUP4 SUB SUB DUP2 MSTORE SWAP1 PUSH1 0x40 MSTORE DUP1 MLOAD SWAP1 PUSH1 0x20 ADD KECCAK256 SWAP1 POP SWAP1 JUMP JUMPDEST PUSH0 DUP1 PUSH0 PUSH32 0x7FFFFFFFFFFFFFFFFFFFFFFFFFFFFFFF5D576E7357A4501DDFE92F46681B20A0 DUP5 PUSH0 SHR GT ISZERO PUSH2 0x1540 JUMPI PUSH0 PUSH1 0x3 DUP6 SWAP3 POP SWAP3 POP SWAP3 POP PUSH2 0x15E1 JUMP JUMPDEST PUSH0 PUSH1 0x1 DUP9 DUP9 DUP9 DUP9 PUSH1 0x40 MLOAD PUSH0 DUP2 MSTORE PUSH1 0x20 ADD PUSH1 0x40 MSTORE PUSH1 0x40 MLOAD PUSH2 0x1563 SWAP5 SWAP4 SWAP3 SWAP2 SWAP1 PUSH2 0x21B6 JUMP JUMPDEST PUSH1 0x20 PUSH1 0x40 MLOAD PUSH1 0x20 DUP2 SUB SWAP1 DUP1 DUP5 SUB SWAP1 DUP6 GAS STATICCALL ISZERO DUP1 ISZERO PUSH2 0x1583 JUMPI RETURNDATASIZE PUSH0 DUP1 RETURNDATACOPY RETURNDATASIZE PUSH0 REVERT JUMPDEST POP POP POP PUSH1 0x20 PUSH1 0x40 MLOAD SUB MLOAD SWAP1 POP PUSH0 PUSH20 0xFFFFFFFFFFFFFFFFFFFFFFFFFFFFFFFFFFFFFFFF AND DUP2 PUSH20 0xFFFFFFFFFFFFFFFFFFFFFFFFFFFFFFFFFFFFFFFF AND SUB PUSH2 0x15D4 JUMPI PUSH0 PUSH1 0x1 PUSH0 DUP1 SHL SWAP4 POP SWAP4 POP SWAP4 POP POP PUSH2 0x15E1 JUMP JUMPDEST DUP1 PUSH0 DUP1 PUSH0 SHL SWAP4 POP SWAP4 POP SWAP4 POP POP JUMPDEST SWAP5 POP SWAP5 POP SWAP5 SWAP2 POP POP JUMP JUMPDEST PUSH0 PUSH1 0x5D PUSH20 0xFFFFFFFFFFFFFFFFFFFFFFFFFFFFFFFFFFFFFFFF AND PUSH4 0xE71746B8 DUP5 DUP5 PUSH1 0xF8 SHL PUSH1 0x40 MLOAD DUP4 PUSH4 0xFFFFFFFF AND PUSH1 0xE0 SHL DUP2 MSTORE PUSH1 0x4 ADD PUSH2 0x162B SWAP3 SWAP2 SWAP1 PUSH2 0x21F9 JUMP JUMPDEST PUSH1 0x20 PUSH1 0x40 MLOAD DUP1 DUP4 SUB DUP2 DUP7 GAS STATICCALL ISZERO DUP1 ISZERO PUSH2 0x1646 JUMPI RETURNDATASIZE PUSH0 DUP1 RETURNDATACOPY RETURNDATASIZE PUSH0 REVERT JUMPDEST POP POP POP POP PUSH1 0x40 MLOAD RETURNDATASIZE PUSH1 0x1F NOT PUSH1 0x1F DUP3 ADD AND DUP3 ADD DUP1 PUSH1 0x40 MSTORE POP DUP2 ADD SWAP1 PUSH2 0x166A SWAP2 SWAP1 PUSH2 0x224A JUMP JUMPDEST SWAP1 POP SWAP3 SWAP2 POP POP JUMP JUMPDEST PUSH1 0x60 PUSH0 PUSH2 0x167E DUP4 PUSH2 0x16E4 JUMP JUMPDEST SWAP1 POP PUSH0 PUSH1 0x20 PUSH8 0xFFFFFFFFFFFFFFFF DUP2 GT ISZERO PUSH2 0x169C JUMPI PUSH2 0x169B PUSH2 0x1C80 JUMP JUMPDEST JUMPDEST PUSH1 0x40 MLOAD SWAP1 DUP1 DUP3 MSTORE DUP1 PUSH1 0x1F ADD PUSH1 0x1F NOT AND PUSH1 0x20 ADD DUP3 ADD PUSH1 0x40 MSTORE DUP1 ISZERO PUSH2 0x16CE JUMPI DUP2 PUSH1 0x20 ADD PUSH1 0x1 DUP3 MUL DUP1 CALLDATASIZE DUP4 CALLDATACOPY DUP1 DUP3 ADD SWAP2 POP POP SWAP1 POP JUMPDEST POP SWAP1 POP DUP2 DUP2 MSTORE DUP4 PUSH1 0x20 DUP3 ADD MSTORE DUP1 SWAP3 POP POP POP SWAP2 SWAP1 POP JUMP JUMPDEST PUSH0 DUP1 PUSH1 0xFF DUP4 PUSH0 SHR AND SWAP1 POP PUSH1 0x1F DUP2 GT ISZERO PUSH2 0x1729 JUMPI PUSH1 0x40 MLOAD PUSH32 0xB3512B0C00000000000000000000000000000000000000000000000000000000 DUP2 MSTORE PUSH1 0x4 ADD PUSH1 0x40 MLOAD DUP1 SWAP2 SUB SWAP1 REVERT JUMPDEST DUP1 SWAP2 POP POP SWAP2 SWAP1 POP JUMP JUMPDEST PUSH1 0x40 MLOAD DUP1 PUSH1 0xE0 ADD PUSH1 0x40 MSTORE DUP1 PUSH0 PUSH20 0xFFFFFFFFFFFFFFFFFFFFFFFFFFFFFFFFFFFFFFFF AND DUP2 MSTORE PUSH1 0x20 ADD PUSH0 DUP2 MSTORE PUSH1 0x20 ADD PUSH0 DUP2 MSTORE PUSH1 0x20 ADD PUSH0 DUP2 MSTORE PUSH1 0x20 ADD PUSH0 DUP2 MSTORE PUSH1 0x20 ADD PUSH0 PUSH4 0xFFFFFFFF AND DUP2 MSTORE PUSH1 0x20 ADD PUSH0 DUP2 MSTORE POP SWAP1 JUMP JUMPDEST PUSH1 0x40 MLOAD DUP1 PUSH1 0xC0 ADD PUSH1 0x40 MSTORE DUP1 PUSH0 DUP2 MSTORE PUSH1 0x20 ADD PUSH0 PUSH20 0xFFFFFFFFFFFFFFFFFFFFFFFFFFFFFFFFFFFFFFFF AND DUP2 MSTORE PUSH1 0x20 ADD PUSH0 DUP2 MSTORE PUSH1 0x20 ADD PUSH0 DUP2 MSTORE PUSH1 0x20 ADD PUSH0 DUP2 MSTORE PUSH1 0x20 ADD PUSH0 PUSH20 0xFFFFFFFFFFFFFFFFFFFFFFFFFFFFFFFFFFFFFFFF AND DUP2 MSTORE POP SWAP1 JUMP JUMPDEST PUSH0 PUSH1 0x40 MLOAD SWAP1 POP SWAP1 JUMP JUMPDEST PUSH0 DUP1 REVERT JUMPDEST PUSH0 DUP1 REVERT JUMPDEST PUSH0 DUP2 SWAP1 POP SWAP2 SWAP1 POP JUMP JUMPDEST PUSH2 0x1803 DUP2 PUSH2 0x17F1 JUMP JUMPDEST DUP2 EQ PUSH2 0x180D JUMPI PUSH0 DUP1 REVERT JUMPDEST POP JUMP JUMPDEST PUSH0 DUP2 CALLDATALOAD SWAP1 POP PUSH2 0x181E DUP2 PUSH2 0x17FA JUMP JUMPDEST SWAP3 SWAP2 POP POP JUMP JUMPDEST PUSH0 DUP1 REVERT JUMPDEST PUSH0 DUP1 REVERT JUMPDEST PUSH0 DUP1 REVERT JUMPDEST PUSH0 DUP1 DUP4 PUSH1 0x1F DUP5 ADD SLT PUSH2 0x1845 JUMPI PUSH2 0x1844 PUSH2 0x1824 JUMP JUMPDEST JUMPDEST DUP3 CALLDATALOAD SWAP1 POP PUSH8 0xFFFFFFFFFFFFFFFF DUP2 GT ISZERO PUSH2 0x1862 JUMPI PUSH2 0x1861 PUSH2 0x1828 JUMP JUMPDEST JUMPDEST PUSH1 0x20 DUP4 ADD SWAP2 POP DUP4 PUSH1 0x1 DUP3 MUL DUP4 ADD GT ISZERO PUSH2 0x187E JUMPI PUSH2 0x187D PUSH2 0x182C JUMP JUMPDEST JUMPDEST SWAP3 POP SWAP3 SWAP1 POP JUMP JUMPDEST PUSH0 DUP1 PUSH0 DUP1 PUSH1 0x60 DUP6 DUP8 SUB SLT ISZERO PUSH2 0x189D JUMPI PUSH2 0x189C PUSH2 0x17E9 JUMP JUMPDEST JUMPDEST PUSH0 PUSH2 0x18AA DUP8 DUP3 DUP9 ADD PUSH2 0x1810 JUMP JUMPDEST SWAP5 POP POP PUSH1 0x20 PUSH2 0x18BB DUP8 DUP3 DUP9 ADD PUSH2 0x1810 JUMP JUMPDEST SWAP4 POP POP PUSH1 0x40 DUP6 ADD CALLDATALOAD PUSH8 0xFFFFFFFFFFFFFFFF DUP2 GT ISZERO PUSH2 0x18DC JUMPI PUSH2 0x18DB PUSH2 0x17ED JUMP JUMPDEST JUMPDEST PUSH2 0x18E8 DUP8 DUP3 DUP9 ADD PUSH2 0x1830 JUMP JUMPDEST SWAP3 POP SWAP3 POP POP SWAP3 SWAP6 SWAP2 SWAP5 POP SWAP3 POP JUMP JUMPDEST PUSH0 DUP2 MLOAD SWAP1 POP SWAP2 SWAP1 POP JUMP JUMPDEST PUSH0 DUP3 DUP3 MSTORE PUSH1 0x20 DUP3 ADD SWAP1 POP SWAP3 SWAP2 POP POP JUMP JUMPDEST PUSH0 JUMPDEST DUP4 DUP2 LT ISZERO PUSH2 0x192D JUMPI DUP1 DUP3 ADD MLOAD DUP2 DUP5 ADD MSTORE PUSH1 0x20 DUP2 ADD SWAP1 POP PUSH2 0x1912 JUMP JUMPDEST PUSH0 DUP5 DUP5 ADD MSTORE POP POP POP POP JUMP JUMPDEST PUSH0 PUSH1 0x1F NOT PUSH1 0x1F DUP4 ADD AND SWAP1 POP SWAP2 SWAP1 POP JUMP JUMPDEST PUSH0 PUSH2 0x1952 DUP3 PUSH2 0x18F6 JUMP JUMPDEST PUSH2 0x195C DUP2 DUP6 PUSH2 0x1900 JUMP JUMPDEST SWAP4 POP PUSH2 0x196C DUP2 DUP6 PUSH1 0x20 DUP7 ADD PUSH2 0x1910 JUMP JUMPDEST PUSH2 0x1975 DUP2 PUSH2 0x1938 JUMP JUMPDEST DUP5 ADD SWAP2 POP POP SWAP3 SWAP2 POP POP JUMP JUMPDEST PUSH0 PUSH1 0x20 DUP3 ADD SWAP1 POP DUP2 DUP2 SUB PUSH0 DUP4 ADD MSTORE PUSH2 0x1998 DUP2 DUP5 PUSH2 0x1948 JUMP JUMPDEST SWAP1 POP SWAP3 SWAP2 POP POP JUMP JUMPDEST PUSH0 PUSH32 0xFF00000000000000000000000000000000000000000000000000000000000000 DUP3 AND SWAP1 POP SWAP2 SWAP1 POP JUMP JUMPDEST PUSH2 0x19D4 DUP2 PUSH2 0x19A0 JUMP JUMPDEST DUP3 MSTORE POP POP JUMP JUMPDEST PUSH0 DUP2 MLOAD SWAP1 POP SWAP2 SWAP1 POP JUMP JUMPDEST PUSH0 DUP3 DUP3 MSTORE PUSH1 0x20 DUP3 ADD SWAP1 POP SWAP3 SWAP2 POP POP JUMP JUMPDEST PUSH0 PUSH2 0x19FE DUP3 PUSH2 0x19DA JUMP JUMPDEST PUSH2 0x1A08 DUP2 DUP6 PUSH2 0x19E4 JUMP JUMPDEST SWAP4 POP PUSH2 0x1A18 DUP2 DUP6 PUSH1 0x20 DUP7 ADD PUSH2 0x1910 JUMP JUMPDEST PUSH2 0x1A21 DUP2 PUSH2 0x1938 JUMP JUMPDEST DUP5 ADD SWAP2 POP POP SWAP3 SWAP2 POP POP JUMP JUMPDEST PUSH0 DUP2 SWAP1 POP SWAP2 SWAP1 POP JUMP JUMPDEST PUSH2 0x1A3E DUP2 PUSH2 0x1A2C JUMP JUMPDEST DUP3 MSTORE POP POP JUMP JUMPDEST PUSH0 PUSH20 0xFFFFFFFFFFFFFFFFFFFFFFFFFFFFFFFFFFFFFFFF DUP3 AND SWAP1 POP SWAP2 SWAP1 POP JUMP JUMPDEST PUSH0 PUSH2 0x1A6D DUP3 PUSH2 0x1A44 JUMP JUMPDEST SWAP1 POP SWAP2 SWAP1 POP JUMP JUMPDEST PUSH2 0x1A7D DUP2 PUSH2 0x1A63 JUMP JUMPDEST DUP3 MSTORE POP POP JUMP JUMPDEST PUSH2 0x1A8C DUP2 PUSH2 0x17F1 JUMP JUMPDEST DUP3 MSTORE POP POP JUMP JUMPDEST PUSH0 DUP2 MLOAD SWAP1 POP SWAP2 SWAP1 POP JUMP JUMPDEST PUSH0 DUP3 DUP3 MSTORE PUSH1 0x20 DUP3 ADD SWAP1 POP SWAP3 SWAP2 POP POP JUMP JUMPDEST PUSH0 DUP2 SWAP1 POP PUSH1 0x20 DUP3 ADD SWAP1 POP SWAP2 SWAP1 POP JUMP JUMPDEST PUSH2 0x1AC4 DUP2 PUSH2 0x1A2C JUMP JUMPDEST DUP3 MSTORE POP POP JUMP JUMPDEST PUSH0 PUSH2 0x1AD5 DUP4 DUP4 PUSH2 0x1ABB JUMP JUMPDEST PUSH1 0x20 DUP4 ADD SWAP1 POP SWAP3 SWAP2 POP POP JUMP JUMPDEST PUSH0 PUSH1 0x20 DUP3 ADD SWAP1 POP SWAP2 SWAP1 POP JUMP JUMPDEST PUSH0 PUSH2 0x1AF7 DUP3 PUSH2 0x1A92 JUMP JUMPDEST PUSH2 0x1B01 DUP2 DUP6 PUSH2 0x1A9C JUMP JUMPDEST SWAP4 POP PUSH2 0x1B0C DUP4 PUSH2 0x1AAC JUMP JUMPDEST DUP1 PUSH0 JUMPDEST DUP4 DUP2 LT ISZERO PUSH2 0x1B3C JUMPI DUP2 MLOAD PUSH2 0x1B23 DUP9 DUP3 PUSH2 0x1ACA JUMP JUMPDEST SWAP8 POP PUSH2 0x1B2E DUP4 PUSH2 0x1AE1 JUMP JUMPDEST SWAP3 POP POP PUSH1 0x1 DUP2 ADD SWAP1 POP PUSH2 0x1B0F JUMP JUMPDEST POP DUP6 SWAP4 POP POP POP POP SWAP3 SWAP2 POP POP JUMP JUMPDEST PUSH0 PUSH1 0xE0 DUP3 ADD SWAP1 POP PUSH2 0x1B5C PUSH0 DUP4 ADD DUP11 PUSH2 0x19CB JUMP JUMPDEST DUP2 DUP2 SUB PUSH1 0x20 DUP4 ADD MSTORE PUSH2 0x1B6E DUP2 DUP10 PUSH2 0x19F4 JUMP JUMPDEST SWAP1 POP DUP2 DUP2 SUB PUSH1 0x40 DUP4 ADD MSTORE PUSH2 0x1B82 DUP2 DUP9 PUSH2 0x19F4 JUMP JUMPDEST SWAP1 POP PUSH2 0x1B91 PUSH1 0x60 DUP4 ADD DUP8 PUSH2 0x1A35 JUMP JUMPDEST PUSH2 0x1B9E PUSH1 0x80 DUP4 ADD DUP7 PUSH2 0x1A74 JUMP JUMPDEST PUSH2 0x1BAB PUSH1 0xA0 DUP4 ADD DUP6 PUSH2 0x1A83 JUMP JUMPDEST DUP2 DUP2 SUB PUSH1 0xC0 DUP4 ADD MSTORE PUSH2 0x1BBD DUP2 DUP5 PUSH2 0x1AED JUMP JUMPDEST SWAP1 POP SWAP9 SWAP8 POP POP POP POP POP POP POP POP JUMP JUMPDEST PUSH0 PUSH1 0x40 DUP3 ADD SWAP1 POP PUSH2 0x1BDE PUSH0 DUP4 ADD DUP6 PUSH2 0x1A83 JUMP JUMPDEST PUSH2 0x1BEB PUSH1 0x20 DUP4 ADD DUP5 PUSH2 0x1A83 JUMP JUMPDEST SWAP4 SWAP3 POP POP POP JUMP JUMPDEST PUSH32 0x454950373132207369676E657220616E64207472616E73616374696F6E207369 PUSH0 DUP3 ADD MSTORE PUSH32 0x676E657220646F206E6F74206D61746368000000000000000000000000000000 PUSH1 0x20 DUP3 ADD MSTORE POP JUMP JUMPDEST PUSH0 PUSH2 0x1C4C PUSH1 0x31 DUP4 PUSH2 0x19E4 JUMP JUMPDEST SWAP2 POP PUSH2 0x1C57 DUP3 PUSH2 0x1BF2 JUMP JUMPDEST PUSH1 0x40 DUP3 ADD SWAP1 POP SWAP2 SWAP1 POP JUMP JUMPDEST PUSH0 PUSH1 0x20 DUP3 ADD SWAP1 POP DUP2 DUP2 SUB PUSH0 DUP4 ADD MSTORE PUSH2 0x1C79 DUP2 PUSH2 0x1C40 JUMP JUMPDEST SWAP1 POP SWAP2 SWAP1 POP JUMP JUMPDEST PUSH32 0x4E487B7100000000000000000000000000000000000000000000000000000000 PUSH0 MSTORE PUSH1 0x41 PUSH1 0x4 MSTORE PUSH1 0x24 PUSH0 REVERT JUMPDEST PUSH0 PUSH1 0x40 DUP3 ADD SWAP1 POP PUSH2 0x1CC0 PUSH0 DUP4 ADD DUP6 PUSH2 0x1A83 JUMP JUMPDEST PUSH2 0x1CCD PUSH1 0x20 DUP4 ADD DUP5 PUSH2 0x1A74 JUMP JUMPDEST SWAP4 SWAP3 POP POP POP JUMP JUMPDEST PUSH0 DUP1 REVERT JUMPDEST PUSH2 0x1CE1 DUP3 PUSH2 0x1938 JUMP JUMPDEST DUP2 ADD DUP2 DUP2 LT PUSH8 0xFFFFFFFFFFFFFFFF DUP3 GT OR ISZERO PUSH2 0x1D00 JUMPI PUSH2 0x1CFF PUSH2 0x1C80 JUMP JUMPDEST JUMPDEST DUP1 PUSH1 0x40 MSTORE POP POP POP JUMP JUMPDEST PUSH0 PUSH2 0x1D12 PUSH2 0x17E0 JUMP JUMPDEST SWAP1 POP PUSH2 0x1D1E DUP3 DUP3 PUSH2 0x1CD8 JUMP JUMPDEST SWAP2 SWAP1 POP JUMP JUMPDEST PUSH2 0x1D2C DUP2 PUSH2 0x1A63 JUMP JUMPDEST DUP2 EQ PUSH2 0x1D36 JUMPI PUSH0 DUP1 REVERT JUMPDEST POP JUMP JUMPDEST PUSH0 DUP2 MLOAD SWAP1 POP PUSH2 0x1D47 DUP2 PUSH2 0x1D23 JUMP JUMPDEST SWAP3 SWAP2 POP POP JUMP JUMPDEST PUSH2 0x1D56 DUP2 PUSH2 0x1A2C JUMP JUMPDEST DUP2 EQ PUSH2 0x1D60 JUMPI PUSH0 DUP1 REVERT JUMPDEST POP JUMP JUMPDEST PUSH0 DUP2 MLOAD SWAP1 POP PUSH2 0x1D71 DUP2 PUSH2 0x1D4D JUMP JUMPDEST SWAP3 SWAP2 POP POP JUMP JUMPDEST PUSH2 0x1D80 DUP2 PUSH2 0x1A2C JUMP JUMPDEST DUP2 EQ PUSH2 0x1D8A JUMPI PUSH0 DUP1 REVERT JUMPDEST POP JUMP JUMPDEST PUSH0 DUP2 MLOAD SWAP1 POP PUSH2 0x1D9B DUP2 PUSH2 0x1D77 JUMP JUMPDEST SWAP3 SWAP2 POP POP JUMP JUMPDEST PUSH0 PUSH4 0xFFFFFFFF DUP3 AND SWAP1 POP SWAP2 SWAP1 POP JUMP JUMPDEST PUSH2 0x1DB9 DUP2 PUSH2 0x1DA1 JUMP JUMPDEST DUP2 EQ PUSH2 0x1DC3 JUMPI PUSH0 DUP1 REVERT JUMPDEST POP JUMP JUMPDEST PUSH0 DUP2 MLOAD SWAP1 POP PUSH2 0x1DD4 DUP2 PUSH2 0x1DB0 JUMP JUMPDEST SWAP3 SWAP2 POP POP JUMP JUMPDEST PUSH0 PUSH1 0xE0 DUP3 DUP5 SUB SLT ISZERO PUSH2 0x1DEF JUMPI PUSH2 0x1DEE PUSH2 0x1CD4 JUMP JUMPDEST JUMPDEST PUSH2 0x1DF9 PUSH1 0xE0 PUSH2 0x1D09 JUMP JUMPDEST SWAP1 POP PUSH0 PUSH2 0x1E08 DUP5 DUP3 DUP6 ADD PUSH2 0x1D39 JUMP JUMPDEST PUSH0 DUP4 ADD MSTORE POP PUSH1 0x20 PUSH2 0x1E1B DUP5 DUP3 DUP6 ADD PUSH2 0x1D63 JUMP JUMPDEST PUSH1 0x20 DUP4 ADD MSTORE POP PUSH1 0x40 PUSH2 0x1E2F DUP5 DUP3 DUP6 ADD PUSH2 0x1D63 JUMP JUMPDEST PUSH1 0x40 DUP4 ADD MSTORE POP PUSH1 0x60 PUSH2 0x1E43 DUP5 DUP3 DUP6 ADD PUSH2 0x1D63 JUMP JUMPDEST PUSH1 0x60 DUP4 ADD MSTORE POP PUSH1 0x80 PUSH2 0x1E57 DUP5 DUP3 DUP6 ADD PUSH2 0x1D8D JUMP JUMPDEST PUSH1 0x80 DUP4 ADD MSTORE POP PUSH1 0xA0 PUSH2 0x1E6B DUP5 DUP3 DUP6 ADD PUSH2 0x1DC6 JUMP JUMPDEST PUSH1 0xA0 DUP4 ADD MSTORE POP PUSH1 0xC0 PUSH2 0x1E7F DUP5 DUP3 DUP6 ADD PUSH2 0x1D63 JUMP JUMPDEST PUSH1 0xC0 DUP4 ADD MSTORE POP SWAP3 SWAP2 POP POP JUMP JUMPDEST PUSH0 PUSH1 0xE0 DUP3 DUP5 SUB SLT ISZERO PUSH2 0x1EA0 JUMPI PUSH2 0x1E9F PUSH2 0x17E9 JUMP JUMPDEST JUMPDEST PUSH0 PUSH2 0x1EAD DUP5 DUP3 DUP6 ADD PUSH2 0x1DDA JUMP JUMPDEST SWAP2 POP POP SWAP3 SWAP2 POP POP JUMP JUMPDEST PUSH0 PUSH1 0x20 DUP3 ADD SWAP1 POP PUSH2 0x1EC9 PUSH0 DUP4 ADD DUP5 PUSH2 0x1A83 JUMP JUMPDEST SWAP3 SWAP2 POP POP JUMP JUMPDEST PUSH0 PUSH1 0xC0 DUP3 DUP5 SUB SLT ISZERO PUSH2 0x1EE4 JUMPI PUSH2 0x1EE3 PUSH2 0x1CD4 JUMP JUMPDEST JUMPDEST PUSH2 0x1EEE PUSH1 0xC0 PUSH2 0x1D09 JUMP JUMPDEST SWAP1 POP PUSH0 PUSH2 0x1EFD DUP5 DUP3 DUP6 ADD PUSH2 0x1D63 JUMP JUMPDEST PUSH0 DUP4 ADD MSTORE POP PUSH1 0x20 PUSH2 0x1F10 DUP5 DUP3 DUP6 ADD PUSH2 0x1D39 JUMP JUMPDEST PUSH1 0x20 DUP4 ADD MSTORE POP PUSH1 0x40 PUSH2 0x1F24 DUP5 DUP3 DUP6 ADD PUSH2 0x1D63 JUMP JUMPDEST PUSH1 0x40 DUP4 ADD MSTORE POP PUSH1 0x60 PUSH2 0x1F38 DUP5 DUP3 DUP6 ADD PUSH2 0x1D63 JUMP JUMPDEST PUSH1 0x60 DUP4 ADD MSTORE POP PUSH1 0x80 PUSH2 0x1F4C DUP5 DUP3 DUP6 ADD PUSH2 0x1D63 JUMP JUMPDEST PUSH1 0x80 DUP4 ADD MSTORE POP PUSH1 0xA0 PUSH2 0x1F60 DUP5 DUP3 DUP6 ADD PUSH2 0x1D39 JUMP JUMPDEST PUSH1 0xA0 DUP4 ADD MSTORE POP SWAP3 SWAP2 POP POP JUMP JUMPDEST PUSH0 PUSH1 0xC0 DUP3 DUP5 SUB SLT ISZERO PUSH2 0x1F81 JUMPI PUSH2 0x1F80 PUSH2 0x17E9 JUMP JUMPDEST JUMPDEST PUSH0 PUSH2 0x1F8E DUP5 DUP3 DUP6 ADD PUSH2 0x1ECF JUMP JUMPDEST SWAP2 POP POP SWAP3 SWAP2 POP POP JUMP JUMPDEST PUSH32 0x4E487B7100000000000000000000000000000000000000000000000000000000 PUSH0 MSTORE PUSH1 0x21 PUSH1 0x4 MSTORE PUSH1 0x24 PUSH0 REVERT JUMPDEST PUSH0 PUSH1 0x20 DUP3 ADD SWAP1 POP PUSH2 0x1FD7 PUSH0 DUP4 ADD DUP5 PUSH2 0x1A35 JUMP JUMPDEST SWAP3 SWAP2 POP POP JUMP JUMPDEST PUSH0 PUSH1 0x40 DUP3 ADD SWAP1 POP PUSH2 0x1FF0 PUSH0 DUP4 ADD DUP6 PUSH2 0x1A35 JUMP JUMPDEST PUSH2 0x1FFD PUSH1 0x20 DUP4 ADD DUP5 PUSH2 0x1A35 JUMP JUMPDEST SWAP4 SWAP3 POP POP POP JUMP JUMPDEST PUSH0 DUP1 REVERT JUMPDEST PUSH0 PUSH8 0xFFFFFFFFFFFFFFFF DUP3 GT ISZERO PUSH2 0x2022 JUMPI PUSH2 0x2021 PUSH2 0x1C80 JUMP JUMPDEST JUMPDEST PUSH2 0x202B DUP3 PUSH2 0x1938 JUMP JUMPDEST SWAP1 POP PUSH1 0x20 DUP2 ADD SWAP1 POP SWAP2 SWAP1 POP JUMP JUMPDEST PUSH0 PUSH2 0x204A PUSH2 0x2045 DUP5 PUSH2 0x2008 JUMP JUMPDEST PUSH2 0x1D09 JUMP JUMPDEST SWAP1 POP DUP3 DUP2 MSTORE PUSH1 0x20 DUP2 ADD DUP5 DUP5 DUP5 ADD GT ISZERO PUSH2 0x2066 JUMPI PUSH2 0x2065 PUSH2 0x2004 JUMP JUMPDEST JUMPDEST PUSH2 0x2071 DUP5 DUP3 DUP6 PUSH2 0x1910 JUMP JUMPDEST POP SWAP4 SWAP3 POP POP POP JUMP JUMPDEST PUSH0 DUP3 PUSH1 0x1F DUP4 ADD SLT PUSH2 0x208D JUMPI PUSH2 0x208C PUSH2 0x1824 JUMP JUMPDEST JUMPDEST DUP2 MLOAD PUSH2 0x209D DUP5 DUP3 PUSH1 0x20 DUP7 ADD PUSH2 0x2038 JUMP JUMPDEST SWAP2 POP POP SWAP3 SWAP2 POP POP JUMP JUMPDEST PUSH0 PUSH1 0x20 DUP3 DUP5 SUB SLT ISZERO PUSH2 0x20BB JUMPI PUSH2 0x20BA PUSH2 0x17E9 JUMP JUMPDEST JUMPDEST PUSH0 DUP3 ADD MLOAD PUSH8 0xFFFFFFFFFFFFFFFF DUP2 GT ISZERO PUSH2 0x20D8 JUMPI PUSH2 0x20D7 PUSH2 0x17ED JUMP JUMPDEST JUMPDEST PUSH2 0x20E4 DUP5 DUP3 DUP6 ADD PUSH2 0x2079 JUMP JUMPDEST SWAP2 POP POP SWAP3 SWAP2 POP POP JUMP JUMPDEST PUSH32 0x4E487B7100000000000000000000000000000000000000000000000000000000 PUSH0 MSTORE PUSH1 0x22 PUSH1 0x4 MSTORE PUSH1 0x24 PUSH0 REVERT JUMPDEST PUSH0 PUSH1 0x2 DUP3 DIV SWAP1 POP PUSH1 0x1 DUP3 AND DUP1 PUSH2 0x2131 JUMPI PUSH1 0x7F DUP3 AND SWAP2 POP JUMPDEST PUSH1 0x20 DUP3 LT DUP2 SUB PUSH2 0x2144 JUMPI PUSH2 0x2143 PUSH2 0x20ED JUMP JUMPDEST JUMPDEST POP SWAP2 SWAP1 POP JUMP JUMPDEST PUSH0 PUSH1 0xA0 DUP3 ADD SWAP1 POP PUSH2 0x215D PUSH0 DUP4 ADD DUP9 PUSH2 0x1A83 JUMP JUMPDEST PUSH2 0x216A PUSH1 0x20 DUP4 ADD DUP8 PUSH2 0x1A83 JUMP JUMPDEST PUSH2 0x2177 PUSH1 0x40 DUP4 ADD DUP7 PUSH2 0x1A83 JUMP JUMPDEST PUSH2 0x2184 PUSH1 0x60 DUP4 ADD DUP6 PUSH2 0x1A35 JUMP JUMPDEST PUSH2 0x2191 PUSH1 0x80 DUP4 ADD DUP5 PUSH2 0x1A74 JUMP JUMPDEST SWAP7 SWAP6 POP POP POP POP POP POP JUMP JUMPDEST PUSH0 PUSH1 0xFF DUP3 AND SWAP1 POP SWAP2 SWAP1 POP JUMP JUMPDEST PUSH2 0x21B0 DUP2 PUSH2 0x219B JUMP JUMPDEST DUP3 MSTORE POP POP JUMP JUMPDEST PUSH0 PUSH1 0x80 DUP3 ADD SWAP1 POP PUSH2 0x21C9 PUSH0 DUP4 ADD DUP8 PUSH2 0x1A83 JUMP JUMPDEST PUSH2 0x21D6 PUSH1 0x20 DUP4 ADD DUP7 PUSH2 0x21A7 JUMP JUMPDEST PUSH2 0x21E3 PUSH1 0x40 DUP4 ADD DUP6 PUSH2 0x1A83 JUMP JUMPDEST PUSH2 0x21F0 PUSH1 0x60 DUP4 ADD DUP5 PUSH2 0x1A83 JUMP JUMPDEST SWAP6 SWAP5 POP POP POP POP POP JUMP JUMPDEST PUSH0 PUSH1 0x40 DUP3 ADD SWAP1 POP PUSH2 0x220C PUSH0 DUP4 ADD DUP6 PUSH2 0x1A35 JUMP JUMPDEST PUSH2 0x2219 PUSH1 0x20 DUP4 ADD DUP5 PUSH2 0x19CB JUMP JUMPDEST SWAP4 SWAP3 POP POP POP JUMP JUMPDEST PUSH2 0x2229 DUP2 PUSH2 0x1A2C JUMP JUMPDEST DUP2 EQ PUSH2 0x2233 JUMPI PUSH0 DUP1 REVERT JUMPDEST POP JUMP JUMPDEST PUSH0 DUP2 MLOAD SWAP1 POP PUSH2 0x2244 DUP2 PUSH2 0x2220 JUMP JUMPDEST SWAP3 SWAP2 POP POP JUMP JUMPDEST PUSH0 PUSH1 0x20 DUP3 DUP5 SUB SLT ISZERO PUSH2 0x225F JUMPI PUSH2 0x225E PUSH2 0x17E9 JUMP JUMPDEST JUMPDEST PUSH0 PUSH2 0x226C DUP5 DUP3 DUP6 ADD PUSH2 0x2236 JUMP JUMPDEST SWAP2 POP POP SWAP3 SWAP2 POP POP JUMP INVALID LOG2 PUSH5 0x6970667358 0x22 SLT KECCAK256 0xE2 0xD1 0xFB PUSH10 0x44F6DDE70F3A20A167A 0x1F LOG4 BYTE CODECOPY STATICCALL 0xE2 0xE0 0xD2 SAR DUP13 DUP16 PUSH7 0x77B031A83AFE64 PUSH20 0x6F6C634300081800330000000000000000000000 "
		},
		"gasEstimates": {
			"creation": {
				"codeDepositCost": "1775000",
				"executionCost": "infinite",
				"totalCost": "infinite"
			},
			"external": {
				"eip712Domain()": "infinite",
				"viewCompanyemploys(bytes32,bytes32,bytes)": "infinite",
				"viewCompanytotalClaimedFund(bytes32,bytes32,bytes)": "infinite",
				"viewCompanytotalFund(bytes32,bytes32,bytes)": "infinite",
				"viewCompanytotalLocked(bytes32,bytes32,bytes)": "infinite",
				"viewEmployeClaimed(bytes32,bytes32,bytes)": "infinite",
				"viewEmployeLastClaimed(bytes32,bytes32,bytes)": "infinite",
				"viewEmployeTotalAllocation(bytes32,bytes32,bytes)": "infinite",
				"viewEmployeUnlocked(bytes32,bytes32,bytes)": "infinite"
			},
			"internal": {
				"getCompany(bytes32)": "infinite",
				"getEmployee(bytes32,address)": "infinite"
			}
		},
		"methodIdentifiers": {
			"eip712Domain()": "84b0196e",
			"viewCompanyemploys(bytes32,bytes32,bytes)": "87908527",
			"viewCompanytotalClaimedFund(bytes32,bytes32,bytes)": "69fa32b0",
			"viewCompanytotalFund(bytes32,bytes32,bytes)": "274c727c",
			"viewCompanytotalLocked(bytes32,bytes32,bytes)": "e959f150",
			"viewEmployeClaimed(bytes32,bytes32,bytes)": "0ef6df02",
			"viewEmployeLastClaimed(bytes32,bytes32,bytes)": "5f5d4d4a",
			"viewEmployeTotalAllocation(bytes32,bytes32,bytes)": "5cf19200",
			"viewEmployeUnlocked(bytes32,bytes32,bytes)": "286c29c5"
		}
	},
	"abi": [
		{
			"inputs": [
				{
					"internalType": "address",
					"name": "capTableAddr",
					"type": "address"
				}
			],
			"stateMutability": "nonpayable",
			"type": "constructor"
		},
		{
			"inputs": [],
			"name": "ECDSAInvalidSignature",
			"type": "error"
		},
		{
			"inputs": [
				{
					"internalType": "uint256",
					"name": "length",
					"type": "uint256"
				}
			],
			"name": "ECDSAInvalidSignatureLength",
			"type": "error"
		},
		{
			"inputs": [
				{
					"internalType": "bytes32",
					"name": "s",
					"type": "bytes32"
				}
			],
			"name": "ECDSAInvalidSignatureS",
			"type": "error"
		},
		{
			"inputs": [],
			"name": "InvalidShortString",
			"type": "error"
		},
		{
			"inputs": [
				{
					"internalType": "string",
					"name": "str",
					"type": "string"
				}
			],
			"name": "StringTooLong",
			"type": "error"
		},
		{
			"anonymous": false,
			"inputs": [],
			"name": "EIP712DomainChanged",
			"type": "event"
		},
		{
			"inputs": [],
			"name": "eip712Domain",
			"outputs": [
				{
					"internalType": "bytes1",
					"name": "fields",
					"type": "bytes1"
				},
				{
					"internalType": "string",
					"name": "name",
					"type": "string"
				},
				{
					"internalType": "string",
					"name": "version",
					"type": "string"
				},
				{
					"internalType": "uint256",
					"name": "chainId",
					"type": "uint256"
				},
				{
					"internalType": "address",
					"name": "verifyingContract",
					"type": "address"
				},
				{
					"internalType": "bytes32",
					"name": "salt",
					"type": "bytes32"
				},
				{
					"internalType": "uint256[]",
					"name": "extensions",
					"type": "uint256[]"
				}
			],
			"stateMutability": "view",
			"type": "function"
		},
		{
			"inputs": [
				{
					"internalType": "bytes32",
					"name": "key",
					"type": "bytes32"
				},
				{
					"internalType": "bytes32",
					"name": "publicKey",
					"type": "bytes32"
				},
				{
					"internalType": "bytes",
					"name": "signature",
					"type": "bytes"
				}
			],
			"name": "viewCompanyemploys",
			"outputs": [
				{
					"internalType": "bytes",
					"name": "",
					"type": "bytes"
				}
			],
			"stateMutability": "view",
			"type": "function"
		},
		{
			"inputs": [
				{
					"internalType": "bytes32",
					"name": "key",
					"type": "bytes32"
				},
				{
					"internalType": "bytes32",
					"name": "publicKey",
					"type": "bytes32"
				},
				{
					"internalType": "bytes",
					"name": "signature",
					"type": "bytes"
				}
			],
			"name": "viewCompanytotalClaimedFund",
			"outputs": [
				{
					"internalType": "bytes",
					"name": "",
					"type": "bytes"
				}
			],
			"stateMutability": "view",
			"type": "function"
		},
		{
			"inputs": [
				{
					"internalType": "bytes32",
					"name": "key",
					"type": "bytes32"
				},
				{
					"internalType": "bytes32",
					"name": "publicKey",
					"type": "bytes32"
				},
				{
					"internalType": "bytes",
					"name": "signature",
					"type": "bytes"
				}
			],
			"name": "viewCompanytotalFund",
			"outputs": [
				{
					"internalType": "bytes",
					"name": "",
					"type": "bytes"
				}
			],
			"stateMutability": "view",
			"type": "function"
		},
		{
			"inputs": [
				{
					"internalType": "bytes32",
					"name": "key",
					"type": "bytes32"
				},
				{
					"internalType": "bytes32",
					"name": "publicKey",
					"type": "bytes32"
				},
				{
					"internalType": "bytes",
					"name": "signature",
					"type": "bytes"
				}
			],
			"name": "viewCompanytotalLocked",
			"outputs": [
				{
					"internalType": "bytes",
					"name": "",
					"type": "bytes"
				}
			],
			"stateMutability": "view",
			"type": "function"
		},
		{
			"inputs": [
				{
					"internalType": "bytes32",
					"name": "key",
					"type": "bytes32"
				},
				{
					"internalType": "bytes32",
					"name": "publicKey",
					"type": "bytes32"
				},
				{
					"internalType": "bytes",
					"name": "signature",
					"type": "bytes"
				}
			],
			"name": "viewEmployeClaimed",
			"outputs": [
				{
					"internalType": "bytes",
					"name": "",
					"type": "bytes"
				}
			],
			"stateMutability": "view",
			"type": "function"
		},
		{
			"inputs": [
				{
					"internalType": "bytes32",
					"name": "key",
					"type": "bytes32"
				},
				{
					"internalType": "bytes32",
					"name": "publicKey",
					"type": "bytes32"
				},
				{
					"internalType": "bytes",
					"name": "signature",
					"type": "bytes"
				}
			],
			"name": "viewEmployeLastClaimed",
			"outputs": [
				{
					"internalType": "bytes",
					"name": "",
					"type": "bytes"
				}
			],
			"stateMutability": "view",
			"type": "function"
		},
		{
			"inputs": [
				{
					"internalType": "bytes32",
					"name": "key",
					"type": "bytes32"
				},
				{
					"internalType": "bytes32",
					"name": "publicKey",
					"type": "bytes32"
				},
				{
					"internalType": "bytes",
					"name": "signature",
					"type": "bytes"
				}
			],
			"name": "viewEmployeTotalAllocation",
			"outputs": [
				{
					"internalType": "bytes",
					"name": "",
					"type": "bytes"
				}
			],
			"stateMutability": "view",
			"type": "function"
		},
		{
			"inputs": [
				{
					"internalType": "bytes32",
					"name": "key",
					"type": "bytes32"
				},
				{
					"internalType": "bytes32",
					"name": "publicKey",
					"type": "bytes32"
				},
				{
					"internalType": "bytes",
					"name": "signature",
					"type": "bytes"
				}
			],
			"name": "viewEmployeUnlocked",
			"outputs": [
				{
					"internalType": "bytes",
					"name": "",
					"type": "bytes"
				}
			],
			"stateMutability": "view",
			"type": "function"
		}
	]
}