{
	"data": {
		"bytecode": {
			"linkReferences": {},
			"object": "61016060405234801562000011575f80fd5b5060405162002f3938038062002f39833981810160405281019062000037919062000322565b6040518060400160405280601381526020017f417574686f72697a6174696f6e20746f6b656e000000000000000000000000008152506040518060400160405280600181526020017f3100000000000000000000000000000000000000000000000000000000000000815250620000b85f836200019960201b90919060201c565b6101208181525050620000d66001826200019960201b90919060201c565b6101408181525050818051906020012060e08181525050808051906020012061010081815250504660a0818152505062000115620001ee60201b60201c565b608081815250503073ffffffffffffffffffffffffffffffffffffffff1660c08173ffffffffffffffffffffffffffffffffffffffff168152505050508060025f6101000a81548173ffffffffffffffffffffffffffffffffffffffff021916908373ffffffffffffffffffffffffffffffffffffffff160217905550506200087b565b5f602083511015620001be57620001b6836200024a60201b60201c565b9050620001e8565b82620001d083620002b460201b60201c565b5f019081620001e09190620005b6565b5060ff5f1b90505b92915050565b5f7f8b73c3c69bb8fe3d512ecc4cf759cc79239f7b179b0ffacaa9a75d522b39400f60e0516101005146306040516020016200022f959493929190620006d6565b60405160208183030381529060405280519060200120905090565b5f80829050601f815111156200029957826040517f305a27a9000000000000000000000000000000000000000000000000000000008152600401620002909190620007bb565b60405180910390fd5b805181620002a7906200080c565b5f1c175f1b915050919050565b5f819050919050565b5f80fd5b5f73ffffffffffffffffffffffffffffffffffffffff82169050919050565b5f620002ec82620002c1565b9050919050565b620002fe81620002e0565b811462000309575f80fd5b50565b5f815190506200031c81620002f3565b92915050565b5f602082840312156200033a5762000339620002bd565b5b5f62000349848285016200030c565b91505092915050565b5f81519050919050565b7f4e487b71000000000000000000000000000000000000000000000000000000005f52604160045260245ffd5b7f4e487b71000000000000000000000000000000000000000000000000000000005f52602260045260245ffd5b5f6002820490506001821680620003ce57607f821691505b602082108103620003e457620003e362000389565b5b50919050565b5f819050815f5260205f209050919050565b5f6020601f8301049050919050565b5f82821b905092915050565b5f60088302620004487fffffffffffffffffffffffffffffffffffffffffffffffffffffffffffffffff826200040b565b6200045486836200040b565b95508019841693508086168417925050509392505050565b5f819050919050565b5f819050919050565b5f6200049e6200049862000492846200046c565b62000475565b6200046c565b9050919050565b5f819050919050565b620004b9836200047e565b620004d1620004c882620004a5565b84845462000417565b825550505050565b5f90565b620004e7620004d9565b620004f4818484620004ae565b505050565b5b818110156200051b576200050f5f82620004dd565b600181019050620004fa565b5050565b601f8211156200056a576200053481620003ea565b6200053f84620003fc565b810160208510156200054f578190505b620005676200055e85620003fc565b830182620004f9565b50505b505050565b5f82821c905092915050565b5f6200058c5f19846008026200056f565b1980831691505092915050565b5f620005a683836200057b565b9150826002028217905092915050565b620005c18262000352565b67ffffffffffffffff811115620005dd57620005dc6200035c565b5b620005e98254620003b6565b620005f68282856200051f565b5f60209050601f8311600181146200062c575f841562000617578287015190505b62000623858262000599565b86555062000692565b601f1984166200063c86620003ea565b5f5b8281101562000665578489015182556001820191506020850194506020810190506200063e565b8683101562000685578489015162000681601f8916826200057b565b8355505b6001600288020188555050505b505050505050565b5f819050919050565b620006ae816200069a565b82525050565b620006bf816200046c565b82525050565b620006d081620002e0565b82525050565b5f60a082019050620006eb5f830188620006a3565b620006fa6020830187620006a3565b620007096040830186620006a3565b620007186060830185620006b4565b620007276080830184620006c5565b9695505050505050565b5f82825260208201905092915050565b5f5b838110156200076057808201518184015260208101905062000743565b5f8484015250505050565b5f601f19601f8301169050919050565b5f620007878262000352565b62000793818562000731565b9350620007a581856020860162000741565b620007b0816200076b565b840191505092915050565b5f6020820190508181035f830152620007d581846200077b565b905092915050565b5f81519050919050565b5f819050602082019050919050565b5f6200080382516200069a565b80915050919050565b5f6200081882620007dd565b826200082484620007e7565b90506200083181620007f6565b9250602082101562000874576200086f7fffffffffffffffffffffffffffffffffffffffffffffffffffffffffffffffff836020036008026200040b565b831692505b5050919050565b60805160a05160c05160e05161010051610120516101405161266c620008cd5f395f6112ef01525f6112b401525f61175d01525f61173c01525f61132401525f61137a01525f6113a3015261266c5ff3fe608060405234801561000f575f80fd5b506004361061009c575f3560e01c806369fa32b01161006457806369fa32b014610190578063792bcac8146101c057806384b0196e146101f05780638790852714610214578063e959f150146102445761009c565b80630ef6df02146100a0578063274c727c146100d0578063286c29c5146101005780635cf19200146101305780635f5d4d4a14610160575b5f80fd5b6100ba60048036038101906100b59190611b36565b610274565b6040516100c79190611c31565b60405180910390f35b6100ea60048036038101906100e59190611b36565b610403565b6040516100f79190611c31565b60405180910390f35b61011a60048036038101906101159190611b36565b6105db565b6040516101279190611c31565b60405180910390f35b61014a60048036038101906101459190611b36565b61076a565b6040516101579190611c31565b60405180910390f35b61017a60048036038101906101759190611b36565b6108f9565b6040516101879190611c31565b60405180910390f35b6101aa60048036038101906101a59190611b36565b610a88565b6040516101b79190611c31565b60405180910390f35b6101da60048036038101906101d59190611b36565b610c60565b6040516101e79190611ca3565b60405180910390f35b6101f8610c83565b60405161020b9796959493929190611e1a565b60405180910390f35b61022e60048036038101906102299190611b36565b610d28565b60405161023b9190611c31565b60405180910390f35b61025e60048036038101906102599190611b36565b610eff565b60405161026b9190611c31565b60405180910390f35b60608383838080601f0160208091040260200160405190810160405280939291908181526020018383808284375f81840152601f19601f82011690508083019250505050505050865f61030e7f051d137ae0e1fae6e3b6559fed4442b35a85a9a39789838ad5c9ea05e7da2dce856040516020016102f3929190611e9c565b604051602081830303815290604052805190602001206110d7565b90505f61031b82856110f0565b90505f6103278461111a565b90503373ffffffffffffffffffffffffffffffffffffffff168273ffffffffffffffffffffffffffffffffffffffff1614806103925750806020015173ffffffffffffffffffffffffffffffffffffffff163373ffffffffffffffffffffffffffffffffffffffff16145b6103d1576040517f08c379a00000000000000000000000000000000000000000000000000000000081526004016103c890611f33565b60405180910390fd5b5f6103dc8c336111c2565b90505f6103ee82608001518d5f611270565b90508098505050505050505050949350505050565b6060845f6104108261111a565b9050806020015173ffffffffffffffffffffffffffffffffffffffff163373ffffffffffffffffffffffffffffffffffffffff161461044d575f80fd5b8585858080601f0160208091040260200160405190810160405280939291908181526020018383808284375f81840152601f19601f82011690508083019250505050505050885f6104e57f051d137ae0e1fae6e3b6559fed4442b35a85a9a39789838ad5c9ea05e7da2dce856040516020016104ca929190611e9c565b604051602081830303815290604052805190602001206110d7565b90505f6104f282856110f0565b90505f6104fe8461111a565b90503373ffffffffffffffffffffffffffffffffffffffff168273ffffffffffffffffffffffffffffffffffffffff1614806105695750806020015173ffffffffffffffffffffffffffffffffffffffff163373ffffffffffffffffffffffffffffffffffffffff16145b6105a8576040517f08c379a000000000000000000000000000000000000000000000000000000000815260040161059f90611f33565b60405180910390fd5b5f6105b28e61111a565b90505f6105c482604001518f5f611270565b9050809a5050505050505050505050949350505050565b60608383838080601f0160208091040260200160405190810160405280939291908181526020018383808284375f81840152601f19601f82011690508083019250505050505050865f6106757f051d137ae0e1fae6e3b6559fed4442b35a85a9a39789838ad5c9ea05e7da2dce8560405160200161065a929190611e9c565b604051602081830303815290604052805190602001206110d7565b90505f61068282856110f0565b90505f61068e8461111a565b90503373ffffffffffffffffffffffffffffffffffffffff168273ffffffffffffffffffffffffffffffffffffffff1614806106f95750806020015173ffffffffffffffffffffffffffffffffffffffff163373ffffffffffffffffffffffffffffffffffffffff16145b610738576040517f08c379a000000000000000000000000000000000000000000000000000000000815260040161072f90611f33565b60405180910390fd5b5f6107438c336111c2565b90505f61075582606001518d5f611270565b90508098505050505050505050949350505050565b60608383838080601f0160208091040260200160405190810160405280939291908181526020018383808284375f81840152601f19601f82011690508083019250505050505050865f6108047f051d137ae0e1fae6e3b6559fed4442b35a85a9a39789838ad5c9ea05e7da2dce856040516020016107e9929190611e9c565b604051602081830303815290604052805190602001206110d7565b90505f61081182856110f0565b90505f61081d8461111a565b90503373ffffffffffffffffffffffffffffffffffffffff168273ffffffffffffffffffffffffffffffffffffffff1614806108885750806020015173ffffffffffffffffffffffffffffffffffffffff163373ffffffffffffffffffffffffffffffffffffffff16145b6108c7576040517f08c379a00000000000000000000000000000000000000000000000000000000081526004016108be90611f33565b60405180910390fd5b5f6108d28c336111c2565b90505f6108e482604001518d5f611270565b90508098505050505050505050949350505050565b60608383838080601f0160208091040260200160405190810160405280939291908181526020018383808284375f81840152601f19601f82011690508083019250505050505050865f6109937f051d137ae0e1fae6e3b6559fed4442b35a85a9a39789838ad5c9ea05e7da2dce85604051602001610978929190611e9c565b604051602081830303815290604052805190602001206110d7565b90505f6109a082856110f0565b90505f6109ac8461111a565b90503373ffffffffffffffffffffffffffffffffffffffff168273ffffffffffffffffffffffffffffffffffffffff161480610a175750806020015173ffffffffffffffffffffffffffffffffffffffff163373ffffffffffffffffffffffffffffffffffffffff16145b610a56576040517f08c379a0000000000000000000000000000000000000000000000000000000008152600401610a4d90611f33565b60405180910390fd5b5f610a618c336111c2565b90505f610a738260e001518d5f611270565b90508098505050505050505050949350505050565b6060845f610a958261111a565b9050806020015173ffffffffffffffffffffffffffffffffffffffff163373ffffffffffffffffffffffffffffffffffffffff1614610ad2575f80fd5b8585858080601f0160208091040260200160405190810160405280939291908181526020018383808284375f81840152601f19601f82011690508083019250505050505050885f610b6a7f051d137ae0e1fae6e3b6559fed4442b35a85a9a39789838ad5c9ea05e7da2dce85604051602001610b4f929190611e9c565b604051602081830303815290604052805190602001206110d7565b90505f610b7782856110f0565b90505f610b838461111a565b90503373ffffffffffffffffffffffffffffffffffffffff168273ffffffffffffffffffffffffffffffffffffffff161480610bee5750806020015173ffffffffffffffffffffffffffffffffffffffff163373ffffffffffffffffffffffffffffffffffffffff16145b610c2d576040517f08c379a0000000000000000000000000000000000000000000000000000000008152600401610c2490611f33565b60405180910390fd5b5f610c378e61111a565b90505f610c4982606001518f5f611270565b9050809a5050505050505050505050949350505050565b60605f610c6d86336111c2565b90505f815f015190508092505050949350505050565b5f6060805f805f6060610c946112ac565b610c9c6112e6565b46305f801b5f67ffffffffffffffff811115610cbb57610cba611f51565b5b604051908082528060200260200182016040528015610ce95781602001602082028036833780820191505090505b507f0f00000000000000000000000000000000000000000000000000000000000000959493929190965096509650965096509650965090919293949596565b6060845f610d358261111a565b9050806020015173ffffffffffffffffffffffffffffffffffffffff163373ffffffffffffffffffffffffffffffffffffffff1614610d72575f80fd5b8585858080601f0160208091040260200160405190810160405280939291908181526020018383808284375f81840152601f19601f82011690508083019250505050505050885f610e0a7f051d137ae0e1fae6e3b6559fed4442b35a85a9a39789838ad5c9ea05e7da2dce85604051602001610def929190611e9c565b604051602081830303815290604052805190602001206110d7565b90505f610e1782856110f0565b90505f610e238461111a565b90503373ffffffffffffffffffffffffffffffffffffffff168273ffffffffffffffffffffffffffffffffffffffff161480610e8e5750806020015173ffffffffffffffffffffffffffffffffffffffff163373ffffffffffffffffffffffffffffffffffffffff16145b610ecd576040517f08c379a0000000000000000000000000000000000000000000000000000000008152600401610ec490611f33565b60405180910390fd5b5f610ed78e61111a565b90505f610ee8825f01518f5f611270565b9050809a5050505050505050505050949350505050565b6060845f610f0c8261111a565b9050806020015173ffffffffffffffffffffffffffffffffffffffff163373ffffffffffffffffffffffffffffffffffffffff1614610f49575f80fd5b8585858080601f0160208091040260200160405190810160405280939291908181526020018383808284375f81840152601f19601f82011690508083019250505050505050885f610fe17f051d137ae0e1fae6e3b6559fed4442b35a85a9a39789838ad5c9ea05e7da2dce85604051602001610fc6929190611e9c565b604051602081830303815290604052805190602001206110d7565b90505f610fee82856110f0565b90505f610ffa8461111a565b90503373ffffffffffffffffffffffffffffffffffffffff168273ffffffffffffffffffffffffffffffffffffffff1614806110655750806020015173ffffffffffffffffffffffffffffffffffffffff163373ffffffffffffffffffffffffffffffffffffffff16145b6110a4576040517f08c379a000000000000000000000000000000000000000000000000000000000815260040161109b90611f33565b60405180910390fd5b5f6110ae8e61111a565b90505f6110c082608001518f5f611270565b9050809a5050505050505050505050949350505050565b5f6110e96110e3611321565b836113d7565b9050919050565b5f805f806110fe8686611417565b92509250925061110e828261146c565b82935050505092915050565b6111226119db565b60025f9054906101000a900473ffffffffffffffffffffffffffffffffffffffff1673ffffffffffffffffffffffffffffffffffffffff166330f37b44836040518263ffffffff1660e01b815260040161117c9190611f7e565b60c060405180830381865afa158015611197573d5f803e3d5ffd5b505050506040513d601f19601f820116820180604052508101906111bb91906120db565b9050919050565b6111ca611a37565b60025f9054906101000a900473ffffffffffffffffffffffffffffffffffffffff1673ffffffffffffffffffffffffffffffffffffffff166380dc8ae884846040518363ffffffff1660e01b8152600401611226929190612106565b5f60405180830381865afa158015611240573d5f803e3d5ffd5b505050506040513d5f823e3d601f19601f820116820180604052508101906112689190612315565b905092915050565b60605f841461128a5761128384846115ce565b90506112a5565b6112a261129c8363ffffffff16611658565b846115ce565b90505b9392505050565b60606112e15f7f000000000000000000000000000000000000000000000000000000000000000061166b90919063ffffffff16565b905090565b606061131c60017f000000000000000000000000000000000000000000000000000000000000000061166b90919063ffffffff16565b905090565b5f7f000000000000000000000000000000000000000000000000000000000000000073ffffffffffffffffffffffffffffffffffffffff163073ffffffffffffffffffffffffffffffffffffffff1614801561139c57507f000000000000000000000000000000000000000000000000000000000000000046145b156113c9577f000000000000000000000000000000000000000000000000000000000000000090506113d4565b6113d1611718565b90505b90565b5f6040517f190100000000000000000000000000000000000000000000000000000000000081528360028201528260228201526042812091505092915050565b5f805f6041845103611457575f805f602087015192506040870151915060608701515f1a9050611449888285856117ad565b955095509550505050611465565b5f600285515f1b9250925092505b9250925092565b5f600381111561147f5761147e61235c565b5b8260038111156114925761149161235c565b5b03156115ca57600160038111156114ac576114ab61235c565b5b8260038111156114bf576114be61235c565b5b036114f6576040517ff645eedf00000000000000000000000000000000000000000000000000000000815260040160405180910390fd5b6002600381111561150a5761150961235c565b5b82600381111561151d5761151c61235c565b5b0361156157805f1c6040517ffce698f70000000000000000000000000000000000000000000000000000000081526004016115589190612389565b60405180910390fd5b6003808111156115745761157361235c565b5b8260038111156115875761158661235c565b5b036115c957806040517fd78bce0c0000000000000000000000000000000000000000000000000000000081526004016115c09190611f7e565b60405180910390fd5b5b5050565b6060605d73ffffffffffffffffffffffffffffffffffffffff1663d6ad57cd84845f1c6040518363ffffffff1660e01b815260040161160e9291906123a2565b5f60405180830381865afa158015611628573d5f803e3d5ffd5b505050506040513d5f823e3d601f19601f820116820180604052508101906116509190612467565b905092915050565b5f611664826002611894565b9050919050565b606060ff5f1b8314611687576116808361191b565b9050611712565b818054611693906124db565b80601f01602080910402602001604051908101604052809291908181526020018280546116bf906124db565b801561170a5780601f106116e15761010080835404028352916020019161170a565b820191905f5260205f20905b8154815290600101906020018083116116ed57829003601f168201915b505050505090505b92915050565b5f7f8b73c3c69bb8fe3d512ecc4cf759cc79239f7b179b0ffacaa9a75d522b39400f7f00000000000000000000000000000000000000000000000000000000000000007f0000000000000000000000000000000000000000000000000000000000000000463060405160200161179295949392919061250b565b60405160208183030381529060405280519060200120905090565b5f805f7f7fffffffffffffffffffffffffffffff5d576e7357a4501ddfe92f46681b20a0845f1c11156117e9575f60038592509250925061188a565b5f6001888888886040515f815260200160405260405161180c9493929190612577565b6020604051602081039080840390855afa15801561182c573d5f803e3d5ffd5b5050506020604051035190505f73ffffffffffffffffffffffffffffffffffffffff168173ffffffffffffffffffffffffffffffffffffffff160361187d575f60015f801b9350935093505061188a565b805f805f1b935093509350505b9450945094915050565b5f605d73ffffffffffffffffffffffffffffffffffffffff1663e71746b8848460f81b6040518363ffffffff1660e01b81526004016118d49291906125ba565b602060405180830381865afa1580156118ef573d5f803e3d5ffd5b505050506040513d601f19601f82011682018060405250810190611913919061260b565b905092915050565b60605f6119278361198d565b90505f602067ffffffffffffffff81111561194557611944611f51565b5b6040519080825280601f01601f1916602001820160405280156119775781602001600182028036833780820191505090505b5090508181528360208201528092505050919050565b5f8060ff835f1c169050601f8111156119d2576040517fb3512b0c00000000000000000000000000000000000000000000000000000000815260040160405180910390fd5b80915050919050565b6040518060c001604052805f81526020015f73ffffffffffffffffffffffffffffffffffffffff1681526020015f81526020015f81526020015f81526020015f73ffffffffffffffffffffffffffffffffffffffff1681525090565b604051806101000160405280606081526020015f73ffffffffffffffffffffffffffffffffffffffff1681526020015f81526020015f81526020015f81526020015f81526020015f63ffffffff1681526020015f81525090565b5f604051905090565b5f80fd5b5f80fd5b5f819050919050565b611ab481611aa2565b8114611abe575f80fd5b50565b5f81359050611acf81611aab565b92915050565b5f80fd5b5f80fd5b5f80fd5b5f8083601f840112611af657611af5611ad5565b5b8235905067ffffffffffffffff811115611b1357611b12611ad9565b5b602083019150836001820283011115611b2f57611b2e611add565b5b9250929050565b5f805f8060608587031215611b4e57611b4d611a9a565b5b5f611b5b87828801611ac1565b9450506020611b6c87828801611ac1565b935050604085013567ffffffffffffffff811115611b8d57611b8c611a9e565b5b611b9987828801611ae1565b925092505092959194509250565b5f81519050919050565b5f82825260208201905092915050565b5f5b83811015611bde578082015181840152602081019050611bc3565b5f8484015250505050565b5f601f19601f8301169050919050565b5f611c0382611ba7565b611c0d8185611bb1565b9350611c1d818560208601611bc1565b611c2681611be9565b840191505092915050565b5f6020820190508181035f830152611c498184611bf9565b905092915050565b5f81519050919050565b5f82825260208201905092915050565b5f611c7582611c51565b611c7f8185611c5b565b9350611c8f818560208601611bc1565b611c9881611be9565b840191505092915050565b5f6020820190508181035f830152611cbb8184611c6b565b905092915050565b5f7fff0000000000000000000000000000000000000000000000000000000000000082169050919050565b611cf781611cc3565b82525050565b5f819050919050565b611d0f81611cfd565b82525050565b5f73ffffffffffffffffffffffffffffffffffffffff82169050919050565b5f611d3e82611d15565b9050919050565b611d4e81611d34565b82525050565b611d5d81611aa2565b82525050565b5f81519050919050565b5f82825260208201905092915050565b5f819050602082019050919050565b611d9581611cfd565b82525050565b5f611da68383611d8c565b60208301905092915050565b5f602082019050919050565b5f611dc882611d63565b611dd28185611d6d565b9350611ddd83611d7d565b805f5b83811015611e0d578151611df48882611d9b565b9750611dff83611db2565b925050600181019050611de0565b5085935050505092915050565b5f60e082019050611e2d5f83018a611cee565b8181036020830152611e3f8189611c6b565b90508181036040830152611e538188611c6b565b9050611e626060830187611d06565b611e6f6080830186611d45565b611e7c60a0830185611d54565b81810360c0830152611e8e8184611dbe565b905098975050505050505050565b5f604082019050611eaf5f830185611d54565b611ebc6020830184611d54565b9392505050565b7f454950373132207369676e657220616e64207472616e73616374696f6e2073695f8201527f676e657220646f206e6f74206d61746368000000000000000000000000000000602082015250565b5f611f1d603183611c5b565b9150611f2882611ec3565b604082019050919050565b5f6020820190508181035f830152611f4a81611f11565b9050919050565b7f4e487b71000000000000000000000000000000000000000000000000000000005f52604160045260245ffd5b5f602082019050611f915f830184611d54565b92915050565b5f80fd5b611fa482611be9565b810181811067ffffffffffffffff82111715611fc357611fc2611f51565b5b80604052505050565b5f611fd5611a91565b9050611fe18282611f9b565b919050565b5f80fd5b611ff381611cfd565b8114611ffd575f80fd5b50565b5f8151905061200e81611fea565b92915050565b61201d81611d34565b8114612027575f80fd5b50565b5f8151905061203881612014565b92915050565b5f60c0828403121561205357612052611f97565b5b61205d60c0611fcc565b90505f61206c84828501612000565b5f83015250602061207f8482850161202a565b602083015250604061209384828501612000565b60408301525060606120a784828501612000565b60608301525060806120bb84828501612000565b60808301525060a06120cf8482850161202a565b60a08301525092915050565b5f60c082840312156120f0576120ef611a9a565b5b5f6120fd8482850161203e565b91505092915050565b5f6040820190506121195f830185611d54565b6121266020830184611d45565b9392505050565b5f80fd5b5f67ffffffffffffffff82111561214b5761214a611f51565b5b61215482611be9565b9050602081019050919050565b5f61217361216e84612131565b611fcc565b90508281526020810184848401111561218f5761218e61212d565b5b61219a848285611bc1565b509392505050565b5f82601f8301126121b6576121b5611ad5565b5b81516121c6848260208601612161565b91505092915050565b6121d881611cfd565b81146121e2575f80fd5b50565b5f815190506121f3816121cf565b92915050565b5f63ffffffff82169050919050565b612211816121f9565b811461221b575f80fd5b50565b5f8151905061222c81612208565b92915050565b5f610100828403121561224857612247611f97565b5b612253610100611fcc565b90505f82015167ffffffffffffffff81111561227257612271611fe6565b5b61227e848285016121a2565b5f8301525060206122918482850161202a565b60208301525060406122a584828501612000565b60408301525060606122b984828501612000565b60608301525060806122cd84828501612000565b60808301525060a06122e1848285016121e5565b60a08301525060c06122f58482850161221e565b60c08301525060e061230984828501612000565b60e08301525092915050565b5f6020828403121561232a57612329611a9a565b5b5f82015167ffffffffffffffff81111561234757612346611a9e565b5b61235384828501612232565b91505092915050565b7f4e487b71000000000000000000000000000000000000000000000000000000005f52602160045260245ffd5b5f60208201905061239c5f830184611d06565b92915050565b5f6040820190506123b55f830185611d06565b6123c26020830184611d06565b9392505050565b5f67ffffffffffffffff8211156123e3576123e2611f51565b5b6123ec82611be9565b9050602081019050919050565b5f61240b612406846123c9565b611fcc565b9050828152602081018484840111156124275761242661212d565b5b612432848285611bc1565b509392505050565b5f82601f83011261244e5761244d611ad5565b5b815161245e8482602086016123f9565b91505092915050565b5f6020828403121561247c5761247b611a9a565b5b5f82015167ffffffffffffffff81111561249957612498611a9e565b5b6124a58482850161243a565b91505092915050565b7f4e487b71000000000000000000000000000000000000000000000000000000005f52602260045260245ffd5b5f60028204905060018216806124f257607f821691505b602082108103612505576125046124ae565b5b50919050565b5f60a08201905061251e5f830188611d54565b61252b6020830187611d54565b6125386040830186611d54565b6125456060830185611d06565b6125526080830184611d45565b9695505050505050565b5f60ff82169050919050565b6125718161255c565b82525050565b5f60808201905061258a5f830187611d54565b6125976020830186612568565b6125a46040830185611d54565b6125b16060830184611d54565b95945050505050565b5f6040820190506125cd5f830185611d06565b6125da6020830184611cee565b9392505050565b6125ea81611cfd565b81146125f4575f80fd5b50565b5f81519050612605816125e1565b92915050565b5f602082840312156126205761261f611a9a565b5b5f61262d848285016125f7565b9150509291505056fea26469706673582212204c5a9d7f8a213d4ad4bfbef9fd45b73bf20fdee40b08c87af84e3ff9fb4ac4c764736f6c63430008180033",
			"opcodes": "PUSH2 0x160 PUSH1 0x40 MSTORE CALLVALUE DUP1 ISZERO PUSH3 0x11 JUMPI PUSH0 DUP1 REVERT JUMPDEST POP PUSH1 0x40 MLOAD PUSH3 0x2F39 CODESIZE SUB DUP1 PUSH3 0x2F39 DUP4 CODECOPY DUP2 DUP2 ADD PUSH1 0x40 MSTORE DUP2 ADD SWAP1 PUSH3 0x37 SWAP2 SWAP1 PUSH3 0x322 JUMP JUMPDEST PUSH1 0x40 MLOAD DUP1 PUSH1 0x40 ADD PUSH1 0x40 MSTORE DUP1 PUSH1 0x13 DUP2 MSTORE PUSH1 0x20 ADD PUSH32 0x417574686F72697A6174696F6E20746F6B656E00000000000000000000000000 DUP2 MSTORE POP PUSH1 0x40 MLOAD DUP1 PUSH1 0x40 ADD PUSH1 0x40 MSTORE DUP1 PUSH1 0x1 DUP2 MSTORE PUSH1 0x20 ADD PUSH32 0x3100000000000000000000000000000000000000000000000000000000000000 DUP2 MSTORE POP PUSH3 0xB8 PUSH0 DUP4 PUSH3 0x199 PUSH1 0x20 SHL SWAP1 SWAP2 SWAP1 PUSH1 0x20 SHR JUMP JUMPDEST PUSH2 0x120 DUP2 DUP2 MSTORE POP POP PUSH3 0xD6 PUSH1 0x1 DUP3 PUSH3 0x199 PUSH1 0x20 SHL SWAP1 SWAP2 SWAP1 PUSH1 0x20 SHR JUMP JUMPDEST PUSH2 0x140 DUP2 DUP2 MSTORE POP POP DUP2 DUP1 MLOAD SWAP1 PUSH1 0x20 ADD KECCAK256 PUSH1 0xE0 DUP2 DUP2 MSTORE POP POP DUP1 DUP1 MLOAD SWAP1 PUSH1 0x20 ADD KECCAK256 PUSH2 0x100 DUP2 DUP2 MSTORE POP POP CHAINID PUSH1 0xA0 DUP2 DUP2 MSTORE POP POP PUSH3 0x115 PUSH3 0x1EE PUSH1 0x20 SHL PUSH1 0x20 SHR JUMP JUMPDEST PUSH1 0x80 DUP2 DUP2 MSTORE POP POP ADDRESS PUSH20 0xFFFFFFFFFFFFFFFFFFFFFFFFFFFFFFFFFFFFFFFF AND PUSH1 0xC0 DUP2 PUSH20 0xFFFFFFFFFFFFFFFFFFFFFFFFFFFFFFFFFFFFFFFF AND DUP2 MSTORE POP POP POP POP DUP1 PUSH1 0x2 PUSH0 PUSH2 0x100 EXP DUP2 SLOAD DUP2 PUSH20 0xFFFFFFFFFFFFFFFFFFFFFFFFFFFFFFFFFFFFFFFF MUL NOT AND SWAP1 DUP4 PUSH20 0xFFFFFFFFFFFFFFFFFFFFFFFFFFFFFFFFFFFFFFFF AND MUL OR SWAP1 SSTORE POP POP PUSH3 0x87B JUMP JUMPDEST PUSH0 PUSH1 0x20 DUP4 MLOAD LT ISZERO PUSH3 0x1BE JUMPI PUSH3 0x1B6 DUP4 PUSH3 0x24A PUSH1 0x20 SHL PUSH1 0x20 SHR JUMP JUMPDEST SWAP1 POP PUSH3 0x1E8 JUMP JUMPDEST DUP3 PUSH3 0x1D0 DUP4 PUSH3 0x2B4 PUSH1 0x20 SHL PUSH1 0x20 SHR JUMP JUMPDEST PUSH0 ADD SWAP1 DUP2 PUSH3 0x1E0 SWAP2 SWAP1 PUSH3 0x5B6 JUMP JUMPDEST POP PUSH1 0xFF PUSH0 SHL SWAP1 POP JUMPDEST SWAP3 SWAP2 POP POP JUMP JUMPDEST PUSH0 PUSH32 0x8B73C3C69BB8FE3D512ECC4CF759CC79239F7B179B0FFACAA9A75D522B39400F PUSH1 0xE0 MLOAD PUSH2 0x100 MLOAD CHAINID ADDRESS PUSH1 0x40 MLOAD PUSH1 0x20 ADD PUSH3 0x22F SWAP6 SWAP5 SWAP4 SWAP3 SWAP2 SWAP1 PUSH3 0x6D6 JUMP JUMPDEST PUSH1 0x40 MLOAD PUSH1 0x20 DUP2 DUP4 SUB SUB DUP2 MSTORE SWAP1 PUSH1 0x40 MSTORE DUP1 MLOAD SWAP1 PUSH1 0x20 ADD KECCAK256 SWAP1 POP SWAP1 JUMP JUMPDEST PUSH0 DUP1 DUP3 SWAP1 POP PUSH1 0x1F DUP2 MLOAD GT ISZERO PUSH3 0x299 JUMPI DUP3 PUSH1 0x40 MLOAD PUSH32 0x305A27A900000000000000000000000000000000000000000000000000000000 DUP2 MSTORE PUSH1 0x4 ADD PUSH3 0x290 SWAP2 SWAP1 PUSH3 0x7BB JUMP JUMPDEST PUSH1 0x40 MLOAD DUP1 SWAP2 SUB SWAP1 REVERT JUMPDEST DUP1 MLOAD DUP2 PUSH3 0x2A7 SWAP1 PUSH3 0x80C JUMP JUMPDEST PUSH0 SHR OR PUSH0 SHL SWAP2 POP POP SWAP2 SWAP1 POP JUMP JUMPDEST PUSH0 DUP2 SWAP1 POP SWAP2 SWAP1 POP JUMP JUMPDEST PUSH0 DUP1 REVERT JUMPDEST PUSH0 PUSH20 0xFFFFFFFFFFFFFFFFFFFFFFFFFFFFFFFFFFFFFFFF DUP3 AND SWAP1 POP SWAP2 SWAP1 POP JUMP JUMPDEST PUSH0 PUSH3 0x2EC DUP3 PUSH3 0x2C1 JUMP JUMPDEST SWAP1 POP SWAP2 SWAP1 POP JUMP JUMPDEST PUSH3 0x2FE DUP2 PUSH3 0x2E0 JUMP JUMPDEST DUP2 EQ PUSH3 0x309 JUMPI PUSH0 DUP1 REVERT JUMPDEST POP JUMP JUMPDEST PUSH0 DUP2 MLOAD SWAP1 POP PUSH3 0x31C DUP2 PUSH3 0x2F3 JUMP JUMPDEST SWAP3 SWAP2 POP POP JUMP JUMPDEST PUSH0 PUSH1 0x20 DUP3 DUP5 SUB SLT ISZERO PUSH3 0x33A JUMPI PUSH3 0x339 PUSH3 0x2BD JUMP JUMPDEST JUMPDEST PUSH0 PUSH3 0x349 DUP5 DUP3 DUP6 ADD PUSH3 0x30C JUMP JUMPDEST SWAP2 POP POP SWAP3 SWAP2 POP POP JUMP JUMPDEST PUSH0 DUP2 MLOAD SWAP1 POP SWAP2 SWAP1 POP JUMP JUMPDEST PUSH32 0x4E487B7100000000000000000000000000000000000000000000000000000000 PUSH0 MSTORE PUSH1 0x41 PUSH1 0x4 MSTORE PUSH1 0x24 PUSH0 REVERT JUMPDEST PUSH32 0x4E487B7100000000000000000000000000000000000000000000000000000000 PUSH0 MSTORE PUSH1 0x22 PUSH1 0x4 MSTORE PUSH1 0x24 PUSH0 REVERT JUMPDEST PUSH0 PUSH1 0x2 DUP3 DIV SWAP1 POP PUSH1 0x1 DUP3 AND DUP1 PUSH3 0x3CE JUMPI PUSH1 0x7F DUP3 AND SWAP2 POP JUMPDEST PUSH1 0x20 DUP3 LT DUP2 SUB PUSH3 0x3E4 JUMPI PUSH3 0x3E3 PUSH3 0x389 JUMP JUMPDEST JUMPDEST POP SWAP2 SWAP1 POP JUMP JUMPDEST PUSH0 DUP2 SWAP1 POP DUP2 PUSH0 MSTORE PUSH1 0x20 PUSH0 KECCAK256 SWAP1 POP SWAP2 SWAP1 POP JUMP JUMPDEST PUSH0 PUSH1 0x20 PUSH1 0x1F DUP4 ADD DIV SWAP1 POP SWAP2 SWAP1 POP JUMP JUMPDEST PUSH0 DUP3 DUP3 SHL SWAP1 POP SWAP3 SWAP2 POP POP JUMP JUMPDEST PUSH0 PUSH1 0x8 DUP4 MUL PUSH3 0x448 PUSH32 0xFFFFFFFFFFFFFFFFFFFFFFFFFFFFFFFFFFFFFFFFFFFFFFFFFFFFFFFFFFFFFFFF DUP3 PUSH3 0x40B JUMP JUMPDEST PUSH3 0x454 DUP7 DUP4 PUSH3 0x40B JUMP JUMPDEST SWAP6 POP DUP1 NOT DUP5 AND SWAP4 POP DUP1 DUP7 AND DUP5 OR SWAP3 POP POP POP SWAP4 SWAP3 POP POP POP JUMP JUMPDEST PUSH0 DUP2 SWAP1 POP SWAP2 SWAP1 POP JUMP JUMPDEST PUSH0 DUP2 SWAP1 POP SWAP2 SWAP1 POP JUMP JUMPDEST PUSH0 PUSH3 0x49E PUSH3 0x498 PUSH3 0x492 DUP5 PUSH3 0x46C JUMP JUMPDEST PUSH3 0x475 JUMP JUMPDEST PUSH3 0x46C JUMP JUMPDEST SWAP1 POP SWAP2 SWAP1 POP JUMP JUMPDEST PUSH0 DUP2 SWAP1 POP SWAP2 SWAP1 POP JUMP JUMPDEST PUSH3 0x4B9 DUP4 PUSH3 0x47E JUMP JUMPDEST PUSH3 0x4D1 PUSH3 0x4C8 DUP3 PUSH3 0x4A5 JUMP JUMPDEST DUP5 DUP5 SLOAD PUSH3 0x417 JUMP JUMPDEST DUP3 SSTORE POP POP POP POP JUMP JUMPDEST PUSH0 SWAP1 JUMP JUMPDEST PUSH3 0x4E7 PUSH3 0x4D9 JUMP JUMPDEST PUSH3 0x4F4 DUP2 DUP5 DUP5 PUSH3 0x4AE JUMP JUMPDEST POP POP POP JUMP JUMPDEST JUMPDEST DUP2 DUP2 LT ISZERO PUSH3 0x51B JUMPI PUSH3 0x50F PUSH0 DUP3 PUSH3 0x4DD JUMP JUMPDEST PUSH1 0x1 DUP2 ADD SWAP1 POP PUSH3 0x4FA JUMP JUMPDEST POP POP JUMP JUMPDEST PUSH1 0x1F DUP3 GT ISZERO PUSH3 0x56A JUMPI PUSH3 0x534 DUP2 PUSH3 0x3EA JUMP JUMPDEST PUSH3 0x53F DUP5 PUSH3 0x3FC JUMP JUMPDEST DUP2 ADD PUSH1 0x20 DUP6 LT ISZERO PUSH3 0x54F JUMPI DUP2 SWAP1 POP JUMPDEST PUSH3 0x567 PUSH3 0x55E DUP6 PUSH3 0x3FC JUMP JUMPDEST DUP4 ADD DUP3 PUSH3 0x4F9 JUMP JUMPDEST POP POP JUMPDEST POP POP POP JUMP JUMPDEST PUSH0 DUP3 DUP3 SHR SWAP1 POP SWAP3 SWAP2 POP POP JUMP JUMPDEST PUSH0 PUSH3 0x58C PUSH0 NOT DUP5 PUSH1 0x8 MUL PUSH3 0x56F JUMP JUMPDEST NOT DUP1 DUP4 AND SWAP2 POP POP SWAP3 SWAP2 POP POP JUMP JUMPDEST PUSH0 PUSH3 0x5A6 DUP4 DUP4 PUSH3 0x57B JUMP JUMPDEST SWAP2 POP DUP3 PUSH1 0x2 MUL DUP3 OR SWAP1 POP SWAP3 SWAP2 POP POP JUMP JUMPDEST PUSH3 0x5C1 DUP3 PUSH3 0x352 JUMP JUMPDEST PUSH8 0xFFFFFFFFFFFFFFFF DUP2 GT ISZERO PUSH3 0x5DD JUMPI PUSH3 0x5DC PUSH3 0x35C JUMP JUMPDEST JUMPDEST PUSH3 0x5E9 DUP3 SLOAD PUSH3 0x3B6 JUMP JUMPDEST PUSH3 0x5F6 DUP3 DUP3 DUP6 PUSH3 0x51F JUMP JUMPDEST PUSH0 PUSH1 0x20 SWAP1 POP PUSH1 0x1F DUP4 GT PUSH1 0x1 DUP2 EQ PUSH3 0x62C JUMPI PUSH0 DUP5 ISZERO PUSH3 0x617 JUMPI DUP3 DUP8 ADD MLOAD SWAP1 POP JUMPDEST PUSH3 0x623 DUP6 DUP3 PUSH3 0x599 JUMP JUMPDEST DUP7 SSTORE POP PUSH3 0x692 JUMP JUMPDEST PUSH1 0x1F NOT DUP5 AND PUSH3 0x63C DUP7 PUSH3 0x3EA JUMP JUMPDEST PUSH0 JUMPDEST DUP3 DUP2 LT ISZERO PUSH3 0x665 JUMPI DUP5 DUP10 ADD MLOAD DUP3 SSTORE PUSH1 0x1 DUP3 ADD SWAP2 POP PUSH1 0x20 DUP6 ADD SWAP5 POP PUSH1 0x20 DUP2 ADD SWAP1 POP PUSH3 0x63E JUMP JUMPDEST DUP7 DUP4 LT ISZERO PUSH3 0x685 JUMPI DUP5 DUP10 ADD MLOAD PUSH3 0x681 PUSH1 0x1F DUP10 AND DUP3 PUSH3 0x57B JUMP JUMPDEST DUP4 SSTORE POP JUMPDEST PUSH1 0x1 PUSH1 0x2 DUP9 MUL ADD DUP9 SSTORE POP POP POP JUMPDEST POP POP POP POP POP POP JUMP JUMPDEST PUSH0 DUP2 SWAP1 POP SWAP2 SWAP1 POP JUMP JUMPDEST PUSH3 0x6AE DUP2 PUSH3 0x69A JUMP JUMPDEST DUP3 MSTORE POP POP JUMP JUMPDEST PUSH3 0x6BF DUP2 PUSH3 0x46C JUMP JUMPDEST DUP3 MSTORE POP POP JUMP JUMPDEST PUSH3 0x6D0 DUP2 PUSH3 0x2E0 JUMP JUMPDEST DUP3 MSTORE POP POP JUMP JUMPDEST PUSH0 PUSH1 0xA0 DUP3 ADD SWAP1 POP PUSH3 0x6EB PUSH0 DUP4 ADD DUP9 PUSH3 0x6A3 JUMP JUMPDEST PUSH3 0x6FA PUSH1 0x20 DUP4 ADD DUP8 PUSH3 0x6A3 JUMP JUMPDEST PUSH3 0x709 PUSH1 0x40 DUP4 ADD DUP7 PUSH3 0x6A3 JUMP JUMPDEST PUSH3 0x718 PUSH1 0x60 DUP4 ADD DUP6 PUSH3 0x6B4 JUMP JUMPDEST PUSH3 0x727 PUSH1 0x80 DUP4 ADD DUP5 PUSH3 0x6C5 JUMP JUMPDEST SWAP7 SWAP6 POP POP POP POP POP POP JUMP JUMPDEST PUSH0 DUP3 DUP3 MSTORE PUSH1 0x20 DUP3 ADD SWAP1 POP SWAP3 SWAP2 POP POP JUMP JUMPDEST PUSH0 JUMPDEST DUP4 DUP2 LT ISZERO PUSH3 0x760 JUMPI DUP1 DUP3 ADD MLOAD DUP2 DUP5 ADD MSTORE PUSH1 0x20 DUP2 ADD SWAP1 POP PUSH3 0x743 JUMP JUMPDEST PUSH0 DUP5 DUP5 ADD MSTORE POP POP POP POP JUMP JUMPDEST PUSH0 PUSH1 0x1F NOT PUSH1 0x1F DUP4 ADD AND SWAP1 POP SWAP2 SWAP1 POP JUMP JUMPDEST PUSH0 PUSH3 0x787 DUP3 PUSH3 0x352 JUMP JUMPDEST PUSH3 0x793 DUP2 DUP6 PUSH3 0x731 JUMP JUMPDEST SWAP4 POP PUSH3 0x7A5 DUP2 DUP6 PUSH1 0x20 DUP7 ADD PUSH3 0x741 JUMP JUMPDEST PUSH3 0x7B0 DUP2 PUSH3 0x76B JUMP JUMPDEST DUP5 ADD SWAP2 POP POP SWAP3 SWAP2 POP POP JUMP JUMPDEST PUSH0 PUSH1 0x20 DUP3 ADD SWAP1 POP DUP2 DUP2 SUB PUSH0 DUP4 ADD MSTORE PUSH3 0x7D5 DUP2 DUP5 PUSH3 0x77B JUMP JUMPDEST SWAP1 POP SWAP3 SWAP2 POP POP JUMP JUMPDEST PUSH0 DUP2 MLOAD SWAP1 POP SWAP2 SWAP1 POP JUMP JUMPDEST PUSH0 DUP2 SWAP1 POP PUSH1 0x20 DUP3 ADD SWAP1 POP SWAP2 SWAP1 POP JUMP JUMPDEST PUSH0 PUSH3 0x803 DUP3 MLOAD PUSH3 0x69A JUMP JUMPDEST DUP1 SWAP2 POP POP SWAP2 SWAP1 POP JUMP JUMPDEST PUSH0 PUSH3 0x818 DUP3 PUSH3 0x7DD JUMP JUMPDEST DUP3 PUSH3 0x824 DUP5 PUSH3 0x7E7 JUMP JUMPDEST SWAP1 POP PUSH3 0x831 DUP2 PUSH3 0x7F6 JUMP JUMPDEST SWAP3 POP PUSH1 0x20 DUP3 LT ISZERO PUSH3 0x874 JUMPI PUSH3 0x86F PUSH32 0xFFFFFFFFFFFFFFFFFFFFFFFFFFFFFFFFFFFFFFFFFFFFFFFFFFFFFFFFFFFFFFFF DUP4 PUSH1 0x20 SUB PUSH1 0x8 MUL PUSH3 0x40B JUMP JUMPDEST DUP4 AND SWAP3 POP JUMPDEST POP POP SWAP2 SWAP1 POP JUMP JUMPDEST PUSH1 0x80 MLOAD PUSH1 0xA0 MLOAD PUSH1 0xC0 MLOAD PUSH1 0xE0 MLOAD PUSH2 0x100 MLOAD PUSH2 0x120 MLOAD PUSH2 0x140 MLOAD PUSH2 0x266C PUSH3 0x8CD PUSH0 CODECOPY PUSH0 PUSH2 0x12EF ADD MSTORE PUSH0 PUSH2 0x12B4 ADD MSTORE PUSH0 PUSH2 0x175D ADD MSTORE PUSH0 PUSH2 0x173C ADD MSTORE PUSH0 PUSH2 0x1324 ADD MSTORE PUSH0 PUSH2 0x137A ADD MSTORE PUSH0 PUSH2 0x13A3 ADD MSTORE PUSH2 0x266C PUSH0 RETURN INVALID PUSH1 0x80 PUSH1 0x40 MSTORE CALLVALUE DUP1 ISZERO PUSH2 0xF JUMPI PUSH0 DUP1 REVERT JUMPDEST POP PUSH1 0x4 CALLDATASIZE LT PUSH2 0x9C JUMPI PUSH0 CALLDATALOAD PUSH1 0xE0 SHR DUP1 PUSH4 0x69FA32B0 GT PUSH2 0x64 JUMPI DUP1 PUSH4 0x69FA32B0 EQ PUSH2 0x190 JUMPI DUP1 PUSH4 0x792BCAC8 EQ PUSH2 0x1C0 JUMPI DUP1 PUSH4 0x84B0196E EQ PUSH2 0x1F0 JUMPI DUP1 PUSH4 0x87908527 EQ PUSH2 0x214 JUMPI DUP1 PUSH4 0xE959F150 EQ PUSH2 0x244 JUMPI PUSH2 0x9C JUMP JUMPDEST DUP1 PUSH4 0xEF6DF02 EQ PUSH2 0xA0 JUMPI DUP1 PUSH4 0x274C727C EQ PUSH2 0xD0 JUMPI DUP1 PUSH4 0x286C29C5 EQ PUSH2 0x100 JUMPI DUP1 PUSH4 0x5CF19200 EQ PUSH2 0x130 JUMPI DUP1 PUSH4 0x5F5D4D4A EQ PUSH2 0x160 JUMPI JUMPDEST PUSH0 DUP1 REVERT JUMPDEST PUSH2 0xBA PUSH1 0x4 DUP1 CALLDATASIZE SUB DUP2 ADD SWAP1 PUSH2 0xB5 SWAP2 SWAP1 PUSH2 0x1B36 JUMP JUMPDEST PUSH2 0x274 JUMP JUMPDEST PUSH1 0x40 MLOAD PUSH2 0xC7 SWAP2 SWAP1 PUSH2 0x1C31 JUMP JUMPDEST PUSH1 0x40 MLOAD DUP1 SWAP2 SUB SWAP1 RETURN JUMPDEST PUSH2 0xEA PUSH1 0x4 DUP1 CALLDATASIZE SUB DUP2 ADD SWAP1 PUSH2 0xE5 SWAP2 SWAP1 PUSH2 0x1B36 JUMP JUMPDEST PUSH2 0x403 JUMP JUMPDEST PUSH1 0x40 MLOAD PUSH2 0xF7 SWAP2 SWAP1 PUSH2 0x1C31 JUMP JUMPDEST PUSH1 0x40 MLOAD DUP1 SWAP2 SUB SWAP1 RETURN JUMPDEST PUSH2 0x11A PUSH1 0x4 DUP1 CALLDATASIZE SUB DUP2 ADD SWAP1 PUSH2 0x115 SWAP2 SWAP1 PUSH2 0x1B36 JUMP JUMPDEST PUSH2 0x5DB JUMP JUMPDEST PUSH1 0x40 MLOAD PUSH2 0x127 SWAP2 SWAP1 PUSH2 0x1C31 JUMP JUMPDEST PUSH1 0x40 MLOAD DUP1 SWAP2 SUB SWAP1 RETURN JUMPDEST PUSH2 0x14A PUSH1 0x4 DUP1 CALLDATASIZE SUB DUP2 ADD SWAP1 PUSH2 0x145 SWAP2 SWAP1 PUSH2 0x1B36 JUMP JUMPDEST PUSH2 0x76A JUMP JUMPDEST PUSH1 0x40 MLOAD PUSH2 0x157 SWAP2 SWAP1 PUSH2 0x1C31 JUMP JUMPDEST PUSH1 0x40 MLOAD DUP1 SWAP2 SUB SWAP1 RETURN JUMPDEST PUSH2 0x17A PUSH1 0x4 DUP1 CALLDATASIZE SUB DUP2 ADD SWAP1 PUSH2 0x175 SWAP2 SWAP1 PUSH2 0x1B36 JUMP JUMPDEST PUSH2 0x8F9 JUMP JUMPDEST PUSH1 0x40 MLOAD PUSH2 0x187 SWAP2 SWAP1 PUSH2 0x1C31 JUMP JUMPDEST PUSH1 0x40 MLOAD DUP1 SWAP2 SUB SWAP1 RETURN JUMPDEST PUSH2 0x1AA PUSH1 0x4 DUP1 CALLDATASIZE SUB DUP2 ADD SWAP1 PUSH2 0x1A5 SWAP2 SWAP1 PUSH2 0x1B36 JUMP JUMPDEST PUSH2 0xA88 JUMP JUMPDEST PUSH1 0x40 MLOAD PUSH2 0x1B7 SWAP2 SWAP1 PUSH2 0x1C31 JUMP JUMPDEST PUSH1 0x40 MLOAD DUP1 SWAP2 SUB SWAP1 RETURN JUMPDEST PUSH2 0x1DA PUSH1 0x4 DUP1 CALLDATASIZE SUB DUP2 ADD SWAP1 PUSH2 0x1D5 SWAP2 SWAP1 PUSH2 0x1B36 JUMP JUMPDEST PUSH2 0xC60 JUMP JUMPDEST PUSH1 0x40 MLOAD PUSH2 0x1E7 SWAP2 SWAP1 PUSH2 0x1CA3 JUMP JUMPDEST PUSH1 0x40 MLOAD DUP1 SWAP2 SUB SWAP1 RETURN JUMPDEST PUSH2 0x1F8 PUSH2 0xC83 JUMP JUMPDEST PUSH1 0x40 MLOAD PUSH2 0x20B SWAP8 SWAP7 SWAP6 SWAP5 SWAP4 SWAP3 SWAP2 SWAP1 PUSH2 0x1E1A JUMP JUMPDEST PUSH1 0x40 MLOAD DUP1 SWAP2 SUB SWAP1 RETURN JUMPDEST PUSH2 0x22E PUSH1 0x4 DUP1 CALLDATASIZE SUB DUP2 ADD SWAP1 PUSH2 0x229 SWAP2 SWAP1 PUSH2 0x1B36 JUMP JUMPDEST PUSH2 0xD28 JUMP JUMPDEST PUSH1 0x40 MLOAD PUSH2 0x23B SWAP2 SWAP1 PUSH2 0x1C31 JUMP JUMPDEST PUSH1 0x40 MLOAD DUP1 SWAP2 SUB SWAP1 RETURN JUMPDEST PUSH2 0x25E PUSH1 0x4 DUP1 CALLDATASIZE SUB DUP2 ADD SWAP1 PUSH2 0x259 SWAP2 SWAP1 PUSH2 0x1B36 JUMP JUMPDEST PUSH2 0xEFF JUMP JUMPDEST PUSH1 0x40 MLOAD PUSH2 0x26B SWAP2 SWAP1 PUSH2 0x1C31 JUMP JUMPDEST PUSH1 0x40 MLOAD DUP1 SWAP2 SUB SWAP1 RETURN JUMPDEST PUSH1 0x60 DUP4 DUP4 DUP4 DUP1 DUP1 PUSH1 0x1F ADD PUSH1 0x20 DUP1 SWAP2 DIV MUL PUSH1 0x20 ADD PUSH1 0x40 MLOAD SWAP1 DUP2 ADD PUSH1 0x40 MSTORE DUP1 SWAP4 SWAP3 SWAP2 SWAP1 DUP2 DUP2 MSTORE PUSH1 0x20 ADD DUP4 DUP4 DUP1 DUP3 DUP5 CALLDATACOPY PUSH0 DUP2 DUP5 ADD MSTORE PUSH1 0x1F NOT PUSH1 0x1F DUP3 ADD AND SWAP1 POP DUP1 DUP4 ADD SWAP3 POP POP POP POP POP POP POP DUP7 PUSH0 PUSH2 0x30E PUSH32 0x51D137AE0E1FAE6E3B6559FED4442B35A85A9A39789838AD5C9EA05E7DA2DCE DUP6 PUSH1 0x40 MLOAD PUSH1 0x20 ADD PUSH2 0x2F3 SWAP3 SWAP2 SWAP1 PUSH2 0x1E9C JUMP JUMPDEST PUSH1 0x40 MLOAD PUSH1 0x20 DUP2 DUP4 SUB SUB DUP2 MSTORE SWAP1 PUSH1 0x40 MSTORE DUP1 MLOAD SWAP1 PUSH1 0x20 ADD KECCAK256 PUSH2 0x10D7 JUMP JUMPDEST SWAP1 POP PUSH0 PUSH2 0x31B DUP3 DUP6 PUSH2 0x10F0 JUMP JUMPDEST SWAP1 POP PUSH0 PUSH2 0x327 DUP5 PUSH2 0x111A JUMP JUMPDEST SWAP1 POP CALLER PUSH20 0xFFFFFFFFFFFFFFFFFFFFFFFFFFFFFFFFFFFFFFFF AND DUP3 PUSH20 0xFFFFFFFFFFFFFFFFFFFFFFFFFFFFFFFFFFFFFFFF AND EQ DUP1 PUSH2 0x392 JUMPI POP DUP1 PUSH1 0x20 ADD MLOAD PUSH20 0xFFFFFFFFFFFFFFFFFFFFFFFFFFFFFFFFFFFFFFFF AND CALLER PUSH20 0xFFFFFFFFFFFFFFFFFFFFFFFFFFFFFFFFFFFFFFFF AND EQ JUMPDEST PUSH2 0x3D1 JUMPI PUSH1 0x40 MLOAD PUSH32 0x8C379A000000000000000000000000000000000000000000000000000000000 DUP2 MSTORE PUSH1 0x4 ADD PUSH2 0x3C8 SWAP1 PUSH2 0x1F33 JUMP JUMPDEST PUSH1 0x40 MLOAD DUP1 SWAP2 SUB SWAP1 REVERT JUMPDEST PUSH0 PUSH2 0x3DC DUP13 CALLER PUSH2 0x11C2 JUMP JUMPDEST SWAP1 POP PUSH0 PUSH2 0x3EE DUP3 PUSH1 0x80 ADD MLOAD DUP14 PUSH0 PUSH2 0x1270 JUMP JUMPDEST SWAP1 POP DUP1 SWAP9 POP POP POP POP POP POP POP POP POP SWAP5 SWAP4 POP POP POP POP JUMP JUMPDEST PUSH1 0x60 DUP5 PUSH0 PUSH2 0x410 DUP3 PUSH2 0x111A JUMP JUMPDEST SWAP1 POP DUP1 PUSH1 0x20 ADD MLOAD PUSH20 0xFFFFFFFFFFFFFFFFFFFFFFFFFFFFFFFFFFFFFFFF AND CALLER PUSH20 0xFFFFFFFFFFFFFFFFFFFFFFFFFFFFFFFFFFFFFFFF AND EQ PUSH2 0x44D JUMPI PUSH0 DUP1 REVERT JUMPDEST DUP6 DUP6 DUP6 DUP1 DUP1 PUSH1 0x1F ADD PUSH1 0x20 DUP1 SWAP2 DIV MUL PUSH1 0x20 ADD PUSH1 0x40 MLOAD SWAP1 DUP2 ADD PUSH1 0x40 MSTORE DUP1 SWAP4 SWAP3 SWAP2 SWAP1 DUP2 DUP2 MSTORE PUSH1 0x20 ADD DUP4 DUP4 DUP1 DUP3 DUP5 CALLDATACOPY PUSH0 DUP2 DUP5 ADD MSTORE PUSH1 0x1F NOT PUSH1 0x1F DUP3 ADD AND SWAP1 POP DUP1 DUP4 ADD SWAP3 POP POP POP POP POP POP POP DUP9 PUSH0 PUSH2 0x4E5 PUSH32 0x51D137AE0E1FAE6E3B6559FED4442B35A85A9A39789838AD5C9EA05E7DA2DCE DUP6 PUSH1 0x40 MLOAD PUSH1 0x20 ADD PUSH2 0x4CA SWAP3 SWAP2 SWAP1 PUSH2 0x1E9C JUMP JUMPDEST PUSH1 0x40 MLOAD PUSH1 0x20 DUP2 DUP4 SUB SUB DUP2 MSTORE SWAP1 PUSH1 0x40 MSTORE DUP1 MLOAD SWAP1 PUSH1 0x20 ADD KECCAK256 PUSH2 0x10D7 JUMP JUMPDEST SWAP1 POP PUSH0 PUSH2 0x4F2 DUP3 DUP6 PUSH2 0x10F0 JUMP JUMPDEST SWAP1 POP PUSH0 PUSH2 0x4FE DUP5 PUSH2 0x111A JUMP JUMPDEST SWAP1 POP CALLER PUSH20 0xFFFFFFFFFFFFFFFFFFFFFFFFFFFFFFFFFFFFFFFF AND DUP3 PUSH20 0xFFFFFFFFFFFFFFFFFFFFFFFFFFFFFFFFFFFFFFFF AND EQ DUP1 PUSH2 0x569 JUMPI POP DUP1 PUSH1 0x20 ADD MLOAD PUSH20 0xFFFFFFFFFFFFFFFFFFFFFFFFFFFFFFFFFFFFFFFF AND CALLER PUSH20 0xFFFFFFFFFFFFFFFFFFFFFFFFFFFFFFFFFFFFFFFF AND EQ JUMPDEST PUSH2 0x5A8 JUMPI PUSH1 0x40 MLOAD PUSH32 0x8C379A000000000000000000000000000000000000000000000000000000000 DUP2 MSTORE PUSH1 0x4 ADD PUSH2 0x59F SWAP1 PUSH2 0x1F33 JUMP JUMPDEST PUSH1 0x40 MLOAD DUP1 SWAP2 SUB SWAP1 REVERT JUMPDEST PUSH0 PUSH2 0x5B2 DUP15 PUSH2 0x111A JUMP JUMPDEST SWAP1 POP PUSH0 PUSH2 0x5C4 DUP3 PUSH1 0x40 ADD MLOAD DUP16 PUSH0 PUSH2 0x1270 JUMP JUMPDEST SWAP1 POP DUP1 SWAP11 POP POP POP POP POP POP POP POP POP POP POP SWAP5 SWAP4 POP POP POP POP JUMP JUMPDEST PUSH1 0x60 DUP4 DUP4 DUP4 DUP1 DUP1 PUSH1 0x1F ADD PUSH1 0x20 DUP1 SWAP2 DIV MUL PUSH1 0x20 ADD PUSH1 0x40 MLOAD SWAP1 DUP2 ADD PUSH1 0x40 MSTORE DUP1 SWAP4 SWAP3 SWAP2 SWAP1 DUP2 DUP2 MSTORE PUSH1 0x20 ADD DUP4 DUP4 DUP1 DUP3 DUP5 CALLDATACOPY PUSH0 DUP2 DUP5 ADD MSTORE PUSH1 0x1F NOT PUSH1 0x1F DUP3 ADD AND SWAP1 POP DUP1 DUP4 ADD SWAP3 POP POP POP POP POP POP POP DUP7 PUSH0 PUSH2 0x675 PUSH32 0x51D137AE0E1FAE6E3B6559FED4442B35A85A9A39789838AD5C9EA05E7DA2DCE DUP6 PUSH1 0x40 MLOAD PUSH1 0x20 ADD PUSH2 0x65A SWAP3 SWAP2 SWAP1 PUSH2 0x1E9C JUMP JUMPDEST PUSH1 0x40 MLOAD PUSH1 0x20 DUP2 DUP4 SUB SUB DUP2 MSTORE SWAP1 PUSH1 0x40 MSTORE DUP1 MLOAD SWAP1 PUSH1 0x20 ADD KECCAK256 PUSH2 0x10D7 JUMP JUMPDEST SWAP1 POP PUSH0 PUSH2 0x682 DUP3 DUP6 PUSH2 0x10F0 JUMP JUMPDEST SWAP1 POP PUSH0 PUSH2 0x68E DUP5 PUSH2 0x111A JUMP JUMPDEST SWAP1 POP CALLER PUSH20 0xFFFFFFFFFFFFFFFFFFFFFFFFFFFFFFFFFFFFFFFF AND DUP3 PUSH20 0xFFFFFFFFFFFFFFFFFFFFFFFFFFFFFFFFFFFFFFFF AND EQ DUP1 PUSH2 0x6F9 JUMPI POP DUP1 PUSH1 0x20 ADD MLOAD PUSH20 0xFFFFFFFFFFFFFFFFFFFFFFFFFFFFFFFFFFFFFFFF AND CALLER PUSH20 0xFFFFFFFFFFFFFFFFFFFFFFFFFFFFFFFFFFFFFFFF AND EQ JUMPDEST PUSH2 0x738 JUMPI PUSH1 0x40 MLOAD PUSH32 0x8C379A000000000000000000000000000000000000000000000000000000000 DUP2 MSTORE PUSH1 0x4 ADD PUSH2 0x72F SWAP1 PUSH2 0x1F33 JUMP JUMPDEST PUSH1 0x40 MLOAD DUP1 SWAP2 SUB SWAP1 REVERT JUMPDEST PUSH0 PUSH2 0x743 DUP13 CALLER PUSH2 0x11C2 JUMP JUMPDEST SWAP1 POP PUSH0 PUSH2 0x755 DUP3 PUSH1 0x60 ADD MLOAD DUP14 PUSH0 PUSH2 0x1270 JUMP JUMPDEST SWAP1 POP DUP1 SWAP9 POP POP POP POP POP POP POP POP POP SWAP5 SWAP4 POP POP POP POP JUMP JUMPDEST PUSH1 0x60 DUP4 DUP4 DUP4 DUP1 DUP1 PUSH1 0x1F ADD PUSH1 0x20 DUP1 SWAP2 DIV MUL PUSH1 0x20 ADD PUSH1 0x40 MLOAD SWAP1 DUP2 ADD PUSH1 0x40 MSTORE DUP1 SWAP4 SWAP3 SWAP2 SWAP1 DUP2 DUP2 MSTORE PUSH1 0x20 ADD DUP4 DUP4 DUP1 DUP3 DUP5 CALLDATACOPY PUSH0 DUP2 DUP5 ADD MSTORE PUSH1 0x1F NOT PUSH1 0x1F DUP3 ADD AND SWAP1 POP DUP1 DUP4 ADD SWAP3 POP POP POP POP POP POP POP DUP7 PUSH0 PUSH2 0x804 PUSH32 0x51D137AE0E1FAE6E3B6559FED4442B35A85A9A39789838AD5C9EA05E7DA2DCE DUP6 PUSH1 0x40 MLOAD PUSH1 0x20 ADD PUSH2 0x7E9 SWAP3 SWAP2 SWAP1 PUSH2 0x1E9C JUMP JUMPDEST PUSH1 0x40 MLOAD PUSH1 0x20 DUP2 DUP4 SUB SUB DUP2 MSTORE SWAP1 PUSH1 0x40 MSTORE DUP1 MLOAD SWAP1 PUSH1 0x20 ADD KECCAK256 PUSH2 0x10D7 JUMP JUMPDEST SWAP1 POP PUSH0 PUSH2 0x811 DUP3 DUP6 PUSH2 0x10F0 JUMP JUMPDEST SWAP1 POP PUSH0 PUSH2 0x81D DUP5 PUSH2 0x111A JUMP JUMPDEST SWAP1 POP CALLER PUSH20 0xFFFFFFFFFFFFFFFFFFFFFFFFFFFFFFFFFFFFFFFF AND DUP3 PUSH20 0xFFFFFFFFFFFFFFFFFFFFFFFFFFFFFFFFFFFFFFFF AND EQ DUP1 PUSH2 0x888 JUMPI POP DUP1 PUSH1 0x20 ADD MLOAD PUSH20 0xFFFFFFFFFFFFFFFFFFFFFFFFFFFFFFFFFFFFFFFF AND CALLER PUSH20 0xFFFFFFFFFFFFFFFFFFFFFFFFFFFFFFFFFFFFFFFF AND EQ JUMPDEST PUSH2 0x8C7 JUMPI PUSH1 0x40 MLOAD PUSH32 0x8C379A000000000000000000000000000000000000000000000000000000000 DUP2 MSTORE PUSH1 0x4 ADD PUSH2 0x8BE SWAP1 PUSH2 0x1F33 JUMP JUMPDEST PUSH1 0x40 MLOAD DUP1 SWAP2 SUB SWAP1 REVERT JUMPDEST PUSH0 PUSH2 0x8D2 DUP13 CALLER PUSH2 0x11C2 JUMP JUMPDEST SWAP1 POP PUSH0 PUSH2 0x8E4 DUP3 PUSH1 0x40 ADD MLOAD DUP14 PUSH0 PUSH2 0x1270 JUMP JUMPDEST SWAP1 POP DUP1 SWAP9 POP POP POP POP POP POP POP POP POP SWAP5 SWAP4 POP POP POP POP JUMP JUMPDEST PUSH1 0x60 DUP4 DUP4 DUP4 DUP1 DUP1 PUSH1 0x1F ADD PUSH1 0x20 DUP1 SWAP2 DIV MUL PUSH1 0x20 ADD PUSH1 0x40 MLOAD SWAP1 DUP2 ADD PUSH1 0x40 MSTORE DUP1 SWAP4 SWAP3 SWAP2 SWAP1 DUP2 DUP2 MSTORE PUSH1 0x20 ADD DUP4 DUP4 DUP1 DUP3 DUP5 CALLDATACOPY PUSH0 DUP2 DUP5 ADD MSTORE PUSH1 0x1F NOT PUSH1 0x1F DUP3 ADD AND SWAP1 POP DUP1 DUP4 ADD SWAP3 POP POP POP POP POP POP POP DUP7 PUSH0 PUSH2 0x993 PUSH32 0x51D137AE0E1FAE6E3B6559FED4442B35A85A9A39789838AD5C9EA05E7DA2DCE DUP6 PUSH1 0x40 MLOAD PUSH1 0x20 ADD PUSH2 0x978 SWAP3 SWAP2 SWAP1 PUSH2 0x1E9C JUMP JUMPDEST PUSH1 0x40 MLOAD PUSH1 0x20 DUP2 DUP4 SUB SUB DUP2 MSTORE SWAP1 PUSH1 0x40 MSTORE DUP1 MLOAD SWAP1 PUSH1 0x20 ADD KECCAK256 PUSH2 0x10D7 JUMP JUMPDEST SWAP1 POP PUSH0 PUSH2 0x9A0 DUP3 DUP6 PUSH2 0x10F0 JUMP JUMPDEST SWAP1 POP PUSH0 PUSH2 0x9AC DUP5 PUSH2 0x111A JUMP JUMPDEST SWAP1 POP CALLER PUSH20 0xFFFFFFFFFFFFFFFFFFFFFFFFFFFFFFFFFFFFFFFF AND DUP3 PUSH20 0xFFFFFFFFFFFFFFFFFFFFFFFFFFFFFFFFFFFFFFFF AND EQ DUP1 PUSH2 0xA17 JUMPI POP DUP1 PUSH1 0x20 ADD MLOAD PUSH20 0xFFFFFFFFFFFFFFFFFFFFFFFFFFFFFFFFFFFFFFFF AND CALLER PUSH20 0xFFFFFFFFFFFFFFFFFFFFFFFFFFFFFFFFFFFFFFFF AND EQ JUMPDEST PUSH2 0xA56 JUMPI PUSH1 0x40 MLOAD PUSH32 0x8C379A000000000000000000000000000000000000000000000000000000000 DUP2 MSTORE PUSH1 0x4 ADD PUSH2 0xA4D SWAP1 PUSH2 0x1F33 JUMP JUMPDEST PUSH1 0x40 MLOAD DUP1 SWAP2 SUB SWAP1 REVERT JUMPDEST PUSH0 PUSH2 0xA61 DUP13 CALLER PUSH2 0x11C2 JUMP JUMPDEST SWAP1 POP PUSH0 PUSH2 0xA73 DUP3 PUSH1 0xE0 ADD MLOAD DUP14 PUSH0 PUSH2 0x1270 JUMP JUMPDEST SWAP1 POP DUP1 SWAP9 POP POP POP POP POP POP POP POP POP SWAP5 SWAP4 POP POP POP POP JUMP JUMPDEST PUSH1 0x60 DUP5 PUSH0 PUSH2 0xA95 DUP3 PUSH2 0x111A JUMP JUMPDEST SWAP1 POP DUP1 PUSH1 0x20 ADD MLOAD PUSH20 0xFFFFFFFFFFFFFFFFFFFFFFFFFFFFFFFFFFFFFFFF AND CALLER PUSH20 0xFFFFFFFFFFFFFFFFFFFFFFFFFFFFFFFFFFFFFFFF AND EQ PUSH2 0xAD2 JUMPI PUSH0 DUP1 REVERT JUMPDEST DUP6 DUP6 DUP6 DUP1 DUP1 PUSH1 0x1F ADD PUSH1 0x20 DUP1 SWAP2 DIV MUL PUSH1 0x20 ADD PUSH1 0x40 MLOAD SWAP1 DUP2 ADD PUSH1 0x40 MSTORE DUP1 SWAP4 SWAP3 SWAP2 SWAP1 DUP2 DUP2 MSTORE PUSH1 0x20 ADD DUP4 DUP4 DUP1 DUP3 DUP5 CALLDATACOPY PUSH0 DUP2 DUP5 ADD MSTORE PUSH1 0x1F NOT PUSH1 0x1F DUP3 ADD AND SWAP1 POP DUP1 DUP4 ADD SWAP3 POP POP POP POP POP POP POP DUP9 PUSH0 PUSH2 0xB6A PUSH32 0x51D137AE0E1FAE6E3B6559FED4442B35A85A9A39789838AD5C9EA05E7DA2DCE DUP6 PUSH1 0x40 MLOAD PUSH1 0x20 ADD PUSH2 0xB4F SWAP3 SWAP2 SWAP1 PUSH2 0x1E9C JUMP JUMPDEST PUSH1 0x40 MLOAD PUSH1 0x20 DUP2 DUP4 SUB SUB DUP2 MSTORE SWAP1 PUSH1 0x40 MSTORE DUP1 MLOAD SWAP1 PUSH1 0x20 ADD KECCAK256 PUSH2 0x10D7 JUMP JUMPDEST SWAP1 POP PUSH0 PUSH2 0xB77 DUP3 DUP6 PUSH2 0x10F0 JUMP JUMPDEST SWAP1 POP PUSH0 PUSH2 0xB83 DUP5 PUSH2 0x111A JUMP JUMPDEST SWAP1 POP CALLER PUSH20 0xFFFFFFFFFFFFFFFFFFFFFFFFFFFFFFFFFFFFFFFF AND DUP3 PUSH20 0xFFFFFFFFFFFFFFFFFFFFFFFFFFFFFFFFFFFFFFFF AND EQ DUP1 PUSH2 0xBEE JUMPI POP DUP1 PUSH1 0x20 ADD MLOAD PUSH20 0xFFFFFFFFFFFFFFFFFFFFFFFFFFFFFFFFFFFFFFFF AND CALLER PUSH20 0xFFFFFFFFFFFFFFFFFFFFFFFFFFFFFFFFFFFFFFFF AND EQ JUMPDEST PUSH2 0xC2D JUMPI PUSH1 0x40 MLOAD PUSH32 0x8C379A000000000000000000000000000000000000000000000000000000000 DUP2 MSTORE PUSH1 0x4 ADD PUSH2 0xC24 SWAP1 PUSH2 0x1F33 JUMP JUMPDEST PUSH1 0x40 MLOAD DUP1 SWAP2 SUB SWAP1 REVERT JUMPDEST PUSH0 PUSH2 0xC37 DUP15 PUSH2 0x111A JUMP JUMPDEST SWAP1 POP PUSH0 PUSH2 0xC49 DUP3 PUSH1 0x60 ADD MLOAD DUP16 PUSH0 PUSH2 0x1270 JUMP JUMPDEST SWAP1 POP DUP1 SWAP11 POP POP POP POP POP POP POP POP POP POP POP SWAP5 SWAP4 POP POP POP POP JUMP JUMPDEST PUSH1 0x60 PUSH0 PUSH2 0xC6D DUP7 CALLER PUSH2 0x11C2 JUMP JUMPDEST SWAP1 POP PUSH0 DUP2 PUSH0 ADD MLOAD SWAP1 POP DUP1 SWAP3 POP POP POP SWAP5 SWAP4 POP POP POP POP JUMP JUMPDEST PUSH0 PUSH1 0x60 DUP1 PUSH0 DUP1 PUSH0 PUSH1 0x60 PUSH2 0xC94 PUSH2 0x12AC JUMP JUMPDEST PUSH2 0xC9C PUSH2 0x12E6 JUMP JUMPDEST CHAINID ADDRESS PUSH0 DUP1 SHL PUSH0 PUSH8 0xFFFFFFFFFFFFFFFF DUP2 GT ISZERO PUSH2 0xCBB JUMPI PUSH2 0xCBA PUSH2 0x1F51 JUMP JUMPDEST JUMPDEST PUSH1 0x40 MLOAD SWAP1 DUP1 DUP3 MSTORE DUP1 PUSH1 0x20 MUL PUSH1 0x20 ADD DUP3 ADD PUSH1 0x40 MSTORE DUP1 ISZERO PUSH2 0xCE9 JUMPI DUP2 PUSH1 0x20 ADD PUSH1 0x20 DUP3 MUL DUP1 CALLDATASIZE DUP4 CALLDATACOPY DUP1 DUP3 ADD SWAP2 POP POP SWAP1 POP JUMPDEST POP PUSH32 0xF00000000000000000000000000000000000000000000000000000000000000 SWAP6 SWAP5 SWAP4 SWAP3 SWAP2 SWAP1 SWAP7 POP SWAP7 POP SWAP7 POP SWAP7 POP SWAP7 POP SWAP7 POP SWAP7 POP SWAP1 SWAP2 SWAP3 SWAP4 SWAP5 SWAP6 SWAP7 JUMP JUMPDEST PUSH1 0x60 DUP5 PUSH0 PUSH2 0xD35 DUP3 PUSH2 0x111A JUMP JUMPDEST SWAP1 POP DUP1 PUSH1 0x20 ADD MLOAD PUSH20 0xFFFFFFFFFFFFFFFFFFFFFFFFFFFFFFFFFFFFFFFF AND CALLER PUSH20 0xFFFFFFFFFFFFFFFFFFFFFFFFFFFFFFFFFFFFFFFF AND EQ PUSH2 0xD72 JUMPI PUSH0 DUP1 REVERT JUMPDEST DUP6 DUP6 DUP6 DUP1 DUP1 PUSH1 0x1F ADD PUSH1 0x20 DUP1 SWAP2 DIV MUL PUSH1 0x20 ADD PUSH1 0x40 MLOAD SWAP1 DUP2 ADD PUSH1 0x40 MSTORE DUP1 SWAP4 SWAP3 SWAP2 SWAP1 DUP2 DUP2 MSTORE PUSH1 0x20 ADD DUP4 DUP4 DUP1 DUP3 DUP5 CALLDATACOPY PUSH0 DUP2 DUP5 ADD MSTORE PUSH1 0x1F NOT PUSH1 0x1F DUP3 ADD AND SWAP1 POP DUP1 DUP4 ADD SWAP3 POP POP POP POP POP POP POP DUP9 PUSH0 PUSH2 0xE0A PUSH32 0x51D137AE0E1FAE6E3B6559FED4442B35A85A9A39789838AD5C9EA05E7DA2DCE DUP6 PUSH1 0x40 MLOAD PUSH1 0x20 ADD PUSH2 0xDEF SWAP3 SWAP2 SWAP1 PUSH2 0x1E9C JUMP JUMPDEST PUSH1 0x40 MLOAD PUSH1 0x20 DUP2 DUP4 SUB SUB DUP2 MSTORE SWAP1 PUSH1 0x40 MSTORE DUP1 MLOAD SWAP1 PUSH1 0x20 ADD KECCAK256 PUSH2 0x10D7 JUMP JUMPDEST SWAP1 POP PUSH0 PUSH2 0xE17 DUP3 DUP6 PUSH2 0x10F0 JUMP JUMPDEST SWAP1 POP PUSH0 PUSH2 0xE23 DUP5 PUSH2 0x111A JUMP JUMPDEST SWAP1 POP CALLER PUSH20 0xFFFFFFFFFFFFFFFFFFFFFFFFFFFFFFFFFFFFFFFF AND DUP3 PUSH20 0xFFFFFFFFFFFFFFFFFFFFFFFFFFFFFFFFFFFFFFFF AND EQ DUP1 PUSH2 0xE8E JUMPI POP DUP1 PUSH1 0x20 ADD MLOAD PUSH20 0xFFFFFFFFFFFFFFFFFFFFFFFFFFFFFFFFFFFFFFFF AND CALLER PUSH20 0xFFFFFFFFFFFFFFFFFFFFFFFFFFFFFFFFFFFFFFFF AND EQ JUMPDEST PUSH2 0xECD JUMPI PUSH1 0x40 MLOAD PUSH32 0x8C379A000000000000000000000000000000000000000000000000000000000 DUP2 MSTORE PUSH1 0x4 ADD PUSH2 0xEC4 SWAP1 PUSH2 0x1F33 JUMP JUMPDEST PUSH1 0x40 MLOAD DUP1 SWAP2 SUB SWAP1 REVERT JUMPDEST PUSH0 PUSH2 0xED7 DUP15 PUSH2 0x111A JUMP JUMPDEST SWAP1 POP PUSH0 PUSH2 0xEE8 DUP3 PUSH0 ADD MLOAD DUP16 PUSH0 PUSH2 0x1270 JUMP JUMPDEST SWAP1 POP DUP1 SWAP11 POP POP POP POP POP POP POP POP POP POP POP SWAP5 SWAP4 POP POP POP POP JUMP JUMPDEST PUSH1 0x60 DUP5 PUSH0 PUSH2 0xF0C DUP3 PUSH2 0x111A JUMP JUMPDEST SWAP1 POP DUP1 PUSH1 0x20 ADD MLOAD PUSH20 0xFFFFFFFFFFFFFFFFFFFFFFFFFFFFFFFFFFFFFFFF AND CALLER PUSH20 0xFFFFFFFFFFFFFFFFFFFFFFFFFFFFFFFFFFFFFFFF AND EQ PUSH2 0xF49 JUMPI PUSH0 DUP1 REVERT JUMPDEST DUP6 DUP6 DUP6 DUP1 DUP1 PUSH1 0x1F ADD PUSH1 0x20 DUP1 SWAP2 DIV MUL PUSH1 0x20 ADD PUSH1 0x40 MLOAD SWAP1 DUP2 ADD PUSH1 0x40 MSTORE DUP1 SWAP4 SWAP3 SWAP2 SWAP1 DUP2 DUP2 MSTORE PUSH1 0x20 ADD DUP4 DUP4 DUP1 DUP3 DUP5 CALLDATACOPY PUSH0 DUP2 DUP5 ADD MSTORE PUSH1 0x1F NOT PUSH1 0x1F DUP3 ADD AND SWAP1 POP DUP1 DUP4 ADD SWAP3 POP POP POP POP POP POP POP DUP9 PUSH0 PUSH2 0xFE1 PUSH32 0x51D137AE0E1FAE6E3B6559FED4442B35A85A9A39789838AD5C9EA05E7DA2DCE DUP6 PUSH1 0x40 MLOAD PUSH1 0x20 ADD PUSH2 0xFC6 SWAP3 SWAP2 SWAP1 PUSH2 0x1E9C JUMP JUMPDEST PUSH1 0x40 MLOAD PUSH1 0x20 DUP2 DUP4 SUB SUB DUP2 MSTORE SWAP1 PUSH1 0x40 MSTORE DUP1 MLOAD SWAP1 PUSH1 0x20 ADD KECCAK256 PUSH2 0x10D7 JUMP JUMPDEST SWAP1 POP PUSH0 PUSH2 0xFEE DUP3 DUP6 PUSH2 0x10F0 JUMP JUMPDEST SWAP1 POP PUSH0 PUSH2 0xFFA DUP5 PUSH2 0x111A JUMP JUMPDEST SWAP1 POP CALLER PUSH20 0xFFFFFFFFFFFFFFFFFFFFFFFFFFFFFFFFFFFFFFFF AND DUP3 PUSH20 0xFFFFFFFFFFFFFFFFFFFFFFFFFFFFFFFFFFFFFFFF AND EQ DUP1 PUSH2 0x1065 JUMPI POP DUP1 PUSH1 0x20 ADD MLOAD PUSH20 0xFFFFFFFFFFFFFFFFFFFFFFFFFFFFFFFFFFFFFFFF AND CALLER PUSH20 0xFFFFFFFFFFFFFFFFFFFFFFFFFFFFFFFFFFFFFFFF AND EQ JUMPDEST PUSH2 0x10A4 JUMPI PUSH1 0x40 MLOAD PUSH32 0x8C379A000000000000000000000000000000000000000000000000000000000 DUP2 MSTORE PUSH1 0x4 ADD PUSH2 0x109B SWAP1 PUSH2 0x1F33 JUMP JUMPDEST PUSH1 0x40 MLOAD DUP1 SWAP2 SUB SWAP1 REVERT JUMPDEST PUSH0 PUSH2 0x10AE DUP15 PUSH2 0x111A JUMP JUMPDEST SWAP1 POP PUSH0 PUSH2 0x10C0 DUP3 PUSH1 0x80 ADD MLOAD DUP16 PUSH0 PUSH2 0x1270 JUMP JUMPDEST SWAP1 POP DUP1 SWAP11 POP POP POP POP POP POP POP POP POP POP POP SWAP5 SWAP4 POP POP POP POP JUMP JUMPDEST PUSH0 PUSH2 0x10E9 PUSH2 0x10E3 PUSH2 0x1321 JUMP JUMPDEST DUP4 PUSH2 0x13D7 JUMP JUMPDEST SWAP1 POP SWAP2 SWAP1 POP JUMP JUMPDEST PUSH0 DUP1 PUSH0 DUP1 PUSH2 0x10FE DUP7 DUP7 PUSH2 0x1417 JUMP JUMPDEST SWAP3 POP SWAP3 POP SWAP3 POP PUSH2 0x110E DUP3 DUP3 PUSH2 0x146C JUMP JUMPDEST DUP3 SWAP4 POP POP POP POP SWAP3 SWAP2 POP POP JUMP JUMPDEST PUSH2 0x1122 PUSH2 0x19DB JUMP JUMPDEST PUSH1 0x2 PUSH0 SWAP1 SLOAD SWAP1 PUSH2 0x100 EXP SWAP1 DIV PUSH20 0xFFFFFFFFFFFFFFFFFFFFFFFFFFFFFFFFFFFFFFFF AND PUSH20 0xFFFFFFFFFFFFFFFFFFFFFFFFFFFFFFFFFFFFFFFF AND PUSH4 0x30F37B44 DUP4 PUSH1 0x40 MLOAD DUP3 PUSH4 0xFFFFFFFF AND PUSH1 0xE0 SHL DUP2 MSTORE PUSH1 0x4 ADD PUSH2 0x117C SWAP2 SWAP1 PUSH2 0x1F7E JUMP JUMPDEST PUSH1 0xC0 PUSH1 0x40 MLOAD DUP1 DUP4 SUB DUP2 DUP7 GAS STATICCALL ISZERO DUP1 ISZERO PUSH2 0x1197 JUMPI RETURNDATASIZE PUSH0 DUP1 RETURNDATACOPY RETURNDATASIZE PUSH0 REVERT JUMPDEST POP POP POP POP PUSH1 0x40 MLOAD RETURNDATASIZE PUSH1 0x1F NOT PUSH1 0x1F DUP3 ADD AND DUP3 ADD DUP1 PUSH1 0x40 MSTORE POP DUP2 ADD SWAP1 PUSH2 0x11BB SWAP2 SWAP1 PUSH2 0x20DB JUMP JUMPDEST SWAP1 POP SWAP2 SWAP1 POP JUMP JUMPDEST PUSH2 0x11CA PUSH2 0x1A37 JUMP JUMPDEST PUSH1 0x2 PUSH0 SWAP1 SLOAD SWAP1 PUSH2 0x100 EXP SWAP1 DIV PUSH20 0xFFFFFFFFFFFFFFFFFFFFFFFFFFFFFFFFFFFFFFFF AND PUSH20 0xFFFFFFFFFFFFFFFFFFFFFFFFFFFFFFFFFFFFFFFF AND PUSH4 0x80DC8AE8 DUP5 DUP5 PUSH1 0x40 MLOAD DUP4 PUSH4 0xFFFFFFFF AND PUSH1 0xE0 SHL DUP2 MSTORE PUSH1 0x4 ADD PUSH2 0x1226 SWAP3 SWAP2 SWAP1 PUSH2 0x2106 JUMP JUMPDEST PUSH0 PUSH1 0x40 MLOAD DUP1 DUP4 SUB DUP2 DUP7 GAS STATICCALL ISZERO DUP1 ISZERO PUSH2 0x1240 JUMPI RETURNDATASIZE PUSH0 DUP1 RETURNDATACOPY RETURNDATASIZE PUSH0 REVERT JUMPDEST POP POP POP POP PUSH1 0x40 MLOAD RETURNDATASIZE PUSH0 DUP3 RETURNDATACOPY RETURNDATASIZE PUSH1 0x1F NOT PUSH1 0x1F DUP3 ADD AND DUP3 ADD DUP1 PUSH1 0x40 MSTORE POP DUP2 ADD SWAP1 PUSH2 0x1268 SWAP2 SWAP1 PUSH2 0x2315 JUMP JUMPDEST SWAP1 POP SWAP3 SWAP2 POP POP JUMP JUMPDEST PUSH1 0x60 PUSH0 DUP5 EQ PUSH2 0x128A JUMPI PUSH2 0x1283 DUP5 DUP5 PUSH2 0x15CE JUMP JUMPDEST SWAP1 POP PUSH2 0x12A5 JUMP JUMPDEST PUSH2 0x12A2 PUSH2 0x129C DUP4 PUSH4 0xFFFFFFFF AND PUSH2 0x1658 JUMP JUMPDEST DUP5 PUSH2 0x15CE JUMP JUMPDEST SWAP1 POP JUMPDEST SWAP4 SWAP3 POP POP POP JUMP JUMPDEST PUSH1 0x60 PUSH2 0x12E1 PUSH0 PUSH32 0x0 PUSH2 0x166B SWAP1 SWAP2 SWAP1 PUSH4 0xFFFFFFFF AND JUMP JUMPDEST SWAP1 POP SWAP1 JUMP JUMPDEST PUSH1 0x60 PUSH2 0x131C PUSH1 0x1 PUSH32 0x0 PUSH2 0x166B SWAP1 SWAP2 SWAP1 PUSH4 0xFFFFFFFF AND JUMP JUMPDEST SWAP1 POP SWAP1 JUMP JUMPDEST PUSH0 PUSH32 0x0 PUSH20 0xFFFFFFFFFFFFFFFFFFFFFFFFFFFFFFFFFFFFFFFF AND ADDRESS PUSH20 0xFFFFFFFFFFFFFFFFFFFFFFFFFFFFFFFFFFFFFFFF AND EQ DUP1 ISZERO PUSH2 0x139C JUMPI POP PUSH32 0x0 CHAINID EQ JUMPDEST ISZERO PUSH2 0x13C9 JUMPI PUSH32 0x0 SWAP1 POP PUSH2 0x13D4 JUMP JUMPDEST PUSH2 0x13D1 PUSH2 0x1718 JUMP JUMPDEST SWAP1 POP JUMPDEST SWAP1 JUMP JUMPDEST PUSH0 PUSH1 0x40 MLOAD PUSH32 0x1901000000000000000000000000000000000000000000000000000000000000 DUP2 MSTORE DUP4 PUSH1 0x2 DUP3 ADD MSTORE DUP3 PUSH1 0x22 DUP3 ADD MSTORE PUSH1 0x42 DUP2 KECCAK256 SWAP2 POP POP SWAP3 SWAP2 POP POP JUMP JUMPDEST PUSH0 DUP1 PUSH0 PUSH1 0x41 DUP5 MLOAD SUB PUSH2 0x1457 JUMPI PUSH0 DUP1 PUSH0 PUSH1 0x20 DUP8 ADD MLOAD SWAP3 POP PUSH1 0x40 DUP8 ADD MLOAD SWAP2 POP PUSH1 0x60 DUP8 ADD MLOAD PUSH0 BYTE SWAP1 POP PUSH2 0x1449 DUP9 DUP3 DUP6 DUP6 PUSH2 0x17AD JUMP JUMPDEST SWAP6 POP SWAP6 POP SWAP6 POP POP POP POP PUSH2 0x1465 JUMP JUMPDEST PUSH0 PUSH1 0x2 DUP6 MLOAD PUSH0 SHL SWAP3 POP SWAP3 POP SWAP3 POP JUMPDEST SWAP3 POP SWAP3 POP SWAP3 JUMP JUMPDEST PUSH0 PUSH1 0x3 DUP2 GT ISZERO PUSH2 0x147F JUMPI PUSH2 0x147E PUSH2 0x235C JUMP JUMPDEST JUMPDEST DUP3 PUSH1 0x3 DUP2 GT ISZERO PUSH2 0x1492 JUMPI PUSH2 0x1491 PUSH2 0x235C JUMP JUMPDEST JUMPDEST SUB ISZERO PUSH2 0x15CA JUMPI PUSH1 0x1 PUSH1 0x3 DUP2 GT ISZERO PUSH2 0x14AC JUMPI PUSH2 0x14AB PUSH2 0x235C JUMP JUMPDEST JUMPDEST DUP3 PUSH1 0x3 DUP2 GT ISZERO PUSH2 0x14BF JUMPI PUSH2 0x14BE PUSH2 0x235C JUMP JUMPDEST JUMPDEST SUB PUSH2 0x14F6 JUMPI PUSH1 0x40 MLOAD PUSH32 0xF645EEDF00000000000000000000000000000000000000000000000000000000 DUP2 MSTORE PUSH1 0x4 ADD PUSH1 0x40 MLOAD DUP1 SWAP2 SUB SWAP1 REVERT JUMPDEST PUSH1 0x2 PUSH1 0x3 DUP2 GT ISZERO PUSH2 0x150A JUMPI PUSH2 0x1509 PUSH2 0x235C JUMP JUMPDEST JUMPDEST DUP3 PUSH1 0x3 DUP2 GT ISZERO PUSH2 0x151D JUMPI PUSH2 0x151C PUSH2 0x235C JUMP JUMPDEST JUMPDEST SUB PUSH2 0x1561 JUMPI DUP1 PUSH0 SHR PUSH1 0x40 MLOAD PUSH32 0xFCE698F700000000000000000000000000000000000000000000000000000000 DUP2 MSTORE PUSH1 0x4 ADD PUSH2 0x1558 SWAP2 SWAP1 PUSH2 0x2389 JUMP JUMPDEST PUSH1 0x40 MLOAD DUP1 SWAP2 SUB SWAP1 REVERT JUMPDEST PUSH1 0x3 DUP1 DUP2 GT ISZERO PUSH2 0x1574 JUMPI PUSH2 0x1573 PUSH2 0x235C JUMP JUMPDEST JUMPDEST DUP3 PUSH1 0x3 DUP2 GT ISZERO PUSH2 0x1587 JUMPI PUSH2 0x1586 PUSH2 0x235C JUMP JUMPDEST JUMPDEST SUB PUSH2 0x15C9 JUMPI DUP1 PUSH1 0x40 MLOAD PUSH32 0xD78BCE0C00000000000000000000000000000000000000000000000000000000 DUP2 MSTORE PUSH1 0x4 ADD PUSH2 0x15C0 SWAP2 SWAP1 PUSH2 0x1F7E JUMP JUMPDEST PUSH1 0x40 MLOAD DUP1 SWAP2 SUB SWAP1 REVERT JUMPDEST JUMPDEST POP POP JUMP JUMPDEST PUSH1 0x60 PUSH1 0x5D PUSH20 0xFFFFFFFFFFFFFFFFFFFFFFFFFFFFFFFFFFFFFFFF AND PUSH4 0xD6AD57CD DUP5 DUP5 PUSH0 SHR PUSH1 0x40 MLOAD DUP4 PUSH4 0xFFFFFFFF AND PUSH1 0xE0 SHL DUP2 MSTORE PUSH1 0x4 ADD PUSH2 0x160E SWAP3 SWAP2 SWAP1 PUSH2 0x23A2 JUMP JUMPDEST PUSH0 PUSH1 0x40 MLOAD DUP1 DUP4 SUB DUP2 DUP7 GAS STATICCALL ISZERO DUP1 ISZERO PUSH2 0x1628 JUMPI RETURNDATASIZE PUSH0 DUP1 RETURNDATACOPY RETURNDATASIZE PUSH0 REVERT JUMPDEST POP POP POP POP PUSH1 0x40 MLOAD RETURNDATASIZE PUSH0 DUP3 RETURNDATACOPY RETURNDATASIZE PUSH1 0x1F NOT PUSH1 0x1F DUP3 ADD AND DUP3 ADD DUP1 PUSH1 0x40 MSTORE POP DUP2 ADD SWAP1 PUSH2 0x1650 SWAP2 SWAP1 PUSH2 0x2467 JUMP JUMPDEST SWAP1 POP SWAP3 SWAP2 POP POP JUMP JUMPDEST PUSH0 PUSH2 0x1664 DUP3 PUSH1 0x2 PUSH2 0x1894 JUMP JUMPDEST SWAP1 POP SWAP2 SWAP1 POP JUMP JUMPDEST PUSH1 0x60 PUSH1 0xFF PUSH0 SHL DUP4 EQ PUSH2 0x1687 JUMPI PUSH2 0x1680 DUP4 PUSH2 0x191B JUMP JUMPDEST SWAP1 POP PUSH2 0x1712 JUMP JUMPDEST DUP2 DUP1 SLOAD PUSH2 0x1693 SWAP1 PUSH2 0x24DB JUMP JUMPDEST DUP1 PUSH1 0x1F ADD PUSH1 0x20 DUP1 SWAP2 DIV MUL PUSH1 0x20 ADD PUSH1 0x40 MLOAD SWAP1 DUP2 ADD PUSH1 0x40 MSTORE DUP1 SWAP3 SWAP2 SWAP1 DUP2 DUP2 MSTORE PUSH1 0x20 ADD DUP3 DUP1 SLOAD PUSH2 0x16BF SWAP1 PUSH2 0x24DB JUMP JUMPDEST DUP1 ISZERO PUSH2 0x170A JUMPI DUP1 PUSH1 0x1F LT PUSH2 0x16E1 JUMPI PUSH2 0x100 DUP1 DUP4 SLOAD DIV MUL DUP4 MSTORE SWAP2 PUSH1 0x20 ADD SWAP2 PUSH2 0x170A JUMP JUMPDEST DUP3 ADD SWAP2 SWAP1 PUSH0 MSTORE PUSH1 0x20 PUSH0 KECCAK256 SWAP1 JUMPDEST DUP2 SLOAD DUP2 MSTORE SWAP1 PUSH1 0x1 ADD SWAP1 PUSH1 0x20 ADD DUP1 DUP4 GT PUSH2 0x16ED JUMPI DUP3 SWAP1 SUB PUSH1 0x1F AND DUP3 ADD SWAP2 JUMPDEST POP POP POP POP POP SWAP1 POP JUMPDEST SWAP3 SWAP2 POP POP JUMP JUMPDEST PUSH0 PUSH32 0x8B73C3C69BB8FE3D512ECC4CF759CC79239F7B179B0FFACAA9A75D522B39400F PUSH32 0x0 PUSH32 0x0 CHAINID ADDRESS PUSH1 0x40 MLOAD PUSH1 0x20 ADD PUSH2 0x1792 SWAP6 SWAP5 SWAP4 SWAP3 SWAP2 SWAP1 PUSH2 0x250B JUMP JUMPDEST PUSH1 0x40 MLOAD PUSH1 0x20 DUP2 DUP4 SUB SUB DUP2 MSTORE SWAP1 PUSH1 0x40 MSTORE DUP1 MLOAD SWAP1 PUSH1 0x20 ADD KECCAK256 SWAP1 POP SWAP1 JUMP JUMPDEST PUSH0 DUP1 PUSH0 PUSH32 0x7FFFFFFFFFFFFFFFFFFFFFFFFFFFFFFF5D576E7357A4501DDFE92F46681B20A0 DUP5 PUSH0 SHR GT ISZERO PUSH2 0x17E9 JUMPI PUSH0 PUSH1 0x3 DUP6 SWAP3 POP SWAP3 POP SWAP3 POP PUSH2 0x188A JUMP JUMPDEST PUSH0 PUSH1 0x1 DUP9 DUP9 DUP9 DUP9 PUSH1 0x40 MLOAD PUSH0 DUP2 MSTORE PUSH1 0x20 ADD PUSH1 0x40 MSTORE PUSH1 0x40 MLOAD PUSH2 0x180C SWAP5 SWAP4 SWAP3 SWAP2 SWAP1 PUSH2 0x2577 JUMP JUMPDEST PUSH1 0x20 PUSH1 0x40 MLOAD PUSH1 0x20 DUP2 SUB SWAP1 DUP1 DUP5 SUB SWAP1 DUP6 GAS STATICCALL ISZERO DUP1 ISZERO PUSH2 0x182C JUMPI RETURNDATASIZE PUSH0 DUP1 RETURNDATACOPY RETURNDATASIZE PUSH0 REVERT JUMPDEST POP POP POP PUSH1 0x20 PUSH1 0x40 MLOAD SUB MLOAD SWAP1 POP PUSH0 PUSH20 0xFFFFFFFFFFFFFFFFFFFFFFFFFFFFFFFFFFFFFFFF AND DUP2 PUSH20 0xFFFFFFFFFFFFFFFFFFFFFFFFFFFFFFFFFFFFFFFF AND SUB PUSH2 0x187D JUMPI PUSH0 PUSH1 0x1 PUSH0 DUP1 SHL SWAP4 POP SWAP4 POP SWAP4 POP POP PUSH2 0x188A JUMP JUMPDEST DUP1 PUSH0 DUP1 PUSH0 SHL SWAP4 POP SWAP4 POP SWAP4 POP POP JUMPDEST SWAP5 POP SWAP5 POP SWAP5 SWAP2 POP POP JUMP JUMPDEST PUSH0 PUSH1 0x5D PUSH20 0xFFFFFFFFFFFFFFFFFFFFFFFFFFFFFFFFFFFFFFFF AND PUSH4 0xE71746B8 DUP5 DUP5 PUSH1 0xF8 SHL PUSH1 0x40 MLOAD DUP4 PUSH4 0xFFFFFFFF AND PUSH1 0xE0 SHL DUP2 MSTORE PUSH1 0x4 ADD PUSH2 0x18D4 SWAP3 SWAP2 SWAP1 PUSH2 0x25BA JUMP JUMPDEST PUSH1 0x20 PUSH1 0x40 MLOAD DUP1 DUP4 SUB DUP2 DUP7 GAS STATICCALL ISZERO DUP1 ISZERO PUSH2 0x18EF JUMPI RETURNDATASIZE PUSH0 DUP1 RETURNDATACOPY RETURNDATASIZE PUSH0 REVERT JUMPDEST POP POP POP POP PUSH1 0x40 MLOAD RETURNDATASIZE PUSH1 0x1F NOT PUSH1 0x1F DUP3 ADD AND DUP3 ADD DUP1 PUSH1 0x40 MSTORE POP DUP2 ADD SWAP1 PUSH2 0x1913 SWAP2 SWAP1 PUSH2 0x260B JUMP JUMPDEST SWAP1 POP SWAP3 SWAP2 POP POP JUMP JUMPDEST PUSH1 0x60 PUSH0 PUSH2 0x1927 DUP4 PUSH2 0x198D JUMP JUMPDEST SWAP1 POP PUSH0 PUSH1 0x20 PUSH8 0xFFFFFFFFFFFFFFFF DUP2 GT ISZERO PUSH2 0x1945 JUMPI PUSH2 0x1944 PUSH2 0x1F51 JUMP JUMPDEST JUMPDEST PUSH1 0x40 MLOAD SWAP1 DUP1 DUP3 MSTORE DUP1 PUSH1 0x1F ADD PUSH1 0x1F NOT AND PUSH1 0x20 ADD DUP3 ADD PUSH1 0x40 MSTORE DUP1 ISZERO PUSH2 0x1977 JUMPI DUP2 PUSH1 0x20 ADD PUSH1 0x1 DUP3 MUL DUP1 CALLDATASIZE DUP4 CALLDATACOPY DUP1 DUP3 ADD SWAP2 POP POP SWAP1 POP JUMPDEST POP SWAP1 POP DUP2 DUP2 MSTORE DUP4 PUSH1 0x20 DUP3 ADD MSTORE DUP1 SWAP3 POP POP POP SWAP2 SWAP1 POP JUMP JUMPDEST PUSH0 DUP1 PUSH1 0xFF DUP4 PUSH0 SHR AND SWAP1 POP PUSH1 0x1F DUP2 GT ISZERO PUSH2 0x19D2 JUMPI PUSH1 0x40 MLOAD PUSH32 0xB3512B0C00000000000000000000000000000000000000000000000000000000 DUP2 MSTORE PUSH1 0x4 ADD PUSH1 0x40 MLOAD DUP1 SWAP2 SUB SWAP1 REVERT JUMPDEST DUP1 SWAP2 POP POP SWAP2 SWAP1 POP JUMP JUMPDEST PUSH1 0x40 MLOAD DUP1 PUSH1 0xC0 ADD PUSH1 0x40 MSTORE DUP1 PUSH0 DUP2 MSTORE PUSH1 0x20 ADD PUSH0 PUSH20 0xFFFFFFFFFFFFFFFFFFFFFFFFFFFFFFFFFFFFFFFF AND DUP2 MSTORE PUSH1 0x20 ADD PUSH0 DUP2 MSTORE PUSH1 0x20 ADD PUSH0 DUP2 MSTORE PUSH1 0x20 ADD PUSH0 DUP2 MSTORE PUSH1 0x20 ADD PUSH0 PUSH20 0xFFFFFFFFFFFFFFFFFFFFFFFFFFFFFFFFFFFFFFFF AND DUP2 MSTORE POP SWAP1 JUMP JUMPDEST PUSH1 0x40 MLOAD DUP1 PUSH2 0x100 ADD PUSH1 0x40 MSTORE DUP1 PUSH1 0x60 DUP2 MSTORE PUSH1 0x20 ADD PUSH0 PUSH20 0xFFFFFFFFFFFFFFFFFFFFFFFFFFFFFFFFFFFFFFFF AND DUP2 MSTORE PUSH1 0x20 ADD PUSH0 DUP2 MSTORE PUSH1 0x20 ADD PUSH0 DUP2 MSTORE PUSH1 0x20 ADD PUSH0 DUP2 MSTORE PUSH1 0x20 ADD PUSH0 DUP2 MSTORE PUSH1 0x20 ADD PUSH0 PUSH4 0xFFFFFFFF AND DUP2 MSTORE PUSH1 0x20 ADD PUSH0 DUP2 MSTORE POP SWAP1 JUMP JUMPDEST PUSH0 PUSH1 0x40 MLOAD SWAP1 POP SWAP1 JUMP JUMPDEST PUSH0 DUP1 REVERT JUMPDEST PUSH0 DUP1 REVERT JUMPDEST PUSH0 DUP2 SWAP1 POP SWAP2 SWAP1 POP JUMP JUMPDEST PUSH2 0x1AB4 DUP2 PUSH2 0x1AA2 JUMP JUMPDEST DUP2 EQ PUSH2 0x1ABE JUMPI PUSH0 DUP1 REVERT JUMPDEST POP JUMP JUMPDEST PUSH0 DUP2 CALLDATALOAD SWAP1 POP PUSH2 0x1ACF DUP2 PUSH2 0x1AAB JUMP JUMPDEST SWAP3 SWAP2 POP POP JUMP JUMPDEST PUSH0 DUP1 REVERT JUMPDEST PUSH0 DUP1 REVERT JUMPDEST PUSH0 DUP1 REVERT JUMPDEST PUSH0 DUP1 DUP4 PUSH1 0x1F DUP5 ADD SLT PUSH2 0x1AF6 JUMPI PUSH2 0x1AF5 PUSH2 0x1AD5 JUMP JUMPDEST JUMPDEST DUP3 CALLDATALOAD SWAP1 POP PUSH8 0xFFFFFFFFFFFFFFFF DUP2 GT ISZERO PUSH2 0x1B13 JUMPI PUSH2 0x1B12 PUSH2 0x1AD9 JUMP JUMPDEST JUMPDEST PUSH1 0x20 DUP4 ADD SWAP2 POP DUP4 PUSH1 0x1 DUP3 MUL DUP4 ADD GT ISZERO PUSH2 0x1B2F JUMPI PUSH2 0x1B2E PUSH2 0x1ADD JUMP JUMPDEST JUMPDEST SWAP3 POP SWAP3 SWAP1 POP JUMP JUMPDEST PUSH0 DUP1 PUSH0 DUP1 PUSH1 0x60 DUP6 DUP8 SUB SLT ISZERO PUSH2 0x1B4E JUMPI PUSH2 0x1B4D PUSH2 0x1A9A JUMP JUMPDEST JUMPDEST PUSH0 PUSH2 0x1B5B DUP8 DUP3 DUP9 ADD PUSH2 0x1AC1 JUMP JUMPDEST SWAP5 POP POP PUSH1 0x20 PUSH2 0x1B6C DUP8 DUP3 DUP9 ADD PUSH2 0x1AC1 JUMP JUMPDEST SWAP4 POP POP PUSH1 0x40 DUP6 ADD CALLDATALOAD PUSH8 0xFFFFFFFFFFFFFFFF DUP2 GT ISZERO PUSH2 0x1B8D JUMPI PUSH2 0x1B8C PUSH2 0x1A9E JUMP JUMPDEST JUMPDEST PUSH2 0x1B99 DUP8 DUP3 DUP9 ADD PUSH2 0x1AE1 JUMP JUMPDEST SWAP3 POP SWAP3 POP POP SWAP3 SWAP6 SWAP2 SWAP5 POP SWAP3 POP JUMP JUMPDEST PUSH0 DUP2 MLOAD SWAP1 POP SWAP2 SWAP1 POP JUMP JUMPDEST PUSH0 DUP3 DUP3 MSTORE PUSH1 0x20 DUP3 ADD SWAP1 POP SWAP3 SWAP2 POP POP JUMP JUMPDEST PUSH0 JUMPDEST DUP4 DUP2 LT ISZERO PUSH2 0x1BDE JUMPI DUP1 DUP3 ADD MLOAD DUP2 DUP5 ADD MSTORE PUSH1 0x20 DUP2 ADD SWAP1 POP PUSH2 0x1BC3 JUMP JUMPDEST PUSH0 DUP5 DUP5 ADD MSTORE POP POP POP POP JUMP JUMPDEST PUSH0 PUSH1 0x1F NOT PUSH1 0x1F DUP4 ADD AND SWAP1 POP SWAP2 SWAP1 POP JUMP JUMPDEST PUSH0 PUSH2 0x1C03 DUP3 PUSH2 0x1BA7 JUMP JUMPDEST PUSH2 0x1C0D DUP2 DUP6 PUSH2 0x1BB1 JUMP JUMPDEST SWAP4 POP PUSH2 0x1C1D DUP2 DUP6 PUSH1 0x20 DUP7 ADD PUSH2 0x1BC1 JUMP JUMPDEST PUSH2 0x1C26 DUP2 PUSH2 0x1BE9 JUMP JUMPDEST DUP5 ADD SWAP2 POP POP SWAP3 SWAP2 POP POP JUMP JUMPDEST PUSH0 PUSH1 0x20 DUP3 ADD SWAP1 POP DUP2 DUP2 SUB PUSH0 DUP4 ADD MSTORE PUSH2 0x1C49 DUP2 DUP5 PUSH2 0x1BF9 JUMP JUMPDEST SWAP1 POP SWAP3 SWAP2 POP POP JUMP JUMPDEST PUSH0 DUP2 MLOAD SWAP1 POP SWAP2 SWAP1 POP JUMP JUMPDEST PUSH0 DUP3 DUP3 MSTORE PUSH1 0x20 DUP3 ADD SWAP1 POP SWAP3 SWAP2 POP POP JUMP JUMPDEST PUSH0 PUSH2 0x1C75 DUP3 PUSH2 0x1C51 JUMP JUMPDEST PUSH2 0x1C7F DUP2 DUP6 PUSH2 0x1C5B JUMP JUMPDEST SWAP4 POP PUSH2 0x1C8F DUP2 DUP6 PUSH1 0x20 DUP7 ADD PUSH2 0x1BC1 JUMP JUMPDEST PUSH2 0x1C98 DUP2 PUSH2 0x1BE9 JUMP JUMPDEST DUP5 ADD SWAP2 POP POP SWAP3 SWAP2 POP POP JUMP JUMPDEST PUSH0 PUSH1 0x20 DUP3 ADD SWAP1 POP DUP2 DUP2 SUB PUSH0 DUP4 ADD MSTORE PUSH2 0x1CBB DUP2 DUP5 PUSH2 0x1C6B JUMP JUMPDEST SWAP1 POP SWAP3 SWAP2 POP POP JUMP JUMPDEST PUSH0 PUSH32 0xFF00000000000000000000000000000000000000000000000000000000000000 DUP3 AND SWAP1 POP SWAP2 SWAP1 POP JUMP JUMPDEST PUSH2 0x1CF7 DUP2 PUSH2 0x1CC3 JUMP JUMPDEST DUP3 MSTORE POP POP JUMP JUMPDEST PUSH0 DUP2 SWAP1 POP SWAP2 SWAP1 POP JUMP JUMPDEST PUSH2 0x1D0F DUP2 PUSH2 0x1CFD JUMP JUMPDEST DUP3 MSTORE POP POP JUMP JUMPDEST PUSH0 PUSH20 0xFFFFFFFFFFFFFFFFFFFFFFFFFFFFFFFFFFFFFFFF DUP3 AND SWAP1 POP SWAP2 SWAP1 POP JUMP JUMPDEST PUSH0 PUSH2 0x1D3E DUP3 PUSH2 0x1D15 JUMP JUMPDEST SWAP1 POP SWAP2 SWAP1 POP JUMP JUMPDEST PUSH2 0x1D4E DUP2 PUSH2 0x1D34 JUMP JUMPDEST DUP3 MSTORE POP POP JUMP JUMPDEST PUSH2 0x1D5D DUP2 PUSH2 0x1AA2 JUMP JUMPDEST DUP3 MSTORE POP POP JUMP JUMPDEST PUSH0 DUP2 MLOAD SWAP1 POP SWAP2 SWAP1 POP JUMP JUMPDEST PUSH0 DUP3 DUP3 MSTORE PUSH1 0x20 DUP3 ADD SWAP1 POP SWAP3 SWAP2 POP POP JUMP JUMPDEST PUSH0 DUP2 SWAP1 POP PUSH1 0x20 DUP3 ADD SWAP1 POP SWAP2 SWAP1 POP JUMP JUMPDEST PUSH2 0x1D95 DUP2 PUSH2 0x1CFD JUMP JUMPDEST DUP3 MSTORE POP POP JUMP JUMPDEST PUSH0 PUSH2 0x1DA6 DUP4 DUP4 PUSH2 0x1D8C JUMP JUMPDEST PUSH1 0x20 DUP4 ADD SWAP1 POP SWAP3 SWAP2 POP POP JUMP JUMPDEST PUSH0 PUSH1 0x20 DUP3 ADD SWAP1 POP SWAP2 SWAP1 POP JUMP JUMPDEST PUSH0 PUSH2 0x1DC8 DUP3 PUSH2 0x1D63 JUMP JUMPDEST PUSH2 0x1DD2 DUP2 DUP6 PUSH2 0x1D6D JUMP JUMPDEST SWAP4 POP PUSH2 0x1DDD DUP4 PUSH2 0x1D7D JUMP JUMPDEST DUP1 PUSH0 JUMPDEST DUP4 DUP2 LT ISZERO PUSH2 0x1E0D JUMPI DUP2 MLOAD PUSH2 0x1DF4 DUP9 DUP3 PUSH2 0x1D9B JUMP JUMPDEST SWAP8 POP PUSH2 0x1DFF DUP4 PUSH2 0x1DB2 JUMP JUMPDEST SWAP3 POP POP PUSH1 0x1 DUP2 ADD SWAP1 POP PUSH2 0x1DE0 JUMP JUMPDEST POP DUP6 SWAP4 POP POP POP POP SWAP3 SWAP2 POP POP JUMP JUMPDEST PUSH0 PUSH1 0xE0 DUP3 ADD SWAP1 POP PUSH2 0x1E2D PUSH0 DUP4 ADD DUP11 PUSH2 0x1CEE JUMP JUMPDEST DUP2 DUP2 SUB PUSH1 0x20 DUP4 ADD MSTORE PUSH2 0x1E3F DUP2 DUP10 PUSH2 0x1C6B JUMP JUMPDEST SWAP1 POP DUP2 DUP2 SUB PUSH1 0x40 DUP4 ADD MSTORE PUSH2 0x1E53 DUP2 DUP9 PUSH2 0x1C6B JUMP JUMPDEST SWAP1 POP PUSH2 0x1E62 PUSH1 0x60 DUP4 ADD DUP8 PUSH2 0x1D06 JUMP JUMPDEST PUSH2 0x1E6F PUSH1 0x80 DUP4 ADD DUP7 PUSH2 0x1D45 JUMP JUMPDEST PUSH2 0x1E7C PUSH1 0xA0 DUP4 ADD DUP6 PUSH2 0x1D54 JUMP JUMPDEST DUP2 DUP2 SUB PUSH1 0xC0 DUP4 ADD MSTORE PUSH2 0x1E8E DUP2 DUP5 PUSH2 0x1DBE JUMP JUMPDEST SWAP1 POP SWAP9 SWAP8 POP POP POP POP POP POP POP POP JUMP JUMPDEST PUSH0 PUSH1 0x40 DUP3 ADD SWAP1 POP PUSH2 0x1EAF PUSH0 DUP4 ADD DUP6 PUSH2 0x1D54 JUMP JUMPDEST PUSH2 0x1EBC PUSH1 0x20 DUP4 ADD DUP5 PUSH2 0x1D54 JUMP JUMPDEST SWAP4 SWAP3 POP POP POP JUMP JUMPDEST PUSH32 0x454950373132207369676E657220616E64207472616E73616374696F6E207369 PUSH0 DUP3 ADD MSTORE PUSH32 0x676E657220646F206E6F74206D61746368000000000000000000000000000000 PUSH1 0x20 DUP3 ADD MSTORE POP JUMP JUMPDEST PUSH0 PUSH2 0x1F1D PUSH1 0x31 DUP4 PUSH2 0x1C5B JUMP JUMPDEST SWAP2 POP PUSH2 0x1F28 DUP3 PUSH2 0x1EC3 JUMP JUMPDEST PUSH1 0x40 DUP3 ADD SWAP1 POP SWAP2 SWAP1 POP JUMP JUMPDEST PUSH0 PUSH1 0x20 DUP3 ADD SWAP1 POP DUP2 DUP2 SUB PUSH0 DUP4 ADD MSTORE PUSH2 0x1F4A DUP2 PUSH2 0x1F11 JUMP JUMPDEST SWAP1 POP SWAP2 SWAP1 POP JUMP JUMPDEST PUSH32 0x4E487B7100000000000000000000000000000000000000000000000000000000 PUSH0 MSTORE PUSH1 0x41 PUSH1 0x4 MSTORE PUSH1 0x24 PUSH0 REVERT JUMPDEST PUSH0 PUSH1 0x20 DUP3 ADD SWAP1 POP PUSH2 0x1F91 PUSH0 DUP4 ADD DUP5 PUSH2 0x1D54 JUMP JUMPDEST SWAP3 SWAP2 POP POP JUMP JUMPDEST PUSH0 DUP1 REVERT JUMPDEST PUSH2 0x1FA4 DUP3 PUSH2 0x1BE9 JUMP JUMPDEST DUP2 ADD DUP2 DUP2 LT PUSH8 0xFFFFFFFFFFFFFFFF DUP3 GT OR ISZERO PUSH2 0x1FC3 JUMPI PUSH2 0x1FC2 PUSH2 0x1F51 JUMP JUMPDEST JUMPDEST DUP1 PUSH1 0x40 MSTORE POP POP POP JUMP JUMPDEST PUSH0 PUSH2 0x1FD5 PUSH2 0x1A91 JUMP JUMPDEST SWAP1 POP PUSH2 0x1FE1 DUP3 DUP3 PUSH2 0x1F9B JUMP JUMPDEST SWAP2 SWAP1 POP JUMP JUMPDEST PUSH0 DUP1 REVERT JUMPDEST PUSH2 0x1FF3 DUP2 PUSH2 0x1CFD JUMP JUMPDEST DUP2 EQ PUSH2 0x1FFD JUMPI PUSH0 DUP1 REVERT JUMPDEST POP JUMP JUMPDEST PUSH0 DUP2 MLOAD SWAP1 POP PUSH2 0x200E DUP2 PUSH2 0x1FEA JUMP JUMPDEST SWAP3 SWAP2 POP POP JUMP JUMPDEST PUSH2 0x201D DUP2 PUSH2 0x1D34 JUMP JUMPDEST DUP2 EQ PUSH2 0x2027 JUMPI PUSH0 DUP1 REVERT JUMPDEST POP JUMP JUMPDEST PUSH0 DUP2 MLOAD SWAP1 POP PUSH2 0x2038 DUP2 PUSH2 0x2014 JUMP JUMPDEST SWAP3 SWAP2 POP POP JUMP JUMPDEST PUSH0 PUSH1 0xC0 DUP3 DUP5 SUB SLT ISZERO PUSH2 0x2053 JUMPI PUSH2 0x2052 PUSH2 0x1F97 JUMP JUMPDEST JUMPDEST PUSH2 0x205D PUSH1 0xC0 PUSH2 0x1FCC JUMP JUMPDEST SWAP1 POP PUSH0 PUSH2 0x206C DUP5 DUP3 DUP6 ADD PUSH2 0x2000 JUMP JUMPDEST PUSH0 DUP4 ADD MSTORE POP PUSH1 0x20 PUSH2 0x207F DUP5 DUP3 DUP6 ADD PUSH2 0x202A JUMP JUMPDEST PUSH1 0x20 DUP4 ADD MSTORE POP PUSH1 0x40 PUSH2 0x2093 DUP5 DUP3 DUP6 ADD PUSH2 0x2000 JUMP JUMPDEST PUSH1 0x40 DUP4 ADD MSTORE POP PUSH1 0x60 PUSH2 0x20A7 DUP5 DUP3 DUP6 ADD PUSH2 0x2000 JUMP JUMPDEST PUSH1 0x60 DUP4 ADD MSTORE POP PUSH1 0x80 PUSH2 0x20BB DUP5 DUP3 DUP6 ADD PUSH2 0x2000 JUMP JUMPDEST PUSH1 0x80 DUP4 ADD MSTORE POP PUSH1 0xA0 PUSH2 0x20CF DUP5 DUP3 DUP6 ADD PUSH2 0x202A JUMP JUMPDEST PUSH1 0xA0 DUP4 ADD MSTORE POP SWAP3 SWAP2 POP POP JUMP JUMPDEST PUSH0 PUSH1 0xC0 DUP3 DUP5 SUB SLT ISZERO PUSH2 0x20F0 JUMPI PUSH2 0x20EF PUSH2 0x1A9A JUMP JUMPDEST JUMPDEST PUSH0 PUSH2 0x20FD DUP5 DUP3 DUP6 ADD PUSH2 0x203E JUMP JUMPDEST SWAP2 POP POP SWAP3 SWAP2 POP POP JUMP JUMPDEST PUSH0 PUSH1 0x40 DUP3 ADD SWAP1 POP PUSH2 0x2119 PUSH0 DUP4 ADD DUP6 PUSH2 0x1D54 JUMP JUMPDEST PUSH2 0x2126 PUSH1 0x20 DUP4 ADD DUP5 PUSH2 0x1D45 JUMP JUMPDEST SWAP4 SWAP3 POP POP POP JUMP JUMPDEST PUSH0 DUP1 REVERT JUMPDEST PUSH0 PUSH8 0xFFFFFFFFFFFFFFFF DUP3 GT ISZERO PUSH2 0x214B JUMPI PUSH2 0x214A PUSH2 0x1F51 JUMP JUMPDEST JUMPDEST PUSH2 0x2154 DUP3 PUSH2 0x1BE9 JUMP JUMPDEST SWAP1 POP PUSH1 0x20 DUP2 ADD SWAP1 POP SWAP2 SWAP1 POP JUMP JUMPDEST PUSH0 PUSH2 0x2173 PUSH2 0x216E DUP5 PUSH2 0x2131 JUMP JUMPDEST PUSH2 0x1FCC JUMP JUMPDEST SWAP1 POP DUP3 DUP2 MSTORE PUSH1 0x20 DUP2 ADD DUP5 DUP5 DUP5 ADD GT ISZERO PUSH2 0x218F JUMPI PUSH2 0x218E PUSH2 0x212D JUMP JUMPDEST JUMPDEST PUSH2 0x219A DUP5 DUP3 DUP6 PUSH2 0x1BC1 JUMP JUMPDEST POP SWAP4 SWAP3 POP POP POP JUMP JUMPDEST PUSH0 DUP3 PUSH1 0x1F DUP4 ADD SLT PUSH2 0x21B6 JUMPI PUSH2 0x21B5 PUSH2 0x1AD5 JUMP JUMPDEST JUMPDEST DUP2 MLOAD PUSH2 0x21C6 DUP5 DUP3 PUSH1 0x20 DUP7 ADD PUSH2 0x2161 JUMP JUMPDEST SWAP2 POP POP SWAP3 SWAP2 POP POP JUMP JUMPDEST PUSH2 0x21D8 DUP2 PUSH2 0x1CFD JUMP JUMPDEST DUP2 EQ PUSH2 0x21E2 JUMPI PUSH0 DUP1 REVERT JUMPDEST POP JUMP JUMPDEST PUSH0 DUP2 MLOAD SWAP1 POP PUSH2 0x21F3 DUP2 PUSH2 0x21CF JUMP JUMPDEST SWAP3 SWAP2 POP POP JUMP JUMPDEST PUSH0 PUSH4 0xFFFFFFFF DUP3 AND SWAP1 POP SWAP2 SWAP1 POP JUMP JUMPDEST PUSH2 0x2211 DUP2 PUSH2 0x21F9 JUMP JUMPDEST DUP2 EQ PUSH2 0x221B JUMPI PUSH0 DUP1 REVERT JUMPDEST POP JUMP JUMPDEST PUSH0 DUP2 MLOAD SWAP1 POP PUSH2 0x222C DUP2 PUSH2 0x2208 JUMP JUMPDEST SWAP3 SWAP2 POP POP JUMP JUMPDEST PUSH0 PUSH2 0x100 DUP3 DUP5 SUB SLT ISZERO PUSH2 0x2248 JUMPI PUSH2 0x2247 PUSH2 0x1F97 JUMP JUMPDEST JUMPDEST PUSH2 0x2253 PUSH2 0x100 PUSH2 0x1FCC JUMP JUMPDEST SWAP1 POP PUSH0 DUP3 ADD MLOAD PUSH8 0xFFFFFFFFFFFFFFFF DUP2 GT ISZERO PUSH2 0x2272 JUMPI PUSH2 0x2271 PUSH2 0x1FE6 JUMP JUMPDEST JUMPDEST PUSH2 0x227E DUP5 DUP3 DUP6 ADD PUSH2 0x21A2 JUMP JUMPDEST PUSH0 DUP4 ADD MSTORE POP PUSH1 0x20 PUSH2 0x2291 DUP5 DUP3 DUP6 ADD PUSH2 0x202A JUMP JUMPDEST PUSH1 0x20 DUP4 ADD MSTORE POP PUSH1 0x40 PUSH2 0x22A5 DUP5 DUP3 DUP6 ADD PUSH2 0x2000 JUMP JUMPDEST PUSH1 0x40 DUP4 ADD MSTORE POP PUSH1 0x60 PUSH2 0x22B9 DUP5 DUP3 DUP6 ADD PUSH2 0x2000 JUMP JUMPDEST PUSH1 0x60 DUP4 ADD MSTORE POP PUSH1 0x80 PUSH2 0x22CD DUP5 DUP3 DUP6 ADD PUSH2 0x2000 JUMP JUMPDEST PUSH1 0x80 DUP4 ADD MSTORE POP PUSH1 0xA0 PUSH2 0x22E1 DUP5 DUP3 DUP6 ADD PUSH2 0x21E5 JUMP JUMPDEST PUSH1 0xA0 DUP4 ADD MSTORE POP PUSH1 0xC0 PUSH2 0x22F5 DUP5 DUP3 DUP6 ADD PUSH2 0x221E JUMP JUMPDEST PUSH1 0xC0 DUP4 ADD MSTORE POP PUSH1 0xE0 PUSH2 0x2309 DUP5 DUP3 DUP6 ADD PUSH2 0x2000 JUMP JUMPDEST PUSH1 0xE0 DUP4 ADD MSTORE POP SWAP3 SWAP2 POP POP JUMP JUMPDEST PUSH0 PUSH1 0x20 DUP3 DUP5 SUB SLT ISZERO PUSH2 0x232A JUMPI PUSH2 0x2329 PUSH2 0x1A9A JUMP JUMPDEST JUMPDEST PUSH0 DUP3 ADD MLOAD PUSH8 0xFFFFFFFFFFFFFFFF DUP2 GT ISZERO PUSH2 0x2347 JUMPI PUSH2 0x2346 PUSH2 0x1A9E JUMP JUMPDEST JUMPDEST PUSH2 0x2353 DUP5 DUP3 DUP6 ADD PUSH2 0x2232 JUMP JUMPDEST SWAP2 POP POP SWAP3 SWAP2 POP POP JUMP JUMPDEST PUSH32 0x4E487B7100000000000000000000000000000000000000000000000000000000 PUSH0 MSTORE PUSH1 0x21 PUSH1 0x4 MSTORE PUSH1 0x24 PUSH0 REVERT JUMPDEST PUSH0 PUSH1 0x20 DUP3 ADD SWAP1 POP PUSH2 0x239C PUSH0 DUP4 ADD DUP5 PUSH2 0x1D06 JUMP JUMPDEST SWAP3 SWAP2 POP POP JUMP JUMPDEST PUSH0 PUSH1 0x40 DUP3 ADD SWAP1 POP PUSH2 0x23B5 PUSH0 DUP4 ADD DUP6 PUSH2 0x1D06 JUMP JUMPDEST PUSH2 0x23C2 PUSH1 0x20 DUP4 ADD DUP5 PUSH2 0x1D06 JUMP JUMPDEST SWAP4 SWAP3 POP POP POP JUMP JUMPDEST PUSH0 PUSH8 0xFFFFFFFFFFFFFFFF DUP3 GT ISZERO PUSH2 0x23E3 JUMPI PUSH2 0x23E2 PUSH2 0x1F51 JUMP JUMPDEST JUMPDEST PUSH2 0x23EC DUP3 PUSH2 0x1BE9 JUMP JUMPDEST SWAP1 POP PUSH1 0x20 DUP2 ADD SWAP1 POP SWAP2 SWAP1 POP JUMP JUMPDEST PUSH0 PUSH2 0x240B PUSH2 0x2406 DUP5 PUSH2 0x23C9 JUMP JUMPDEST PUSH2 0x1FCC JUMP JUMPDEST SWAP1 POP DUP3 DUP2 MSTORE PUSH1 0x20 DUP2 ADD DUP5 DUP5 DUP5 ADD GT ISZERO PUSH2 0x2427 JUMPI PUSH2 0x2426 PUSH2 0x212D JUMP JUMPDEST JUMPDEST PUSH2 0x2432 DUP5 DUP3 DUP6 PUSH2 0x1BC1 JUMP JUMPDEST POP SWAP4 SWAP3 POP POP POP JUMP JUMPDEST PUSH0 DUP3 PUSH1 0x1F DUP4 ADD SLT PUSH2 0x244E JUMPI PUSH2 0x244D PUSH2 0x1AD5 JUMP JUMPDEST JUMPDEST DUP2 MLOAD PUSH2 0x245E DUP5 DUP3 PUSH1 0x20 DUP7 ADD PUSH2 0x23F9 JUMP JUMPDEST SWAP2 POP POP SWAP3 SWAP2 POP POP JUMP JUMPDEST PUSH0 PUSH1 0x20 DUP3 DUP5 SUB SLT ISZERO PUSH2 0x247C JUMPI PUSH2 0x247B PUSH2 0x1A9A JUMP JUMPDEST JUMPDEST PUSH0 DUP3 ADD MLOAD PUSH8 0xFFFFFFFFFFFFFFFF DUP2 GT ISZERO PUSH2 0x2499 JUMPI PUSH2 0x2498 PUSH2 0x1A9E JUMP JUMPDEST JUMPDEST PUSH2 0x24A5 DUP5 DUP3 DUP6 ADD PUSH2 0x243A JUMP JUMPDEST SWAP2 POP POP SWAP3 SWAP2 POP POP JUMP JUMPDEST PUSH32 0x4E487B7100000000000000000000000000000000000000000000000000000000 PUSH0 MSTORE PUSH1 0x22 PUSH1 0x4 MSTORE PUSH1 0x24 PUSH0 REVERT JUMPDEST PUSH0 PUSH1 0x2 DUP3 DIV SWAP1 POP PUSH1 0x1 DUP3 AND DUP1 PUSH2 0x24F2 JUMPI PUSH1 0x7F DUP3 AND SWAP2 POP JUMPDEST PUSH1 0x20 DUP3 LT DUP2 SUB PUSH2 0x2505 JUMPI PUSH2 0x2504 PUSH2 0x24AE JUMP JUMPDEST JUMPDEST POP SWAP2 SWAP1 POP JUMP JUMPDEST PUSH0 PUSH1 0xA0 DUP3 ADD SWAP1 POP PUSH2 0x251E PUSH0 DUP4 ADD DUP9 PUSH2 0x1D54 JUMP JUMPDEST PUSH2 0x252B PUSH1 0x20 DUP4 ADD DUP8 PUSH2 0x1D54 JUMP JUMPDEST PUSH2 0x2538 PUSH1 0x40 DUP4 ADD DUP7 PUSH2 0x1D54 JUMP JUMPDEST PUSH2 0x2545 PUSH1 0x60 DUP4 ADD DUP6 PUSH2 0x1D06 JUMP JUMPDEST PUSH2 0x2552 PUSH1 0x80 DUP4 ADD DUP5 PUSH2 0x1D45 JUMP JUMPDEST SWAP7 SWAP6 POP POP POP POP POP POP JUMP JUMPDEST PUSH0 PUSH1 0xFF DUP3 AND SWAP1 POP SWAP2 SWAP1 POP JUMP JUMPDEST PUSH2 0x2571 DUP2 PUSH2 0x255C JUMP JUMPDEST DUP3 MSTORE POP POP JUMP JUMPDEST PUSH0 PUSH1 0x80 DUP3 ADD SWAP1 POP PUSH2 0x258A PUSH0 DUP4 ADD DUP8 PUSH2 0x1D54 JUMP JUMPDEST PUSH2 0x2597 PUSH1 0x20 DUP4 ADD DUP7 PUSH2 0x2568 JUMP JUMPDEST PUSH2 0x25A4 PUSH1 0x40 DUP4 ADD DUP6 PUSH2 0x1D54 JUMP JUMPDEST PUSH2 0x25B1 PUSH1 0x60 DUP4 ADD DUP5 PUSH2 0x1D54 JUMP JUMPDEST SWAP6 SWAP5 POP POP POP POP POP JUMP JUMPDEST PUSH0 PUSH1 0x40 DUP3 ADD SWAP1 POP PUSH2 0x25CD PUSH0 DUP4 ADD DUP6 PUSH2 0x1D06 JUMP JUMPDEST PUSH2 0x25DA PUSH1 0x20 DUP4 ADD DUP5 PUSH2 0x1CEE JUMP JUMPDEST SWAP4 SWAP3 POP POP POP JUMP JUMPDEST PUSH2 0x25EA DUP2 PUSH2 0x1CFD JUMP JUMPDEST DUP2 EQ PUSH2 0x25F4 JUMPI PUSH0 DUP1 REVERT JUMPDEST POP JUMP JUMPDEST PUSH0 DUP2 MLOAD SWAP1 POP PUSH2 0x2605 DUP2 PUSH2 0x25E1 JUMP JUMPDEST SWAP3 SWAP2 POP POP JUMP JUMPDEST PUSH0 PUSH1 0x20 DUP3 DUP5 SUB SLT ISZERO PUSH2 0x2620 JUMPI PUSH2 0x261F PUSH2 0x1A9A JUMP JUMPDEST JUMPDEST PUSH0 PUSH2 0x262D DUP5 DUP3 DUP6 ADD PUSH2 0x25F7 JUMP JUMPDEST SWAP2 POP POP SWAP3 SWAP2 POP POP JUMP INVALID LOG2 PUSH5 0x6970667358 0x22 SLT KECCAK256 0x4C GAS SWAP14 PUSH32 0x8A213D4AD4BFBEF9FD45B73BF20FDEE40B08C87AF84E3FF9FB4AC4C764736F6C PUSH4 0x43000818 STOP CALLER "
		},
		"gasEstimates": {
			"creation": {
				"codeDepositCost": "1967200",
				"executionCost": "infinite",
				"totalCost": "infinite"
			},
			"external": {
				"eip712Domain()": "infinite",
				"viewCompanyemploys(bytes32,bytes32,bytes)": "infinite",
				"viewCompanytotalClaimedFund(bytes32,bytes32,bytes)": "infinite",
				"viewCompanytotalFund(bytes32,bytes32,bytes)": "infinite",
				"viewCompanytotalLocked(bytes32,bytes32,bytes)": "infinite",
				"viewEmployeClaimed(bytes32,bytes32,bytes)": "infinite",
				"viewEmployeLastClaimed(bytes32,bytes32,bytes)": "infinite",
				"viewEmployeName(bytes32,bytes32,bytes)": "infinite",
				"viewEmployeTotalAllocation(bytes32,bytes32,bytes)": "infinite",
				"viewEmployeUnlocked(bytes32,bytes32,bytes)": "infinite"
			},
			"internal": {
				"getCompany(bytes32)": "infinite",
				"getEmployee(bytes32,address)": "infinite"
			}
		},
		"methodIdentifiers": {
			"eip712Domain()": "84b0196e",
			"viewCompanyemploys(bytes32,bytes32,bytes)": "87908527",
			"viewCompanytotalClaimedFund(bytes32,bytes32,bytes)": "69fa32b0",
			"viewCompanytotalFund(bytes32,bytes32,bytes)": "274c727c",
			"viewCompanytotalLocked(bytes32,bytes32,bytes)": "e959f150",
			"viewEmployeClaimed(bytes32,bytes32,bytes)": "0ef6df02",
			"viewEmployeLastClaimed(bytes32,bytes32,bytes)": "5f5d4d4a",
			"viewEmployeName(bytes32,bytes32,bytes)": "792bcac8",
			"viewEmployeTotalAllocation(bytes32,bytes32,bytes)": "5cf19200",
			"viewEmployeUnlocked(bytes32,bytes32,bytes)": "286c29c5"
		}
	},
	"abi": [
		{
			"inputs": [
				{
					"internalType": "address",
					"name": "capTableAddr",
					"type": "address"
				}
			],
			"stateMutability": "nonpayable",
			"type": "constructor"
		},
		{
			"inputs": [],
			"name": "ECDSAInvalidSignature",
			"type": "error"
		},
		{
			"inputs": [
				{
					"internalType": "uint256",
					"name": "length",
					"type": "uint256"
				}
			],
			"name": "ECDSAInvalidSignatureLength",
			"type": "error"
		},
		{
			"inputs": [
				{
					"internalType": "bytes32",
					"name": "s",
					"type": "bytes32"
				}
			],
			"name": "ECDSAInvalidSignatureS",
			"type": "error"
		},
		{
			"inputs": [],
			"name": "InvalidShortString",
			"type": "error"
		},
		{
			"inputs": [
				{
					"internalType": "string",
					"name": "str",
					"type": "string"
				}
			],
			"name": "StringTooLong",
			"type": "error"
		},
		{
			"anonymous": false,
			"inputs": [],
			"name": "EIP712DomainChanged",
			"type": "event"
		},
		{
			"inputs": [],
			"name": "eip712Domain",
			"outputs": [
				{
					"internalType": "bytes1",
					"name": "fields",
					"type": "bytes1"
				},
				{
					"internalType": "string",
					"name": "name",
					"type": "string"
				},
				{
					"internalType": "string",
					"name": "version",
					"type": "string"
				},
				{
					"internalType": "uint256",
					"name": "chainId",
					"type": "uint256"
				},
				{
					"internalType": "address",
					"name": "verifyingContract",
					"type": "address"
				},
				{
					"internalType": "bytes32",
					"name": "salt",
					"type": "bytes32"
				},
				{
					"internalType": "uint256[]",
					"name": "extensions",
					"type": "uint256[]"
				}
			],
			"stateMutability": "view",
			"type": "function"
		},
		{
			"inputs": [
				{
					"internalType": "bytes32",
					"name": "key",
					"type": "bytes32"
				},
				{
					"internalType": "bytes32",
					"name": "publicKey",
					"type": "bytes32"
				},
				{
					"internalType": "bytes",
					"name": "signature",
					"type": "bytes"
				}
			],
			"name": "viewCompanyemploys",
			"outputs": [
				{
					"internalType": "bytes",
					"name": "",
					"type": "bytes"
				}
			],
			"stateMutability": "view",
			"type": "function"
		},
		{
			"inputs": [
				{
					"internalType": "bytes32",
					"name": "key",
					"type": "bytes32"
				},
				{
					"internalType": "bytes32",
					"name": "publicKey",
					"type": "bytes32"
				},
				{
					"internalType": "bytes",
					"name": "signature",
					"type": "bytes"
				}
			],
			"name": "viewCompanytotalClaimedFund",
			"outputs": [
				{
					"internalType": "bytes",
					"name": "",
					"type": "bytes"
				}
			],
			"stateMutability": "view",
			"type": "function"
		},
		{
			"inputs": [
				{
					"internalType": "bytes32",
					"name": "key",
					"type": "bytes32"
				},
				{
					"internalType": "bytes32",
					"name": "publicKey",
					"type": "bytes32"
				},
				{
					"internalType": "bytes",
					"name": "signature",
					"type": "bytes"
				}
			],
			"name": "viewCompanytotalFund",
			"outputs": [
				{
					"internalType": "bytes",
					"name": "",
					"type": "bytes"
				}
			],
			"stateMutability": "view",
			"type": "function"
		},
		{
			"inputs": [
				{
					"internalType": "bytes32",
					"name": "key",
					"type": "bytes32"
				},
				{
					"internalType": "bytes32",
					"name": "publicKey",
					"type": "bytes32"
				},
				{
					"internalType": "bytes",
					"name": "signature",
					"type": "bytes"
				}
			],
			"name": "viewCompanytotalLocked",
			"outputs": [
				{
					"internalType": "bytes",
					"name": "",
					"type": "bytes"
				}
			],
			"stateMutability": "view",
			"type": "function"
		},
		{
			"inputs": [
				{
					"internalType": "bytes32",
					"name": "key",
					"type": "bytes32"
				},
				{
					"internalType": "bytes32",
					"name": "publicKey",
					"type": "bytes32"
				},
				{
					"internalType": "bytes",
					"name": "signature",
					"type": "bytes"
				}
			],
			"name": "viewEmployeClaimed",
			"outputs": [
				{
					"internalType": "bytes",
					"name": "",
					"type": "bytes"
				}
			],
			"stateMutability": "view",
			"type": "function"
		},
		{
			"inputs": [
				{
					"internalType": "bytes32",
					"name": "key",
					"type": "bytes32"
				},
				{
					"internalType": "bytes32",
					"name": "publicKey",
					"type": "bytes32"
				},
				{
					"internalType": "bytes",
					"name": "signature",
					"type": "bytes"
				}
			],
			"name": "viewEmployeLastClaimed",
			"outputs": [
				{
					"internalType": "bytes",
					"name": "",
					"type": "bytes"
				}
			],
			"stateMutability": "view",
			"type": "function"
		},
		{
			"inputs": [
				{
					"internalType": "bytes32",
					"name": "key",
					"type": "bytes32"
				},
				{
					"internalType": "bytes32",
					"name": "publicKey",
					"type": "bytes32"
				},
				{
					"internalType": "bytes",
					"name": "signature",
					"type": "bytes"
				}
			],
			"name": "viewEmployeName",
			"outputs": [
				{
					"internalType": "string",
					"name": "",
					"type": "string"
				}
			],
			"stateMutability": "view",
			"type": "function"
		},
		{
			"inputs": [
				{
					"internalType": "bytes32",
					"name": "key",
					"type": "bytes32"
				},
				{
					"internalType": "bytes32",
					"name": "publicKey",
					"type": "bytes32"
				},
				{
					"internalType": "bytes",
					"name": "signature",
					"type": "bytes"
				}
			],
			"name": "viewEmployeTotalAllocation",
			"outputs": [
				{
					"internalType": "bytes",
					"name": "",
					"type": "bytes"
				}
			],
			"stateMutability": "view",
			"type": "function"
		},
		{
			"inputs": [
				{
					"internalType": "bytes32",
					"name": "key",
					"type": "bytes32"
				},
				{
					"internalType": "bytes32",
					"name": "publicKey",
					"type": "bytes32"
				},
				{
					"internalType": "bytes",
					"name": "signature",
					"type": "bytes"
				}
			],
			"name": "viewEmployeUnlocked",
			"outputs": [
				{
					"internalType": "bytes",
					"name": "",
					"type": "bytes"
				}
			],
			"stateMutability": "view",
			"type": "function"
		}
	]
}