{
    "data": {
        "bytecode": {
            "linkReferences": {},
            "object": "6101606040526064600660146101000a81548163ffffffff021916908363ffffffff16021790555034801562000033575f80fd5b5060405162003f1938038062003f19833981810160405281019062000059919062000348565b6040518060400160405280601381526020017f417574686f72697a6174696f6e20746f6b656e000000000000000000000000008152506040518060400160405280600181526020017f31000000000000000000000000000000000000000000000000000000000000008152508181620000dc5f83620001bf60201b90919060201c565b6101208181525050620000fa600182620001bf60201b90919060201c565b6101408181525050818051906020012060e08181525050808051906020012061010081815250504660a08181525050620001396200021460201b60201c565b608081815250503073ffffffffffffffffffffffffffffffffffffffff1660c08173ffffffffffffffffffffffffffffffffffffffff1681525050505050508060065f6101000a81548173ffffffffffffffffffffffffffffffffffffffff021916908373ffffffffffffffffffffffffffffffffffffffff16021790555050620008a1565b5f602083511015620001e457620001dc836200027060201b60201c565b90506200020e565b82620001f683620002da60201b60201c565b5f019081620002069190620005dc565b5060ff5f1b90505b92915050565b5f7f8b73c3c69bb8fe3d512ecc4cf759cc79239f7b179b0ffacaa9a75d522b39400f60e05161010051463060405160200162000255959493929190620006fc565b60405160208183030381529060405280519060200120905090565b5f80829050601f81511115620002bf57826040517f305a27a9000000000000000000000000000000000000000000000000000000008152600401620002b69190620007e1565b60405180910390fd5b805181620002cd9062000832565b5f1c175f1b915050919050565b5f819050919050565b5f80fd5b5f73ffffffffffffffffffffffffffffffffffffffff82169050919050565b5f6200031282620002e7565b9050919050565b620003248162000306565b81146200032f575f80fd5b50565b5f81519050620003428162000319565b92915050565b5f6020828403121562000360576200035f620002e3565b5b5f6200036f8482850162000332565b91505092915050565b5f81519050919050565b7f4e487b71000000000000000000000000000000000000000000000000000000005f52604160045260245ffd5b7f4e487b71000000000000000000000000000000000000000000000000000000005f52602260045260245ffd5b5f6002820490506001821680620003f457607f821691505b6020821081036200040a5762000409620003af565b5b50919050565b5f819050815f5260205f209050919050565b5f6020601f8301049050919050565b5f82821b905092915050565b5f600883026200046e7fffffffffffffffffffffffffffffffffffffffffffffffffffffffffffffffff8262000431565b6200047a868362000431565b95508019841693508086168417925050509392505050565b5f819050919050565b5f819050919050565b5f620004c4620004be620004b88462000492565b6200049b565b62000492565b9050919050565b5f819050919050565b620004df83620004a4565b620004f7620004ee82620004cb565b8484546200043d565b825550505050565b5f90565b6200050d620004ff565b6200051a818484620004d4565b505050565b5b818110156200054157620005355f8262000503565b60018101905062000520565b5050565b601f82111562000590576200055a8162000410565b620005658462000422565b8101602085101562000575578190505b6200058d620005848562000422565b8301826200051f565b50505b505050565b5f82821c905092915050565b5f620005b25f198460080262000595565b1980831691505092915050565b5f620005cc8383620005a1565b9150826002028217905092915050565b620005e78262000378565b67ffffffffffffffff81111562000603576200060262000382565b5b6200060f8254620003dc565b6200061c82828562000545565b5f60209050601f83116001811462000652575f84156200063d578287015190505b620006498582620005bf565b865550620006b8565b601f198416620006628662000410565b5f5b828110156200068b5784890151825560018201915060208501945060208101905062000664565b86831015620006ab5784890151620006a7601f891682620005a1565b8355505b6001600288020188555050505b505050505050565b5f819050919050565b620006d481620006c0565b82525050565b620006e58162000492565b82525050565b620006f68162000306565b82525050565b5f60a082019050620007115f830188620006c9565b620007206020830187620006c9565b6200072f6040830186620006c9565b6200073e6060830185620006da565b6200074d6080830184620006eb565b9695505050505050565b5f82825260208201905092915050565b5f5b838110156200078657808201518184015260208101905062000769565b5f8484015250505050565b5f601f19601f8301169050919050565b5f620007ad8262000378565b620007b9818562000757565b9350620007cb81856020860162000767565b620007d68162000791565b840191505092915050565b5f6020820190508181035f830152620007fb8184620007a1565b905092915050565b5f81519050919050565b5f819050602082019050919050565b5f620008298251620006c0565b80915050919050565b5f6200083e8262000803565b826200084a846200080d565b905062000857816200081c565b925060208210156200089a57620008957fffffffffffffffffffffffffffffffffffffffffffffffffffffffffffffffff8360200360080262000431565b831692505b5050919050565b60805160a05160c05160e051610100516101205161014051613635620008e45f395f611f2301525f611ee801525f50505f50505f50505f50505f50506136355ff3fe608060405234801561000f575f80fd5b50600436106100f3575f3560e01c806359c87d7011610095578063978dc9fd11610064578063978dc9fd1461027e578063a27e53df146102ae578063ddc39227146102de578063e93a5b98146102fa576100f3565b806359c87d7014610202578063720304c31461021e5780637e51bf4b1461023c57806384b0196e1461025a576100f3565b8063283f03f0116100d1578063283f03f01461017857806331b64f0f1461019457806350c9ecea146101b0578063548eac04146101cc576100f3565b80630280ffb6146100f757806315836ade146101135780631c08248f14610143575b5f80fd5b610111600480360381019061010c9190612887565b61032f565b005b61012d600480360381019061012891906128e4565b610767565b60405161013a9190612951565b60405180910390f35b61015d600480360381019061015891906129c4565b610870565b60405161016f96959493929190612a3e565b60405180910390f35b610192600480360381019061018d9190612c04565b6108e1565b005b6101ae60048036038101906101a99190612c43565b610996565b005b6101ca60048036038101906101c59190612c81565b610e5b565b005b6101e660048036038101906101e191906128e4565b61130f565b6040516101f99796959493929190612cf2565b60405180910390f35b61021c600480360381019061021791906128e4565b61134d565b005b610226611834565b6040516102339190612951565b60405180910390f35b61024461183a565b6040516102519190612d5f565b60405180910390f35b61026261185f565b6040516102759796959493929190612f01565b60405180910390f35b6102986004803603810190610293919061305d565b611904565b6040516102a591906130b7565b60405180910390f35b6102c860048036038101906102c391906129c4565b611b4f565b6040516102d591906130ea565b60405180910390f35b6102f860048036038101906102f39190613103565b611b79565b005b610314600480360381019061030f91906128e4565b611bd4565b6040516103269695949392919061314e565b60405180910390f35b5f61037c84848080601f0160208091040260200160405190810160405280939291908181526020018383808284375f81840152601f19601f82011690508083019250505050505050611c4a565b90505f61038883610767565b90505f60045f8581526020019081526020015f205f3373ffffffffffffffffffffffffffffffffffffffff1673ffffffffffffffffffffffffffffffffffffffff1681526020019081526020015f206040518060c00160405290815f82015f9054906101000a900473ffffffffffffffffffffffffffffffffffffffff1673ffffffffffffffffffffffffffffffffffffffff1673ffffffffffffffffffffffffffffffffffffffff16815260200160018201548152602001600282015481526020016003820154815260200160048201548152602001600582015f9054906101000a900463ffffffff1663ffffffff1663ffffffff168152505090505f60025f8681526020019081526020015f206040518060c00160405290815f8201548152602001600182015f9054906101000a900473ffffffffffffffffffffffffffffffffffffffff1673ffffffffffffffffffffffffffffffffffffffff1673ffffffffffffffffffffffffffffffffffffffff168152602001600282015481526020016003820154815260200160048201548152602001600582015f9054906101000a900473ffffffffffffffffffffffffffffffffffffffff1673ffffffffffffffffffffffffffffffffffffffff1673ffffffffffffffffffffffffffffffffffffffff16815250509050610583826060015185611c5d565b82606001818152505061059a816060015185611c5d565b8160600181815250506105b56105b08486611ca3565b611cf2565b8160045f8781526020019081526020015f205f3373ffffffffffffffffffffffffffffffffffffffff1673ffffffffffffffffffffffffffffffffffffffff1681526020019081526020015f205f820151815f015f6101000a81548173ffffffffffffffffffffffffffffffffffffffff021916908373ffffffffffffffffffffffffffffffffffffffff1602179055506020820151816001015560408201518160020155606082015181600301556080820151816004015560a0820151816005015f6101000a81548163ffffffff021916908363ffffffff1602179055509050508060025f8781526020019081526020015f205f820151815f01556020820151816001015f6101000a81548173ffffffffffffffffffffffffffffffffffffffff021916908373ffffffffffffffffffffffffffffffffffffffff16021790555060408201518160020155606082015181600301556080820151816004015560a0820151816005015f6101000a81548173ffffffffffffffffffffffffffffffffffffffff021916908373ffffffffffffffffffffffffffffffffffffffff16021790555090505050505050505050565b5f8060045f8481526020019081526020015f205f3373ffffffffffffffffffffffffffffffffffffffff1673ffffffffffffffffffffffffffffffffffffffff1681526020019081526020015f206040518060c00160405290815f82015f9054906101000a900473ffffffffffffffffffffffffffffffffffffffff1673ffffffffffffffffffffffffffffffffffffffff1673ffffffffffffffffffffffffffffffffffffffff16815260200160018201548152602001600282015481526020016003820154815260200160048201548152602001600582015f9054906101000a900463ffffffff1663ffffffff1663ffffffff168152505090508060400151915050919050565b6004602052815f5260405f20602052805f5260405f205f9150915050805f015f9054906101000a900473ffffffffffffffffffffffffffffffffffffffff1690806001015490806002015490806003015490806004015490806005015f9054906101000a900463ffffffff16905086565b3373ffffffffffffffffffffffffffffffffffffffff1660065f9054906101000a900473ffffffffffffffffffffffffffffffffffffffff1673ffffffffffffffffffffffffffffffffffffffff1614610939575f80fd5b8160055f8381526020019081526020015f205f820151815f01556020820151816001015560408201518160020155606082015181600301556080820151816004015560a0820151816005015560c082015181600601559050505050565b5f60025f8381526020019081526020015f206040518060c00160405290815f8201548152602001600182015f9054906101000a900473ffffffffffffffffffffffffffffffffffffffff1673ffffffffffffffffffffffffffffffffffffffff1673ffffffffffffffffffffffffffffffffffffffff168152602001600282015481526020016003820154815260200160048201548152602001600582015f9054906101000a900473ffffffffffffffffffffffffffffffffffffffff1673ffffffffffffffffffffffffffffffffffffffff1673ffffffffffffffffffffffffffffffffffffffff16815250509050806020015173ffffffffffffffffffffffffffffffffffffffff163373ffffffffffffffffffffffffffffffffffffffff1614610af8576040517f08c379a0000000000000000000000000000000000000000000000000000000008152600401610aef906131f7565b60405180910390fd5b600160035f8481526020019081526020015f205f8573ffffffffffffffffffffffffffffffffffffffff1673ffffffffffffffffffffffffffffffffffffffff1681526020019081526020015f205f6101000a81548160ff021916908315150217905550610b72815f0151610b6d6001611cfe565b611c5d565b815f0181815250508060025f8481526020019081526020015f205f820151815f01556020820151816001015f6101000a81548173ffffffffffffffffffffffffffffffffffffffff021916908373ffffffffffffffffffffffffffffffffffffffff16021790555060408201518160020155606082015181600301556080820151816004015560a0820151816005015f6101000a81548173ffffffffffffffffffffffffffffffffffffffff021916908373ffffffffffffffffffffffffffffffffffffffff1602179055509050505f60045f8481526020019081526020015f205f8573ffffffffffffffffffffffffffffffffffffffff1673ffffffffffffffffffffffffffffffffffffffff1681526020019081526020015f206040518060c00160405290815f82015f9054906101000a900473ffffffffffffffffffffffffffffffffffffffff1673ffffffffffffffffffffffffffffffffffffffff1673ffffffffffffffffffffffffffffffffffffffff16815260200160018201548152602001600282015481526020016003820154815260200160048201548152602001600582015f9054906101000a900463ffffffff1663ffffffff1663ffffffff1681525050905083815f019073ffffffffffffffffffffffffffffffffffffffff16908173ffffffffffffffffffffffffffffffffffffffff16815250508060045f8581526020019081526020015f205f8673ffffffffffffffffffffffffffffffffffffffff1673ffffffffffffffffffffffffffffffffffffffff1681526020019081526020015f205f820151815f015f6101000a81548173ffffffffffffffffffffffffffffffffffffffff021916908373ffffffffffffffffffffffffffffffffffffffff1602179055506020820151816001015560408201518160020155606082015181600301556080820151816004015560a0820151816005015f6101000a81548163ffffffff021916908363ffffffff16021790555090505050505050565b5f610ea884848080601f0160208091040260200160405190810160405280939291908181526020018383808284375f81840152601f19601f82011690508083019250505050505050611c4a565b90505f60025f8481526020019081526020015f206040518060c00160405290815f8201548152602001600182015f9054906101000a900473ffffffffffffffffffffffffffffffffffffffff1673ffffffffffffffffffffffffffffffffffffffff1673ffffffffffffffffffffffffffffffffffffffff168152602001600282015481526020016003820154815260200160048201548152602001600582015f9054906101000a900473ffffffffffffffffffffffffffffffffffffffff1673ffffffffffffffffffffffffffffffffffffffff1673ffffffffffffffffffffffffffffffffffffffff16815250509050806020015173ffffffffffffffffffffffffffffffffffffffff163373ffffffffffffffffffffffffffffffffffffffff161461100c576040517f08c379a00000000000000000000000000000000000000000000000000000000081526004016110039061325f565b60405180910390fd5b5f60045f8581526020019081526020015f205f8873ffffffffffffffffffffffffffffffffffffffff1673ffffffffffffffffffffffffffffffffffffffff1681526020019081526020015f206040518060c00160405290815f82015f9054906101000a900473ffffffffffffffffffffffffffffffffffffffff1673ffffffffffffffffffffffffffffffffffffffff1673ffffffffffffffffffffffffffffffffffffffff16815260200160018201548152602001600282015481526020016003820154815260200160048201548152602001600582015f9054906101000a900463ffffffff1663ffffffff1663ffffffff16815250509050611115838260200151611c5d565b81602001818152505061112c826040015184611c5d565b8260400181815250506401000000004261114691906132aa565b8160a0019063ffffffff16908163ffffffff16815250508060045f8681526020019081526020015f205f8973ffffffffffffffffffffffffffffffffffffffff1673ffffffffffffffffffffffffffffffffffffffff1681526020019081526020015f205f820151815f015f6101000a81548173ffffffffffffffffffffffffffffffffffffffff021916908373ffffffffffffffffffffffffffffffffffffffff1602179055506020820151816001015560408201518160020155606082015181600301556080820151816004015560a0820151816005015f6101000a81548163ffffffff021916908363ffffffff1602179055509050508160025f8681526020019081526020015f205f820151815f01556020820151816001015f6101000a81548173ffffffffffffffffffffffffffffffffffffffff021916908373ffffffffffffffffffffffffffffffffffffffff16021790555060408201518160020155606082015181600301556080820151816004015560a0820151816005015f6101000a81548173ffffffffffffffffffffffffffffffffffffffff021916908373ffffffffffffffffffffffffffffffffffffffff16021790555090505050505050505050565b6005602052805f5260405f205f91509050805f0154908060010154908060020154908060030154908060040154908060050154908060060154905087565b5f60055f8381526020019081526020015f206040518060e00160405290815f8201548152602001600182015481526020016002820154815260200160038201548152602001600482015481526020016005820154815260200160068201548152505090505f60045f8481526020019081526020015f205f3373ffffffffffffffffffffffffffffffffffffffff1673ffffffffffffffffffffffffffffffffffffffff1681526020019081526020015f206040518060c00160405290815f82015f9054906101000a900473ffffffffffffffffffffffffffffffffffffffff1673ffffffffffffffffffffffffffffffffffffffff1673ffffffffffffffffffffffffffffffffffffffff16815260200160018201548152602001600282015481526020016003820154815260200160048201548152602001600582015f9054906101000a900463ffffffff1663ffffffff1663ffffffff168152505090505f60025f8581526020019081526020015f206040518060c00160405290815f8201548152602001600182015f9054906101000a900473ffffffffffffffffffffffffffffffffffffffff1673ffffffffffffffffffffffffffffffffffffffff1673ffffffffffffffffffffffffffffffffffffffff168152602001600282015481526020016003820154815260200160048201548152602001600582015f9054906101000a900473ffffffffffffffffffffffffffffffffffffffff1673ffffffffffffffffffffffffffffffffffffffff1673ffffffffffffffffffffffffffffffffffffffff168152505090505f640100000000426115ae91906132aa565b90505f6115c08263ffffffff16611cfe565b90505f6115d4865f01518760200151611c5d565b90505f6116026115e784895f0151611ca3565b6115f4868a5f0151611d11565b6115fd5f611cfe565b611d51565b90505f61161283895f0151611d66565b90505f6116218985858b611dac565b90505f611632898b86868a8a611e30565b90505f61164d6116468c6020015187611ca3565b8484611d51565b905061165d8a6040015182611c5d565b8a6040018181525050611674896080015182611d66565b8960800181815250508960045f8e81526020019081526020015f205f3373ffffffffffffffffffffffffffffffffffffffff1673ffffffffffffffffffffffffffffffffffffffff1681526020019081526020015f205f820151815f015f6101000a81548173ffffffffffffffffffffffffffffffffffffffff021916908373ffffffffffffffffffffffffffffffffffffffff1602179055506020820151816001015560408201518160020155606082015181600301556080820151816004015560a0820151816005015f6101000a81548163ffffffff021916908363ffffffff1602179055509050508860025f8e81526020019081526020015f205f820151815f01556020820151816001015f6101000a81548173ffffffffffffffffffffffffffffffffffffffff021916908373ffffffffffffffffffffffffffffffffffffffff16021790555060408201518160020155606082015181600301556080820151816004015560a0820151816005015f6101000a81548173ffffffffffffffffffffffffffffffffffffffff021916908373ffffffffffffffffffffffffffffffffffffffff160217905550905050505050505050505050505050565b60075481565b60065f9054906101000a900473ffffffffffffffffffffffffffffffffffffffff1681565b5f6060805f805f6060611870611ee0565b611878611f1a565b46305f801b5f67ffffffffffffffff81111561189757611896612ab1565b5b6040519080825280602002602001820160405280156118c55781602001602082028036833780820191505090505b507f0f00000000000000000000000000000000000000000000000000000000000000959493929190965096509650965096509650965090919293949596565b5f8083604051602001611917919061335e565b60405160208183030381529060405290505f848460405160200161193c92919061339f565b6040516020818303038152906040528051906020012090505f60025f8381526020019081526020015f206040518060c00160405290815f8201548152602001600182015f9054906101000a900473ffffffffffffffffffffffffffffffffffffffff1673ffffffffffffffffffffffffffffffffffffffff1673ffffffffffffffffffffffffffffffffffffffff168152602001600282015481526020016003820154815260200160048201548152602001600582015f9054906101000a900473ffffffffffffffffffffffffffffffffffffffff1673ffffffffffffffffffffffffffffffffffffffff1673ffffffffffffffffffffffffffffffffffffffff1681525050905033816020019073ffffffffffffffffffffffffffffffffffffffff16908173ffffffffffffffffffffffffffffffffffffffff16815250508060025f8481526020019081526020015f205f820151815f01556020820151816001015f6101000a81548173ffffffffffffffffffffffffffffffffffffffff021916908373ffffffffffffffffffffffffffffffffffffffff16021790555060408201518160020155606082015181600301556080820151816004015560a0820151816005015f6101000a81548173ffffffffffffffffffffffffffffffffffffffff021916908373ffffffffffffffffffffffffffffffffffffffff16021790555090505081935050505092915050565b6003602052815f5260405f20602052805f5260405f205f915091509054906101000a900460ff1681565b5f611bc683838080601f0160208091040260200160405190810160405280939291908181526020018383808284375f81840152601f19601f82011690508083019250505050505050611c4a565b905080600781905550505050565b6002602052805f5260405f205f91509050805f015490806001015f9054906101000a900473ffffffffffffffffffffffffffffffffffffffff1690806002015490806003015490806004015490806005015f9054906101000a900473ffffffffffffffffffffffffffffffffffffffff16905086565b5f611c56826002611f55565b9050919050565b5f611c6783612000565b611c7757611c745f611cfe565b92505b611c8082612000565b611c9057611c8d5f611cfe565b91505b611c9b83835f61200c565b905092915050565b5f611cad83612000565b611cbd57611cba5f611cfe565b92505b611cc682612000565b611cd657611cd35f611cfe565b91505b611cea611ce484845f6120ae565b5f612150565b905092915050565b611cfb816121d7565b50565b5f611d0a82600261228a565b9050919050565b5f80611d228463ffffffff16611cfe565b9050611d2d83612000565b611d3d57611d3a5f611cfe565b92505b611d4881845f612311565b91505092915050565b5f611d5d8484846123b3565b90509392505050565b5f611d7083612000565b611d8057611d7d5f611cfe565b92505b611d8982612000565b611d9957611d965f611cfe565b91505b611da483835f612311565b905092915050565b5f80611dc08660a001518760800151611d66565b90505f611de2611dd0838761243a565b611ddd8960200151612480565b612491565b90505f611e008560200151611dfb8a6080015185611c5d565b61243a565b90505f611e1f82600660149054906101000a900463ffffffff16612491565b905080945050505050949350505050565b5f80611e5f611e4789602001518960a0015161243a565b600660149054906101000a900463ffffffff16612491565b90505f611e6c8787611d66565b90505f611e8a8a60200151611e858b60c001518561243a565b61243a565b90505f611ea9611e9a8888611d66565b611ea46064611cfe565b61243a565b90505f611ebe83611eb984612480565b612491565b90505f611ecb8683611c5d565b90508096505050505050509695505050505050565b6060611f155f7f00000000000000000000000000000000000000000000000000000000000000006124c390919063ffffffff16565b905090565b6060611f5060017f00000000000000000000000000000000000000000000000000000000000000006124c390919063ffffffff16565b905090565b5f80838360f81b604051602001611f6d92919061342a565b6040516020818303038152906040529050605d73ffffffffffffffffffffffffffffffffffffffff16634b252ec8826040518263ffffffff1660e01b8152600401611fb89190613499565b602060405180830381865afa158015611fd3573d5f803e3d5ffd5b505050506040513d601f19601f82011682018060405250810190611ff791906134cd565b91505092915050565b5f808214159050919050565b5f80821561202057600160f81b9050612027565b5f60f81b90505b605d73ffffffffffffffffffffffffffffffffffffffff1663f953e4278686846040518463ffffffff1660e01b8152600401612065939291906134f8565b602060405180830381865afa158015612080573d5f803e3d5ffd5b505050506040513d601f19601f820116820180604052508101906120a491906134cd565b9150509392505050565b5f8082156120c257600160f81b90506120c9565b5f60f81b90505b605d73ffffffffffffffffffffffffffffffffffffffff1663052896f18686846040518463ffffffff1660e01b8152600401612107939291906134f8565b602060405180830381865afa158015612122573d5f803e3d5ffd5b505050506040513d601f19601f8201168201806040525081019061214691906134cd565b9150509392505050565b5f605d73ffffffffffffffffffffffffffffffffffffffff16634be68d20848460f81b6040518363ffffffff1660e01b815260040161219092919061352d565b602060405180830381865afa1580156121ab573d5f803e3d5ffd5b505050506040513d601f19601f820116820180604052508101906121cf91906134cd565b905092915050565b5f816040516024016121e99190613554565b6040516020818303038152906040527f4ee071a1000000000000000000000000000000000000000000000000000000007bffffffffffffffffffffffffffffffffffffffffffffffffffffffff19166020820180517bffffffffffffffffffffffffffffffffffffffffffffffffffffffff838183161783525050505090505f815190505f605d90505f808360208601845afa612284575f80fd5b50505050565b5f605d73ffffffffffffffffffffffffffffffffffffffff1663e71746b8848460f81b6040518363ffffffff1660e01b81526004016122ca92919061352d565b602060405180830381865afa1580156122e5573d5f803e3d5ffd5b505050506040513d601f19601f8201168201806040525081019061230991906134cd565b905092915050565b5f80821561232557600160f81b905061232c565b5f60f81b90505b605d73ffffffffffffffffffffffffffffffffffffffff16638c14cc218686846040518463ffffffff1660e01b815260040161236a939291906134f8565b602060405180830381865afa158015612385573d5f803e3d5ffd5b505050506040513d601f19601f820116820180604052508101906123a991906134cd565b9150509392505050565b5f605d73ffffffffffffffffffffffffffffffffffffffff1663cb3b94078585856040518463ffffffff1660e01b81526004016123f29392919061356d565b602060405180830381865afa15801561240d573d5f803e3d5ffd5b505050506040513d601f19601f8201168201806040525081019061243191906134cd565b90509392505050565b5f61244483612000565b612454576124515f611cfe565b92505b61245d82612000565b61246d5761246a5f611cfe565b91505b61247883835f612570565b905092915050565b5f61248a82612612565b9050919050565b5f61249b83612000565b6124ab576124a85f611cfe565b92505b6124bb838363ffffffff16612693565b905092915050565b606060ff5f1b83146124df576124d883612722565b905061256a565b8180546124eb906135cf565b80601f0160208091040260200160405190810160405280929190818152602001828054612517906135cf565b80156125625780601f1061253957610100808354040283529160200191612562565b820191905f5260205f20905b81548152906001019060200180831161254557829003601f168201915b505050505090505b92915050565b5f80821561258457600160f81b905061258b565b5f60f81b90505b605d73ffffffffffffffffffffffffffffffffffffffff1663816d57d38686846040518463ffffffff1660e01b81526004016125c9939291906134f8565b602060405180830381865afa1580156125e4573d5f803e3d5ffd5b505050506040513d601f19601f8201168201806040525081019061260891906134cd565b9150509392505050565b5f605d73ffffffffffffffffffffffffffffffffffffffff16635a4ee440836040518263ffffffff1660e01b815260040161264d9190613554565b602060405180830381865afa158015612668573d5f803e3d5ffd5b505050506040513d601f19601f8201168201806040525081019061268c91906134cd565b9050919050565b5f80600160f81b9050605d73ffffffffffffffffffffffffffffffffffffffff166336cdd31b8585846040518463ffffffff1660e01b81526004016126da939291906134f8565b602060405180830381865afa1580156126f5573d5f803e3d5ffd5b505050506040513d601f19601f8201168201806040525081019061271991906134cd565b91505092915050565b60605f61272e83612794565b90505f602067ffffffffffffffff81111561274c5761274b612ab1565b5b6040519080825280601f01601f19166020018201604052801561277e5781602001600182028036833780820191505090505b5090508181528360208201528092505050919050565b5f8060ff835f1c169050601f8111156127d9576040517fb3512b0c00000000000000000000000000000000000000000000000000000000815260040160405180910390fd5b80915050919050565b5f604051905090565b5f80fd5b5f80fd5b5f80fd5b5f80fd5b5f80fd5b5f8083601f840112612814576128136127f3565b5b8235905067ffffffffffffffff811115612831576128306127f7565b5b60208301915083600182028301111561284d5761284c6127fb565b5b9250929050565b5f819050919050565b61286681612854565b8114612870575f80fd5b50565b5f813590506128818161285d565b92915050565b5f805f6040848603121561289e5761289d6127eb565b5b5f84013567ffffffffffffffff8111156128bb576128ba6127ef565b5b6128c7868287016127ff565b935093505060206128da86828701612873565b9150509250925092565b5f602082840312156128f9576128f86127eb565b5b5f61290684828501612873565b91505092915050565b5f819050919050565b5f819050919050565b5f61293b6129366129318461290f565b612918565b61290f565b9050919050565b61294b81612921565b82525050565b5f6020820190506129645f830184612942565b92915050565b5f73ffffffffffffffffffffffffffffffffffffffff82169050919050565b5f6129938261296a565b9050919050565b6129a381612989565b81146129ad575f80fd5b50565b5f813590506129be8161299a565b92915050565b5f80604083850312156129da576129d96127eb565b5b5f6129e785828601612873565b92505060206129f8858286016129b0565b9150509250929050565b612a0b81612989565b82525050565b612a1a81612921565b82525050565b5f63ffffffff82169050919050565b612a3881612a20565b82525050565b5f60c082019050612a515f830189612a02565b612a5e6020830188612942565b612a6b6040830187612942565b612a786060830186612942565b612a856080830185612a11565b612a9260a0830184612a2f565b979650505050505050565b5f80fd5b5f601f19601f8301169050919050565b7f4e487b71000000000000000000000000000000000000000000000000000000005f52604160045260245ffd5b612ae782612aa1565b810181811067ffffffffffffffff82111715612b0657612b05612ab1565b5b80604052505050565b5f612b186127e2565b9050612b248282612ade565b919050565b612b328161290f565b8114612b3c575f80fd5b50565b5f81359050612b4d81612b29565b92915050565b5f60e08284031215612b6857612b67612a9d565b5b612b7260e0612b0f565b90505f612b8184828501612b3f565b5f830152506020612b9484828501612b3f565b6020830152506040612ba884828501612b3f565b6040830152506060612bbc84828501612b3f565b6060830152506080612bd084828501612b3f565b60808301525060a0612be484828501612b3f565b60a08301525060c0612bf884828501612b3f565b60c08301525092915050565b5f806101008385031215612c1b57612c1a6127eb565b5b5f612c2885828601612b53565b92505060e0612c3985828601612873565b9150509250929050565b5f8060408385031215612c5957612c586127eb565b5b5f612c66858286016129b0565b9250506020612c7785828601612873565b9150509250929050565b5f805f8060608587031215612c9957612c986127eb565b5b5f612ca6878288016129b0565b945050602085013567ffffffffffffffff811115612cc757612cc66127ef565b5b612cd3878288016127ff565b93509350506040612ce687828801612873565b91505092959194509250565b5f60e082019050612d055f83018a612942565b612d126020830189612942565b612d1f6040830188612942565b612d2c6060830187612942565b612d396080830186612942565b612d4660a0830185612942565b612d5360c0830184612942565b98975050505050505050565b5f602082019050612d725f830184612a02565b92915050565b5f7fff0000000000000000000000000000000000000000000000000000000000000082169050919050565b612dac81612d78565b82525050565b5f81519050919050565b5f82825260208201905092915050565b5f5b83811015612de9578082015181840152602081019050612dce565b5f8484015250505050565b5f612dfe82612db2565b612e088185612dbc565b9350612e18818560208601612dcc565b612e2181612aa1565b840191505092915050565b612e358161290f565b82525050565b612e4481612854565b82525050565b5f81519050919050565b5f82825260208201905092915050565b5f819050602082019050919050565b612e7c8161290f565b82525050565b5f612e8d8383612e73565b60208301905092915050565b5f602082019050919050565b5f612eaf82612e4a565b612eb98185612e54565b9350612ec483612e64565b805f5b83811015612ef4578151612edb8882612e82565b9750612ee683612e99565b925050600181019050612ec7565b5085935050505092915050565b5f60e082019050612f145f83018a612da3565b8181036020830152612f268189612df4565b90508181036040830152612f3a8188612df4565b9050612f496060830187612e2c565b612f566080830186612a02565b612f6360a0830185612e3b565b81810360c0830152612f758184612ea5565b905098975050505050505050565b5f80fd5b5f67ffffffffffffffff821115612fa157612fa0612ab1565b5b612faa82612aa1565b9050602081019050919050565b828183375f83830152505050565b5f612fd7612fd284612f87565b612b0f565b905082815260208101848484011115612ff357612ff2612f83565b5b612ffe848285612fb7565b509392505050565b5f82601f83011261301a576130196127f3565b5b813561302a848260208601612fc5565b91505092915050565b61303c8161290f565b8114613046575f80fd5b50565b5f8135905061305781613033565b92915050565b5f8060408385031215613073576130726127eb565b5b5f83013567ffffffffffffffff8111156130905761308f6127ef565b5b61309c85828601613006565b92505060206130ad85828601613049565b9150509250929050565b5f6020820190506130ca5f830184612e3b565b92915050565b5f8115159050919050565b6130e4816130d0565b82525050565b5f6020820190506130fd5f8301846130db565b92915050565b5f8060208385031215613119576131186127eb565b5b5f83013567ffffffffffffffff811115613136576131356127ef565b5b613142858286016127ff565b92509250509250929050565b5f60c0820190506131615f830189612942565b61316e6020830188612a02565b61317b6040830187612942565b6131886060830186612942565b6131956080830185612942565b6131a260a0830184612a02565b979650505050505050565b7f63616c6c6572206973206e6f742061646d696e000000000000000000000000005f82015250565b5f6131e1601383612dbc565b91506131ec826131ad565b602082019050919050565b5f6020820190508181035f83015261320e816131d5565b9050919050565b7f6e6f7420612076616c69642061646d696e0000000000000000000000000000005f82015250565b5f613249601183612dbc565b915061325482613215565b602082019050919050565b5f6020820190508181035f8301526132768161323d565b9050919050565b7f4e487b71000000000000000000000000000000000000000000000000000000005f52601260045260245ffd5b5f6132b48261290f565b91506132bf8361290f565b9250826132cf576132ce61327d565b5b828206905092915050565b5f81905092915050565b7f45455243323000000000000000000000000000000000000000000000000000005f82015250565b5f6133186006836132da565b9150613323826132e4565b600682019050919050565b5f61333882612db2565b61334281856132da565b9350613352818560208601612dcc565b80840191505092915050565b5f6133688261330c565b9150613374828461332e565b915081905092915050565b5f819050919050565b6133996133948261290f565b61337f565b82525050565b5f6133aa828561332e565b91506133b68284613388565b6020820191508190509392505050565b5f81519050919050565b5f81905092915050565b5f6133e4826133c6565b6133ee81856133d0565b93506133fe818560208601612dcc565b80840191505092915050565b5f819050919050565b61342461341f82612d78565b61340a565b82525050565b5f61343582856133da565b91506134418284613413565b6001820191508190509392505050565b5f82825260208201905092915050565b5f61346b826133c6565b6134758185613451565b9350613485818560208601612dcc565b61348e81612aa1565b840191505092915050565b5f6020820190508181035f8301526134b18184613461565b905092915050565b5f815190506134c781613033565b92915050565b5f602082840312156134e2576134e16127eb565b5b5f6134ef848285016134b9565b91505092915050565b5f60608201905061350b5f830186612e2c565b6135186020830185612e2c565b6135256040830184612da3565b949350505050565b5f6040820190506135405f830185612e2c565b61354d6020830184612da3565b9392505050565b5f6020820190506135675f830184612e2c565b92915050565b5f6060820190506135805f830186612e2c565b61358d6020830185612e2c565b61359a6040830184612e2c565b949350505050565b7f4e487b71000000000000000000000000000000000000000000000000000000005f52602260045260245ffd5b5f60028204905060018216806135e657607f821691505b6020821081036135f9576135f86135a2565b5b5091905056fea2646970667358221220ea1ccc1d47de391f3259b4bc455d6672ce6fc5fad0a40c379b07f326b2b100c464736f6c63430008180033",
            "opcodes": "PUSH2 0x160 PUSH1 0x40 MSTORE PUSH1 0x64 PUSH1 0x6 PUSH1 0x14 PUSH2 0x100 EXP DUP2 SLOAD DUP2 PUSH4 0xFFFFFFFF MUL NOT AND SWAP1 DUP4 PUSH4 0xFFFFFFFF AND MUL OR SWAP1 SSTORE POP CALLVALUE DUP1 ISZERO PUSH3 0x33 JUMPI PUSH0 DUP1 REVERT JUMPDEST POP PUSH1 0x40 MLOAD PUSH3 0x3F19 CODESIZE SUB DUP1 PUSH3 0x3F19 DUP4 CODECOPY DUP2 DUP2 ADD PUSH1 0x40 MSTORE DUP2 ADD SWAP1 PUSH3 0x59 SWAP2 SWAP1 PUSH3 0x348 JUMP JUMPDEST PUSH1 0x40 MLOAD DUP1 PUSH1 0x40 ADD PUSH1 0x40 MSTORE DUP1 PUSH1 0x13 DUP2 MSTORE PUSH1 0x20 ADD PUSH32 0x417574686F72697A6174696F6E20746F6B656E00000000000000000000000000 DUP2 MSTORE POP PUSH1 0x40 MLOAD DUP1 PUSH1 0x40 ADD PUSH1 0x40 MSTORE DUP1 PUSH1 0x1 DUP2 MSTORE PUSH1 0x20 ADD PUSH32 0x3100000000000000000000000000000000000000000000000000000000000000 DUP2 MSTORE POP DUP2 DUP2 PUSH3 0xDC PUSH0 DUP4 PUSH3 0x1BF PUSH1 0x20 SHL SWAP1 SWAP2 SWAP1 PUSH1 0x20 SHR JUMP JUMPDEST PUSH2 0x120 DUP2 DUP2 MSTORE POP POP PUSH3 0xFA PUSH1 0x1 DUP3 PUSH3 0x1BF PUSH1 0x20 SHL SWAP1 SWAP2 SWAP1 PUSH1 0x20 SHR JUMP JUMPDEST PUSH2 0x140 DUP2 DUP2 MSTORE POP POP DUP2 DUP1 MLOAD SWAP1 PUSH1 0x20 ADD KECCAK256 PUSH1 0xE0 DUP2 DUP2 MSTORE POP POP DUP1 DUP1 MLOAD SWAP1 PUSH1 0x20 ADD KECCAK256 PUSH2 0x100 DUP2 DUP2 MSTORE POP POP CHAINID PUSH1 0xA0 DUP2 DUP2 MSTORE POP POP PUSH3 0x139 PUSH3 0x214 PUSH1 0x20 SHL PUSH1 0x20 SHR JUMP JUMPDEST PUSH1 0x80 DUP2 DUP2 MSTORE POP POP ADDRESS PUSH20 0xFFFFFFFFFFFFFFFFFFFFFFFFFFFFFFFFFFFFFFFF AND PUSH1 0xC0 DUP2 PUSH20 0xFFFFFFFFFFFFFFFFFFFFFFFFFFFFFFFFFFFFFFFF AND DUP2 MSTORE POP POP POP POP POP POP DUP1 PUSH1 0x6 PUSH0 PUSH2 0x100 EXP DUP2 SLOAD DUP2 PUSH20 0xFFFFFFFFFFFFFFFFFFFFFFFFFFFFFFFFFFFFFFFF MUL NOT AND SWAP1 DUP4 PUSH20 0xFFFFFFFFFFFFFFFFFFFFFFFFFFFFFFFFFFFFFFFF AND MUL OR SWAP1 SSTORE POP POP PUSH3 0x8A1 JUMP JUMPDEST PUSH0 PUSH1 0x20 DUP4 MLOAD LT ISZERO PUSH3 0x1E4 JUMPI PUSH3 0x1DC DUP4 PUSH3 0x270 PUSH1 0x20 SHL PUSH1 0x20 SHR JUMP JUMPDEST SWAP1 POP PUSH3 0x20E JUMP JUMPDEST DUP3 PUSH3 0x1F6 DUP4 PUSH3 0x2DA PUSH1 0x20 SHL PUSH1 0x20 SHR JUMP JUMPDEST PUSH0 ADD SWAP1 DUP2 PUSH3 0x206 SWAP2 SWAP1 PUSH3 0x5DC JUMP JUMPDEST POP PUSH1 0xFF PUSH0 SHL SWAP1 POP JUMPDEST SWAP3 SWAP2 POP POP JUMP JUMPDEST PUSH0 PUSH32 0x8B73C3C69BB8FE3D512ECC4CF759CC79239F7B179B0FFACAA9A75D522B39400F PUSH1 0xE0 MLOAD PUSH2 0x100 MLOAD CHAINID ADDRESS PUSH1 0x40 MLOAD PUSH1 0x20 ADD PUSH3 0x255 SWAP6 SWAP5 SWAP4 SWAP3 SWAP2 SWAP1 PUSH3 0x6FC JUMP JUMPDEST PUSH1 0x40 MLOAD PUSH1 0x20 DUP2 DUP4 SUB SUB DUP2 MSTORE SWAP1 PUSH1 0x40 MSTORE DUP1 MLOAD SWAP1 PUSH1 0x20 ADD KECCAK256 SWAP1 POP SWAP1 JUMP JUMPDEST PUSH0 DUP1 DUP3 SWAP1 POP PUSH1 0x1F DUP2 MLOAD GT ISZERO PUSH3 0x2BF JUMPI DUP3 PUSH1 0x40 MLOAD PUSH32 0x305A27A900000000000000000000000000000000000000000000000000000000 DUP2 MSTORE PUSH1 0x4 ADD PUSH3 0x2B6 SWAP2 SWAP1 PUSH3 0x7E1 JUMP JUMPDEST PUSH1 0x40 MLOAD DUP1 SWAP2 SUB SWAP1 REVERT JUMPDEST DUP1 MLOAD DUP2 PUSH3 0x2CD SWAP1 PUSH3 0x832 JUMP JUMPDEST PUSH0 SHR OR PUSH0 SHL SWAP2 POP POP SWAP2 SWAP1 POP JUMP JUMPDEST PUSH0 DUP2 SWAP1 POP SWAP2 SWAP1 POP JUMP JUMPDEST PUSH0 DUP1 REVERT JUMPDEST PUSH0 PUSH20 0xFFFFFFFFFFFFFFFFFFFFFFFFFFFFFFFFFFFFFFFF DUP3 AND SWAP1 POP SWAP2 SWAP1 POP JUMP JUMPDEST PUSH0 PUSH3 0x312 DUP3 PUSH3 0x2E7 JUMP JUMPDEST SWAP1 POP SWAP2 SWAP1 POP JUMP JUMPDEST PUSH3 0x324 DUP2 PUSH3 0x306 JUMP JUMPDEST DUP2 EQ PUSH3 0x32F JUMPI PUSH0 DUP1 REVERT JUMPDEST POP JUMP JUMPDEST PUSH0 DUP2 MLOAD SWAP1 POP PUSH3 0x342 DUP2 PUSH3 0x319 JUMP JUMPDEST SWAP3 SWAP2 POP POP JUMP JUMPDEST PUSH0 PUSH1 0x20 DUP3 DUP5 SUB SLT ISZERO PUSH3 0x360 JUMPI PUSH3 0x35F PUSH3 0x2E3 JUMP JUMPDEST JUMPDEST PUSH0 PUSH3 0x36F DUP5 DUP3 DUP6 ADD PUSH3 0x332 JUMP JUMPDEST SWAP2 POP POP SWAP3 SWAP2 POP POP JUMP JUMPDEST PUSH0 DUP2 MLOAD SWAP1 POP SWAP2 SWAP1 POP JUMP JUMPDEST PUSH32 0x4E487B7100000000000000000000000000000000000000000000000000000000 PUSH0 MSTORE PUSH1 0x41 PUSH1 0x4 MSTORE PUSH1 0x24 PUSH0 REVERT JUMPDEST PUSH32 0x4E487B7100000000000000000000000000000000000000000000000000000000 PUSH0 MSTORE PUSH1 0x22 PUSH1 0x4 MSTORE PUSH1 0x24 PUSH0 REVERT JUMPDEST PUSH0 PUSH1 0x2 DUP3 DIV SWAP1 POP PUSH1 0x1 DUP3 AND DUP1 PUSH3 0x3F4 JUMPI PUSH1 0x7F DUP3 AND SWAP2 POP JUMPDEST PUSH1 0x20 DUP3 LT DUP2 SUB PUSH3 0x40A JUMPI PUSH3 0x409 PUSH3 0x3AF JUMP JUMPDEST JUMPDEST POP SWAP2 SWAP1 POP JUMP JUMPDEST PUSH0 DUP2 SWAP1 POP DUP2 PUSH0 MSTORE PUSH1 0x20 PUSH0 KECCAK256 SWAP1 POP SWAP2 SWAP1 POP JUMP JUMPDEST PUSH0 PUSH1 0x20 PUSH1 0x1F DUP4 ADD DIV SWAP1 POP SWAP2 SWAP1 POP JUMP JUMPDEST PUSH0 DUP3 DUP3 SHL SWAP1 POP SWAP3 SWAP2 POP POP JUMP JUMPDEST PUSH0 PUSH1 0x8 DUP4 MUL PUSH3 0x46E PUSH32 0xFFFFFFFFFFFFFFFFFFFFFFFFFFFFFFFFFFFFFFFFFFFFFFFFFFFFFFFFFFFFFFFF DUP3 PUSH3 0x431 JUMP JUMPDEST PUSH3 0x47A DUP7 DUP4 PUSH3 0x431 JUMP JUMPDEST SWAP6 POP DUP1 NOT DUP5 AND SWAP4 POP DUP1 DUP7 AND DUP5 OR SWAP3 POP POP POP SWAP4 SWAP3 POP POP POP JUMP JUMPDEST PUSH0 DUP2 SWAP1 POP SWAP2 SWAP1 POP JUMP JUMPDEST PUSH0 DUP2 SWAP1 POP SWAP2 SWAP1 POP JUMP JUMPDEST PUSH0 PUSH3 0x4C4 PUSH3 0x4BE PUSH3 0x4B8 DUP5 PUSH3 0x492 JUMP JUMPDEST PUSH3 0x49B JUMP JUMPDEST PUSH3 0x492 JUMP JUMPDEST SWAP1 POP SWAP2 SWAP1 POP JUMP JUMPDEST PUSH0 DUP2 SWAP1 POP SWAP2 SWAP1 POP JUMP JUMPDEST PUSH3 0x4DF DUP4 PUSH3 0x4A4 JUMP JUMPDEST PUSH3 0x4F7 PUSH3 0x4EE DUP3 PUSH3 0x4CB JUMP JUMPDEST DUP5 DUP5 SLOAD PUSH3 0x43D JUMP JUMPDEST DUP3 SSTORE POP POP POP POP JUMP JUMPDEST PUSH0 SWAP1 JUMP JUMPDEST PUSH3 0x50D PUSH3 0x4FF JUMP JUMPDEST PUSH3 0x51A DUP2 DUP5 DUP5 PUSH3 0x4D4 JUMP JUMPDEST POP POP POP JUMP JUMPDEST JUMPDEST DUP2 DUP2 LT ISZERO PUSH3 0x541 JUMPI PUSH3 0x535 PUSH0 DUP3 PUSH3 0x503 JUMP JUMPDEST PUSH1 0x1 DUP2 ADD SWAP1 POP PUSH3 0x520 JUMP JUMPDEST POP POP JUMP JUMPDEST PUSH1 0x1F DUP3 GT ISZERO PUSH3 0x590 JUMPI PUSH3 0x55A DUP2 PUSH3 0x410 JUMP JUMPDEST PUSH3 0x565 DUP5 PUSH3 0x422 JUMP JUMPDEST DUP2 ADD PUSH1 0x20 DUP6 LT ISZERO PUSH3 0x575 JUMPI DUP2 SWAP1 POP JUMPDEST PUSH3 0x58D PUSH3 0x584 DUP6 PUSH3 0x422 JUMP JUMPDEST DUP4 ADD DUP3 PUSH3 0x51F JUMP JUMPDEST POP POP JUMPDEST POP POP POP JUMP JUMPDEST PUSH0 DUP3 DUP3 SHR SWAP1 POP SWAP3 SWAP2 POP POP JUMP JUMPDEST PUSH0 PUSH3 0x5B2 PUSH0 NOT DUP5 PUSH1 0x8 MUL PUSH3 0x595 JUMP JUMPDEST NOT DUP1 DUP4 AND SWAP2 POP POP SWAP3 SWAP2 POP POP JUMP JUMPDEST PUSH0 PUSH3 0x5CC DUP4 DUP4 PUSH3 0x5A1 JUMP JUMPDEST SWAP2 POP DUP3 PUSH1 0x2 MUL DUP3 OR SWAP1 POP SWAP3 SWAP2 POP POP JUMP JUMPDEST PUSH3 0x5E7 DUP3 PUSH3 0x378 JUMP JUMPDEST PUSH8 0xFFFFFFFFFFFFFFFF DUP2 GT ISZERO PUSH3 0x603 JUMPI PUSH3 0x602 PUSH3 0x382 JUMP JUMPDEST JUMPDEST PUSH3 0x60F DUP3 SLOAD PUSH3 0x3DC JUMP JUMPDEST PUSH3 0x61C DUP3 DUP3 DUP6 PUSH3 0x545 JUMP JUMPDEST PUSH0 PUSH1 0x20 SWAP1 POP PUSH1 0x1F DUP4 GT PUSH1 0x1 DUP2 EQ PUSH3 0x652 JUMPI PUSH0 DUP5 ISZERO PUSH3 0x63D JUMPI DUP3 DUP8 ADD MLOAD SWAP1 POP JUMPDEST PUSH3 0x649 DUP6 DUP3 PUSH3 0x5BF JUMP JUMPDEST DUP7 SSTORE POP PUSH3 0x6B8 JUMP JUMPDEST PUSH1 0x1F NOT DUP5 AND PUSH3 0x662 DUP7 PUSH3 0x410 JUMP JUMPDEST PUSH0 JUMPDEST DUP3 DUP2 LT ISZERO PUSH3 0x68B JUMPI DUP5 DUP10 ADD MLOAD DUP3 SSTORE PUSH1 0x1 DUP3 ADD SWAP2 POP PUSH1 0x20 DUP6 ADD SWAP5 POP PUSH1 0x20 DUP2 ADD SWAP1 POP PUSH3 0x664 JUMP JUMPDEST DUP7 DUP4 LT ISZERO PUSH3 0x6AB JUMPI DUP5 DUP10 ADD MLOAD PUSH3 0x6A7 PUSH1 0x1F DUP10 AND DUP3 PUSH3 0x5A1 JUMP JUMPDEST DUP4 SSTORE POP JUMPDEST PUSH1 0x1 PUSH1 0x2 DUP9 MUL ADD DUP9 SSTORE POP POP POP JUMPDEST POP POP POP POP POP POP JUMP JUMPDEST PUSH0 DUP2 SWAP1 POP SWAP2 SWAP1 POP JUMP JUMPDEST PUSH3 0x6D4 DUP2 PUSH3 0x6C0 JUMP JUMPDEST DUP3 MSTORE POP POP JUMP JUMPDEST PUSH3 0x6E5 DUP2 PUSH3 0x492 JUMP JUMPDEST DUP3 MSTORE POP POP JUMP JUMPDEST PUSH3 0x6F6 DUP2 PUSH3 0x306 JUMP JUMPDEST DUP3 MSTORE POP POP JUMP JUMPDEST PUSH0 PUSH1 0xA0 DUP3 ADD SWAP1 POP PUSH3 0x711 PUSH0 DUP4 ADD DUP9 PUSH3 0x6C9 JUMP JUMPDEST PUSH3 0x720 PUSH1 0x20 DUP4 ADD DUP8 PUSH3 0x6C9 JUMP JUMPDEST PUSH3 0x72F PUSH1 0x40 DUP4 ADD DUP7 PUSH3 0x6C9 JUMP JUMPDEST PUSH3 0x73E PUSH1 0x60 DUP4 ADD DUP6 PUSH3 0x6DA JUMP JUMPDEST PUSH3 0x74D PUSH1 0x80 DUP4 ADD DUP5 PUSH3 0x6EB JUMP JUMPDEST SWAP7 SWAP6 POP POP POP POP POP POP JUMP JUMPDEST PUSH0 DUP3 DUP3 MSTORE PUSH1 0x20 DUP3 ADD SWAP1 POP SWAP3 SWAP2 POP POP JUMP JUMPDEST PUSH0 JUMPDEST DUP4 DUP2 LT ISZERO PUSH3 0x786 JUMPI DUP1 DUP3 ADD MLOAD DUP2 DUP5 ADD MSTORE PUSH1 0x20 DUP2 ADD SWAP1 POP PUSH3 0x769 JUMP JUMPDEST PUSH0 DUP5 DUP5 ADD MSTORE POP POP POP POP JUMP JUMPDEST PUSH0 PUSH1 0x1F NOT PUSH1 0x1F DUP4 ADD AND SWAP1 POP SWAP2 SWAP1 POP JUMP JUMPDEST PUSH0 PUSH3 0x7AD DUP3 PUSH3 0x378 JUMP JUMPDEST PUSH3 0x7B9 DUP2 DUP6 PUSH3 0x757 JUMP JUMPDEST SWAP4 POP PUSH3 0x7CB DUP2 DUP6 PUSH1 0x20 DUP7 ADD PUSH3 0x767 JUMP JUMPDEST PUSH3 0x7D6 DUP2 PUSH3 0x791 JUMP JUMPDEST DUP5 ADD SWAP2 POP POP SWAP3 SWAP2 POP POP JUMP JUMPDEST PUSH0 PUSH1 0x20 DUP3 ADD SWAP1 POP DUP2 DUP2 SUB PUSH0 DUP4 ADD MSTORE PUSH3 0x7FB DUP2 DUP5 PUSH3 0x7A1 JUMP JUMPDEST SWAP1 POP SWAP3 SWAP2 POP POP JUMP JUMPDEST PUSH0 DUP2 MLOAD SWAP1 POP SWAP2 SWAP1 POP JUMP JUMPDEST PUSH0 DUP2 SWAP1 POP PUSH1 0x20 DUP3 ADD SWAP1 POP SWAP2 SWAP1 POP JUMP JUMPDEST PUSH0 PUSH3 0x829 DUP3 MLOAD PUSH3 0x6C0 JUMP JUMPDEST DUP1 SWAP2 POP POP SWAP2 SWAP1 POP JUMP JUMPDEST PUSH0 PUSH3 0x83E DUP3 PUSH3 0x803 JUMP JUMPDEST DUP3 PUSH3 0x84A DUP5 PUSH3 0x80D JUMP JUMPDEST SWAP1 POP PUSH3 0x857 DUP2 PUSH3 0x81C JUMP JUMPDEST SWAP3 POP PUSH1 0x20 DUP3 LT ISZERO PUSH3 0x89A JUMPI PUSH3 0x895 PUSH32 0xFFFFFFFFFFFFFFFFFFFFFFFFFFFFFFFFFFFFFFFFFFFFFFFFFFFFFFFFFFFFFFFF DUP4 PUSH1 0x20 SUB PUSH1 0x8 MUL PUSH3 0x431 JUMP JUMPDEST DUP4 AND SWAP3 POP JUMPDEST POP POP SWAP2 SWAP1 POP JUMP JUMPDEST PUSH1 0x80 MLOAD PUSH1 0xA0 MLOAD PUSH1 0xC0 MLOAD PUSH1 0xE0 MLOAD PUSH2 0x100 MLOAD PUSH2 0x120 MLOAD PUSH2 0x140 MLOAD PUSH2 0x3635 PUSH3 0x8E4 PUSH0 CODECOPY PUSH0 PUSH2 0x1F23 ADD MSTORE PUSH0 PUSH2 0x1EE8 ADD MSTORE PUSH0 POP POP PUSH0 POP POP PUSH0 POP POP PUSH0 POP POP PUSH0 POP POP PUSH2 0x3635 PUSH0 RETURN INVALID PUSH1 0x80 PUSH1 0x40 MSTORE CALLVALUE DUP1 ISZERO PUSH2 0xF JUMPI PUSH0 DUP1 REVERT JUMPDEST POP PUSH1 0x4 CALLDATASIZE LT PUSH2 0xF3 JUMPI PUSH0 CALLDATALOAD PUSH1 0xE0 SHR DUP1 PUSH4 0x59C87D70 GT PUSH2 0x95 JUMPI DUP1 PUSH4 0x978DC9FD GT PUSH2 0x64 JUMPI DUP1 PUSH4 0x978DC9FD EQ PUSH2 0x27E JUMPI DUP1 PUSH4 0xA27E53DF EQ PUSH2 0x2AE JUMPI DUP1 PUSH4 0xDDC39227 EQ PUSH2 0x2DE JUMPI DUP1 PUSH4 0xE93A5B98 EQ PUSH2 0x2FA JUMPI PUSH2 0xF3 JUMP JUMPDEST DUP1 PUSH4 0x59C87D70 EQ PUSH2 0x202 JUMPI DUP1 PUSH4 0x720304C3 EQ PUSH2 0x21E JUMPI DUP1 PUSH4 0x7E51BF4B EQ PUSH2 0x23C JUMPI DUP1 PUSH4 0x84B0196E EQ PUSH2 0x25A JUMPI PUSH2 0xF3 JUMP JUMPDEST DUP1 PUSH4 0x283F03F0 GT PUSH2 0xD1 JUMPI DUP1 PUSH4 0x283F03F0 EQ PUSH2 0x178 JUMPI DUP1 PUSH4 0x31B64F0F EQ PUSH2 0x194 JUMPI DUP1 PUSH4 0x50C9ECEA EQ PUSH2 0x1B0 JUMPI DUP1 PUSH4 0x548EAC04 EQ PUSH2 0x1CC JUMPI PUSH2 0xF3 JUMP JUMPDEST DUP1 PUSH4 0x280FFB6 EQ PUSH2 0xF7 JUMPI DUP1 PUSH4 0x15836ADE EQ PUSH2 0x113 JUMPI DUP1 PUSH4 0x1C08248F EQ PUSH2 0x143 JUMPI JUMPDEST PUSH0 DUP1 REVERT JUMPDEST PUSH2 0x111 PUSH1 0x4 DUP1 CALLDATASIZE SUB DUP2 ADD SWAP1 PUSH2 0x10C SWAP2 SWAP1 PUSH2 0x2887 JUMP JUMPDEST PUSH2 0x32F JUMP JUMPDEST STOP JUMPDEST PUSH2 0x12D PUSH1 0x4 DUP1 CALLDATASIZE SUB DUP2 ADD SWAP1 PUSH2 0x128 SWAP2 SWAP1 PUSH2 0x28E4 JUMP JUMPDEST PUSH2 0x767 JUMP JUMPDEST PUSH1 0x40 MLOAD PUSH2 0x13A SWAP2 SWAP1 PUSH2 0x2951 JUMP JUMPDEST PUSH1 0x40 MLOAD DUP1 SWAP2 SUB SWAP1 RETURN JUMPDEST PUSH2 0x15D PUSH1 0x4 DUP1 CALLDATASIZE SUB DUP2 ADD SWAP1 PUSH2 0x158 SWAP2 SWAP1 PUSH2 0x29C4 JUMP JUMPDEST PUSH2 0x870 JUMP JUMPDEST PUSH1 0x40 MLOAD PUSH2 0x16F SWAP7 SWAP6 SWAP5 SWAP4 SWAP3 SWAP2 SWAP1 PUSH2 0x2A3E JUMP JUMPDEST PUSH1 0x40 MLOAD DUP1 SWAP2 SUB SWAP1 RETURN JUMPDEST PUSH2 0x192 PUSH1 0x4 DUP1 CALLDATASIZE SUB DUP2 ADD SWAP1 PUSH2 0x18D SWAP2 SWAP1 PUSH2 0x2C04 JUMP JUMPDEST PUSH2 0x8E1 JUMP JUMPDEST STOP JUMPDEST PUSH2 0x1AE PUSH1 0x4 DUP1 CALLDATASIZE SUB DUP2 ADD SWAP1 PUSH2 0x1A9 SWAP2 SWAP1 PUSH2 0x2C43 JUMP JUMPDEST PUSH2 0x996 JUMP JUMPDEST STOP JUMPDEST PUSH2 0x1CA PUSH1 0x4 DUP1 CALLDATASIZE SUB DUP2 ADD SWAP1 PUSH2 0x1C5 SWAP2 SWAP1 PUSH2 0x2C81 JUMP JUMPDEST PUSH2 0xE5B JUMP JUMPDEST STOP JUMPDEST PUSH2 0x1E6 PUSH1 0x4 DUP1 CALLDATASIZE SUB DUP2 ADD SWAP1 PUSH2 0x1E1 SWAP2 SWAP1 PUSH2 0x28E4 JUMP JUMPDEST PUSH2 0x130F JUMP JUMPDEST PUSH1 0x40 MLOAD PUSH2 0x1F9 SWAP8 SWAP7 SWAP6 SWAP5 SWAP4 SWAP3 SWAP2 SWAP1 PUSH2 0x2CF2 JUMP JUMPDEST PUSH1 0x40 MLOAD DUP1 SWAP2 SUB SWAP1 RETURN JUMPDEST PUSH2 0x21C PUSH1 0x4 DUP1 CALLDATASIZE SUB DUP2 ADD SWAP1 PUSH2 0x217 SWAP2 SWAP1 PUSH2 0x28E4 JUMP JUMPDEST PUSH2 0x134D JUMP JUMPDEST STOP JUMPDEST PUSH2 0x226 PUSH2 0x1834 JUMP JUMPDEST PUSH1 0x40 MLOAD PUSH2 0x233 SWAP2 SWAP1 PUSH2 0x2951 JUMP JUMPDEST PUSH1 0x40 MLOAD DUP1 SWAP2 SUB SWAP1 RETURN JUMPDEST PUSH2 0x244 PUSH2 0x183A JUMP JUMPDEST PUSH1 0x40 MLOAD PUSH2 0x251 SWAP2 SWAP1 PUSH2 0x2D5F JUMP JUMPDEST PUSH1 0x40 MLOAD DUP1 SWAP2 SUB SWAP1 RETURN JUMPDEST PUSH2 0x262 PUSH2 0x185F JUMP JUMPDEST PUSH1 0x40 MLOAD PUSH2 0x275 SWAP8 SWAP7 SWAP6 SWAP5 SWAP4 SWAP3 SWAP2 SWAP1 PUSH2 0x2F01 JUMP JUMPDEST PUSH1 0x40 MLOAD DUP1 SWAP2 SUB SWAP1 RETURN JUMPDEST PUSH2 0x298 PUSH1 0x4 DUP1 CALLDATASIZE SUB DUP2 ADD SWAP1 PUSH2 0x293 SWAP2 SWAP1 PUSH2 0x305D JUMP JUMPDEST PUSH2 0x1904 JUMP JUMPDEST PUSH1 0x40 MLOAD PUSH2 0x2A5 SWAP2 SWAP1 PUSH2 0x30B7 JUMP JUMPDEST PUSH1 0x40 MLOAD DUP1 SWAP2 SUB SWAP1 RETURN JUMPDEST PUSH2 0x2C8 PUSH1 0x4 DUP1 CALLDATASIZE SUB DUP2 ADD SWAP1 PUSH2 0x2C3 SWAP2 SWAP1 PUSH2 0x29C4 JUMP JUMPDEST PUSH2 0x1B4F JUMP JUMPDEST PUSH1 0x40 MLOAD PUSH2 0x2D5 SWAP2 SWAP1 PUSH2 0x30EA JUMP JUMPDEST PUSH1 0x40 MLOAD DUP1 SWAP2 SUB SWAP1 RETURN JUMPDEST PUSH2 0x2F8 PUSH1 0x4 DUP1 CALLDATASIZE SUB DUP2 ADD SWAP1 PUSH2 0x2F3 SWAP2 SWAP1 PUSH2 0x3103 JUMP JUMPDEST PUSH2 0x1B79 JUMP JUMPDEST STOP JUMPDEST PUSH2 0x314 PUSH1 0x4 DUP1 CALLDATASIZE SUB DUP2 ADD SWAP1 PUSH2 0x30F SWAP2 SWAP1 PUSH2 0x28E4 JUMP JUMPDEST PUSH2 0x1BD4 JUMP JUMPDEST PUSH1 0x40 MLOAD PUSH2 0x326 SWAP7 SWAP6 SWAP5 SWAP4 SWAP3 SWAP2 SWAP1 PUSH2 0x314E JUMP JUMPDEST PUSH1 0x40 MLOAD DUP1 SWAP2 SUB SWAP1 RETURN JUMPDEST PUSH0 PUSH2 0x37C DUP5 DUP5 DUP1 DUP1 PUSH1 0x1F ADD PUSH1 0x20 DUP1 SWAP2 DIV MUL PUSH1 0x20 ADD PUSH1 0x40 MLOAD SWAP1 DUP2 ADD PUSH1 0x40 MSTORE DUP1 SWAP4 SWAP3 SWAP2 SWAP1 DUP2 DUP2 MSTORE PUSH1 0x20 ADD DUP4 DUP4 DUP1 DUP3 DUP5 CALLDATACOPY PUSH0 DUP2 DUP5 ADD MSTORE PUSH1 0x1F NOT PUSH1 0x1F DUP3 ADD AND SWAP1 POP DUP1 DUP4 ADD SWAP3 POP POP POP POP POP POP POP PUSH2 0x1C4A JUMP JUMPDEST SWAP1 POP PUSH0 PUSH2 0x388 DUP4 PUSH2 0x767 JUMP JUMPDEST SWAP1 POP PUSH0 PUSH1 0x4 PUSH0 DUP6 DUP2 MSTORE PUSH1 0x20 ADD SWAP1 DUP2 MSTORE PUSH1 0x20 ADD PUSH0 KECCAK256 PUSH0 CALLER PUSH20 0xFFFFFFFFFFFFFFFFFFFFFFFFFFFFFFFFFFFFFFFF AND PUSH20 0xFFFFFFFFFFFFFFFFFFFFFFFFFFFFFFFFFFFFFFFF AND DUP2 MSTORE PUSH1 0x20 ADD SWAP1 DUP2 MSTORE PUSH1 0x20 ADD PUSH0 KECCAK256 PUSH1 0x40 MLOAD DUP1 PUSH1 0xC0 ADD PUSH1 0x40 MSTORE SWAP1 DUP2 PUSH0 DUP3 ADD PUSH0 SWAP1 SLOAD SWAP1 PUSH2 0x100 EXP SWAP1 DIV PUSH20 0xFFFFFFFFFFFFFFFFFFFFFFFFFFFFFFFFFFFFFFFF AND PUSH20 0xFFFFFFFFFFFFFFFFFFFFFFFFFFFFFFFFFFFFFFFF AND PUSH20 0xFFFFFFFFFFFFFFFFFFFFFFFFFFFFFFFFFFFFFFFF AND DUP2 MSTORE PUSH1 0x20 ADD PUSH1 0x1 DUP3 ADD SLOAD DUP2 MSTORE PUSH1 0x20 ADD PUSH1 0x2 DUP3 ADD SLOAD DUP2 MSTORE PUSH1 0x20 ADD PUSH1 0x3 DUP3 ADD SLOAD DUP2 MSTORE PUSH1 0x20 ADD PUSH1 0x4 DUP3 ADD SLOAD DUP2 MSTORE PUSH1 0x20 ADD PUSH1 0x5 DUP3 ADD PUSH0 SWAP1 SLOAD SWAP1 PUSH2 0x100 EXP SWAP1 DIV PUSH4 0xFFFFFFFF AND PUSH4 0xFFFFFFFF AND PUSH4 0xFFFFFFFF AND DUP2 MSTORE POP POP SWAP1 POP PUSH0 PUSH1 0x2 PUSH0 DUP7 DUP2 MSTORE PUSH1 0x20 ADD SWAP1 DUP2 MSTORE PUSH1 0x20 ADD PUSH0 KECCAK256 PUSH1 0x40 MLOAD DUP1 PUSH1 0xC0 ADD PUSH1 0x40 MSTORE SWAP1 DUP2 PUSH0 DUP3 ADD SLOAD DUP2 MSTORE PUSH1 0x20 ADD PUSH1 0x1 DUP3 ADD PUSH0 SWAP1 SLOAD SWAP1 PUSH2 0x100 EXP SWAP1 DIV PUSH20 0xFFFFFFFFFFFFFFFFFFFFFFFFFFFFFFFFFFFFFFFF AND PUSH20 0xFFFFFFFFFFFFFFFFFFFFFFFFFFFFFFFFFFFFFFFF AND PUSH20 0xFFFFFFFFFFFFFFFFFFFFFFFFFFFFFFFFFFFFFFFF AND DUP2 MSTORE PUSH1 0x20 ADD PUSH1 0x2 DUP3 ADD SLOAD DUP2 MSTORE PUSH1 0x20 ADD PUSH1 0x3 DUP3 ADD SLOAD DUP2 MSTORE PUSH1 0x20 ADD PUSH1 0x4 DUP3 ADD SLOAD DUP2 MSTORE PUSH1 0x20 ADD PUSH1 0x5 DUP3 ADD PUSH0 SWAP1 SLOAD SWAP1 PUSH2 0x100 EXP SWAP1 DIV PUSH20 0xFFFFFFFFFFFFFFFFFFFFFFFFFFFFFFFFFFFFFFFF AND PUSH20 0xFFFFFFFFFFFFFFFFFFFFFFFFFFFFFFFFFFFFFFFF AND PUSH20 0xFFFFFFFFFFFFFFFFFFFFFFFFFFFFFFFFFFFFFFFF AND DUP2 MSTORE POP POP SWAP1 POP PUSH2 0x583 DUP3 PUSH1 0x60 ADD MLOAD DUP6 PUSH2 0x1C5D JUMP JUMPDEST DUP3 PUSH1 0x60 ADD DUP2 DUP2 MSTORE POP POP PUSH2 0x59A DUP2 PUSH1 0x60 ADD MLOAD DUP6 PUSH2 0x1C5D JUMP JUMPDEST DUP2 PUSH1 0x60 ADD DUP2 DUP2 MSTORE POP POP PUSH2 0x5B5 PUSH2 0x5B0 DUP5 DUP7 PUSH2 0x1CA3 JUMP JUMPDEST PUSH2 0x1CF2 JUMP JUMPDEST DUP2 PUSH1 0x4 PUSH0 DUP8 DUP2 MSTORE PUSH1 0x20 ADD SWAP1 DUP2 MSTORE PUSH1 0x20 ADD PUSH0 KECCAK256 PUSH0 CALLER PUSH20 0xFFFFFFFFFFFFFFFFFFFFFFFFFFFFFFFFFFFFFFFF AND PUSH20 0xFFFFFFFFFFFFFFFFFFFFFFFFFFFFFFFFFFFFFFFF AND DUP2 MSTORE PUSH1 0x20 ADD SWAP1 DUP2 MSTORE PUSH1 0x20 ADD PUSH0 KECCAK256 PUSH0 DUP3 ADD MLOAD DUP2 PUSH0 ADD PUSH0 PUSH2 0x100 EXP DUP2 SLOAD DUP2 PUSH20 0xFFFFFFFFFFFFFFFFFFFFFFFFFFFFFFFFFFFFFFFF MUL NOT AND SWAP1 DUP4 PUSH20 0xFFFFFFFFFFFFFFFFFFFFFFFFFFFFFFFFFFFFFFFF AND MUL OR SWAP1 SSTORE POP PUSH1 0x20 DUP3 ADD MLOAD DUP2 PUSH1 0x1 ADD SSTORE PUSH1 0x40 DUP3 ADD MLOAD DUP2 PUSH1 0x2 ADD SSTORE PUSH1 0x60 DUP3 ADD MLOAD DUP2 PUSH1 0x3 ADD SSTORE PUSH1 0x80 DUP3 ADD MLOAD DUP2 PUSH1 0x4 ADD SSTORE PUSH1 0xA0 DUP3 ADD MLOAD DUP2 PUSH1 0x5 ADD PUSH0 PUSH2 0x100 EXP DUP2 SLOAD DUP2 PUSH4 0xFFFFFFFF MUL NOT AND SWAP1 DUP4 PUSH4 0xFFFFFFFF AND MUL OR SWAP1 SSTORE POP SWAP1 POP POP DUP1 PUSH1 0x2 PUSH0 DUP8 DUP2 MSTORE PUSH1 0x20 ADD SWAP1 DUP2 MSTORE PUSH1 0x20 ADD PUSH0 KECCAK256 PUSH0 DUP3 ADD MLOAD DUP2 PUSH0 ADD SSTORE PUSH1 0x20 DUP3 ADD MLOAD DUP2 PUSH1 0x1 ADD PUSH0 PUSH2 0x100 EXP DUP2 SLOAD DUP2 PUSH20 0xFFFFFFFFFFFFFFFFFFFFFFFFFFFFFFFFFFFFFFFF MUL NOT AND SWAP1 DUP4 PUSH20 0xFFFFFFFFFFFFFFFFFFFFFFFFFFFFFFFFFFFFFFFF AND MUL OR SWAP1 SSTORE POP PUSH1 0x40 DUP3 ADD MLOAD DUP2 PUSH1 0x2 ADD SSTORE PUSH1 0x60 DUP3 ADD MLOAD DUP2 PUSH1 0x3 ADD SSTORE PUSH1 0x80 DUP3 ADD MLOAD DUP2 PUSH1 0x4 ADD SSTORE PUSH1 0xA0 DUP3 ADD MLOAD DUP2 PUSH1 0x5 ADD PUSH0 PUSH2 0x100 EXP DUP2 SLOAD DUP2 PUSH20 0xFFFFFFFFFFFFFFFFFFFFFFFFFFFFFFFFFFFFFFFF MUL NOT AND SWAP1 DUP4 PUSH20 0xFFFFFFFFFFFFFFFFFFFFFFFFFFFFFFFFFFFFFFFF AND MUL OR SWAP1 SSTORE POP SWAP1 POP POP POP POP POP POP POP POP POP JUMP JUMPDEST PUSH0 DUP1 PUSH1 0x4 PUSH0 DUP5 DUP2 MSTORE PUSH1 0x20 ADD SWAP1 DUP2 MSTORE PUSH1 0x20 ADD PUSH0 KECCAK256 PUSH0 CALLER PUSH20 0xFFFFFFFFFFFFFFFFFFFFFFFFFFFFFFFFFFFFFFFF AND PUSH20 0xFFFFFFFFFFFFFFFFFFFFFFFFFFFFFFFFFFFFFFFF AND DUP2 MSTORE PUSH1 0x20 ADD SWAP1 DUP2 MSTORE PUSH1 0x20 ADD PUSH0 KECCAK256 PUSH1 0x40 MLOAD DUP1 PUSH1 0xC0 ADD PUSH1 0x40 MSTORE SWAP1 DUP2 PUSH0 DUP3 ADD PUSH0 SWAP1 SLOAD SWAP1 PUSH2 0x100 EXP SWAP1 DIV PUSH20 0xFFFFFFFFFFFFFFFFFFFFFFFFFFFFFFFFFFFFFFFF AND PUSH20 0xFFFFFFFFFFFFFFFFFFFFFFFFFFFFFFFFFFFFFFFF AND PUSH20 0xFFFFFFFFFFFFFFFFFFFFFFFFFFFFFFFFFFFFFFFF AND DUP2 MSTORE PUSH1 0x20 ADD PUSH1 0x1 DUP3 ADD SLOAD DUP2 MSTORE PUSH1 0x20 ADD PUSH1 0x2 DUP3 ADD SLOAD DUP2 MSTORE PUSH1 0x20 ADD PUSH1 0x3 DUP3 ADD SLOAD DUP2 MSTORE PUSH1 0x20 ADD PUSH1 0x4 DUP3 ADD SLOAD DUP2 MSTORE PUSH1 0x20 ADD PUSH1 0x5 DUP3 ADD PUSH0 SWAP1 SLOAD SWAP1 PUSH2 0x100 EXP SWAP1 DIV PUSH4 0xFFFFFFFF AND PUSH4 0xFFFFFFFF AND PUSH4 0xFFFFFFFF AND DUP2 MSTORE POP POP SWAP1 POP DUP1 PUSH1 0x40 ADD MLOAD SWAP2 POP POP SWAP2 SWAP1 POP JUMP JUMPDEST PUSH1 0x4 PUSH1 0x20 MSTORE DUP2 PUSH0 MSTORE PUSH1 0x40 PUSH0 KECCAK256 PUSH1 0x20 MSTORE DUP1 PUSH0 MSTORE PUSH1 0x40 PUSH0 KECCAK256 PUSH0 SWAP2 POP SWAP2 POP POP DUP1 PUSH0 ADD PUSH0 SWAP1 SLOAD SWAP1 PUSH2 0x100 EXP SWAP1 DIV PUSH20 0xFFFFFFFFFFFFFFFFFFFFFFFFFFFFFFFFFFFFFFFF AND SWAP1 DUP1 PUSH1 0x1 ADD SLOAD SWAP1 DUP1 PUSH1 0x2 ADD SLOAD SWAP1 DUP1 PUSH1 0x3 ADD SLOAD SWAP1 DUP1 PUSH1 0x4 ADD SLOAD SWAP1 DUP1 PUSH1 0x5 ADD PUSH0 SWAP1 SLOAD SWAP1 PUSH2 0x100 EXP SWAP1 DIV PUSH4 0xFFFFFFFF AND SWAP1 POP DUP7 JUMP JUMPDEST CALLER PUSH20 0xFFFFFFFFFFFFFFFFFFFFFFFFFFFFFFFFFFFFFFFF AND PUSH1 0x6 PUSH0 SWAP1 SLOAD SWAP1 PUSH2 0x100 EXP SWAP1 DIV PUSH20 0xFFFFFFFFFFFFFFFFFFFFFFFFFFFFFFFFFFFFFFFF AND PUSH20 0xFFFFFFFFFFFFFFFFFFFFFFFFFFFFFFFFFFFFFFFF AND EQ PUSH2 0x939 JUMPI PUSH0 DUP1 REVERT JUMPDEST DUP2 PUSH1 0x5 PUSH0 DUP4 DUP2 MSTORE PUSH1 0x20 ADD SWAP1 DUP2 MSTORE PUSH1 0x20 ADD PUSH0 KECCAK256 PUSH0 DUP3 ADD MLOAD DUP2 PUSH0 ADD SSTORE PUSH1 0x20 DUP3 ADD MLOAD DUP2 PUSH1 0x1 ADD SSTORE PUSH1 0x40 DUP3 ADD MLOAD DUP2 PUSH1 0x2 ADD SSTORE PUSH1 0x60 DUP3 ADD MLOAD DUP2 PUSH1 0x3 ADD SSTORE PUSH1 0x80 DUP3 ADD MLOAD DUP2 PUSH1 0x4 ADD SSTORE PUSH1 0xA0 DUP3 ADD MLOAD DUP2 PUSH1 0x5 ADD SSTORE PUSH1 0xC0 DUP3 ADD MLOAD DUP2 PUSH1 0x6 ADD SSTORE SWAP1 POP POP POP POP JUMP JUMPDEST PUSH0 PUSH1 0x2 PUSH0 DUP4 DUP2 MSTORE PUSH1 0x20 ADD SWAP1 DUP2 MSTORE PUSH1 0x20 ADD PUSH0 KECCAK256 PUSH1 0x40 MLOAD DUP1 PUSH1 0xC0 ADD PUSH1 0x40 MSTORE SWAP1 DUP2 PUSH0 DUP3 ADD SLOAD DUP2 MSTORE PUSH1 0x20 ADD PUSH1 0x1 DUP3 ADD PUSH0 SWAP1 SLOAD SWAP1 PUSH2 0x100 EXP SWAP1 DIV PUSH20 0xFFFFFFFFFFFFFFFFFFFFFFFFFFFFFFFFFFFFFFFF AND PUSH20 0xFFFFFFFFFFFFFFFFFFFFFFFFFFFFFFFFFFFFFFFF AND PUSH20 0xFFFFFFFFFFFFFFFFFFFFFFFFFFFFFFFFFFFFFFFF AND DUP2 MSTORE PUSH1 0x20 ADD PUSH1 0x2 DUP3 ADD SLOAD DUP2 MSTORE PUSH1 0x20 ADD PUSH1 0x3 DUP3 ADD SLOAD DUP2 MSTORE PUSH1 0x20 ADD PUSH1 0x4 DUP3 ADD SLOAD DUP2 MSTORE PUSH1 0x20 ADD PUSH1 0x5 DUP3 ADD PUSH0 SWAP1 SLOAD SWAP1 PUSH2 0x100 EXP SWAP1 DIV PUSH20 0xFFFFFFFFFFFFFFFFFFFFFFFFFFFFFFFFFFFFFFFF AND PUSH20 0xFFFFFFFFFFFFFFFFFFFFFFFFFFFFFFFFFFFFFFFF AND PUSH20 0xFFFFFFFFFFFFFFFFFFFFFFFFFFFFFFFFFFFFFFFF AND DUP2 MSTORE POP POP SWAP1 POP DUP1 PUSH1 0x20 ADD MLOAD PUSH20 0xFFFFFFFFFFFFFFFFFFFFFFFFFFFFFFFFFFFFFFFF AND CALLER PUSH20 0xFFFFFFFFFFFFFFFFFFFFFFFFFFFFFFFFFFFFFFFF AND EQ PUSH2 0xAF8 JUMPI PUSH1 0x40 MLOAD PUSH32 0x8C379A000000000000000000000000000000000000000000000000000000000 DUP2 MSTORE PUSH1 0x4 ADD PUSH2 0xAEF SWAP1 PUSH2 0x31F7 JUMP JUMPDEST PUSH1 0x40 MLOAD DUP1 SWAP2 SUB SWAP1 REVERT JUMPDEST PUSH1 0x1 PUSH1 0x3 PUSH0 DUP5 DUP2 MSTORE PUSH1 0x20 ADD SWAP1 DUP2 MSTORE PUSH1 0x20 ADD PUSH0 KECCAK256 PUSH0 DUP6 PUSH20 0xFFFFFFFFFFFFFFFFFFFFFFFFFFFFFFFFFFFFFFFF AND PUSH20 0xFFFFFFFFFFFFFFFFFFFFFFFFFFFFFFFFFFFFFFFF AND DUP2 MSTORE PUSH1 0x20 ADD SWAP1 DUP2 MSTORE PUSH1 0x20 ADD PUSH0 KECCAK256 PUSH0 PUSH2 0x100 EXP DUP2 SLOAD DUP2 PUSH1 0xFF MUL NOT AND SWAP1 DUP4 ISZERO ISZERO MUL OR SWAP1 SSTORE POP PUSH2 0xB72 DUP2 PUSH0 ADD MLOAD PUSH2 0xB6D PUSH1 0x1 PUSH2 0x1CFE JUMP JUMPDEST PUSH2 0x1C5D JUMP JUMPDEST DUP2 PUSH0 ADD DUP2 DUP2 MSTORE POP POP DUP1 PUSH1 0x2 PUSH0 DUP5 DUP2 MSTORE PUSH1 0x20 ADD SWAP1 DUP2 MSTORE PUSH1 0x20 ADD PUSH0 KECCAK256 PUSH0 DUP3 ADD MLOAD DUP2 PUSH0 ADD SSTORE PUSH1 0x20 DUP3 ADD MLOAD DUP2 PUSH1 0x1 ADD PUSH0 PUSH2 0x100 EXP DUP2 SLOAD DUP2 PUSH20 0xFFFFFFFFFFFFFFFFFFFFFFFFFFFFFFFFFFFFFFFF MUL NOT AND SWAP1 DUP4 PUSH20 0xFFFFFFFFFFFFFFFFFFFFFFFFFFFFFFFFFFFFFFFF AND MUL OR SWAP1 SSTORE POP PUSH1 0x40 DUP3 ADD MLOAD DUP2 PUSH1 0x2 ADD SSTORE PUSH1 0x60 DUP3 ADD MLOAD DUP2 PUSH1 0x3 ADD SSTORE PUSH1 0x80 DUP3 ADD MLOAD DUP2 PUSH1 0x4 ADD SSTORE PUSH1 0xA0 DUP3 ADD MLOAD DUP2 PUSH1 0x5 ADD PUSH0 PUSH2 0x100 EXP DUP2 SLOAD DUP2 PUSH20 0xFFFFFFFFFFFFFFFFFFFFFFFFFFFFFFFFFFFFFFFF MUL NOT AND SWAP1 DUP4 PUSH20 0xFFFFFFFFFFFFFFFFFFFFFFFFFFFFFFFFFFFFFFFF AND MUL OR SWAP1 SSTORE POP SWAP1 POP POP PUSH0 PUSH1 0x4 PUSH0 DUP5 DUP2 MSTORE PUSH1 0x20 ADD SWAP1 DUP2 MSTORE PUSH1 0x20 ADD PUSH0 KECCAK256 PUSH0 DUP6 PUSH20 0xFFFFFFFFFFFFFFFFFFFFFFFFFFFFFFFFFFFFFFFF AND PUSH20 0xFFFFFFFFFFFFFFFFFFFFFFFFFFFFFFFFFFFFFFFF AND DUP2 MSTORE PUSH1 0x20 ADD SWAP1 DUP2 MSTORE PUSH1 0x20 ADD PUSH0 KECCAK256 PUSH1 0x40 MLOAD DUP1 PUSH1 0xC0 ADD PUSH1 0x40 MSTORE SWAP1 DUP2 PUSH0 DUP3 ADD PUSH0 SWAP1 SLOAD SWAP1 PUSH2 0x100 EXP SWAP1 DIV PUSH20 0xFFFFFFFFFFFFFFFFFFFFFFFFFFFFFFFFFFFFFFFF AND PUSH20 0xFFFFFFFFFFFFFFFFFFFFFFFFFFFFFFFFFFFFFFFF AND PUSH20 0xFFFFFFFFFFFFFFFFFFFFFFFFFFFFFFFFFFFFFFFF AND DUP2 MSTORE PUSH1 0x20 ADD PUSH1 0x1 DUP3 ADD SLOAD DUP2 MSTORE PUSH1 0x20 ADD PUSH1 0x2 DUP3 ADD SLOAD DUP2 MSTORE PUSH1 0x20 ADD PUSH1 0x3 DUP3 ADD SLOAD DUP2 MSTORE PUSH1 0x20 ADD PUSH1 0x4 DUP3 ADD SLOAD DUP2 MSTORE PUSH1 0x20 ADD PUSH1 0x5 DUP3 ADD PUSH0 SWAP1 SLOAD SWAP1 PUSH2 0x100 EXP SWAP1 DIV PUSH4 0xFFFFFFFF AND PUSH4 0xFFFFFFFF AND PUSH4 0xFFFFFFFF AND DUP2 MSTORE POP POP SWAP1 POP DUP4 DUP2 PUSH0 ADD SWAP1 PUSH20 0xFFFFFFFFFFFFFFFFFFFFFFFFFFFFFFFFFFFFFFFF AND SWAP1 DUP2 PUSH20 0xFFFFFFFFFFFFFFFFFFFFFFFFFFFFFFFFFFFFFFFF AND DUP2 MSTORE POP POP DUP1 PUSH1 0x4 PUSH0 DUP6 DUP2 MSTORE PUSH1 0x20 ADD SWAP1 DUP2 MSTORE PUSH1 0x20 ADD PUSH0 KECCAK256 PUSH0 DUP7 PUSH20 0xFFFFFFFFFFFFFFFFFFFFFFFFFFFFFFFFFFFFFFFF AND PUSH20 0xFFFFFFFFFFFFFFFFFFFFFFFFFFFFFFFFFFFFFFFF AND DUP2 MSTORE PUSH1 0x20 ADD SWAP1 DUP2 MSTORE PUSH1 0x20 ADD PUSH0 KECCAK256 PUSH0 DUP3 ADD MLOAD DUP2 PUSH0 ADD PUSH0 PUSH2 0x100 EXP DUP2 SLOAD DUP2 PUSH20 0xFFFFFFFFFFFFFFFFFFFFFFFFFFFFFFFFFFFFFFFF MUL NOT AND SWAP1 DUP4 PUSH20 0xFFFFFFFFFFFFFFFFFFFFFFFFFFFFFFFFFFFFFFFF AND MUL OR SWAP1 SSTORE POP PUSH1 0x20 DUP3 ADD MLOAD DUP2 PUSH1 0x1 ADD SSTORE PUSH1 0x40 DUP3 ADD MLOAD DUP2 PUSH1 0x2 ADD SSTORE PUSH1 0x60 DUP3 ADD MLOAD DUP2 PUSH1 0x3 ADD SSTORE PUSH1 0x80 DUP3 ADD MLOAD DUP2 PUSH1 0x4 ADD SSTORE PUSH1 0xA0 DUP3 ADD MLOAD DUP2 PUSH1 0x5 ADD PUSH0 PUSH2 0x100 EXP DUP2 SLOAD DUP2 PUSH4 0xFFFFFFFF MUL NOT AND SWAP1 DUP4 PUSH4 0xFFFFFFFF AND MUL OR SWAP1 SSTORE POP SWAP1 POP POP POP POP POP POP JUMP JUMPDEST PUSH0 PUSH2 0xEA8 DUP5 DUP5 DUP1 DUP1 PUSH1 0x1F ADD PUSH1 0x20 DUP1 SWAP2 DIV MUL PUSH1 0x20 ADD PUSH1 0x40 MLOAD SWAP1 DUP2 ADD PUSH1 0x40 MSTORE DUP1 SWAP4 SWAP3 SWAP2 SWAP1 DUP2 DUP2 MSTORE PUSH1 0x20 ADD DUP4 DUP4 DUP1 DUP3 DUP5 CALLDATACOPY PUSH0 DUP2 DUP5 ADD MSTORE PUSH1 0x1F NOT PUSH1 0x1F DUP3 ADD AND SWAP1 POP DUP1 DUP4 ADD SWAP3 POP POP POP POP POP POP POP PUSH2 0x1C4A JUMP JUMPDEST SWAP1 POP PUSH0 PUSH1 0x2 PUSH0 DUP5 DUP2 MSTORE PUSH1 0x20 ADD SWAP1 DUP2 MSTORE PUSH1 0x20 ADD PUSH0 KECCAK256 PUSH1 0x40 MLOAD DUP1 PUSH1 0xC0 ADD PUSH1 0x40 MSTORE SWAP1 DUP2 PUSH0 DUP3 ADD SLOAD DUP2 MSTORE PUSH1 0x20 ADD PUSH1 0x1 DUP3 ADD PUSH0 SWAP1 SLOAD SWAP1 PUSH2 0x100 EXP SWAP1 DIV PUSH20 0xFFFFFFFFFFFFFFFFFFFFFFFFFFFFFFFFFFFFFFFF AND PUSH20 0xFFFFFFFFFFFFFFFFFFFFFFFFFFFFFFFFFFFFFFFF AND PUSH20 0xFFFFFFFFFFFFFFFFFFFFFFFFFFFFFFFFFFFFFFFF AND DUP2 MSTORE PUSH1 0x20 ADD PUSH1 0x2 DUP3 ADD SLOAD DUP2 MSTORE PUSH1 0x20 ADD PUSH1 0x3 DUP3 ADD SLOAD DUP2 MSTORE PUSH1 0x20 ADD PUSH1 0x4 DUP3 ADD SLOAD DUP2 MSTORE PUSH1 0x20 ADD PUSH1 0x5 DUP3 ADD PUSH0 SWAP1 SLOAD SWAP1 PUSH2 0x100 EXP SWAP1 DIV PUSH20 0xFFFFFFFFFFFFFFFFFFFFFFFFFFFFFFFFFFFFFFFF AND PUSH20 0xFFFFFFFFFFFFFFFFFFFFFFFFFFFFFFFFFFFFFFFF AND PUSH20 0xFFFFFFFFFFFFFFFFFFFFFFFFFFFFFFFFFFFFFFFF AND DUP2 MSTORE POP POP SWAP1 POP DUP1 PUSH1 0x20 ADD MLOAD PUSH20 0xFFFFFFFFFFFFFFFFFFFFFFFFFFFFFFFFFFFFFFFF AND CALLER PUSH20 0xFFFFFFFFFFFFFFFFFFFFFFFFFFFFFFFFFFFFFFFF AND EQ PUSH2 0x100C JUMPI PUSH1 0x40 MLOAD PUSH32 0x8C379A000000000000000000000000000000000000000000000000000000000 DUP2 MSTORE PUSH1 0x4 ADD PUSH2 0x1003 SWAP1 PUSH2 0x325F JUMP JUMPDEST PUSH1 0x40 MLOAD DUP1 SWAP2 SUB SWAP1 REVERT JUMPDEST PUSH0 PUSH1 0x4 PUSH0 DUP6 DUP2 MSTORE PUSH1 0x20 ADD SWAP1 DUP2 MSTORE PUSH1 0x20 ADD PUSH0 KECCAK256 PUSH0 DUP9 PUSH20 0xFFFFFFFFFFFFFFFFFFFFFFFFFFFFFFFFFFFFFFFF AND PUSH20 0xFFFFFFFFFFFFFFFFFFFFFFFFFFFFFFFFFFFFFFFF AND DUP2 MSTORE PUSH1 0x20 ADD SWAP1 DUP2 MSTORE PUSH1 0x20 ADD PUSH0 KECCAK256 PUSH1 0x40 MLOAD DUP1 PUSH1 0xC0 ADD PUSH1 0x40 MSTORE SWAP1 DUP2 PUSH0 DUP3 ADD PUSH0 SWAP1 SLOAD SWAP1 PUSH2 0x100 EXP SWAP1 DIV PUSH20 0xFFFFFFFFFFFFFFFFFFFFFFFFFFFFFFFFFFFFFFFF AND PUSH20 0xFFFFFFFFFFFFFFFFFFFFFFFFFFFFFFFFFFFFFFFF AND PUSH20 0xFFFFFFFFFFFFFFFFFFFFFFFFFFFFFFFFFFFFFFFF AND DUP2 MSTORE PUSH1 0x20 ADD PUSH1 0x1 DUP3 ADD SLOAD DUP2 MSTORE PUSH1 0x20 ADD PUSH1 0x2 DUP3 ADD SLOAD DUP2 MSTORE PUSH1 0x20 ADD PUSH1 0x3 DUP3 ADD SLOAD DUP2 MSTORE PUSH1 0x20 ADD PUSH1 0x4 DUP3 ADD SLOAD DUP2 MSTORE PUSH1 0x20 ADD PUSH1 0x5 DUP3 ADD PUSH0 SWAP1 SLOAD SWAP1 PUSH2 0x100 EXP SWAP1 DIV PUSH4 0xFFFFFFFF AND PUSH4 0xFFFFFFFF AND PUSH4 0xFFFFFFFF AND DUP2 MSTORE POP POP SWAP1 POP PUSH2 0x1115 DUP4 DUP3 PUSH1 0x20 ADD MLOAD PUSH2 0x1C5D JUMP JUMPDEST DUP2 PUSH1 0x20 ADD DUP2 DUP2 MSTORE POP POP PUSH2 0x112C DUP3 PUSH1 0x40 ADD MLOAD DUP5 PUSH2 0x1C5D JUMP JUMPDEST DUP3 PUSH1 0x40 ADD DUP2 DUP2 MSTORE POP POP PUSH5 0x100000000 TIMESTAMP PUSH2 0x1146 SWAP2 SWAP1 PUSH2 0x32AA JUMP JUMPDEST DUP2 PUSH1 0xA0 ADD SWAP1 PUSH4 0xFFFFFFFF AND SWAP1 DUP2 PUSH4 0xFFFFFFFF AND DUP2 MSTORE POP POP DUP1 PUSH1 0x4 PUSH0 DUP7 DUP2 MSTORE PUSH1 0x20 ADD SWAP1 DUP2 MSTORE PUSH1 0x20 ADD PUSH0 KECCAK256 PUSH0 DUP10 PUSH20 0xFFFFFFFFFFFFFFFFFFFFFFFFFFFFFFFFFFFFFFFF AND PUSH20 0xFFFFFFFFFFFFFFFFFFFFFFFFFFFFFFFFFFFFFFFF AND DUP2 MSTORE PUSH1 0x20 ADD SWAP1 DUP2 MSTORE PUSH1 0x20 ADD PUSH0 KECCAK256 PUSH0 DUP3 ADD MLOAD DUP2 PUSH0 ADD PUSH0 PUSH2 0x100 EXP DUP2 SLOAD DUP2 PUSH20 0xFFFFFFFFFFFFFFFFFFFFFFFFFFFFFFFFFFFFFFFF MUL NOT AND SWAP1 DUP4 PUSH20 0xFFFFFFFFFFFFFFFFFFFFFFFFFFFFFFFFFFFFFFFF AND MUL OR SWAP1 SSTORE POP PUSH1 0x20 DUP3 ADD MLOAD DUP2 PUSH1 0x1 ADD SSTORE PUSH1 0x40 DUP3 ADD MLOAD DUP2 PUSH1 0x2 ADD SSTORE PUSH1 0x60 DUP3 ADD MLOAD DUP2 PUSH1 0x3 ADD SSTORE PUSH1 0x80 DUP3 ADD MLOAD DUP2 PUSH1 0x4 ADD SSTORE PUSH1 0xA0 DUP3 ADD MLOAD DUP2 PUSH1 0x5 ADD PUSH0 PUSH2 0x100 EXP DUP2 SLOAD DUP2 PUSH4 0xFFFFFFFF MUL NOT AND SWAP1 DUP4 PUSH4 0xFFFFFFFF AND MUL OR SWAP1 SSTORE POP SWAP1 POP POP DUP2 PUSH1 0x2 PUSH0 DUP7 DUP2 MSTORE PUSH1 0x20 ADD SWAP1 DUP2 MSTORE PUSH1 0x20 ADD PUSH0 KECCAK256 PUSH0 DUP3 ADD MLOAD DUP2 PUSH0 ADD SSTORE PUSH1 0x20 DUP3 ADD MLOAD DUP2 PUSH1 0x1 ADD PUSH0 PUSH2 0x100 EXP DUP2 SLOAD DUP2 PUSH20 0xFFFFFFFFFFFFFFFFFFFFFFFFFFFFFFFFFFFFFFFF MUL NOT AND SWAP1 DUP4 PUSH20 0xFFFFFFFFFFFFFFFFFFFFFFFFFFFFFFFFFFFFFFFF AND MUL OR SWAP1 SSTORE POP PUSH1 0x40 DUP3 ADD MLOAD DUP2 PUSH1 0x2 ADD SSTORE PUSH1 0x60 DUP3 ADD MLOAD DUP2 PUSH1 0x3 ADD SSTORE PUSH1 0x80 DUP3 ADD MLOAD DUP2 PUSH1 0x4 ADD SSTORE PUSH1 0xA0 DUP3 ADD MLOAD DUP2 PUSH1 0x5 ADD PUSH0 PUSH2 0x100 EXP DUP2 SLOAD DUP2 PUSH20 0xFFFFFFFFFFFFFFFFFFFFFFFFFFFFFFFFFFFFFFFF MUL NOT AND SWAP1 DUP4 PUSH20 0xFFFFFFFFFFFFFFFFFFFFFFFFFFFFFFFFFFFFFFFF AND MUL OR SWAP1 SSTORE POP SWAP1 POP POP POP POP POP POP POP POP POP JUMP JUMPDEST PUSH1 0x5 PUSH1 0x20 MSTORE DUP1 PUSH0 MSTORE PUSH1 0x40 PUSH0 KECCAK256 PUSH0 SWAP2 POP SWAP1 POP DUP1 PUSH0 ADD SLOAD SWAP1 DUP1 PUSH1 0x1 ADD SLOAD SWAP1 DUP1 PUSH1 0x2 ADD SLOAD SWAP1 DUP1 PUSH1 0x3 ADD SLOAD SWAP1 DUP1 PUSH1 0x4 ADD SLOAD SWAP1 DUP1 PUSH1 0x5 ADD SLOAD SWAP1 DUP1 PUSH1 0x6 ADD SLOAD SWAP1 POP DUP8 JUMP JUMPDEST PUSH0 PUSH1 0x5 PUSH0 DUP4 DUP2 MSTORE PUSH1 0x20 ADD SWAP1 DUP2 MSTORE PUSH1 0x20 ADD PUSH0 KECCAK256 PUSH1 0x40 MLOAD DUP1 PUSH1 0xE0 ADD PUSH1 0x40 MSTORE SWAP1 DUP2 PUSH0 DUP3 ADD SLOAD DUP2 MSTORE PUSH1 0x20 ADD PUSH1 0x1 DUP3 ADD SLOAD DUP2 MSTORE PUSH1 0x20 ADD PUSH1 0x2 DUP3 ADD SLOAD DUP2 MSTORE PUSH1 0x20 ADD PUSH1 0x3 DUP3 ADD SLOAD DUP2 MSTORE PUSH1 0x20 ADD PUSH1 0x4 DUP3 ADD SLOAD DUP2 MSTORE PUSH1 0x20 ADD PUSH1 0x5 DUP3 ADD SLOAD DUP2 MSTORE PUSH1 0x20 ADD PUSH1 0x6 DUP3 ADD SLOAD DUP2 MSTORE POP POP SWAP1 POP PUSH0 PUSH1 0x4 PUSH0 DUP5 DUP2 MSTORE PUSH1 0x20 ADD SWAP1 DUP2 MSTORE PUSH1 0x20 ADD PUSH0 KECCAK256 PUSH0 CALLER PUSH20 0xFFFFFFFFFFFFFFFFFFFFFFFFFFFFFFFFFFFFFFFF AND PUSH20 0xFFFFFFFFFFFFFFFFFFFFFFFFFFFFFFFFFFFFFFFF AND DUP2 MSTORE PUSH1 0x20 ADD SWAP1 DUP2 MSTORE PUSH1 0x20 ADD PUSH0 KECCAK256 PUSH1 0x40 MLOAD DUP1 PUSH1 0xC0 ADD PUSH1 0x40 MSTORE SWAP1 DUP2 PUSH0 DUP3 ADD PUSH0 SWAP1 SLOAD SWAP1 PUSH2 0x100 EXP SWAP1 DIV PUSH20 0xFFFFFFFFFFFFFFFFFFFFFFFFFFFFFFFFFFFFFFFF AND PUSH20 0xFFFFFFFFFFFFFFFFFFFFFFFFFFFFFFFFFFFFFFFF AND PUSH20 0xFFFFFFFFFFFFFFFFFFFFFFFFFFFFFFFFFFFFFFFF AND DUP2 MSTORE PUSH1 0x20 ADD PUSH1 0x1 DUP3 ADD SLOAD DUP2 MSTORE PUSH1 0x20 ADD PUSH1 0x2 DUP3 ADD SLOAD DUP2 MSTORE PUSH1 0x20 ADD PUSH1 0x3 DUP3 ADD SLOAD DUP2 MSTORE PUSH1 0x20 ADD PUSH1 0x4 DUP3 ADD SLOAD DUP2 MSTORE PUSH1 0x20 ADD PUSH1 0x5 DUP3 ADD PUSH0 SWAP1 SLOAD SWAP1 PUSH2 0x100 EXP SWAP1 DIV PUSH4 0xFFFFFFFF AND PUSH4 0xFFFFFFFF AND PUSH4 0xFFFFFFFF AND DUP2 MSTORE POP POP SWAP1 POP PUSH0 PUSH1 0x2 PUSH0 DUP6 DUP2 MSTORE PUSH1 0x20 ADD SWAP1 DUP2 MSTORE PUSH1 0x20 ADD PUSH0 KECCAK256 PUSH1 0x40 MLOAD DUP1 PUSH1 0xC0 ADD PUSH1 0x40 MSTORE SWAP1 DUP2 PUSH0 DUP3 ADD SLOAD DUP2 MSTORE PUSH1 0x20 ADD PUSH1 0x1 DUP3 ADD PUSH0 SWAP1 SLOAD SWAP1 PUSH2 0x100 EXP SWAP1 DIV PUSH20 0xFFFFFFFFFFFFFFFFFFFFFFFFFFFFFFFFFFFFFFFF AND PUSH20 0xFFFFFFFFFFFFFFFFFFFFFFFFFFFFFFFFFFFFFFFF AND PUSH20 0xFFFFFFFFFFFFFFFFFFFFFFFFFFFFFFFFFFFFFFFF AND DUP2 MSTORE PUSH1 0x20 ADD PUSH1 0x2 DUP3 ADD SLOAD DUP2 MSTORE PUSH1 0x20 ADD PUSH1 0x3 DUP3 ADD SLOAD DUP2 MSTORE PUSH1 0x20 ADD PUSH1 0x4 DUP3 ADD SLOAD DUP2 MSTORE PUSH1 0x20 ADD PUSH1 0x5 DUP3 ADD PUSH0 SWAP1 SLOAD SWAP1 PUSH2 0x100 EXP SWAP1 DIV PUSH20 0xFFFFFFFFFFFFFFFFFFFFFFFFFFFFFFFFFFFFFFFF AND PUSH20 0xFFFFFFFFFFFFFFFFFFFFFFFFFFFFFFFFFFFFFFFF AND PUSH20 0xFFFFFFFFFFFFFFFFFFFFFFFFFFFFFFFFFFFFFFFF AND DUP2 MSTORE POP POP SWAP1 POP PUSH0 PUSH5 0x100000000 TIMESTAMP PUSH2 0x15AE SWAP2 SWAP1 PUSH2 0x32AA JUMP JUMPDEST SWAP1 POP PUSH0 PUSH2 0x15C0 DUP3 PUSH4 0xFFFFFFFF AND PUSH2 0x1CFE JUMP JUMPDEST SWAP1 POP PUSH0 PUSH2 0x15D4 DUP7 PUSH0 ADD MLOAD DUP8 PUSH1 0x20 ADD MLOAD PUSH2 0x1C5D JUMP JUMPDEST SWAP1 POP PUSH0 PUSH2 0x1602 PUSH2 0x15E7 DUP5 DUP10 PUSH0 ADD MLOAD PUSH2 0x1CA3 JUMP JUMPDEST PUSH2 0x15F4 DUP7 DUP11 PUSH0 ADD MLOAD PUSH2 0x1D11 JUMP JUMPDEST PUSH2 0x15FD PUSH0 PUSH2 0x1CFE JUMP JUMPDEST PUSH2 0x1D51 JUMP JUMPDEST SWAP1 POP PUSH0 PUSH2 0x1612 DUP4 DUP10 PUSH0 ADD MLOAD PUSH2 0x1D66 JUMP JUMPDEST SWAP1 POP PUSH0 PUSH2 0x1621 DUP10 DUP6 DUP6 DUP12 PUSH2 0x1DAC JUMP JUMPDEST SWAP1 POP PUSH0 PUSH2 0x1632 DUP10 DUP12 DUP7 DUP7 DUP11 DUP11 PUSH2 0x1E30 JUMP JUMPDEST SWAP1 POP PUSH0 PUSH2 0x164D PUSH2 0x1646 DUP13 PUSH1 0x20 ADD MLOAD DUP8 PUSH2 0x1CA3 JUMP JUMPDEST DUP5 DUP5 PUSH2 0x1D51 JUMP JUMPDEST SWAP1 POP PUSH2 0x165D DUP11 PUSH1 0x40 ADD MLOAD DUP3 PUSH2 0x1C5D JUMP JUMPDEST DUP11 PUSH1 0x40 ADD DUP2 DUP2 MSTORE POP POP PUSH2 0x1674 DUP10 PUSH1 0x80 ADD MLOAD DUP3 PUSH2 0x1D66 JUMP JUMPDEST DUP10 PUSH1 0x80 ADD DUP2 DUP2 MSTORE POP POP DUP10 PUSH1 0x4 PUSH0 DUP15 DUP2 MSTORE PUSH1 0x20 ADD SWAP1 DUP2 MSTORE PUSH1 0x20 ADD PUSH0 KECCAK256 PUSH0 CALLER PUSH20 0xFFFFFFFFFFFFFFFFFFFFFFFFFFFFFFFFFFFFFFFF AND PUSH20 0xFFFFFFFFFFFFFFFFFFFFFFFFFFFFFFFFFFFFFFFF AND DUP2 MSTORE PUSH1 0x20 ADD SWAP1 DUP2 MSTORE PUSH1 0x20 ADD PUSH0 KECCAK256 PUSH0 DUP3 ADD MLOAD DUP2 PUSH0 ADD PUSH0 PUSH2 0x100 EXP DUP2 SLOAD DUP2 PUSH20 0xFFFFFFFFFFFFFFFFFFFFFFFFFFFFFFFFFFFFFFFF MUL NOT AND SWAP1 DUP4 PUSH20 0xFFFFFFFFFFFFFFFFFFFFFFFFFFFFFFFFFFFFFFFF AND MUL OR SWAP1 SSTORE POP PUSH1 0x20 DUP3 ADD MLOAD DUP2 PUSH1 0x1 ADD SSTORE PUSH1 0x40 DUP3 ADD MLOAD DUP2 PUSH1 0x2 ADD SSTORE PUSH1 0x60 DUP3 ADD MLOAD DUP2 PUSH1 0x3 ADD SSTORE PUSH1 0x80 DUP3 ADD MLOAD DUP2 PUSH1 0x4 ADD SSTORE PUSH1 0xA0 DUP3 ADD MLOAD DUP2 PUSH1 0x5 ADD PUSH0 PUSH2 0x100 EXP DUP2 SLOAD DUP2 PUSH4 0xFFFFFFFF MUL NOT AND SWAP1 DUP4 PUSH4 0xFFFFFFFF AND MUL OR SWAP1 SSTORE POP SWAP1 POP POP DUP9 PUSH1 0x2 PUSH0 DUP15 DUP2 MSTORE PUSH1 0x20 ADD SWAP1 DUP2 MSTORE PUSH1 0x20 ADD PUSH0 KECCAK256 PUSH0 DUP3 ADD MLOAD DUP2 PUSH0 ADD SSTORE PUSH1 0x20 DUP3 ADD MLOAD DUP2 PUSH1 0x1 ADD PUSH0 PUSH2 0x100 EXP DUP2 SLOAD DUP2 PUSH20 0xFFFFFFFFFFFFFFFFFFFFFFFFFFFFFFFFFFFFFFFF MUL NOT AND SWAP1 DUP4 PUSH20 0xFFFFFFFFFFFFFFFFFFFFFFFFFFFFFFFFFFFFFFFF AND MUL OR SWAP1 SSTORE POP PUSH1 0x40 DUP3 ADD MLOAD DUP2 PUSH1 0x2 ADD SSTORE PUSH1 0x60 DUP3 ADD MLOAD DUP2 PUSH1 0x3 ADD SSTORE PUSH1 0x80 DUP3 ADD MLOAD DUP2 PUSH1 0x4 ADD SSTORE PUSH1 0xA0 DUP3 ADD MLOAD DUP2 PUSH1 0x5 ADD PUSH0 PUSH2 0x100 EXP DUP2 SLOAD DUP2 PUSH20 0xFFFFFFFFFFFFFFFFFFFFFFFFFFFFFFFFFFFFFFFF MUL NOT AND SWAP1 DUP4 PUSH20 0xFFFFFFFFFFFFFFFFFFFFFFFFFFFFFFFFFFFFFFFF AND MUL OR SWAP1 SSTORE POP SWAP1 POP POP POP POP POP POP POP POP POP POP POP POP POP POP JUMP JUMPDEST PUSH1 0x7 SLOAD DUP2 JUMP JUMPDEST PUSH1 0x6 PUSH0 SWAP1 SLOAD SWAP1 PUSH2 0x100 EXP SWAP1 DIV PUSH20 0xFFFFFFFFFFFFFFFFFFFFFFFFFFFFFFFFFFFFFFFF AND DUP2 JUMP JUMPDEST PUSH0 PUSH1 0x60 DUP1 PUSH0 DUP1 PUSH0 PUSH1 0x60 PUSH2 0x1870 PUSH2 0x1EE0 JUMP JUMPDEST PUSH2 0x1878 PUSH2 0x1F1A JUMP JUMPDEST CHAINID ADDRESS PUSH0 DUP1 SHL PUSH0 PUSH8 0xFFFFFFFFFFFFFFFF DUP2 GT ISZERO PUSH2 0x1897 JUMPI PUSH2 0x1896 PUSH2 0x2AB1 JUMP JUMPDEST JUMPDEST PUSH1 0x40 MLOAD SWAP1 DUP1 DUP3 MSTORE DUP1 PUSH1 0x20 MUL PUSH1 0x20 ADD DUP3 ADD PUSH1 0x40 MSTORE DUP1 ISZERO PUSH2 0x18C5 JUMPI DUP2 PUSH1 0x20 ADD PUSH1 0x20 DUP3 MUL DUP1 CALLDATASIZE DUP4 CALLDATACOPY DUP1 DUP3 ADD SWAP2 POP POP SWAP1 POP JUMPDEST POP PUSH32 0xF00000000000000000000000000000000000000000000000000000000000000 SWAP6 SWAP5 SWAP4 SWAP3 SWAP2 SWAP1 SWAP7 POP SWAP7 POP SWAP7 POP SWAP7 POP SWAP7 POP SWAP7 POP SWAP7 POP SWAP1 SWAP2 SWAP3 SWAP4 SWAP5 SWAP6 SWAP7 JUMP JUMPDEST PUSH0 DUP1 DUP4 PUSH1 0x40 MLOAD PUSH1 0x20 ADD PUSH2 0x1917 SWAP2 SWAP1 PUSH2 0x335E JUMP JUMPDEST PUSH1 0x40 MLOAD PUSH1 0x20 DUP2 DUP4 SUB SUB DUP2 MSTORE SWAP1 PUSH1 0x40 MSTORE SWAP1 POP PUSH0 DUP5 DUP5 PUSH1 0x40 MLOAD PUSH1 0x20 ADD PUSH2 0x193C SWAP3 SWAP2 SWAP1 PUSH2 0x339F JUMP JUMPDEST PUSH1 0x40 MLOAD PUSH1 0x20 DUP2 DUP4 SUB SUB DUP2 MSTORE SWAP1 PUSH1 0x40 MSTORE DUP1 MLOAD SWAP1 PUSH1 0x20 ADD KECCAK256 SWAP1 POP PUSH0 PUSH1 0x2 PUSH0 DUP4 DUP2 MSTORE PUSH1 0x20 ADD SWAP1 DUP2 MSTORE PUSH1 0x20 ADD PUSH0 KECCAK256 PUSH1 0x40 MLOAD DUP1 PUSH1 0xC0 ADD PUSH1 0x40 MSTORE SWAP1 DUP2 PUSH0 DUP3 ADD SLOAD DUP2 MSTORE PUSH1 0x20 ADD PUSH1 0x1 DUP3 ADD PUSH0 SWAP1 SLOAD SWAP1 PUSH2 0x100 EXP SWAP1 DIV PUSH20 0xFFFFFFFFFFFFFFFFFFFFFFFFFFFFFFFFFFFFFFFF AND PUSH20 0xFFFFFFFFFFFFFFFFFFFFFFFFFFFFFFFFFFFFFFFF AND PUSH20 0xFFFFFFFFFFFFFFFFFFFFFFFFFFFFFFFFFFFFFFFF AND DUP2 MSTORE PUSH1 0x20 ADD PUSH1 0x2 DUP3 ADD SLOAD DUP2 MSTORE PUSH1 0x20 ADD PUSH1 0x3 DUP3 ADD SLOAD DUP2 MSTORE PUSH1 0x20 ADD PUSH1 0x4 DUP3 ADD SLOAD DUP2 MSTORE PUSH1 0x20 ADD PUSH1 0x5 DUP3 ADD PUSH0 SWAP1 SLOAD SWAP1 PUSH2 0x100 EXP SWAP1 DIV PUSH20 0xFFFFFFFFFFFFFFFFFFFFFFFFFFFFFFFFFFFFFFFF AND PUSH20 0xFFFFFFFFFFFFFFFFFFFFFFFFFFFFFFFFFFFFFFFF AND PUSH20 0xFFFFFFFFFFFFFFFFFFFFFFFFFFFFFFFFFFFFFFFF AND DUP2 MSTORE POP POP SWAP1 POP CALLER DUP2 PUSH1 0x20 ADD SWAP1 PUSH20 0xFFFFFFFFFFFFFFFFFFFFFFFFFFFFFFFFFFFFFFFF AND SWAP1 DUP2 PUSH20 0xFFFFFFFFFFFFFFFFFFFFFFFFFFFFFFFFFFFFFFFF AND DUP2 MSTORE POP POP DUP1 PUSH1 0x2 PUSH0 DUP5 DUP2 MSTORE PUSH1 0x20 ADD SWAP1 DUP2 MSTORE PUSH1 0x20 ADD PUSH0 KECCAK256 PUSH0 DUP3 ADD MLOAD DUP2 PUSH0 ADD SSTORE PUSH1 0x20 DUP3 ADD MLOAD DUP2 PUSH1 0x1 ADD PUSH0 PUSH2 0x100 EXP DUP2 SLOAD DUP2 PUSH20 0xFFFFFFFFFFFFFFFFFFFFFFFFFFFFFFFFFFFFFFFF MUL NOT AND SWAP1 DUP4 PUSH20 0xFFFFFFFFFFFFFFFFFFFFFFFFFFFFFFFFFFFFFFFF AND MUL OR SWAP1 SSTORE POP PUSH1 0x40 DUP3 ADD MLOAD DUP2 PUSH1 0x2 ADD SSTORE PUSH1 0x60 DUP3 ADD MLOAD DUP2 PUSH1 0x3 ADD SSTORE PUSH1 0x80 DUP3 ADD MLOAD DUP2 PUSH1 0x4 ADD SSTORE PUSH1 0xA0 DUP3 ADD MLOAD DUP2 PUSH1 0x5 ADD PUSH0 PUSH2 0x100 EXP DUP2 SLOAD DUP2 PUSH20 0xFFFFFFFFFFFFFFFFFFFFFFFFFFFFFFFFFFFFFFFF MUL NOT AND SWAP1 DUP4 PUSH20 0xFFFFFFFFFFFFFFFFFFFFFFFFFFFFFFFFFFFFFFFF AND MUL OR SWAP1 SSTORE POP SWAP1 POP POP DUP2 SWAP4 POP POP POP POP SWAP3 SWAP2 POP POP JUMP JUMPDEST PUSH1 0x3 PUSH1 0x20 MSTORE DUP2 PUSH0 MSTORE PUSH1 0x40 PUSH0 KECCAK256 PUSH1 0x20 MSTORE DUP1 PUSH0 MSTORE PUSH1 0x40 PUSH0 KECCAK256 PUSH0 SWAP2 POP SWAP2 POP SWAP1 SLOAD SWAP1 PUSH2 0x100 EXP SWAP1 DIV PUSH1 0xFF AND DUP2 JUMP JUMPDEST PUSH0 PUSH2 0x1BC6 DUP4 DUP4 DUP1 DUP1 PUSH1 0x1F ADD PUSH1 0x20 DUP1 SWAP2 DIV MUL PUSH1 0x20 ADD PUSH1 0x40 MLOAD SWAP1 DUP2 ADD PUSH1 0x40 MSTORE DUP1 SWAP4 SWAP3 SWAP2 SWAP1 DUP2 DUP2 MSTORE PUSH1 0x20 ADD DUP4 DUP4 DUP1 DUP3 DUP5 CALLDATACOPY PUSH0 DUP2 DUP5 ADD MSTORE PUSH1 0x1F NOT PUSH1 0x1F DUP3 ADD AND SWAP1 POP DUP1 DUP4 ADD SWAP3 POP POP POP POP POP POP POP PUSH2 0x1C4A JUMP JUMPDEST SWAP1 POP DUP1 PUSH1 0x7 DUP2 SWAP1 SSTORE POP POP POP POP JUMP JUMPDEST PUSH1 0x2 PUSH1 0x20 MSTORE DUP1 PUSH0 MSTORE PUSH1 0x40 PUSH0 KECCAK256 PUSH0 SWAP2 POP SWAP1 POP DUP1 PUSH0 ADD SLOAD SWAP1 DUP1 PUSH1 0x1 ADD PUSH0 SWAP1 SLOAD SWAP1 PUSH2 0x100 EXP SWAP1 DIV PUSH20 0xFFFFFFFFFFFFFFFFFFFFFFFFFFFFFFFFFFFFFFFF AND SWAP1 DUP1 PUSH1 0x2 ADD SLOAD SWAP1 DUP1 PUSH1 0x3 ADD SLOAD SWAP1 DUP1 PUSH1 0x4 ADD SLOAD SWAP1 DUP1 PUSH1 0x5 ADD PUSH0 SWAP1 SLOAD SWAP1 PUSH2 0x100 EXP SWAP1 DIV PUSH20 0xFFFFFFFFFFFFFFFFFFFFFFFFFFFFFFFFFFFFFFFF AND SWAP1 POP DUP7 JUMP JUMPDEST PUSH0 PUSH2 0x1C56 DUP3 PUSH1 0x2 PUSH2 0x1F55 JUMP JUMPDEST SWAP1 POP SWAP2 SWAP1 POP JUMP JUMPDEST PUSH0 PUSH2 0x1C67 DUP4 PUSH2 0x2000 JUMP JUMPDEST PUSH2 0x1C77 JUMPI PUSH2 0x1C74 PUSH0 PUSH2 0x1CFE JUMP JUMPDEST SWAP3 POP JUMPDEST PUSH2 0x1C80 DUP3 PUSH2 0x2000 JUMP JUMPDEST PUSH2 0x1C90 JUMPI PUSH2 0x1C8D PUSH0 PUSH2 0x1CFE JUMP JUMPDEST SWAP2 POP JUMPDEST PUSH2 0x1C9B DUP4 DUP4 PUSH0 PUSH2 0x200C JUMP JUMPDEST SWAP1 POP SWAP3 SWAP2 POP POP JUMP JUMPDEST PUSH0 PUSH2 0x1CAD DUP4 PUSH2 0x2000 JUMP JUMPDEST PUSH2 0x1CBD JUMPI PUSH2 0x1CBA PUSH0 PUSH2 0x1CFE JUMP JUMPDEST SWAP3 POP JUMPDEST PUSH2 0x1CC6 DUP3 PUSH2 0x2000 JUMP JUMPDEST PUSH2 0x1CD6 JUMPI PUSH2 0x1CD3 PUSH0 PUSH2 0x1CFE JUMP JUMPDEST SWAP2 POP JUMPDEST PUSH2 0x1CEA PUSH2 0x1CE4 DUP5 DUP5 PUSH0 PUSH2 0x20AE JUMP JUMPDEST PUSH0 PUSH2 0x2150 JUMP JUMPDEST SWAP1 POP SWAP3 SWAP2 POP POP JUMP JUMPDEST PUSH2 0x1CFB DUP2 PUSH2 0x21D7 JUMP JUMPDEST POP JUMP JUMPDEST PUSH0 PUSH2 0x1D0A DUP3 PUSH1 0x2 PUSH2 0x228A JUMP JUMPDEST SWAP1 POP SWAP2 SWAP1 POP JUMP JUMPDEST PUSH0 DUP1 PUSH2 0x1D22 DUP5 PUSH4 0xFFFFFFFF AND PUSH2 0x1CFE JUMP JUMPDEST SWAP1 POP PUSH2 0x1D2D DUP4 PUSH2 0x2000 JUMP JUMPDEST PUSH2 0x1D3D JUMPI PUSH2 0x1D3A PUSH0 PUSH2 0x1CFE JUMP JUMPDEST SWAP3 POP JUMPDEST PUSH2 0x1D48 DUP2 DUP5 PUSH0 PUSH2 0x2311 JUMP JUMPDEST SWAP2 POP POP SWAP3 SWAP2 POP POP JUMP JUMPDEST PUSH0 PUSH2 0x1D5D DUP5 DUP5 DUP5 PUSH2 0x23B3 JUMP JUMPDEST SWAP1 POP SWAP4 SWAP3 POP POP POP JUMP JUMPDEST PUSH0 PUSH2 0x1D70 DUP4 PUSH2 0x2000 JUMP JUMPDEST PUSH2 0x1D80 JUMPI PUSH2 0x1D7D PUSH0 PUSH2 0x1CFE JUMP JUMPDEST SWAP3 POP JUMPDEST PUSH2 0x1D89 DUP3 PUSH2 0x2000 JUMP JUMPDEST PUSH2 0x1D99 JUMPI PUSH2 0x1D96 PUSH0 PUSH2 0x1CFE JUMP JUMPDEST SWAP2 POP JUMPDEST PUSH2 0x1DA4 DUP4 DUP4 PUSH0 PUSH2 0x2311 JUMP JUMPDEST SWAP1 POP SWAP3 SWAP2 POP POP JUMP JUMPDEST PUSH0 DUP1 PUSH2 0x1DC0 DUP7 PUSH1 0xA0 ADD MLOAD DUP8 PUSH1 0x80 ADD MLOAD PUSH2 0x1D66 JUMP JUMPDEST SWAP1 POP PUSH0 PUSH2 0x1DE2 PUSH2 0x1DD0 DUP4 DUP8 PUSH2 0x243A JUMP JUMPDEST PUSH2 0x1DDD DUP10 PUSH1 0x20 ADD MLOAD PUSH2 0x2480 JUMP JUMPDEST PUSH2 0x2491 JUMP JUMPDEST SWAP1 POP PUSH0 PUSH2 0x1E00 DUP6 PUSH1 0x20 ADD MLOAD PUSH2 0x1DFB DUP11 PUSH1 0x80 ADD MLOAD DUP6 PUSH2 0x1C5D JUMP JUMPDEST PUSH2 0x243A JUMP JUMPDEST SWAP1 POP PUSH0 PUSH2 0x1E1F DUP3 PUSH1 0x6 PUSH1 0x14 SWAP1 SLOAD SWAP1 PUSH2 0x100 EXP SWAP1 DIV PUSH4 0xFFFFFFFF AND PUSH2 0x2491 JUMP JUMPDEST SWAP1 POP DUP1 SWAP5 POP POP POP POP POP SWAP5 SWAP4 POP POP POP POP JUMP JUMPDEST PUSH0 DUP1 PUSH2 0x1E5F PUSH2 0x1E47 DUP10 PUSH1 0x20 ADD MLOAD DUP10 PUSH1 0xA0 ADD MLOAD PUSH2 0x243A JUMP JUMPDEST PUSH1 0x6 PUSH1 0x14 SWAP1 SLOAD SWAP1 PUSH2 0x100 EXP SWAP1 DIV PUSH4 0xFFFFFFFF AND PUSH2 0x2491 JUMP JUMPDEST SWAP1 POP PUSH0 PUSH2 0x1E6C DUP8 DUP8 PUSH2 0x1D66 JUMP JUMPDEST SWAP1 POP PUSH0 PUSH2 0x1E8A DUP11 PUSH1 0x20 ADD MLOAD PUSH2 0x1E85 DUP12 PUSH1 0xC0 ADD MLOAD DUP6 PUSH2 0x243A JUMP JUMPDEST PUSH2 0x243A JUMP JUMPDEST SWAP1 POP PUSH0 PUSH2 0x1EA9 PUSH2 0x1E9A DUP9 DUP9 PUSH2 0x1D66 JUMP JUMPDEST PUSH2 0x1EA4 PUSH1 0x64 PUSH2 0x1CFE JUMP JUMPDEST PUSH2 0x243A JUMP JUMPDEST SWAP1 POP PUSH0 PUSH2 0x1EBE DUP4 PUSH2 0x1EB9 DUP5 PUSH2 0x2480 JUMP JUMPDEST PUSH2 0x2491 JUMP JUMPDEST SWAP1 POP PUSH0 PUSH2 0x1ECB DUP7 DUP4 PUSH2 0x1C5D JUMP JUMPDEST SWAP1 POP DUP1 SWAP7 POP POP POP POP POP POP POP SWAP7 SWAP6 POP POP POP POP POP POP JUMP JUMPDEST PUSH1 0x60 PUSH2 0x1F15 PUSH0 PUSH32 0x0 PUSH2 0x24C3 SWAP1 SWAP2 SWAP1 PUSH4 0xFFFFFFFF AND JUMP JUMPDEST SWAP1 POP SWAP1 JUMP JUMPDEST PUSH1 0x60 PUSH2 0x1F50 PUSH1 0x1 PUSH32 0x0 PUSH2 0x24C3 SWAP1 SWAP2 SWAP1 PUSH4 0xFFFFFFFF AND JUMP JUMPDEST SWAP1 POP SWAP1 JUMP JUMPDEST PUSH0 DUP1 DUP4 DUP4 PUSH1 0xF8 SHL PUSH1 0x40 MLOAD PUSH1 0x20 ADD PUSH2 0x1F6D SWAP3 SWAP2 SWAP1 PUSH2 0x342A JUMP JUMPDEST PUSH1 0x40 MLOAD PUSH1 0x20 DUP2 DUP4 SUB SUB DUP2 MSTORE SWAP1 PUSH1 0x40 MSTORE SWAP1 POP PUSH1 0x5D PUSH20 0xFFFFFFFFFFFFFFFFFFFFFFFFFFFFFFFFFFFFFFFF AND PUSH4 0x4B252EC8 DUP3 PUSH1 0x40 MLOAD DUP3 PUSH4 0xFFFFFFFF AND PUSH1 0xE0 SHL DUP2 MSTORE PUSH1 0x4 ADD PUSH2 0x1FB8 SWAP2 SWAP1 PUSH2 0x3499 JUMP JUMPDEST PUSH1 0x20 PUSH1 0x40 MLOAD DUP1 DUP4 SUB DUP2 DUP7 GAS STATICCALL ISZERO DUP1 ISZERO PUSH2 0x1FD3 JUMPI RETURNDATASIZE PUSH0 DUP1 RETURNDATACOPY RETURNDATASIZE PUSH0 REVERT JUMPDEST POP POP POP POP PUSH1 0x40 MLOAD RETURNDATASIZE PUSH1 0x1F NOT PUSH1 0x1F DUP3 ADD AND DUP3 ADD DUP1 PUSH1 0x40 MSTORE POP DUP2 ADD SWAP1 PUSH2 0x1FF7 SWAP2 SWAP1 PUSH2 0x34CD JUMP JUMPDEST SWAP2 POP POP SWAP3 SWAP2 POP POP JUMP JUMPDEST PUSH0 DUP1 DUP3 EQ ISZERO SWAP1 POP SWAP2 SWAP1 POP JUMP JUMPDEST PUSH0 DUP1 DUP3 ISZERO PUSH2 0x2020 JUMPI PUSH1 0x1 PUSH1 0xF8 SHL SWAP1 POP PUSH2 0x2027 JUMP JUMPDEST PUSH0 PUSH1 0xF8 SHL SWAP1 POP JUMPDEST PUSH1 0x5D PUSH20 0xFFFFFFFFFFFFFFFFFFFFFFFFFFFFFFFFFFFFFFFF AND PUSH4 0xF953E427 DUP7 DUP7 DUP5 PUSH1 0x40 MLOAD DUP5 PUSH4 0xFFFFFFFF AND PUSH1 0xE0 SHL DUP2 MSTORE PUSH1 0x4 ADD PUSH2 0x2065 SWAP4 SWAP3 SWAP2 SWAP1 PUSH2 0x34F8 JUMP JUMPDEST PUSH1 0x20 PUSH1 0x40 MLOAD DUP1 DUP4 SUB DUP2 DUP7 GAS STATICCALL ISZERO DUP1 ISZERO PUSH2 0x2080 JUMPI RETURNDATASIZE PUSH0 DUP1 RETURNDATACOPY RETURNDATASIZE PUSH0 REVERT JUMPDEST POP POP POP POP PUSH1 0x40 MLOAD RETURNDATASIZE PUSH1 0x1F NOT PUSH1 0x1F DUP3 ADD AND DUP3 ADD DUP1 PUSH1 0x40 MSTORE POP DUP2 ADD SWAP1 PUSH2 0x20A4 SWAP2 SWAP1 PUSH2 0x34CD JUMP JUMPDEST SWAP2 POP POP SWAP4 SWAP3 POP POP POP JUMP JUMPDEST PUSH0 DUP1 DUP3 ISZERO PUSH2 0x20C2 JUMPI PUSH1 0x1 PUSH1 0xF8 SHL SWAP1 POP PUSH2 0x20C9 JUMP JUMPDEST PUSH0 PUSH1 0xF8 SHL SWAP1 POP JUMPDEST PUSH1 0x5D PUSH20 0xFFFFFFFFFFFFFFFFFFFFFFFFFFFFFFFFFFFFFFFF AND PUSH4 0x52896F1 DUP7 DUP7 DUP5 PUSH1 0x40 MLOAD DUP5 PUSH4 0xFFFFFFFF AND PUSH1 0xE0 SHL DUP2 MSTORE PUSH1 0x4 ADD PUSH2 0x2107 SWAP4 SWAP3 SWAP2 SWAP1 PUSH2 0x34F8 JUMP JUMPDEST PUSH1 0x20 PUSH1 0x40 MLOAD DUP1 DUP4 SUB DUP2 DUP7 GAS STATICCALL ISZERO DUP1 ISZERO PUSH2 0x2122 JUMPI RETURNDATASIZE PUSH0 DUP1 RETURNDATACOPY RETURNDATASIZE PUSH0 REVERT JUMPDEST POP POP POP POP PUSH1 0x40 MLOAD RETURNDATASIZE PUSH1 0x1F NOT PUSH1 0x1F DUP3 ADD AND DUP3 ADD DUP1 PUSH1 0x40 MSTORE POP DUP2 ADD SWAP1 PUSH2 0x2146 SWAP2 SWAP1 PUSH2 0x34CD JUMP JUMPDEST SWAP2 POP POP SWAP4 SWAP3 POP POP POP JUMP JUMPDEST PUSH0 PUSH1 0x5D PUSH20 0xFFFFFFFFFFFFFFFFFFFFFFFFFFFFFFFFFFFFFFFF AND PUSH4 0x4BE68D20 DUP5 DUP5 PUSH1 0xF8 SHL PUSH1 0x40 MLOAD DUP4 PUSH4 0xFFFFFFFF AND PUSH1 0xE0 SHL DUP2 MSTORE PUSH1 0x4 ADD PUSH2 0x2190 SWAP3 SWAP2 SWAP1 PUSH2 0x352D JUMP JUMPDEST PUSH1 0x20 PUSH1 0x40 MLOAD DUP1 DUP4 SUB DUP2 DUP7 GAS STATICCALL ISZERO DUP1 ISZERO PUSH2 0x21AB JUMPI RETURNDATASIZE PUSH0 DUP1 RETURNDATACOPY RETURNDATASIZE PUSH0 REVERT JUMPDEST POP POP POP POP PUSH1 0x40 MLOAD RETURNDATASIZE PUSH1 0x1F NOT PUSH1 0x1F DUP3 ADD AND DUP3 ADD DUP1 PUSH1 0x40 MSTORE POP DUP2 ADD SWAP1 PUSH2 0x21CF SWAP2 SWAP1 PUSH2 0x34CD JUMP JUMPDEST SWAP1 POP SWAP3 SWAP2 POP POP JUMP JUMPDEST PUSH0 DUP2 PUSH1 0x40 MLOAD PUSH1 0x24 ADD PUSH2 0x21E9 SWAP2 SWAP1 PUSH2 0x3554 JUMP JUMPDEST PUSH1 0x40 MLOAD PUSH1 0x20 DUP2 DUP4 SUB SUB DUP2 MSTORE SWAP1 PUSH1 0x40 MSTORE PUSH32 0x4EE071A100000000000000000000000000000000000000000000000000000000 PUSH28 0xFFFFFFFFFFFFFFFFFFFFFFFFFFFFFFFFFFFFFFFFFFFFFFFFFFFFFFFF NOT AND PUSH1 0x20 DUP3 ADD DUP1 MLOAD PUSH28 0xFFFFFFFFFFFFFFFFFFFFFFFFFFFFFFFFFFFFFFFFFFFFFFFFFFFFFFFF DUP4 DUP2 DUP4 AND OR DUP4 MSTORE POP POP POP POP SWAP1 POP PUSH0 DUP2 MLOAD SWAP1 POP PUSH0 PUSH1 0x5D SWAP1 POP PUSH0 DUP1 DUP4 PUSH1 0x20 DUP7 ADD DUP5 GAS STATICCALL PUSH2 0x2284 JUMPI PUSH0 DUP1 REVERT JUMPDEST POP POP POP POP JUMP JUMPDEST PUSH0 PUSH1 0x5D PUSH20 0xFFFFFFFFFFFFFFFFFFFFFFFFFFFFFFFFFFFFFFFF AND PUSH4 0xE71746B8 DUP5 DUP5 PUSH1 0xF8 SHL PUSH1 0x40 MLOAD DUP4 PUSH4 0xFFFFFFFF AND PUSH1 0xE0 SHL DUP2 MSTORE PUSH1 0x4 ADD PUSH2 0x22CA SWAP3 SWAP2 SWAP1 PUSH2 0x352D JUMP JUMPDEST PUSH1 0x20 PUSH1 0x40 MLOAD DUP1 DUP4 SUB DUP2 DUP7 GAS STATICCALL ISZERO DUP1 ISZERO PUSH2 0x22E5 JUMPI RETURNDATASIZE PUSH0 DUP1 RETURNDATACOPY RETURNDATASIZE PUSH0 REVERT JUMPDEST POP POP POP POP PUSH1 0x40 MLOAD RETURNDATASIZE PUSH1 0x1F NOT PUSH1 0x1F DUP3 ADD AND DUP3 ADD DUP1 PUSH1 0x40 MSTORE POP DUP2 ADD SWAP1 PUSH2 0x2309 SWAP2 SWAP1 PUSH2 0x34CD JUMP JUMPDEST SWAP1 POP SWAP3 SWAP2 POP POP JUMP JUMPDEST PUSH0 DUP1 DUP3 ISZERO PUSH2 0x2325 JUMPI PUSH1 0x1 PUSH1 0xF8 SHL SWAP1 POP PUSH2 0x232C JUMP JUMPDEST PUSH0 PUSH1 0xF8 SHL SWAP1 POP JUMPDEST PUSH1 0x5D PUSH20 0xFFFFFFFFFFFFFFFFFFFFFFFFFFFFFFFFFFFFFFFF AND PUSH4 0x8C14CC21 DUP7 DUP7 DUP5 PUSH1 0x40 MLOAD DUP5 PUSH4 0xFFFFFFFF AND PUSH1 0xE0 SHL DUP2 MSTORE PUSH1 0x4 ADD PUSH2 0x236A SWAP4 SWAP3 SWAP2 SWAP1 PUSH2 0x34F8 JUMP JUMPDEST PUSH1 0x20 PUSH1 0x40 MLOAD DUP1 DUP4 SUB DUP2 DUP7 GAS STATICCALL ISZERO DUP1 ISZERO PUSH2 0x2385 JUMPI RETURNDATASIZE PUSH0 DUP1 RETURNDATACOPY RETURNDATASIZE PUSH0 REVERT JUMPDEST POP POP POP POP PUSH1 0x40 MLOAD RETURNDATASIZE PUSH1 0x1F NOT PUSH1 0x1F DUP3 ADD AND DUP3 ADD DUP1 PUSH1 0x40 MSTORE POP DUP2 ADD SWAP1 PUSH2 0x23A9 SWAP2 SWAP1 PUSH2 0x34CD JUMP JUMPDEST SWAP2 POP POP SWAP4 SWAP3 POP POP POP JUMP JUMPDEST PUSH0 PUSH1 0x5D PUSH20 0xFFFFFFFFFFFFFFFFFFFFFFFFFFFFFFFFFFFFFFFF AND PUSH4 0xCB3B9407 DUP6 DUP6 DUP6 PUSH1 0x40 MLOAD DUP5 PUSH4 0xFFFFFFFF AND PUSH1 0xE0 SHL DUP2 MSTORE PUSH1 0x4 ADD PUSH2 0x23F2 SWAP4 SWAP3 SWAP2 SWAP1 PUSH2 0x356D JUMP JUMPDEST PUSH1 0x20 PUSH1 0x40 MLOAD DUP1 DUP4 SUB DUP2 DUP7 GAS STATICCALL ISZERO DUP1 ISZERO PUSH2 0x240D JUMPI RETURNDATASIZE PUSH0 DUP1 RETURNDATACOPY RETURNDATASIZE PUSH0 REVERT JUMPDEST POP POP POP POP PUSH1 0x40 MLOAD RETURNDATASIZE PUSH1 0x1F NOT PUSH1 0x1F DUP3 ADD AND DUP3 ADD DUP1 PUSH1 0x40 MSTORE POP DUP2 ADD SWAP1 PUSH2 0x2431 SWAP2 SWAP1 PUSH2 0x34CD JUMP JUMPDEST SWAP1 POP SWAP4 SWAP3 POP POP POP JUMP JUMPDEST PUSH0 PUSH2 0x2444 DUP4 PUSH2 0x2000 JUMP JUMPDEST PUSH2 0x2454 JUMPI PUSH2 0x2451 PUSH0 PUSH2 0x1CFE JUMP JUMPDEST SWAP3 POP JUMPDEST PUSH2 0x245D DUP3 PUSH2 0x2000 JUMP JUMPDEST PUSH2 0x246D JUMPI PUSH2 0x246A PUSH0 PUSH2 0x1CFE JUMP JUMPDEST SWAP2 POP JUMPDEST PUSH2 0x2478 DUP4 DUP4 PUSH0 PUSH2 0x2570 JUMP JUMPDEST SWAP1 POP SWAP3 SWAP2 POP POP JUMP JUMPDEST PUSH0 PUSH2 0x248A DUP3 PUSH2 0x2612 JUMP JUMPDEST SWAP1 POP SWAP2 SWAP1 POP JUMP JUMPDEST PUSH0 PUSH2 0x249B DUP4 PUSH2 0x2000 JUMP JUMPDEST PUSH2 0x24AB JUMPI PUSH2 0x24A8 PUSH0 PUSH2 0x1CFE JUMP JUMPDEST SWAP3 POP JUMPDEST PUSH2 0x24BB DUP4 DUP4 PUSH4 0xFFFFFFFF AND PUSH2 0x2693 JUMP JUMPDEST SWAP1 POP SWAP3 SWAP2 POP POP JUMP JUMPDEST PUSH1 0x60 PUSH1 0xFF PUSH0 SHL DUP4 EQ PUSH2 0x24DF JUMPI PUSH2 0x24D8 DUP4 PUSH2 0x2722 JUMP JUMPDEST SWAP1 POP PUSH2 0x256A JUMP JUMPDEST DUP2 DUP1 SLOAD PUSH2 0x24EB SWAP1 PUSH2 0x35CF JUMP JUMPDEST DUP1 PUSH1 0x1F ADD PUSH1 0x20 DUP1 SWAP2 DIV MUL PUSH1 0x20 ADD PUSH1 0x40 MLOAD SWAP1 DUP2 ADD PUSH1 0x40 MSTORE DUP1 SWAP3 SWAP2 SWAP1 DUP2 DUP2 MSTORE PUSH1 0x20 ADD DUP3 DUP1 SLOAD PUSH2 0x2517 SWAP1 PUSH2 0x35CF JUMP JUMPDEST DUP1 ISZERO PUSH2 0x2562 JUMPI DUP1 PUSH1 0x1F LT PUSH2 0x2539 JUMPI PUSH2 0x100 DUP1 DUP4 SLOAD DIV MUL DUP4 MSTORE SWAP2 PUSH1 0x20 ADD SWAP2 PUSH2 0x2562 JUMP JUMPDEST DUP3 ADD SWAP2 SWAP1 PUSH0 MSTORE PUSH1 0x20 PUSH0 KECCAK256 SWAP1 JUMPDEST DUP2 SLOAD DUP2 MSTORE SWAP1 PUSH1 0x1 ADD SWAP1 PUSH1 0x20 ADD DUP1 DUP4 GT PUSH2 0x2545 JUMPI DUP3 SWAP1 SUB PUSH1 0x1F AND DUP3 ADD SWAP2 JUMPDEST POP POP POP POP POP SWAP1 POP JUMPDEST SWAP3 SWAP2 POP POP JUMP JUMPDEST PUSH0 DUP1 DUP3 ISZERO PUSH2 0x2584 JUMPI PUSH1 0x1 PUSH1 0xF8 SHL SWAP1 POP PUSH2 0x258B JUMP JUMPDEST PUSH0 PUSH1 0xF8 SHL SWAP1 POP JUMPDEST PUSH1 0x5D PUSH20 0xFFFFFFFFFFFFFFFFFFFFFFFFFFFFFFFFFFFFFFFF AND PUSH4 0x816D57D3 DUP7 DUP7 DUP5 PUSH1 0x40 MLOAD DUP5 PUSH4 0xFFFFFFFF AND PUSH1 0xE0 SHL DUP2 MSTORE PUSH1 0x4 ADD PUSH2 0x25C9 SWAP4 SWAP3 SWAP2 SWAP1 PUSH2 0x34F8 JUMP JUMPDEST PUSH1 0x20 PUSH1 0x40 MLOAD DUP1 DUP4 SUB DUP2 DUP7 GAS STATICCALL ISZERO DUP1 ISZERO PUSH2 0x25E4 JUMPI RETURNDATASIZE PUSH0 DUP1 RETURNDATACOPY RETURNDATASIZE PUSH0 REVERT JUMPDEST POP POP POP POP PUSH1 0x40 MLOAD RETURNDATASIZE PUSH1 0x1F NOT PUSH1 0x1F DUP3 ADD AND DUP3 ADD DUP1 PUSH1 0x40 MSTORE POP DUP2 ADD SWAP1 PUSH2 0x2608 SWAP2 SWAP1 PUSH2 0x34CD JUMP JUMPDEST SWAP2 POP POP SWAP4 SWAP3 POP POP POP JUMP JUMPDEST PUSH0 PUSH1 0x5D PUSH20 0xFFFFFFFFFFFFFFFFFFFFFFFFFFFFFFFFFFFFFFFF AND PUSH4 0x5A4EE440 DUP4 PUSH1 0x40 MLOAD DUP3 PUSH4 0xFFFFFFFF AND PUSH1 0xE0 SHL DUP2 MSTORE PUSH1 0x4 ADD PUSH2 0x264D SWAP2 SWAP1 PUSH2 0x3554 JUMP JUMPDEST PUSH1 0x20 PUSH1 0x40 MLOAD DUP1 DUP4 SUB DUP2 DUP7 GAS STATICCALL ISZERO DUP1 ISZERO PUSH2 0x2668 JUMPI RETURNDATASIZE PUSH0 DUP1 RETURNDATACOPY RETURNDATASIZE PUSH0 REVERT JUMPDEST POP POP POP POP PUSH1 0x40 MLOAD RETURNDATASIZE PUSH1 0x1F NOT PUSH1 0x1F DUP3 ADD AND DUP3 ADD DUP1 PUSH1 0x40 MSTORE POP DUP2 ADD SWAP1 PUSH2 0x268C SWAP2 SWAP1 PUSH2 0x34CD JUMP JUMPDEST SWAP1 POP SWAP2 SWAP1 POP JUMP JUMPDEST PUSH0 DUP1 PUSH1 0x1 PUSH1 0xF8 SHL SWAP1 POP PUSH1 0x5D PUSH20 0xFFFFFFFFFFFFFFFFFFFFFFFFFFFFFFFFFFFFFFFF AND PUSH4 0x36CDD31B DUP6 DUP6 DUP5 PUSH1 0x40 MLOAD DUP5 PUSH4 0xFFFFFFFF AND PUSH1 0xE0 SHL DUP2 MSTORE PUSH1 0x4 ADD PUSH2 0x26DA SWAP4 SWAP3 SWAP2 SWAP1 PUSH2 0x34F8 JUMP JUMPDEST PUSH1 0x20 PUSH1 0x40 MLOAD DUP1 DUP4 SUB DUP2 DUP7 GAS STATICCALL ISZERO DUP1 ISZERO PUSH2 0x26F5 JUMPI RETURNDATASIZE PUSH0 DUP1 RETURNDATACOPY RETURNDATASIZE PUSH0 REVERT JUMPDEST POP POP POP POP PUSH1 0x40 MLOAD RETURNDATASIZE PUSH1 0x1F NOT PUSH1 0x1F DUP3 ADD AND DUP3 ADD DUP1 PUSH1 0x40 MSTORE POP DUP2 ADD SWAP1 PUSH2 0x2719 SWAP2 SWAP1 PUSH2 0x34CD JUMP JUMPDEST SWAP2 POP POP SWAP3 SWAP2 POP POP JUMP JUMPDEST PUSH1 0x60 PUSH0 PUSH2 0x272E DUP4 PUSH2 0x2794 JUMP JUMPDEST SWAP1 POP PUSH0 PUSH1 0x20 PUSH8 0xFFFFFFFFFFFFFFFF DUP2 GT ISZERO PUSH2 0x274C JUMPI PUSH2 0x274B PUSH2 0x2AB1 JUMP JUMPDEST JUMPDEST PUSH1 0x40 MLOAD SWAP1 DUP1 DUP3 MSTORE DUP1 PUSH1 0x1F ADD PUSH1 0x1F NOT AND PUSH1 0x20 ADD DUP3 ADD PUSH1 0x40 MSTORE DUP1 ISZERO PUSH2 0x277E JUMPI DUP2 PUSH1 0x20 ADD PUSH1 0x1 DUP3 MUL DUP1 CALLDATASIZE DUP4 CALLDATACOPY DUP1 DUP3 ADD SWAP2 POP POP SWAP1 POP JUMPDEST POP SWAP1 POP DUP2 DUP2 MSTORE DUP4 PUSH1 0x20 DUP3 ADD MSTORE DUP1 SWAP3 POP POP POP SWAP2 SWAP1 POP JUMP JUMPDEST PUSH0 DUP1 PUSH1 0xFF DUP4 PUSH0 SHR AND SWAP1 POP PUSH1 0x1F DUP2 GT ISZERO PUSH2 0x27D9 JUMPI PUSH1 0x40 MLOAD PUSH32 0xB3512B0C00000000000000000000000000000000000000000000000000000000 DUP2 MSTORE PUSH1 0x4 ADD PUSH1 0x40 MLOAD DUP1 SWAP2 SUB SWAP1 REVERT JUMPDEST DUP1 SWAP2 POP POP SWAP2 SWAP1 POP JUMP JUMPDEST PUSH0 PUSH1 0x40 MLOAD SWAP1 POP SWAP1 JUMP JUMPDEST PUSH0 DUP1 REVERT JUMPDEST PUSH0 DUP1 REVERT JUMPDEST PUSH0 DUP1 REVERT JUMPDEST PUSH0 DUP1 REVERT JUMPDEST PUSH0 DUP1 REVERT JUMPDEST PUSH0 DUP1 DUP4 PUSH1 0x1F DUP5 ADD SLT PUSH2 0x2814 JUMPI PUSH2 0x2813 PUSH2 0x27F3 JUMP JUMPDEST JUMPDEST DUP3 CALLDATALOAD SWAP1 POP PUSH8 0xFFFFFFFFFFFFFFFF DUP2 GT ISZERO PUSH2 0x2831 JUMPI PUSH2 0x2830 PUSH2 0x27F7 JUMP JUMPDEST JUMPDEST PUSH1 0x20 DUP4 ADD SWAP2 POP DUP4 PUSH1 0x1 DUP3 MUL DUP4 ADD GT ISZERO PUSH2 0x284D JUMPI PUSH2 0x284C PUSH2 0x27FB JUMP JUMPDEST JUMPDEST SWAP3 POP SWAP3 SWAP1 POP JUMP JUMPDEST PUSH0 DUP2 SWAP1 POP SWAP2 SWAP1 POP JUMP JUMPDEST PUSH2 0x2866 DUP2 PUSH2 0x2854 JUMP JUMPDEST DUP2 EQ PUSH2 0x2870 JUMPI PUSH0 DUP1 REVERT JUMPDEST POP JUMP JUMPDEST PUSH0 DUP2 CALLDATALOAD SWAP1 POP PUSH2 0x2881 DUP2 PUSH2 0x285D JUMP JUMPDEST SWAP3 SWAP2 POP POP JUMP JUMPDEST PUSH0 DUP1 PUSH0 PUSH1 0x40 DUP5 DUP7 SUB SLT ISZERO PUSH2 0x289E JUMPI PUSH2 0x289D PUSH2 0x27EB JUMP JUMPDEST JUMPDEST PUSH0 DUP5 ADD CALLDATALOAD PUSH8 0xFFFFFFFFFFFFFFFF DUP2 GT ISZERO PUSH2 0x28BB JUMPI PUSH2 0x28BA PUSH2 0x27EF JUMP JUMPDEST JUMPDEST PUSH2 0x28C7 DUP7 DUP3 DUP8 ADD PUSH2 0x27FF JUMP JUMPDEST SWAP4 POP SWAP4 POP POP PUSH1 0x20 PUSH2 0x28DA DUP7 DUP3 DUP8 ADD PUSH2 0x2873 JUMP JUMPDEST SWAP2 POP POP SWAP3 POP SWAP3 POP SWAP3 JUMP JUMPDEST PUSH0 PUSH1 0x20 DUP3 DUP5 SUB SLT ISZERO PUSH2 0x28F9 JUMPI PUSH2 0x28F8 PUSH2 0x27EB JUMP JUMPDEST JUMPDEST PUSH0 PUSH2 0x2906 DUP5 DUP3 DUP6 ADD PUSH2 0x2873 JUMP JUMPDEST SWAP2 POP POP SWAP3 SWAP2 POP POP JUMP JUMPDEST PUSH0 DUP2 SWAP1 POP SWAP2 SWAP1 POP JUMP JUMPDEST PUSH0 DUP2 SWAP1 POP SWAP2 SWAP1 POP JUMP JUMPDEST PUSH0 PUSH2 0x293B PUSH2 0x2936 PUSH2 0x2931 DUP5 PUSH2 0x290F JUMP JUMPDEST PUSH2 0x2918 JUMP JUMPDEST PUSH2 0x290F JUMP JUMPDEST SWAP1 POP SWAP2 SWAP1 POP JUMP JUMPDEST PUSH2 0x294B DUP2 PUSH2 0x2921 JUMP JUMPDEST DUP3 MSTORE POP POP JUMP JUMPDEST PUSH0 PUSH1 0x20 DUP3 ADD SWAP1 POP PUSH2 0x2964 PUSH0 DUP4 ADD DUP5 PUSH2 0x2942 JUMP JUMPDEST SWAP3 SWAP2 POP POP JUMP JUMPDEST PUSH0 PUSH20 0xFFFFFFFFFFFFFFFFFFFFFFFFFFFFFFFFFFFFFFFF DUP3 AND SWAP1 POP SWAP2 SWAP1 POP JUMP JUMPDEST PUSH0 PUSH2 0x2993 DUP3 PUSH2 0x296A JUMP JUMPDEST SWAP1 POP SWAP2 SWAP1 POP JUMP JUMPDEST PUSH2 0x29A3 DUP2 PUSH2 0x2989 JUMP JUMPDEST DUP2 EQ PUSH2 0x29AD JUMPI PUSH0 DUP1 REVERT JUMPDEST POP JUMP JUMPDEST PUSH0 DUP2 CALLDATALOAD SWAP1 POP PUSH2 0x29BE DUP2 PUSH2 0x299A JUMP JUMPDEST SWAP3 SWAP2 POP POP JUMP JUMPDEST PUSH0 DUP1 PUSH1 0x40 DUP4 DUP6 SUB SLT ISZERO PUSH2 0x29DA JUMPI PUSH2 0x29D9 PUSH2 0x27EB JUMP JUMPDEST JUMPDEST PUSH0 PUSH2 0x29E7 DUP6 DUP3 DUP7 ADD PUSH2 0x2873 JUMP JUMPDEST SWAP3 POP POP PUSH1 0x20 PUSH2 0x29F8 DUP6 DUP3 DUP7 ADD PUSH2 0x29B0 JUMP JUMPDEST SWAP2 POP POP SWAP3 POP SWAP3 SWAP1 POP JUMP JUMPDEST PUSH2 0x2A0B DUP2 PUSH2 0x2989 JUMP JUMPDEST DUP3 MSTORE POP POP JUMP JUMPDEST PUSH2 0x2A1A DUP2 PUSH2 0x2921 JUMP JUMPDEST DUP3 MSTORE POP POP JUMP JUMPDEST PUSH0 PUSH4 0xFFFFFFFF DUP3 AND SWAP1 POP SWAP2 SWAP1 POP JUMP JUMPDEST PUSH2 0x2A38 DUP2 PUSH2 0x2A20 JUMP JUMPDEST DUP3 MSTORE POP POP JUMP JUMPDEST PUSH0 PUSH1 0xC0 DUP3 ADD SWAP1 POP PUSH2 0x2A51 PUSH0 DUP4 ADD DUP10 PUSH2 0x2A02 JUMP JUMPDEST PUSH2 0x2A5E PUSH1 0x20 DUP4 ADD DUP9 PUSH2 0x2942 JUMP JUMPDEST PUSH2 0x2A6B PUSH1 0x40 DUP4 ADD DUP8 PUSH2 0x2942 JUMP JUMPDEST PUSH2 0x2A78 PUSH1 0x60 DUP4 ADD DUP7 PUSH2 0x2942 JUMP JUMPDEST PUSH2 0x2A85 PUSH1 0x80 DUP4 ADD DUP6 PUSH2 0x2A11 JUMP JUMPDEST PUSH2 0x2A92 PUSH1 0xA0 DUP4 ADD DUP5 PUSH2 0x2A2F JUMP JUMPDEST SWAP8 SWAP7 POP POP POP POP POP POP POP JUMP JUMPDEST PUSH0 DUP1 REVERT JUMPDEST PUSH0 PUSH1 0x1F NOT PUSH1 0x1F DUP4 ADD AND SWAP1 POP SWAP2 SWAP1 POP JUMP JUMPDEST PUSH32 0x4E487B7100000000000000000000000000000000000000000000000000000000 PUSH0 MSTORE PUSH1 0x41 PUSH1 0x4 MSTORE PUSH1 0x24 PUSH0 REVERT JUMPDEST PUSH2 0x2AE7 DUP3 PUSH2 0x2AA1 JUMP JUMPDEST DUP2 ADD DUP2 DUP2 LT PUSH8 0xFFFFFFFFFFFFFFFF DUP3 GT OR ISZERO PUSH2 0x2B06 JUMPI PUSH2 0x2B05 PUSH2 0x2AB1 JUMP JUMPDEST JUMPDEST DUP1 PUSH1 0x40 MSTORE POP POP POP JUMP JUMPDEST PUSH0 PUSH2 0x2B18 PUSH2 0x27E2 JUMP JUMPDEST SWAP1 POP PUSH2 0x2B24 DUP3 DUP3 PUSH2 0x2ADE JUMP JUMPDEST SWAP2 SWAP1 POP JUMP JUMPDEST PUSH2 0x2B32 DUP2 PUSH2 0x290F JUMP JUMPDEST DUP2 EQ PUSH2 0x2B3C JUMPI PUSH0 DUP1 REVERT JUMPDEST POP JUMP JUMPDEST PUSH0 DUP2 CALLDATALOAD SWAP1 POP PUSH2 0x2B4D DUP2 PUSH2 0x2B29 JUMP JUMPDEST SWAP3 SWAP2 POP POP JUMP JUMPDEST PUSH0 PUSH1 0xE0 DUP3 DUP5 SUB SLT ISZERO PUSH2 0x2B68 JUMPI PUSH2 0x2B67 PUSH2 0x2A9D JUMP JUMPDEST JUMPDEST PUSH2 0x2B72 PUSH1 0xE0 PUSH2 0x2B0F JUMP JUMPDEST SWAP1 POP PUSH0 PUSH2 0x2B81 DUP5 DUP3 DUP6 ADD PUSH2 0x2B3F JUMP JUMPDEST PUSH0 DUP4 ADD MSTORE POP PUSH1 0x20 PUSH2 0x2B94 DUP5 DUP3 DUP6 ADD PUSH2 0x2B3F JUMP JUMPDEST PUSH1 0x20 DUP4 ADD MSTORE POP PUSH1 0x40 PUSH2 0x2BA8 DUP5 DUP3 DUP6 ADD PUSH2 0x2B3F JUMP JUMPDEST PUSH1 0x40 DUP4 ADD MSTORE POP PUSH1 0x60 PUSH2 0x2BBC DUP5 DUP3 DUP6 ADD PUSH2 0x2B3F JUMP JUMPDEST PUSH1 0x60 DUP4 ADD MSTORE POP PUSH1 0x80 PUSH2 0x2BD0 DUP5 DUP3 DUP6 ADD PUSH2 0x2B3F JUMP JUMPDEST PUSH1 0x80 DUP4 ADD MSTORE POP PUSH1 0xA0 PUSH2 0x2BE4 DUP5 DUP3 DUP6 ADD PUSH2 0x2B3F JUMP JUMPDEST PUSH1 0xA0 DUP4 ADD MSTORE POP PUSH1 0xC0 PUSH2 0x2BF8 DUP5 DUP3 DUP6 ADD PUSH2 0x2B3F JUMP JUMPDEST PUSH1 0xC0 DUP4 ADD MSTORE POP SWAP3 SWAP2 POP POP JUMP JUMPDEST PUSH0 DUP1 PUSH2 0x100 DUP4 DUP6 SUB SLT ISZERO PUSH2 0x2C1B JUMPI PUSH2 0x2C1A PUSH2 0x27EB JUMP JUMPDEST JUMPDEST PUSH0 PUSH2 0x2C28 DUP6 DUP3 DUP7 ADD PUSH2 0x2B53 JUMP JUMPDEST SWAP3 POP POP PUSH1 0xE0 PUSH2 0x2C39 DUP6 DUP3 DUP7 ADD PUSH2 0x2873 JUMP JUMPDEST SWAP2 POP POP SWAP3 POP SWAP3 SWAP1 POP JUMP JUMPDEST PUSH0 DUP1 PUSH1 0x40 DUP4 DUP6 SUB SLT ISZERO PUSH2 0x2C59 JUMPI PUSH2 0x2C58 PUSH2 0x27EB JUMP JUMPDEST JUMPDEST PUSH0 PUSH2 0x2C66 DUP6 DUP3 DUP7 ADD PUSH2 0x29B0 JUMP JUMPDEST SWAP3 POP POP PUSH1 0x20 PUSH2 0x2C77 DUP6 DUP3 DUP7 ADD PUSH2 0x2873 JUMP JUMPDEST SWAP2 POP POP SWAP3 POP SWAP3 SWAP1 POP JUMP JUMPDEST PUSH0 DUP1 PUSH0 DUP1 PUSH1 0x60 DUP6 DUP8 SUB SLT ISZERO PUSH2 0x2C99 JUMPI PUSH2 0x2C98 PUSH2 0x27EB JUMP JUMPDEST JUMPDEST PUSH0 PUSH2 0x2CA6 DUP8 DUP3 DUP9 ADD PUSH2 0x29B0 JUMP JUMPDEST SWAP5 POP POP PUSH1 0x20 DUP6 ADD CALLDATALOAD PUSH8 0xFFFFFFFFFFFFFFFF DUP2 GT ISZERO PUSH2 0x2CC7 JUMPI PUSH2 0x2CC6 PUSH2 0x27EF JUMP JUMPDEST JUMPDEST PUSH2 0x2CD3 DUP8 DUP3 DUP9 ADD PUSH2 0x27FF JUMP JUMPDEST SWAP4 POP SWAP4 POP POP PUSH1 0x40 PUSH2 0x2CE6 DUP8 DUP3 DUP9 ADD PUSH2 0x2873 JUMP JUMPDEST SWAP2 POP POP SWAP3 SWAP6 SWAP2 SWAP5 POP SWAP3 POP JUMP JUMPDEST PUSH0 PUSH1 0xE0 DUP3 ADD SWAP1 POP PUSH2 0x2D05 PUSH0 DUP4 ADD DUP11 PUSH2 0x2942 JUMP JUMPDEST PUSH2 0x2D12 PUSH1 0x20 DUP4 ADD DUP10 PUSH2 0x2942 JUMP JUMPDEST PUSH2 0x2D1F PUSH1 0x40 DUP4 ADD DUP9 PUSH2 0x2942 JUMP JUMPDEST PUSH2 0x2D2C PUSH1 0x60 DUP4 ADD DUP8 PUSH2 0x2942 JUMP JUMPDEST PUSH2 0x2D39 PUSH1 0x80 DUP4 ADD DUP7 PUSH2 0x2942 JUMP JUMPDEST PUSH2 0x2D46 PUSH1 0xA0 DUP4 ADD DUP6 PUSH2 0x2942 JUMP JUMPDEST PUSH2 0x2D53 PUSH1 0xC0 DUP4 ADD DUP5 PUSH2 0x2942 JUMP JUMPDEST SWAP9 SWAP8 POP POP POP POP POP POP POP POP JUMP JUMPDEST PUSH0 PUSH1 0x20 DUP3 ADD SWAP1 POP PUSH2 0x2D72 PUSH0 DUP4 ADD DUP5 PUSH2 0x2A02 JUMP JUMPDEST SWAP3 SWAP2 POP POP JUMP JUMPDEST PUSH0 PUSH32 0xFF00000000000000000000000000000000000000000000000000000000000000 DUP3 AND SWAP1 POP SWAP2 SWAP1 POP JUMP JUMPDEST PUSH2 0x2DAC DUP2 PUSH2 0x2D78 JUMP JUMPDEST DUP3 MSTORE POP POP JUMP JUMPDEST PUSH0 DUP2 MLOAD SWAP1 POP SWAP2 SWAP1 POP JUMP JUMPDEST PUSH0 DUP3 DUP3 MSTORE PUSH1 0x20 DUP3 ADD SWAP1 POP SWAP3 SWAP2 POP POP JUMP JUMPDEST PUSH0 JUMPDEST DUP4 DUP2 LT ISZERO PUSH2 0x2DE9 JUMPI DUP1 DUP3 ADD MLOAD DUP2 DUP5 ADD MSTORE PUSH1 0x20 DUP2 ADD SWAP1 POP PUSH2 0x2DCE JUMP JUMPDEST PUSH0 DUP5 DUP5 ADD MSTORE POP POP POP POP JUMP JUMPDEST PUSH0 PUSH2 0x2DFE DUP3 PUSH2 0x2DB2 JUMP JUMPDEST PUSH2 0x2E08 DUP2 DUP6 PUSH2 0x2DBC JUMP JUMPDEST SWAP4 POP PUSH2 0x2E18 DUP2 DUP6 PUSH1 0x20 DUP7 ADD PUSH2 0x2DCC JUMP JUMPDEST PUSH2 0x2E21 DUP2 PUSH2 0x2AA1 JUMP JUMPDEST DUP5 ADD SWAP2 POP POP SWAP3 SWAP2 POP POP JUMP JUMPDEST PUSH2 0x2E35 DUP2 PUSH2 0x290F JUMP JUMPDEST DUP3 MSTORE POP POP JUMP JUMPDEST PUSH2 0x2E44 DUP2 PUSH2 0x2854 JUMP JUMPDEST DUP3 MSTORE POP POP JUMP JUMPDEST PUSH0 DUP2 MLOAD SWAP1 POP SWAP2 SWAP1 POP JUMP JUMPDEST PUSH0 DUP3 DUP3 MSTORE PUSH1 0x20 DUP3 ADD SWAP1 POP SWAP3 SWAP2 POP POP JUMP JUMPDEST PUSH0 DUP2 SWAP1 POP PUSH1 0x20 DUP3 ADD SWAP1 POP SWAP2 SWAP1 POP JUMP JUMPDEST PUSH2 0x2E7C DUP2 PUSH2 0x290F JUMP JUMPDEST DUP3 MSTORE POP POP JUMP JUMPDEST PUSH0 PUSH2 0x2E8D DUP4 DUP4 PUSH2 0x2E73 JUMP JUMPDEST PUSH1 0x20 DUP4 ADD SWAP1 POP SWAP3 SWAP2 POP POP JUMP JUMPDEST PUSH0 PUSH1 0x20 DUP3 ADD SWAP1 POP SWAP2 SWAP1 POP JUMP JUMPDEST PUSH0 PUSH2 0x2EAF DUP3 PUSH2 0x2E4A JUMP JUMPDEST PUSH2 0x2EB9 DUP2 DUP6 PUSH2 0x2E54 JUMP JUMPDEST SWAP4 POP PUSH2 0x2EC4 DUP4 PUSH2 0x2E64 JUMP JUMPDEST DUP1 PUSH0 JUMPDEST DUP4 DUP2 LT ISZERO PUSH2 0x2EF4 JUMPI DUP2 MLOAD PUSH2 0x2EDB DUP9 DUP3 PUSH2 0x2E82 JUMP JUMPDEST SWAP8 POP PUSH2 0x2EE6 DUP4 PUSH2 0x2E99 JUMP JUMPDEST SWAP3 POP POP PUSH1 0x1 DUP2 ADD SWAP1 POP PUSH2 0x2EC7 JUMP JUMPDEST POP DUP6 SWAP4 POP POP POP POP SWAP3 SWAP2 POP POP JUMP JUMPDEST PUSH0 PUSH1 0xE0 DUP3 ADD SWAP1 POP PUSH2 0x2F14 PUSH0 DUP4 ADD DUP11 PUSH2 0x2DA3 JUMP JUMPDEST DUP2 DUP2 SUB PUSH1 0x20 DUP4 ADD MSTORE PUSH2 0x2F26 DUP2 DUP10 PUSH2 0x2DF4 JUMP JUMPDEST SWAP1 POP DUP2 DUP2 SUB PUSH1 0x40 DUP4 ADD MSTORE PUSH2 0x2F3A DUP2 DUP9 PUSH2 0x2DF4 JUMP JUMPDEST SWAP1 POP PUSH2 0x2F49 PUSH1 0x60 DUP4 ADD DUP8 PUSH2 0x2E2C JUMP JUMPDEST PUSH2 0x2F56 PUSH1 0x80 DUP4 ADD DUP7 PUSH2 0x2A02 JUMP JUMPDEST PUSH2 0x2F63 PUSH1 0xA0 DUP4 ADD DUP6 PUSH2 0x2E3B JUMP JUMPDEST DUP2 DUP2 SUB PUSH1 0xC0 DUP4 ADD MSTORE PUSH2 0x2F75 DUP2 DUP5 PUSH2 0x2EA5 JUMP JUMPDEST SWAP1 POP SWAP9 SWAP8 POP POP POP POP POP POP POP POP JUMP JUMPDEST PUSH0 DUP1 REVERT JUMPDEST PUSH0 PUSH8 0xFFFFFFFFFFFFFFFF DUP3 GT ISZERO PUSH2 0x2FA1 JUMPI PUSH2 0x2FA0 PUSH2 0x2AB1 JUMP JUMPDEST JUMPDEST PUSH2 0x2FAA DUP3 PUSH2 0x2AA1 JUMP JUMPDEST SWAP1 POP PUSH1 0x20 DUP2 ADD SWAP1 POP SWAP2 SWAP1 POP JUMP JUMPDEST DUP3 DUP2 DUP4 CALLDATACOPY PUSH0 DUP4 DUP4 ADD MSTORE POP POP POP JUMP JUMPDEST PUSH0 PUSH2 0x2FD7 PUSH2 0x2FD2 DUP5 PUSH2 0x2F87 JUMP JUMPDEST PUSH2 0x2B0F JUMP JUMPDEST SWAP1 POP DUP3 DUP2 MSTORE PUSH1 0x20 DUP2 ADD DUP5 DUP5 DUP5 ADD GT ISZERO PUSH2 0x2FF3 JUMPI PUSH2 0x2FF2 PUSH2 0x2F83 JUMP JUMPDEST JUMPDEST PUSH2 0x2FFE DUP5 DUP3 DUP6 PUSH2 0x2FB7 JUMP JUMPDEST POP SWAP4 SWAP3 POP POP POP JUMP JUMPDEST PUSH0 DUP3 PUSH1 0x1F DUP4 ADD SLT PUSH2 0x301A JUMPI PUSH2 0x3019 PUSH2 0x27F3 JUMP JUMPDEST JUMPDEST DUP2 CALLDATALOAD PUSH2 0x302A DUP5 DUP3 PUSH1 0x20 DUP7 ADD PUSH2 0x2FC5 JUMP JUMPDEST SWAP2 POP POP SWAP3 SWAP2 POP POP JUMP JUMPDEST PUSH2 0x303C DUP2 PUSH2 0x290F JUMP JUMPDEST DUP2 EQ PUSH2 0x3046 JUMPI PUSH0 DUP1 REVERT JUMPDEST POP JUMP JUMPDEST PUSH0 DUP2 CALLDATALOAD SWAP1 POP PUSH2 0x3057 DUP2 PUSH2 0x3033 JUMP JUMPDEST SWAP3 SWAP2 POP POP JUMP JUMPDEST PUSH0 DUP1 PUSH1 0x40 DUP4 DUP6 SUB SLT ISZERO PUSH2 0x3073 JUMPI PUSH2 0x3072 PUSH2 0x27EB JUMP JUMPDEST JUMPDEST PUSH0 DUP4 ADD CALLDATALOAD PUSH8 0xFFFFFFFFFFFFFFFF DUP2 GT ISZERO PUSH2 0x3090 JUMPI PUSH2 0x308F PUSH2 0x27EF JUMP JUMPDEST JUMPDEST PUSH2 0x309C DUP6 DUP3 DUP7 ADD PUSH2 0x3006 JUMP JUMPDEST SWAP3 POP POP PUSH1 0x20 PUSH2 0x30AD DUP6 DUP3 DUP7 ADD PUSH2 0x3049 JUMP JUMPDEST SWAP2 POP POP SWAP3 POP SWAP3 SWAP1 POP JUMP JUMPDEST PUSH0 PUSH1 0x20 DUP3 ADD SWAP1 POP PUSH2 0x30CA PUSH0 DUP4 ADD DUP5 PUSH2 0x2E3B JUMP JUMPDEST SWAP3 SWAP2 POP POP JUMP JUMPDEST PUSH0 DUP2 ISZERO ISZERO SWAP1 POP SWAP2 SWAP1 POP JUMP JUMPDEST PUSH2 0x30E4 DUP2 PUSH2 0x30D0 JUMP JUMPDEST DUP3 MSTORE POP POP JUMP JUMPDEST PUSH0 PUSH1 0x20 DUP3 ADD SWAP1 POP PUSH2 0x30FD PUSH0 DUP4 ADD DUP5 PUSH2 0x30DB JUMP JUMPDEST SWAP3 SWAP2 POP POP JUMP JUMPDEST PUSH0 DUP1 PUSH1 0x20 DUP4 DUP6 SUB SLT ISZERO PUSH2 0x3119 JUMPI PUSH2 0x3118 PUSH2 0x27EB JUMP JUMPDEST JUMPDEST PUSH0 DUP4 ADD CALLDATALOAD PUSH8 0xFFFFFFFFFFFFFFFF DUP2 GT ISZERO PUSH2 0x3136 JUMPI PUSH2 0x3135 PUSH2 0x27EF JUMP JUMPDEST JUMPDEST PUSH2 0x3142 DUP6 DUP3 DUP7 ADD PUSH2 0x27FF JUMP JUMPDEST SWAP3 POP SWAP3 POP POP SWAP3 POP SWAP3 SWAP1 POP JUMP JUMPDEST PUSH0 PUSH1 0xC0 DUP3 ADD SWAP1 POP PUSH2 0x3161 PUSH0 DUP4 ADD DUP10 PUSH2 0x2942 JUMP JUMPDEST PUSH2 0x316E PUSH1 0x20 DUP4 ADD DUP9 PUSH2 0x2A02 JUMP JUMPDEST PUSH2 0x317B PUSH1 0x40 DUP4 ADD DUP8 PUSH2 0x2942 JUMP JUMPDEST PUSH2 0x3188 PUSH1 0x60 DUP4 ADD DUP7 PUSH2 0x2942 JUMP JUMPDEST PUSH2 0x3195 PUSH1 0x80 DUP4 ADD DUP6 PUSH2 0x2942 JUMP JUMPDEST PUSH2 0x31A2 PUSH1 0xA0 DUP4 ADD DUP5 PUSH2 0x2A02 JUMP JUMPDEST SWAP8 SWAP7 POP POP POP POP POP POP POP JUMP JUMPDEST PUSH32 0x63616C6C6572206973206E6F742061646D696E00000000000000000000000000 PUSH0 DUP3 ADD MSTORE POP JUMP JUMPDEST PUSH0 PUSH2 0x31E1 PUSH1 0x13 DUP4 PUSH2 0x2DBC JUMP JUMPDEST SWAP2 POP PUSH2 0x31EC DUP3 PUSH2 0x31AD JUMP JUMPDEST PUSH1 0x20 DUP3 ADD SWAP1 POP SWAP2 SWAP1 POP JUMP JUMPDEST PUSH0 PUSH1 0x20 DUP3 ADD SWAP1 POP DUP2 DUP2 SUB PUSH0 DUP4 ADD MSTORE PUSH2 0x320E DUP2 PUSH2 0x31D5 JUMP JUMPDEST SWAP1 POP SWAP2 SWAP1 POP JUMP JUMPDEST PUSH32 0x6E6F7420612076616C69642061646D696E000000000000000000000000000000 PUSH0 DUP3 ADD MSTORE POP JUMP JUMPDEST PUSH0 PUSH2 0x3249 PUSH1 0x11 DUP4 PUSH2 0x2DBC JUMP JUMPDEST SWAP2 POP PUSH2 0x3254 DUP3 PUSH2 0x3215 JUMP JUMPDEST PUSH1 0x20 DUP3 ADD SWAP1 POP SWAP2 SWAP1 POP JUMP JUMPDEST PUSH0 PUSH1 0x20 DUP3 ADD SWAP1 POP DUP2 DUP2 SUB PUSH0 DUP4 ADD MSTORE PUSH2 0x3276 DUP2 PUSH2 0x323D JUMP JUMPDEST SWAP1 POP SWAP2 SWAP1 POP JUMP JUMPDEST PUSH32 0x4E487B7100000000000000000000000000000000000000000000000000000000 PUSH0 MSTORE PUSH1 0x12 PUSH1 0x4 MSTORE PUSH1 0x24 PUSH0 REVERT JUMPDEST PUSH0 PUSH2 0x32B4 DUP3 PUSH2 0x290F JUMP JUMPDEST SWAP2 POP PUSH2 0x32BF DUP4 PUSH2 0x290F JUMP JUMPDEST SWAP3 POP DUP3 PUSH2 0x32CF JUMPI PUSH2 0x32CE PUSH2 0x327D JUMP JUMPDEST JUMPDEST DUP3 DUP3 MOD SWAP1 POP SWAP3 SWAP2 POP POP JUMP JUMPDEST PUSH0 DUP2 SWAP1 POP SWAP3 SWAP2 POP POP JUMP JUMPDEST PUSH32 0x4545524332300000000000000000000000000000000000000000000000000000 PUSH0 DUP3 ADD MSTORE POP JUMP JUMPDEST PUSH0 PUSH2 0x3318 PUSH1 0x6 DUP4 PUSH2 0x32DA JUMP JUMPDEST SWAP2 POP PUSH2 0x3323 DUP3 PUSH2 0x32E4 JUMP JUMPDEST PUSH1 0x6 DUP3 ADD SWAP1 POP SWAP2 SWAP1 POP JUMP JUMPDEST PUSH0 PUSH2 0x3338 DUP3 PUSH2 0x2DB2 JUMP JUMPDEST PUSH2 0x3342 DUP2 DUP6 PUSH2 0x32DA JUMP JUMPDEST SWAP4 POP PUSH2 0x3352 DUP2 DUP6 PUSH1 0x20 DUP7 ADD PUSH2 0x2DCC JUMP JUMPDEST DUP1 DUP5 ADD SWAP2 POP POP SWAP3 SWAP2 POP POP JUMP JUMPDEST PUSH0 PUSH2 0x3368 DUP3 PUSH2 0x330C JUMP JUMPDEST SWAP2 POP PUSH2 0x3374 DUP3 DUP5 PUSH2 0x332E JUMP JUMPDEST SWAP2 POP DUP2 SWAP1 POP SWAP3 SWAP2 POP POP JUMP JUMPDEST PUSH0 DUP2 SWAP1 POP SWAP2 SWAP1 POP JUMP JUMPDEST PUSH2 0x3399 PUSH2 0x3394 DUP3 PUSH2 0x290F JUMP JUMPDEST PUSH2 0x337F JUMP JUMPDEST DUP3 MSTORE POP POP JUMP JUMPDEST PUSH0 PUSH2 0x33AA DUP3 DUP6 PUSH2 0x332E JUMP JUMPDEST SWAP2 POP PUSH2 0x33B6 DUP3 DUP5 PUSH2 0x3388 JUMP JUMPDEST PUSH1 0x20 DUP3 ADD SWAP2 POP DUP2 SWAP1 POP SWAP4 SWAP3 POP POP POP JUMP JUMPDEST PUSH0 DUP2 MLOAD SWAP1 POP SWAP2 SWAP1 POP JUMP JUMPDEST PUSH0 DUP2 SWAP1 POP SWAP3 SWAP2 POP POP JUMP JUMPDEST PUSH0 PUSH2 0x33E4 DUP3 PUSH2 0x33C6 JUMP JUMPDEST PUSH2 0x33EE DUP2 DUP6 PUSH2 0x33D0 JUMP JUMPDEST SWAP4 POP PUSH2 0x33FE DUP2 DUP6 PUSH1 0x20 DUP7 ADD PUSH2 0x2DCC JUMP JUMPDEST DUP1 DUP5 ADD SWAP2 POP POP SWAP3 SWAP2 POP POP JUMP JUMPDEST PUSH0 DUP2 SWAP1 POP SWAP2 SWAP1 POP JUMP JUMPDEST PUSH2 0x3424 PUSH2 0x341F DUP3 PUSH2 0x2D78 JUMP JUMPDEST PUSH2 0x340A JUMP JUMPDEST DUP3 MSTORE POP POP JUMP JUMPDEST PUSH0 PUSH2 0x3435 DUP3 DUP6 PUSH2 0x33DA JUMP JUMPDEST SWAP2 POP PUSH2 0x3441 DUP3 DUP5 PUSH2 0x3413 JUMP JUMPDEST PUSH1 0x1 DUP3 ADD SWAP2 POP DUP2 SWAP1 POP SWAP4 SWAP3 POP POP POP JUMP JUMPDEST PUSH0 DUP3 DUP3 MSTORE PUSH1 0x20 DUP3 ADD SWAP1 POP SWAP3 SWAP2 POP POP JUMP JUMPDEST PUSH0 PUSH2 0x346B DUP3 PUSH2 0x33C6 JUMP JUMPDEST PUSH2 0x3475 DUP2 DUP6 PUSH2 0x3451 JUMP JUMPDEST SWAP4 POP PUSH2 0x3485 DUP2 DUP6 PUSH1 0x20 DUP7 ADD PUSH2 0x2DCC JUMP JUMPDEST PUSH2 0x348E DUP2 PUSH2 0x2AA1 JUMP JUMPDEST DUP5 ADD SWAP2 POP POP SWAP3 SWAP2 POP POP JUMP JUMPDEST PUSH0 PUSH1 0x20 DUP3 ADD SWAP1 POP DUP2 DUP2 SUB PUSH0 DUP4 ADD MSTORE PUSH2 0x34B1 DUP2 DUP5 PUSH2 0x3461 JUMP JUMPDEST SWAP1 POP SWAP3 SWAP2 POP POP JUMP JUMPDEST PUSH0 DUP2 MLOAD SWAP1 POP PUSH2 0x34C7 DUP2 PUSH2 0x3033 JUMP JUMPDEST SWAP3 SWAP2 POP POP JUMP JUMPDEST PUSH0 PUSH1 0x20 DUP3 DUP5 SUB SLT ISZERO PUSH2 0x34E2 JUMPI PUSH2 0x34E1 PUSH2 0x27EB JUMP JUMPDEST JUMPDEST PUSH0 PUSH2 0x34EF DUP5 DUP3 DUP6 ADD PUSH2 0x34B9 JUMP JUMPDEST SWAP2 POP POP SWAP3 SWAP2 POP POP JUMP JUMPDEST PUSH0 PUSH1 0x60 DUP3 ADD SWAP1 POP PUSH2 0x350B PUSH0 DUP4 ADD DUP7 PUSH2 0x2E2C JUMP JUMPDEST PUSH2 0x3518 PUSH1 0x20 DUP4 ADD DUP6 PUSH2 0x2E2C JUMP JUMPDEST PUSH2 0x3525 PUSH1 0x40 DUP4 ADD DUP5 PUSH2 0x2DA3 JUMP JUMPDEST SWAP5 SWAP4 POP POP POP POP JUMP JUMPDEST PUSH0 PUSH1 0x40 DUP3 ADD SWAP1 POP PUSH2 0x3540 PUSH0 DUP4 ADD DUP6 PUSH2 0x2E2C JUMP JUMPDEST PUSH2 0x354D PUSH1 0x20 DUP4 ADD DUP5 PUSH2 0x2DA3 JUMP JUMPDEST SWAP4 SWAP3 POP POP POP JUMP JUMPDEST PUSH0 PUSH1 0x20 DUP3 ADD SWAP1 POP PUSH2 0x3567 PUSH0 DUP4 ADD DUP5 PUSH2 0x2E2C JUMP JUMPDEST SWAP3 SWAP2 POP POP JUMP JUMPDEST PUSH0 PUSH1 0x60 DUP3 ADD SWAP1 POP PUSH2 0x3580 PUSH0 DUP4 ADD DUP7 PUSH2 0x2E2C JUMP JUMPDEST PUSH2 0x358D PUSH1 0x20 DUP4 ADD DUP6 PUSH2 0x2E2C JUMP JUMPDEST PUSH2 0x359A PUSH1 0x40 DUP4 ADD DUP5 PUSH2 0x2E2C JUMP JUMPDEST SWAP5 SWAP4 POP POP POP POP JUMP JUMPDEST PUSH32 0x4E487B7100000000000000000000000000000000000000000000000000000000 PUSH0 MSTORE PUSH1 0x22 PUSH1 0x4 MSTORE PUSH1 0x24 PUSH0 REVERT JUMPDEST PUSH0 PUSH1 0x2 DUP3 DIV SWAP1 POP PUSH1 0x1 DUP3 AND DUP1 PUSH2 0x35E6 JUMPI PUSH1 0x7F DUP3 AND SWAP2 POP JUMPDEST PUSH1 0x20 DUP3 LT DUP2 SUB PUSH2 0x35F9 JUMPI PUSH2 0x35F8 PUSH2 0x35A2 JUMP JUMPDEST JUMPDEST POP SWAP2 SWAP1 POP JUMP INVALID LOG2 PUSH5 0x6970667358 0x22 SLT KECCAK256 0xEA SHR 0xCC SAR SELFBALANCE 0xDE CODECOPY 0x1F ORIGIN MSIZE 0xB4 0xBC GASLIMIT TSTORE PUSH7 0x72CE6FC5FAD0A4 0xC CALLDATACOPY SWAP12 SMOD RETURN 0x26 0xB2 0xB1 STOP 0xC4 PUSH5 0x736F6C6343 STOP ADDMOD XOR STOP CALLER "
        },
        "gasEstimates": {
            "creation": {
                "codeDepositCost": "2775400",
                "executionCost": "infinite",
                "totalCost": "infinite"
            },
            "external": {
                "addAllocation(address,bytes,bytes32)": "infinite",
                "addEmp(bytes)": "infinite",
                "addEmploy(address,bytes32)": "infinite",
                "addSchedule((uint256,uint256,uint256,uint256,uint256,uint256,uint256),bytes32)": "infinite",
                "aimanValue()": "infinite",
                "claim(bytes,bytes32)": "infinite",
                "claimableAmount(bytes32)": "infinite",
                "company(bytes32)": "infinite",
                "createCompanykey(string,uint256)": "infinite",
                "eip712Domain()": "infinite",
                "employDetails(bytes32,address)": "infinite",
                "isEmpoloyee(bytes32,address)": "3115",
                "request(bytes32)": "infinite",
                "schedule(bytes32)": "infinite",
                "vestingAddr()": "2575"
            },
            "internal": {
                "valueAfterCliff(struct EncryptedCapTable.EmployeeDetails memory,struct IVesting.VestingSchedule memory,euint32,euint32,euint32,euint32)": "infinite",
                "valueBeforeCliff(struct IVesting.VestingSchedule memory,euint32,euint32,struct EncryptedCapTable.EmployeeDetails memory)": "infinite"
            }
        },
        "methodIdentifiers": {
            "addAllocation(address,bytes,bytes32)": "50c9ecea",
            "addEmp(bytes)": "ddc39227",
            "addEmploy(address,bytes32)": "31b64f0f",
            "addSchedule((uint256,uint256,uint256,uint256,uint256,uint256,uint256),bytes32)": "283f03f0",
            "aimanValue()": "720304c3",
            "claim(bytes,bytes32)": "0280ffb6",
            "claimableAmount(bytes32)": "15836ade",
            "company(bytes32)": "e93a5b98",
            "createCompanykey(string,uint256)": "978dc9fd",
            "eip712Domain()": "84b0196e",
            "employDetails(bytes32,address)": "1c08248f",
            "isEmpoloyee(bytes32,address)": "a27e53df",
            "request(bytes32)": "59c87d70",
            "schedule(bytes32)": "548eac04",
            "vestingAddr()": "7e51bf4b"
        }
    },
    "abi": [
        {
            "inputs": [
                {
                    "internalType": "address",
                    "name": "_vestingContract",
                    "type": "address"
                }
            ],
            "stateMutability": "nonpayable",
            "type": "constructor"
        },
        {
            "inputs": [],
            "name": "InvalidShortString",
            "type": "error"
        },
        {
            "inputs": [
                {
                    "internalType": "string",
                    "name": "str",
                    "type": "string"
                }
            ],
            "name": "StringTooLong",
            "type": "error"
        },
        {
            "anonymous": false,
            "inputs": [],
            "name": "EIP712DomainChanged",
            "type": "event"
        },
        {
            "inputs": [
                {
                    "internalType": "address",
                    "name": "_address",
                    "type": "address"
                },
                {
                    "internalType": "bytes",
                    "name": "_eAmount",
                    "type": "bytes"
                },
                {
                    "internalType": "bytes32",
                    "name": "_key",
                    "type": "bytes32"
                }
            ],
            "name": "addAllocation",
            "outputs": [],
            "stateMutability": "nonpayable",
            "type": "function"
        },
        {
            "inputs": [
                {
                    "internalType": "bytes",
                    "name": "_eAmount",
                    "type": "bytes"
                }
            ],
            "name": "addEmp",
            "outputs": [],
            "stateMutability": "nonpayable",
            "type": "function"
        },
        {
            "inputs": [
                {
                    "internalType": "address",
                    "name": "_address",
                    "type": "address"
                },
                {
                    "internalType": "bytes32",
                    "name": "_key",
                    "type": "bytes32"
                }
            ],
            "name": "addEmploy",
            "outputs": [],
            "stateMutability": "nonpayable",
            "type": "function"
        },
        {
            "inputs": [
                {
                    "components": [
                        {
                            "internalType": "euint32",
                            "name": "start",
                            "type": "uint256"
                        },
                        {
                            "internalType": "euint32",
                            "name": "cliffDuration",
                            "type": "uint256"
                        },
                        {
                            "internalType": "euint32",
                            "name": "totalDuration",
                            "type": "uint256"
                        },
                        {
                            "internalType": "euint32",
                            "name": "amountTotal",
                            "type": "uint256"
                        },
                        {
                            "internalType": "euint32",
                            "name": "releaseAtStartPercentage",
                            "type": "uint256"
                        },
                        {
                            "internalType": "euint32",
                            "name": "releaseAtCliffPercentage",
                            "type": "uint256"
                        },
                        {
                            "internalType": "euint32",
                            "name": "linearReleasePercentage",
                            "type": "uint256"
                        }
                    ],
                    "internalType": "struct IVesting.VestingSchedule",
                    "name": "vesting",
                    "type": "tuple"
                },
                {
                    "internalType": "bytes32",
                    "name": "_key",
                    "type": "bytes32"
                }
            ],
            "name": "addSchedule",
            "outputs": [],
            "stateMutability": "nonpayable",
            "type": "function"
        },
        {
            "inputs": [],
            "name": "aimanValue",
            "outputs": [
                {
                    "internalType": "euint32",
                    "name": "",
                    "type": "uint256"
                }
            ],
            "stateMutability": "view",
            "type": "function"
        },
        {
            "inputs": [
                {
                    "internalType": "bytes",
                    "name": "_amount",
                    "type": "bytes"
                },
                {
                    "internalType": "bytes32",
                    "name": "_key",
                    "type": "bytes32"
                }
            ],
            "name": "claim",
            "outputs": [],
            "stateMutability": "nonpayable",
            "type": "function"
        },
        {
            "inputs": [
                {
                    "internalType": "bytes32",
                    "name": "key",
                    "type": "bytes32"
                }
            ],
            "name": "claimableAmount",
            "outputs": [
                {
                    "internalType": "euint32",
                    "name": "",
                    "type": "uint256"
                }
            ],
            "stateMutability": "view",
            "type": "function"
        },
        {
            "inputs": [
                {
                    "internalType": "bytes32",
                    "name": "",
                    "type": "bytes32"
                }
            ],
            "name": "company",
            "outputs": [
                {
                    "internalType": "euint32",
                    "name": "employs",
                    "type": "uint256"
                },
                {
                    "internalType": "address",
                    "name": "admin",
                    "type": "address"
                },
                {
                    "internalType": "euint32",
                    "name": "totalFund",
                    "type": "uint256"
                },
                {
                    "internalType": "euint32",
                    "name": "totalClaimedFund",
                    "type": "uint256"
                },
                {
                    "internalType": "euint32",
                    "name": "totalLocked",
                    "type": "uint256"
                },
                {
                    "internalType": "address",
                    "name": "ercAddres",
                    "type": "address"
                }
            ],
            "stateMutability": "view",
            "type": "function"
        },
        {
            "inputs": [
                {
                    "internalType": "string",
                    "name": "_string",
                    "type": "string"
                },
                {
                    "internalType": "uint256",
                    "name": "_registeryear",
                    "type": "uint256"
                }
            ],
            "name": "createCompanykey",
            "outputs": [
                {
                    "internalType": "bytes32",
                    "name": "",
                    "type": "bytes32"
                }
            ],
            "stateMutability": "nonpayable",
            "type": "function"
        },
        {
            "inputs": [],
            "name": "eip712Domain",
            "outputs": [
                {
                    "internalType": "bytes1",
                    "name": "fields",
                    "type": "bytes1"
                },
                {
                    "internalType": "string",
                    "name": "name",
                    "type": "string"
                },
                {
                    "internalType": "string",
                    "name": "version",
                    "type": "string"
                },
                {
                    "internalType": "uint256",
                    "name": "chainId",
                    "type": "uint256"
                },
                {
                    "internalType": "address",
                    "name": "verifyingContract",
                    "type": "address"
                },
                {
                    "internalType": "bytes32",
                    "name": "salt",
                    "type": "bytes32"
                },
                {
                    "internalType": "uint256[]",
                    "name": "extensions",
                    "type": "uint256[]"
                }
            ],
            "stateMutability": "view",
            "type": "function"
        },
        {
            "inputs": [
                {
                    "internalType": "bytes32",
                    "name": "",
                    "type": "bytes32"
                },
                {
                    "internalType": "address",
                    "name": "",
                    "type": "address"
                }
            ],
            "name": "employDetails",
            "outputs": [
                {
                    "internalType": "address",
                    "name": "stakeholder",
                    "type": "address"
                },
                {
                    "internalType": "euint32",
                    "name": "totalAllocation",
                    "type": "uint256"
                },
                {
                    "internalType": "euint32",
                    "name": "unlocked",
                    "type": "uint256"
                },
                {
                    "internalType": "euint32",
                    "name": "claimed",
                    "type": "uint256"
                },
                {
                    "internalType": "ebool",
                    "name": "isClaimAvailable",
                    "type": "uint256"
                },
                {
                    "internalType": "uint32",
                    "name": "allocationTime",
                    "type": "uint32"
                }
            ],
            "stateMutability": "view",
            "type": "function"
        },
        {
            "inputs": [
                {
                    "internalType": "bytes32",
                    "name": "",
                    "type": "bytes32"
                },
                {
                    "internalType": "address",
                    "name": "",
                    "type": "address"
                }
            ],
            "name": "isEmpoloyee",
            "outputs": [
                {
                    "internalType": "bool",
                    "name": "",
                    "type": "bool"
                }
            ],
            "stateMutability": "view",
            "type": "function"
        },
        {
            "inputs": [
                {
                    "internalType": "bytes32",
                    "name": "key",
                    "type": "bytes32"
                }
            ],
            "name": "request",
            "outputs": [],
            "stateMutability": "nonpayable",
            "type": "function"
        },
        {
            "inputs": [
                {
                    "internalType": "bytes32",
                    "name": "",
                    "type": "bytes32"
                }
            ],
            "name": "schedule",
            "outputs": [
                {
                    "internalType": "euint32",
                    "name": "start",
                    "type": "uint256"
                },
                {
                    "internalType": "euint32",
                    "name": "cliffDuration",
                    "type": "uint256"
                },
                {
                    "internalType": "euint32",
                    "name": "totalDuration",
                    "type": "uint256"
                },
                {
                    "internalType": "euint32",
                    "name": "amountTotal",
                    "type": "uint256"
                },
                {
                    "internalType": "euint32",
                    "name": "releaseAtStartPercentage",
                    "type": "uint256"
                },
                {
                    "internalType": "euint32",
                    "name": "releaseAtCliffPercentage",
                    "type": "uint256"
                },
                {
                    "internalType": "euint32",
                    "name": "linearReleasePercentage",
                    "type": "uint256"
                }
            ],
            "stateMutability": "view",
            "type": "function"
        },
        {
            "inputs": [],
            "name": "vestingAddr",
            "outputs": [
                {
                    "internalType": "address",
                    "name": "",
                    "type": "address"
                }
            ],
            "stateMutability": "view",
            "type": "function"
        }
    ]
}