{
	"data": {
		"bytecode": {
			"linkReferences": {},
			"object": "6101606040526064600660146101000a81548163ffffffff021916908363ffffffff16021790555034801562000033575f80fd5b506040516200530438038062005304833981810160405281019062000059919062000348565b6040518060400160405280601381526020017f417574686f72697a6174696f6e20746f6b656e000000000000000000000000008152506040518060400160405280600181526020017f31000000000000000000000000000000000000000000000000000000000000008152508181620000dc5f83620001bf60201b90919060201c565b6101208181525050620000fa600182620001bf60201b90919060201c565b6101408181525050818051906020012060e08181525050808051906020012061010081815250504660a08181525050620001396200021460201b60201c565b608081815250503073ffffffffffffffffffffffffffffffffffffffff1660c08173ffffffffffffffffffffffffffffffffffffffff1681525050505050508060065f6101000a81548173ffffffffffffffffffffffffffffffffffffffff021916908373ffffffffffffffffffffffffffffffffffffffff16021790555050620008a1565b5f602083511015620001e457620001dc836200027060201b60201c565b90506200020e565b82620001f683620002da60201b60201c565b5f019081620002069190620005dc565b5060ff5f1b90505b92915050565b5f7f8b73c3c69bb8fe3d512ecc4cf759cc79239f7b179b0ffacaa9a75d522b39400f60e05161010051463060405160200162000255959493929190620006fc565b60405160208183030381529060405280519060200120905090565b5f80829050601f81511115620002bf57826040517f305a27a9000000000000000000000000000000000000000000000000000000008152600401620002b69190620007e1565b60405180910390fd5b805181620002cd9062000832565b5f1c175f1b915050919050565b5f819050919050565b5f80fd5b5f73ffffffffffffffffffffffffffffffffffffffff82169050919050565b5f6200031282620002e7565b9050919050565b620003248162000306565b81146200032f575f80fd5b50565b5f81519050620003428162000319565b92915050565b5f6020828403121562000360576200035f620002e3565b5b5f6200036f8482850162000332565b91505092915050565b5f81519050919050565b7f4e487b71000000000000000000000000000000000000000000000000000000005f52604160045260245ffd5b7f4e487b71000000000000000000000000000000000000000000000000000000005f52602260045260245ffd5b5f6002820490506001821680620003f457607f821691505b6020821081036200040a5762000409620003af565b5b50919050565b5f819050815f5260205f209050919050565b5f6020601f8301049050919050565b5f82821b905092915050565b5f600883026200046e7fffffffffffffffffffffffffffffffffffffffffffffffffffffffffffffffff8262000431565b6200047a868362000431565b95508019841693508086168417925050509392505050565b5f819050919050565b5f819050919050565b5f620004c4620004be620004b88462000492565b6200049b565b62000492565b9050919050565b5f819050919050565b620004df83620004a4565b620004f7620004ee82620004cb565b8484546200043d565b825550505050565b5f90565b6200050d620004ff565b6200051a818484620004d4565b505050565b5b818110156200054157620005355f8262000503565b60018101905062000520565b5050565b601f82111562000590576200055a8162000410565b620005658462000422565b8101602085101562000575578190505b6200058d620005848562000422565b8301826200051f565b50505b505050565b5f82821c905092915050565b5f620005b25f198460080262000595565b1980831691505092915050565b5f620005cc8383620005a1565b9150826002028217905092915050565b620005e78262000378565b67ffffffffffffffff81111562000603576200060262000382565b5b6200060f8254620003dc565b6200061c82828562000545565b5f60209050601f83116001811462000652575f84156200063d578287015190505b620006498582620005bf565b865550620006b8565b601f198416620006628662000410565b5f5b828110156200068b5784890151825560018201915060208501945060208101905062000664565b86831015620006ab5784890151620006a7601f891682620005a1565b8355505b6001600288020188555050505b505050505050565b5f819050919050565b620006d481620006c0565b82525050565b620006e58162000492565b82525050565b620006f68162000306565b82525050565b5f60a082019050620007115f830188620006c9565b620007206020830187620006c9565b6200072f6040830186620006c9565b6200073e6060830185620006da565b6200074d6080830184620006eb565b9695505050505050565b5f82825260208201905092915050565b5f5b838110156200078657808201518184015260208101905062000769565b5f8484015250505050565b5f601f19601f8301169050919050565b5f620007ad8262000378565b620007b9818562000757565b9350620007cb81856020860162000767565b620007d68162000791565b840191505092915050565b5f6020820190508181035f830152620007fb8184620007a1565b905092915050565b5f81519050919050565b5f819050602082019050919050565b5f620008298251620006c0565b80915050919050565b5f6200083e8262000803565b826200084a846200080d565b905062000857816200081c565b925060208210156200089a57620008957fffffffffffffffffffffffffffffffffffffffffffffffffffffffffffffffff8360200360080262000431565b831692505b5050919050565b60805160a05160c05160e051610100516101205161014051614a20620008e45f395f612b6f01525f612b3401525f50505f50505f50505f50505f5050614a205ff3fe608060405234801561000f575f80fd5b506004361061012a575f3560e01c80637e51bf4b116100ab578063c036596a1161006f578063c036596a146103b1578063c705ab18146103e1578063c7e63e8514610411578063e93a5b9814610441578063f057a5d1146104765761012a565b80637e51bf4b146102df57806380dc8ae8146102fd57806384b0196e1461032d578063978dc9fd14610351578063a27e53df146103815761012a565b806330f37b44116100f257806330f37b44146101fd57806350c9ecea1461022d578063548eac041461024957806359c87d701461027f578063670d14b2146102af5761012a565b80630280ffb61461012e57806315836ade1461014a5780631c08248f1461017a57806322e1f50e146101b1578063283f03f0146101e1575b5f80fd5b61014860048036038101906101439190613645565b610492565b005b610164600480360381019061015f91906136a2565b6109c7565b604051610171919061370f565b60405180910390f35b610194600480360381019061018f9190613782565b610b6b565b6040516101a8989796959493929190613886565b60405180910390f35b6101cb60048036038101906101c69190613909565b610c6e565b6040516101d89190613943565b60405180910390f35b6101fb60048036038101906101f69190613ab3565b610cb4565b005b610217600480360381019061021291906136a2565b610d69565b6040516102249190613b89565b60405180910390f35b61024760048036038101906102429190613ba2565b610e65565b005b610263600480360381019061025e91906136a2565b6113d4565b6040516102769796959493929190613c13565b60405180910390f35b610299600480360381019061029491906136a2565b611412565b6040516102a6919061370f565b60405180910390f35b6102c960048036038101906102c49190613909565b611a52565b6040516102d69190613943565b60405180910390f35b6102e7611a67565b6040516102f49190613c80565b60405180910390f35b61031760048036038101906103129190613782565b611a8c565b6040516103249190613dac565b60405180910390f35b610335611c2f565b6040516103489796959493929190613ecc565b60405180910390f35b61036b60048036038101906103669190614028565b611cd4565b6040516103789190613943565b60405180910390f35b61039b60048036038101906103969190613782565b61200a565b6040516103a8919061409c565b60405180910390f35b6103cb60048036038101906103c691906140b5565b612034565b6040516103d89190613c80565b60405180910390f35b6103fb60048036038101906103f691906140b5565b61207c565b604051610408919061419b565b60405180910390f35b61042b600480360381019061042691906136a2565b612096565b604051610438919061370f565b60405180910390f35b61045b600480360381019061045691906136a2565b61223a565b60405161046d969594939291906141bb565b60405180910390f35b610490600480360381019061048b919061421a565b6122b0565b005b5f6104df84848080601f0160208091040260200160405190810160405280939291908181526020018383808284375f81840152601f19601f820116905080830192505050505050506128a9565b90505f6104eb836109c7565b90505f60045f8581526020019081526020015f205f3373ffffffffffffffffffffffffffffffffffffffff1673ffffffffffffffffffffffffffffffffffffffff1681526020019081526020015f20604051806101000160405290815f82018054610555906142b3565b80601f0160208091040260200160405190810160405280929190818152602001828054610581906142b3565b80156105cc5780601f106105a3576101008083540402835291602001916105cc565b820191905f5260205f20905b8154815290600101906020018083116105af57829003601f168201915b50505050508152602001600182015f9054906101000a900473ffffffffffffffffffffffffffffffffffffffff1673ffffffffffffffffffffffffffffffffffffffff1673ffffffffffffffffffffffffffffffffffffffff16815260200160028201548152602001600382015481526020016004820154815260200160058201548152602001600682015f9054906101000a900463ffffffff1663ffffffff1663ffffffff16815260200160078201548152505090505f60025f8681526020019081526020015f206040518060c00160405290815f8201548152602001600182015f9054906101000a900473ffffffffffffffffffffffffffffffffffffffff1673ffffffffffffffffffffffffffffffffffffffff1673ffffffffffffffffffffffffffffffffffffffff168152602001600282015481526020016003820154815260200160048201548152602001600582015f9054906101000a900473ffffffffffffffffffffffffffffffffffffffff1673ffffffffffffffffffffffffffffffffffffffff1673ffffffffffffffffffffffffffffffffffffffff168152505090506107818260800151856128bc565b8260800181815250506107a96401000000004261079e9190614310565b63ffffffff16612902565b8260e00181815250506107c08160600151856128bc565b8160600181815250506107db6107d68486612915565b612964565b6107f56107f083604001518460800151612915565b612964565b8160045f8781526020019081526020015f205f3373ffffffffffffffffffffffffffffffffffffffff1673ffffffffffffffffffffffffffffffffffffffff1681526020019081526020015f205f820151815f01908161085591906144b3565b506020820151816001015f6101000a81548173ffffffffffffffffffffffffffffffffffffffff021916908373ffffffffffffffffffffffffffffffffffffffff16021790555060408201518160020155606082015181600301556080820151816004015560a0820151816005015560c0820151816006015f6101000a81548163ffffffff021916908363ffffffff16021790555060e082015181600701559050508060025f8781526020019081526020015f205f820151815f01556020820151816001015f6101000a81548173ffffffffffffffffffffffffffffffffffffffff021916908373ffffffffffffffffffffffffffffffffffffffff16021790555060408201518160020155606082015181600301556080820151816004015560a0820151816005015f6101000a81548173ffffffffffffffffffffffffffffffffffffffff021916908373ffffffffffffffffffffffffffffffffffffffff16021790555090505050505050505050565b5f8060045f8481526020019081526020015f205f3373ffffffffffffffffffffffffffffffffffffffff1673ffffffffffffffffffffffffffffffffffffffff1681526020019081526020015f20604051806101000160405290815f82018054610a30906142b3565b80601f0160208091040260200160405190810160405280929190818152602001828054610a5c906142b3565b8015610aa75780601f10610a7e57610100808354040283529160200191610aa7565b820191905f5260205f20905b815481529060010190602001808311610a8a57829003601f168201915b50505050508152602001600182015f9054906101000a900473ffffffffffffffffffffffffffffffffffffffff1673ffffffffffffffffffffffffffffffffffffffff1673ffffffffffffffffffffffffffffffffffffffff16815260200160028201548152602001600382015481526020016004820154815260200160058201548152602001600682015f9054906101000a900463ffffffff1663ffffffff1663ffffffff16815260200160078201548152505090508060600151915050919050565b6004602052815f5260405f20602052805f5260405f205f9150915050805f018054610b95906142b3565b80601f0160208091040260200160405190810160405280929190818152602001828054610bc1906142b3565b8015610c0c5780601f10610be357610100808354040283529160200191610c0c565b820191905f5260205f20905b815481529060010190602001808311610bef57829003601f168201915b505050505090806001015f9054906101000a900473ffffffffffffffffffffffffffffffffffffffff1690806002015490806003015490806004015490806005015490806006015f9054906101000a900463ffffffff16908060070154905088565b5f60075f8373ffffffffffffffffffffffffffffffffffffffff1673ffffffffffffffffffffffffffffffffffffffff1681526020019081526020015f20549050919050565b3373ffffffffffffffffffffffffffffffffffffffff1660065f9054906101000a900473ffffffffffffffffffffffffffffffffffffffff1673ffffffffffffffffffffffffffffffffffffffff1614610d0c575f80fd5b8160055f8381526020019081526020015f205f820151815f01556020820151816001015560408201518160020155606082015181600301556080820151816004015560a0820151816005015560c082015181600601559050505050565b610d716134ea565b60025f8381526020019081526020015f206040518060c00160405290815f8201548152602001600182015f9054906101000a900473ffffffffffffffffffffffffffffffffffffffff1673ffffffffffffffffffffffffffffffffffffffff1673ffffffffffffffffffffffffffffffffffffffff168152602001600282015481526020016003820154815260200160048201548152602001600582015f9054906101000a900473ffffffffffffffffffffffffffffffffffffffff1673ffffffffffffffffffffffffffffffffffffffff1673ffffffffffffffffffffffffffffffffffffffff16815250509050919050565b5f610eb284848080601f0160208091040260200160405190810160405280939291908181526020018383808284375f81840152601f19601f820116905080830192505050505050506128a9565b90505f60025f8481526020019081526020015f206040518060c00160405290815f8201548152602001600182015f9054906101000a900473ffffffffffffffffffffffffffffffffffffffff1673ffffffffffffffffffffffffffffffffffffffff1673ffffffffffffffffffffffffffffffffffffffff168152602001600282015481526020016003820154815260200160048201548152602001600582015f9054906101000a900473ffffffffffffffffffffffffffffffffffffffff1673ffffffffffffffffffffffffffffffffffffffff1673ffffffffffffffffffffffffffffffffffffffff16815250509050806020015173ffffffffffffffffffffffffffffffffffffffff163373ffffffffffffffffffffffffffffffffffffffff1614611016576040517f08c379a000000000000000000000000000000000000000000000000000000000815260040161100d906145cc565b60405180910390fd5b5f60045f8581526020019081526020015f205f8873ffffffffffffffffffffffffffffffffffffffff1673ffffffffffffffffffffffffffffffffffffffff1681526020019081526020015f20604051806101000160405290815f8201805461107e906142b3565b80601f01602080910402602001604051908101604052809291908181526020018280546110aa906142b3565b80156110f55780601f106110cc576101008083540402835291602001916110f5565b820191905f5260205f20905b8154815290600101906020018083116110d857829003601f168201915b50505050508152602001600182015f9054906101000a900473ffffffffffffffffffffffffffffffffffffffff1673ffffffffffffffffffffffffffffffffffffffff1673ffffffffffffffffffffffffffffffffffffffff16815260200160028201548152602001600382015481526020016004820154815260200160058201548152602001600682015f9054906101000a900463ffffffff1663ffffffff1663ffffffff16815260200160078201548152505090506111ba8382604001516128bc565b8160400181815250506111d18260400151846128bc565b826040018181525050640100000000426111eb9190614310565b8160c0019063ffffffff16908163ffffffff16815250508060045f8681526020019081526020015f205f8973ffffffffffffffffffffffffffffffffffffffff1673ffffffffffffffffffffffffffffffffffffffff1681526020019081526020015f205f820151815f01908161126291906144b3565b506020820151816001015f6101000a81548173ffffffffffffffffffffffffffffffffffffffff021916908373ffffffffffffffffffffffffffffffffffffffff16021790555060408201518160020155606082015181600301556080820151816004015560a0820151816005015560c0820151816006015f6101000a81548163ffffffff021916908363ffffffff16021790555060e082015181600701559050508160025f8681526020019081526020015f205f820151815f01556020820151816001015f6101000a81548173ffffffffffffffffffffffffffffffffffffffff021916908373ffffffffffffffffffffffffffffffffffffffff16021790555060408201518160020155606082015181600301556080820151816004015560a0820151816005015f6101000a81548173ffffffffffffffffffffffffffffffffffffffff021916908373ffffffffffffffffffffffffffffffffffffffff16021790555090505050505050505050565b6005602052805f5260405f205f91509050805f0154908060010154908060020154908060030154908060040154908060050154908060060154905087565b5f8060055f8481526020019081526020015f206040518060e00160405290815f8201548152602001600182015481526020016002820154815260200160038201548152602001600482015481526020016005820154815260200160068201548152505090505f60045f8581526020019081526020015f205f3373ffffffffffffffffffffffffffffffffffffffff1673ffffffffffffffffffffffffffffffffffffffff1681526020019081526020015f20604051806101000160405290815f820180546114df906142b3565b80601f016020809104026020016040519081016040528092919081815260200182805461150b906142b3565b80156115565780601f1061152d57610100808354040283529160200191611556565b820191905f5260205f20905b81548152906001019060200180831161153957829003601f168201915b50505050508152602001600182015f9054906101000a900473ffffffffffffffffffffffffffffffffffffffff1673ffffffffffffffffffffffffffffffffffffffff1673ffffffffffffffffffffffffffffffffffffffff16815260200160028201548152602001600382015481526020016004820154815260200160058201548152602001600682015f9054906101000a900463ffffffff1663ffffffff1663ffffffff16815260200160078201548152505090505f60025f8681526020019081526020015f206040518060c00160405290815f8201548152602001600182015f9054906101000a900473ffffffffffffffffffffffffffffffffffffffff1673ffffffffffffffffffffffffffffffffffffffff1673ffffffffffffffffffffffffffffffffffffffff168152602001600282015481526020016003820154815260200160048201548152602001600582015f9054906101000a900473ffffffffffffffffffffffffffffffffffffffff1673ffffffffffffffffffffffffffffffffffffffff1673ffffffffffffffffffffffffffffffffffffffff1681525050905060035f8681526020019081526020015f205f3373ffffffffffffffffffffffffffffffffffffffff1673ffffffffffffffffffffffffffffffffffffffff1681526020019081526020015f205f9054906101000a900460ff16611795576040517f08c379a000000000000000000000000000000000000000000000000000000000815260040161178c90614634565b60405180910390fd5b5f640100000000426117a79190614310565b90505f6117b98263ffffffff16612902565b90505f6117cd865f015187602001516128bc565b90505f6117fb6117e084895f0151612915565b6117ed868a5f0151612970565b6117f65f612902565b6129b0565b90505f61180b83895f01516129c5565b90505f61181a8985858b612a0b565b90505f61182b898b86868a8a612a72565b90505f61184661183f8c6020015187612915565b84846129b0565b90506118568a60600151826128bc565b8a606001818152505061186d8960800151826129c5565b8960800181815250508960045f8f81526020019081526020015f205f3373ffffffffffffffffffffffffffffffffffffffff1673ffffffffffffffffffffffffffffffffffffffff1681526020019081526020015f205f820151815f0190816118d691906144b3565b506020820151816001015f6101000a81548173ffffffffffffffffffffffffffffffffffffffff021916908373ffffffffffffffffffffffffffffffffffffffff16021790555060408201518160020155606082015181600301556080820151816004015560a0820151816005015560c0820151816006015f6101000a81548163ffffffff021916908363ffffffff16021790555060e082015181600701559050508860025f8f81526020019081526020015f205f820151815f01556020820151816001015f6101000a81548173ffffffffffffffffffffffffffffffffffffffff021916908373ffffffffffffffffffffffffffffffffffffffff16021790555060408201518160020155606082015181600301556080820151816004015560a0820151816005015f6101000a81548173ffffffffffffffffffffffffffffffffffffffff021916908373ffffffffffffffffffffffffffffffffffffffff160217905550905050809b505050505050505050505050919050565b6007602052805f5260405f205f915090505481565b60065f9054906101000a900473ffffffffffffffffffffffffffffffffffffffff1681565b611a94613546565b60045f8481526020019081526020015f205f8373ffffffffffffffffffffffffffffffffffffffff1673ffffffffffffffffffffffffffffffffffffffff1681526020019081526020015f20604051806101000160405290815f82018054611afb906142b3565b80601f0160208091040260200160405190810160405280929190818152602001828054611b27906142b3565b8015611b725780601f10611b4957610100808354040283529160200191611b72565b820191905f5260205f20905b815481529060010190602001808311611b5557829003601f168201915b50505050508152602001600182015f9054906101000a900473ffffffffffffffffffffffffffffffffffffffff1673ffffffffffffffffffffffffffffffffffffffff1673ffffffffffffffffffffffffffffffffffffffff16815260200160028201548152602001600382015481526020016004820154815260200160058201548152602001600682015f9054906101000a900463ffffffff1663ffffffff1663ffffffff168152602001600782015481525050905092915050565b5f6060805f805f6060611c40612b2c565b611c48612b66565b46305f801b5f67ffffffffffffffff811115611c6757611c66613960565b5b604051908082528060200260200182016040528015611c955781602001602082028036833780820191505090505b507f0f00000000000000000000000000000000000000000000000000000000000000959493929190965096509650965096509650965090919293949596565b5f8083604051602001611ce791906146d6565b60405160208183030381529060405290505f8484604051602001611d0c929190614717565b6040516020818303038152906040528051906020012090505f60025f8381526020019081526020015f206040518060c00160405290815f8201548152602001600182015f9054906101000a900473ffffffffffffffffffffffffffffffffffffffff1673ffffffffffffffffffffffffffffffffffffffff1673ffffffffffffffffffffffffffffffffffffffff168152602001600282015481526020016003820154815260200160048201548152602001600582015f9054906101000a900473ffffffffffffffffffffffffffffffffffffffff1673ffffffffffffffffffffffffffffffffffffffff1673ffffffffffffffffffffffffffffffffffffffff168152505090505f73ffffffffffffffffffffffffffffffffffffffff16816020015173ffffffffffffffffffffffffffffffffffffffff1614611e86576040517f08c379a0000000000000000000000000000000000000000000000000000000008152600401611e7d90614788565b60405180910390fd5b33816020019073ffffffffffffffffffffffffffffffffffffffff16908173ffffffffffffffffffffffffffffffffffffffff16815250508060025f8481526020019081526020015f205f820151815f01556020820151816001015f6101000a81548173ffffffffffffffffffffffffffffffffffffffff021916908373ffffffffffffffffffffffffffffffffffffffff16021790555060408201518160020155606082015181600301556080820151816004015560a0820151816005015f6101000a81548173ffffffffffffffffffffffffffffffffffffffff021916908373ffffffffffffffffffffffffffffffffffffffff1602179055509050508160075f3373ffffffffffffffffffffffffffffffffffffffff1673ffffffffffffffffffffffffffffffffffffffff1681526020019081526020015f20819055507f79668e0bb3c4ab3e76f43f6c88ea8b293853965a07c19ac1465c0b9341cfe55f82604051611ff69190613943565b60405180910390a181935050505092915050565b6003602052815f5260405f20602052805f5260405f205f915091509054906101000a900460ff1681565b6008602052815f5260405f20818154811061204d575f80fd5b905f5260205f20015f915091509054906101000a900473ffffffffffffffffffffffffffffffffffffffff1681565b606060085f8481526020019081526020015f205092915050565b5f8060045f8481526020019081526020015f205f3373ffffffffffffffffffffffffffffffffffffffff1673ffffffffffffffffffffffffffffffffffffffff1681526020019081526020015f20604051806101000160405290815f820180546120ff906142b3565b80601f016020809104026020016040519081016040528092919081815260200182805461212b906142b3565b80156121765780601f1061214d57610100808354040283529160200191612176565b820191905f5260205f20905b81548152906001019060200180831161215957829003601f168201915b50505050508152602001600182015f9054906101000a900473ffffffffffffffffffffffffffffffffffffffff1673ffffffffffffffffffffffffffffffffffffffff1673ffffffffffffffffffffffffffffffffffffffff16815260200160028201548152602001600382015481526020016004820154815260200160058201548152602001600682015f9054906101000a900463ffffffff1663ffffffff1663ffffffff16815260200160078201548152505090508060800151915050919050565b6002602052805f5260405f205f91509050805f015490806001015f9054906101000a900473ffffffffffffffffffffffffffffffffffffffff1690806002015490806003015490806004015490806005015f9054906101000a900473ffffffffffffffffffffffffffffffffffffffff16905086565b5f60025f8381526020019081526020015f206040518060c00160405290815f8201548152602001600182015f9054906101000a900473ffffffffffffffffffffffffffffffffffffffff1673ffffffffffffffffffffffffffffffffffffffff1673ffffffffffffffffffffffffffffffffffffffff168152602001600282015481526020016003820154815260200160048201548152602001600582015f9054906101000a900473ffffffffffffffffffffffffffffffffffffffff1673ffffffffffffffffffffffffffffffffffffffff1673ffffffffffffffffffffffffffffffffffffffff16815250509050806020015173ffffffffffffffffffffffffffffffffffffffff163373ffffffffffffffffffffffffffffffffffffffff1614612412576040517f08c379a0000000000000000000000000000000000000000000000000000000008152600401612409906147f0565b60405180910390fd5b600160035f8481526020019081526020015f205f8573ffffffffffffffffffffffffffffffffffffffff1673ffffffffffffffffffffffffffffffffffffffff1681526020019081526020015f205f6101000a81548160ff02191690831515021790555061248c815f01516124876001612902565b6128bc565b815f0181815250508060025f8481526020019081526020015f205f820151815f01556020820151816001015f6101000a81548173ffffffffffffffffffffffffffffffffffffffff021916908373ffffffffffffffffffffffffffffffffffffffff16021790555060408201518160020155606082015181600301556080820151816004015560a0820151816005015f6101000a81548173ffffffffffffffffffffffffffffffffffffffff021916908373ffffffffffffffffffffffffffffffffffffffff1602179055509050505f60045f8481526020019081526020015f205f8573ffffffffffffffffffffffffffffffffffffffff1673ffffffffffffffffffffffffffffffffffffffff1681526020019081526020015f20604051806101000160405290815f820180546125c3906142b3565b80601f01602080910402602001604051908101604052809291908181526020018280546125ef906142b3565b801561263a5780601f106126115761010080835404028352916020019161263a565b820191905f5260205f20905b81548152906001019060200180831161261d57829003601f168201915b50505050508152602001600182015f9054906101000a900473ffffffffffffffffffffffffffffffffffffffff1673ffffffffffffffffffffffffffffffffffffffff1673ffffffffffffffffffffffffffffffffffffffff16815260200160028201548152602001600382015481526020016004820154815260200160058201548152602001600682015f9054906101000a900463ffffffff1663ffffffff1663ffffffff168152602001600782015481525050905083816020019073ffffffffffffffffffffffffffffffffffffffff16908173ffffffffffffffffffffffffffffffffffffffff168152505084815f018190525060085f8481526020019081526020015f2084908060018154018082558091505060019003905f5260205f20015f9091909190916101000a81548173ffffffffffffffffffffffffffffffffffffffff021916908373ffffffffffffffffffffffffffffffffffffffff1602179055508060045f8581526020019081526020015f205f8673ffffffffffffffffffffffffffffffffffffffff1673ffffffffffffffffffffffffffffffffffffffff1681526020019081526020015f205f820151815f01908161280091906144b3565b506020820151816001015f6101000a81548173ffffffffffffffffffffffffffffffffffffffff021916908373ffffffffffffffffffffffffffffffffffffffff16021790555060408201518160020155606082015181600301556080820151816004015560a0820151816005015560c0820151816006015f6101000a81548163ffffffff021916908363ffffffff16021790555060e082015181600701559050505050505050565b5f6128b5826002612ba1565b9050919050565b5f6128c683612c4c565b6128d6576128d35f612902565b92505b6128df82612c4c565b6128ef576128ec5f612902565b91505b6128fa83835f612c58565b905092915050565b5f61290e826002612cfa565b9050919050565b5f61291f83612c4c565b61292f5761292c5f612902565b92505b61293882612c4c565b612948576129455f612902565b91505b61295c61295684845f612d81565b5f612e23565b905092915050565b61296d81612eaa565b50565b5f806129818463ffffffff16612902565b905061298c83612c4c565b61299c576129995f612902565b92505b6129a781845f612f5d565b91505092915050565b5f6129bc848484612fff565b90509392505050565b5f6129cf83612c4c565b6129df576129dc5f612902565b92505b6129e882612c4c565b6129f8576129f55f612902565b91505b612a0383835f612f5d565b905092915050565b5f80612a3a612a2287608001518560400151613086565b600660149054906101000a900463ffffffff166130cc565b9050612a64612a558460e00151612a505f612902565b6130fe565b612a5e5f612902565b836129b0565b905080915050949350505050565b5f80612a808784888b612a0b565b90505f612a8e888a8661314d565b90505f612aad612aa28b60e0015187612915565b8b60e00151876129b0565b90505f612ad5612abd8884612915565b612ac789856129c5565b612ad05f612902565b6129b0565b90505f612b01612ae9838e60400151613086565b600660149054906101000a900463ffffffff166130cc565b90505f612b1782612b1288886128bc565b6128bc565b90508096505050505050509695505050505050565b6060612b615f7f00000000000000000000000000000000000000000000000000000000000000006131aa90919063ffffffff16565b905090565b6060612b9c60017f00000000000000000000000000000000000000000000000000000000000000006131aa90919063ffffffff16565b905090565b5f80838360f81b604051602001612bb9929190614872565b6040516020818303038152906040529050605d73ffffffffffffffffffffffffffffffffffffffff16634b252ec8826040518263ffffffff1660e01b8152600401612c0491906148e1565b602060405180830381865afa158015612c1f573d5f803e3d5ffd5b505050506040513d601f19601f82011682018060405250810190612c439190614915565b91505092915050565b5f808214159050919050565b5f808215612c6c57600160f81b9050612c73565b5f60f81b90505b605d73ffffffffffffffffffffffffffffffffffffffff1663f953e4278686846040518463ffffffff1660e01b8152600401612cb193929190614940565b602060405180830381865afa158015612ccc573d5f803e3d5ffd5b505050506040513d601f19601f82011682018060405250810190612cf09190614915565b9150509392505050565b5f605d73ffffffffffffffffffffffffffffffffffffffff1663e71746b8848460f81b6040518363ffffffff1660e01b8152600401612d3a929190614975565b602060405180830381865afa158015612d55573d5f803e3d5ffd5b505050506040513d601f19601f82011682018060405250810190612d799190614915565b905092915050565b5f808215612d9557600160f81b9050612d9c565b5f60f81b90505b605d73ffffffffffffffffffffffffffffffffffffffff1663052896f18686846040518463ffffffff1660e01b8152600401612dda93929190614940565b602060405180830381865afa158015612df5573d5f803e3d5ffd5b505050506040513d601f19601f82011682018060405250810190612e199190614915565b9150509392505050565b5f605d73ffffffffffffffffffffffffffffffffffffffff16634be68d20848460f81b6040518363ffffffff1660e01b8152600401612e63929190614975565b602060405180830381865afa158015612e7e573d5f803e3d5ffd5b505050506040513d601f19601f82011682018060405250810190612ea29190614915565b905092915050565b5f81604051602401612ebc919061499c565b6040516020818303038152906040527f4ee071a1000000000000000000000000000000000000000000000000000000007bffffffffffffffffffffffffffffffffffffffffffffffffffffffff19166020820180517bffffffffffffffffffffffffffffffffffffffffffffffffffffffff838183161783525050505090505f815190505f605d90505f808360208601845afa612f57575f80fd5b50505050565b5f808215612f7157600160f81b9050612f78565b5f60f81b90505b605d73ffffffffffffffffffffffffffffffffffffffff16638c14cc218686846040518463ffffffff1660e01b8152600401612fb693929190614940565b602060405180830381865afa158015612fd1573d5f803e3d5ffd5b505050506040513d601f19601f82011682018060405250810190612ff59190614915565b9150509392505050565b5f605d73ffffffffffffffffffffffffffffffffffffffff1663cb3b94078585856040518463ffffffff1660e01b815260040161303e939291906149b5565b602060405180830381865afa158015613059573d5f803e3d5ffd5b505050506040513d601f19601f8201168201806040525081019061307d9190614915565b90509392505050565b5f61309083612c4c565b6130a05761309d5f612902565b92505b6130a982612c4c565b6130b9576130b65f612902565b91505b6130c483835f613257565b905092915050565b5f6130d683612c4c565b6130e6576130e35f612902565b92505b6130f6838363ffffffff166132f9565b905092915050565b5f61310883612c4c565b613118576131155f612902565b92505b61312182612c4c565b6131315761312e5f612902565b91505b61314561313f84845f613388565b5f612e23565b905092915050565b5f8061317c6131648660a001518660400151613086565b600660149054906101000a900463ffffffff166130cc565b905061319e61318f8560e0015185612915565b6131985f612902565b836129b0565b50809150509392505050565b606060ff5f1b83146131c6576131bf8361342a565b9050613251565b8180546131d2906142b3565b80601f01602080910402602001604051908101604052809291908181526020018280546131fe906142b3565b80156132495780601f1061322057610100808354040283529160200191613249565b820191905f5260205f20905b81548152906001019060200180831161322c57829003601f168201915b505050505090505b92915050565b5f80821561326b57600160f81b9050613272565b5f60f81b90505b605d73ffffffffffffffffffffffffffffffffffffffff1663816d57d38686846040518463ffffffff1660e01b81526004016132b093929190614940565b602060405180830381865afa1580156132cb573d5f803e3d5ffd5b505050506040513d601f19601f820116820180604052508101906132ef9190614915565b9150509392505050565b5f80600160f81b9050605d73ffffffffffffffffffffffffffffffffffffffff166336cdd31b8585846040518463ffffffff1660e01b815260040161334093929190614940565b602060405180830381865afa15801561335b573d5f803e3d5ffd5b505050506040513d601f19601f8201168201806040525081019061337f9190614915565b91505092915050565b5f80821561339c57600160f81b90506133a3565b5f60f81b90505b605d73ffffffffffffffffffffffffffffffffffffffff1663192710818686846040518463ffffffff1660e01b81526004016133e193929190614940565b602060405180830381865afa1580156133fc573d5f803e3d5ffd5b505050506040513d601f19601f820116820180604052508101906134209190614915565b9150509392505050565b60605f6134368361349c565b90505f602067ffffffffffffffff81111561345457613453613960565b5b6040519080825280601f01601f1916602001820160405280156134865781602001600182028036833780820191505090505b5090508181528360208201528092505050919050565b5f8060ff835f1c169050601f8111156134e1576040517fb3512b0c00000000000000000000000000000000000000000000000000000000815260040160405180910390fd5b80915050919050565b6040518060c001604052805f81526020015f73ffffffffffffffffffffffffffffffffffffffff1681526020015f81526020015f81526020015f81526020015f73ffffffffffffffffffffffffffffffffffffffff1681525090565b604051806101000160405280606081526020015f73ffffffffffffffffffffffffffffffffffffffff1681526020015f81526020015f81526020015f81526020015f81526020015f63ffffffff1681526020015f81525090565b5f604051905090565b5f80fd5b5f80fd5b5f80fd5b5f80fd5b5f80fd5b5f8083601f8401126135d2576135d16135b1565b5b8235905067ffffffffffffffff8111156135ef576135ee6135b5565b5b60208301915083600182028301111561360b5761360a6135b9565b5b9250929050565b5f819050919050565b61362481613612565b811461362e575f80fd5b50565b5f8135905061363f8161361b565b92915050565b5f805f6040848603121561365c5761365b6135a9565b5b5f84013567ffffffffffffffff811115613679576136786135ad565b5b613685868287016135bd565b9350935050602061369886828701613631565b9150509250925092565b5f602082840312156136b7576136b66135a9565b5b5f6136c484828501613631565b91505092915050565b5f819050919050565b5f819050919050565b5f6136f96136f46136ef846136cd565b6136d6565b6136cd565b9050919050565b613709816136df565b82525050565b5f6020820190506137225f830184613700565b92915050565b5f73ffffffffffffffffffffffffffffffffffffffff82169050919050565b5f61375182613728565b9050919050565b61376181613747565b811461376b575f80fd5b50565b5f8135905061377c81613758565b92915050565b5f8060408385031215613798576137976135a9565b5b5f6137a585828601613631565b92505060206137b68582860161376e565b9150509250929050565b5f81519050919050565b5f82825260208201905092915050565b5f5b838110156137f75780820151818401526020810190506137dc565b5f8484015250505050565b5f601f19601f8301169050919050565b5f61381c826137c0565b61382681856137ca565b93506138368185602086016137da565b61383f81613802565b840191505092915050565b61385381613747565b82525050565b613862816136df565b82525050565b5f63ffffffff82169050919050565b61388081613868565b82525050565b5f610100820190508181035f83015261389f818b613812565b90506138ae602083018a61384a565b6138bb6040830189613700565b6138c86060830188613700565b6138d56080830187613700565b6138e260a0830186613859565b6138ef60c0830185613877565b6138fc60e0830184613700565b9998505050505050505050565b5f6020828403121561391e5761391d6135a9565b5b5f61392b8482850161376e565b91505092915050565b61393d81613612565b82525050565b5f6020820190506139565f830184613934565b92915050565b5f80fd5b7f4e487b71000000000000000000000000000000000000000000000000000000005f52604160045260245ffd5b61399682613802565b810181811067ffffffffffffffff821117156139b5576139b4613960565b5b80604052505050565b5f6139c76135a0565b90506139d3828261398d565b919050565b6139e1816136cd565b81146139eb575f80fd5b50565b5f813590506139fc816139d8565b92915050565b5f60e08284031215613a1757613a1661395c565b5b613a2160e06139be565b90505f613a30848285016139ee565b5f830152506020613a43848285016139ee565b6020830152506040613a57848285016139ee565b6040830152506060613a6b848285016139ee565b6060830152506080613a7f848285016139ee565b60808301525060a0613a93848285016139ee565b60a08301525060c0613aa7848285016139ee565b60c08301525092915050565b5f806101008385031215613aca57613ac96135a9565b5b5f613ad785828601613a02565b92505060e0613ae885828601613631565b9150509250929050565b613afb816136df565b82525050565b613b0a81613747565b82525050565b60c082015f820151613b245f850182613af2565b506020820151613b376020850182613b01565b506040820151613b4a6040850182613af2565b506060820151613b5d6060850182613af2565b506080820151613b706080850182613af2565b5060a0820151613b8360a0850182613b01565b50505050565b5f60c082019050613b9c5f830184613b10565b92915050565b5f805f8060608587031215613bba57613bb96135a9565b5b5f613bc78782880161376e565b945050602085013567ffffffffffffffff811115613be857613be76135ad565b5b613bf4878288016135bd565b93509350506040613c0787828801613631565b91505092959194509250565b5f60e082019050613c265f83018a613700565b613c336020830189613700565b613c406040830188613700565b613c4d6060830187613700565b613c5a6080830186613700565b613c6760a0830185613700565b613c7460c0830184613700565b98975050505050505050565b5f602082019050613c935f83018461384a565b92915050565b5f82825260208201905092915050565b5f613cb3826137c0565b613cbd8185613c99565b9350613ccd8185602086016137da565b613cd681613802565b840191505092915050565b613cea816136df565b82525050565b613cf981613868565b82525050565b5f61010083015f8301518482035f860152613d1a8282613ca9565b9150506020830151613d2f6020860182613b01565b506040830151613d426040860182613af2565b506060830151613d556060860182613af2565b506080830151613d686080860182613af2565b5060a0830151613d7b60a0860182613ce1565b5060c0830151613d8e60c0860182613cf0565b5060e0830151613da160e0860182613af2565b508091505092915050565b5f6020820190508181035f830152613dc48184613cff565b905092915050565b5f7fff0000000000000000000000000000000000000000000000000000000000000082169050919050565b613e0081613dcc565b82525050565b613e0f816136cd565b82525050565b5f81519050919050565b5f82825260208201905092915050565b5f819050602082019050919050565b613e47816136cd565b82525050565b5f613e588383613e3e565b60208301905092915050565b5f602082019050919050565b5f613e7a82613e15565b613e848185613e1f565b9350613e8f83613e2f565b805f5b83811015613ebf578151613ea68882613e4d565b9750613eb183613e64565b925050600181019050613e92565b5085935050505092915050565b5f60e082019050613edf5f83018a613df7565b8181036020830152613ef18189613812565b90508181036040830152613f058188613812565b9050613f146060830187613e06565b613f21608083018661384a565b613f2e60a0830185613934565b81810360c0830152613f408184613e70565b905098975050505050505050565b5f80fd5b5f67ffffffffffffffff821115613f6c57613f6b613960565b5b613f7582613802565b9050602081019050919050565b828183375f83830152505050565b5f613fa2613f9d84613f52565b6139be565b905082815260208101848484011115613fbe57613fbd613f4e565b5b613fc9848285613f82565b509392505050565b5f82601f830112613fe557613fe46135b1565b5b8135613ff5848260208601613f90565b91505092915050565b614007816136cd565b8114614011575f80fd5b50565b5f8135905061402281613ffe565b92915050565b5f806040838503121561403e5761403d6135a9565b5b5f83013567ffffffffffffffff81111561405b5761405a6135ad565b5b61406785828601613fd1565b925050602061407885828601614014565b9150509250929050565b5f8115159050919050565b61409681614082565b82525050565b5f6020820190506140af5f83018461408d565b92915050565b5f80604083850312156140cb576140ca6135a9565b5b5f6140d885828601613631565b92505060206140e985828601614014565b9150509250929050565b5f81519050919050565b5f82825260208201905092915050565b5f819050602082019050919050565b5f6141278383613b01565b60208301905092915050565b5f602082019050919050565b5f614149826140f3565b61415381856140fd565b935061415e8361410d565b805f5b8381101561418e578151614175888261411c565b975061418083614133565b925050600181019050614161565b5085935050505092915050565b5f6020820190508181035f8301526141b3818461413f565b905092915050565b5f60c0820190506141ce5f830189613700565b6141db602083018861384a565b6141e86040830187613700565b6141f56060830186613700565b6142026080830185613700565b61420f60a083018461384a565b979650505050505050565b5f805f60608486031215614231576142306135a9565b5b5f84013567ffffffffffffffff81111561424e5761424d6135ad565b5b61425a86828701613fd1565b935050602061426b8682870161376e565b925050604061427c86828701613631565b9150509250925092565b7f4e487b71000000000000000000000000000000000000000000000000000000005f52602260045260245ffd5b5f60028204905060018216806142ca57607f821691505b6020821081036142dd576142dc614286565b5b50919050565b7f4e487b71000000000000000000000000000000000000000000000000000000005f52601260045260245ffd5b5f61431a826136cd565b9150614325836136cd565b925082614335576143346142e3565b5b828206905092915050565b5f819050815f5260205f209050919050565b5f6020601f8301049050919050565b5f82821b905092915050565b5f6008830261439c7fffffffffffffffffffffffffffffffffffffffffffffffffffffffffffffffff82614361565b6143a68683614361565b95508019841693508086168417925050509392505050565b5f819050919050565b6143d0836136df565b6143e46143dc826143be565b84845461436d565b825550505050565b5f90565b6143f86143ec565b6144038184846143c7565b505050565b5b818110156144265761441b5f826143f0565b600181019050614409565b5050565b601f82111561446b5761443c81614340565b61444584614352565b81016020851015614454578190505b61446861446085614352565b830182614408565b50505b505050565b5f82821c905092915050565b5f61448b5f1984600802614470565b1980831691505092915050565b5f6144a3838361447c565b9150826002028217905092915050565b6144bc826137c0565b67ffffffffffffffff8111156144d5576144d4613960565b5b6144df82546142b3565b6144ea82828561442a565b5f60209050601f83116001811461451b575f8415614509578287015190505b6145138582614498565b86555061457a565b601f19841661452986614340565b5f5b828110156145505784890151825560018201915060208501945060208101905061452b565b8683101561456d5784890151614569601f89168261447c565b8355505b6001600288020188555050505b505050505050565b7f6e6f7420612076616c69642061646d696e0000000000000000000000000000005f82015250565b5f6145b66011836137ca565b91506145c182614582565b602082019050919050565b5f6020820190508181035f8301526145e3816145aa565b9050919050565b7f6e6f74206120656d706c6f7965650000000000000000000000000000000000005f82015250565b5f61461e600e836137ca565b9150614629826145ea565b602082019050919050565b5f6020820190508181035f83015261464b81614612565b9050919050565b5f81905092915050565b7f45455243323000000000000000000000000000000000000000000000000000005f82015250565b5f614690600683614652565b915061469b8261465c565b600682019050919050565b5f6146b0826137c0565b6146ba8185614652565b93506146ca8185602086016137da565b80840191505092915050565b5f6146e082614684565b91506146ec82846146a6565b915081905092915050565b5f819050919050565b61471161470c826136cd565b6146f7565b82525050565b5f61472282856146a6565b915061472e8284614700565b6020820191508190509392505050565b7f636f6d61706e7920616c726561647920657869737400000000000000000000005f82015250565b5f6147726015836137ca565b915061477d8261473e565b602082019050919050565b5f6020820190508181035f83015261479f81614766565b9050919050565b7f63616c6c6572206973206e6f742061646d696e000000000000000000000000005f82015250565b5f6147da6013836137ca565b91506147e5826147a6565b602082019050919050565b5f6020820190508181035f830152614807816147ce565b9050919050565b5f81519050919050565b5f81905092915050565b5f61482c8261480e565b6148368185614818565b93506148468185602086016137da565b80840191505092915050565b5f819050919050565b61486c61486782613dcc565b614852565b82525050565b5f61487d8285614822565b9150614889828461485b565b6001820191508190509392505050565b5f82825260208201905092915050565b5f6148b38261480e565b6148bd8185614899565b93506148cd8185602086016137da565b6148d681613802565b840191505092915050565b5f6020820190508181035f8301526148f981846148a9565b905092915050565b5f8151905061490f81613ffe565b92915050565b5f6020828403121561492a576149296135a9565b5b5f61493784828501614901565b91505092915050565b5f6060820190506149535f830186613e06565b6149606020830185613e06565b61496d6040830184613df7565b949350505050565b5f6040820190506149885f830185613e06565b6149956020830184613df7565b9392505050565b5f6020820190506149af5f830184613e06565b92915050565b5f6060820190506149c85f830186613e06565b6149d56020830185613e06565b6149e26040830184613e06565b94935050505056fea2646970667358221220d6d47723455818b49925ddba013887587a199d472ffb81ab7653e196a70a1f1064736f6c63430008180033",
			"opcodes": "PUSH2 0x160 PUSH1 0x40 MSTORE PUSH1 0x64 PUSH1 0x6 PUSH1 0x14 PUSH2 0x100 EXP DUP2 SLOAD DUP2 PUSH4 0xFFFFFFFF MUL NOT AND SWAP1 DUP4 PUSH4 0xFFFFFFFF AND MUL OR SWAP1 SSTORE POP CALLVALUE DUP1 ISZERO PUSH3 0x33 JUMPI PUSH0 DUP1 REVERT JUMPDEST POP PUSH1 0x40 MLOAD PUSH3 0x5304 CODESIZE SUB DUP1 PUSH3 0x5304 DUP4 CODECOPY DUP2 DUP2 ADD PUSH1 0x40 MSTORE DUP2 ADD SWAP1 PUSH3 0x59 SWAP2 SWAP1 PUSH3 0x348 JUMP JUMPDEST PUSH1 0x40 MLOAD DUP1 PUSH1 0x40 ADD PUSH1 0x40 MSTORE DUP1 PUSH1 0x13 DUP2 MSTORE PUSH1 0x20 ADD PUSH32 0x417574686F72697A6174696F6E20746F6B656E00000000000000000000000000 DUP2 MSTORE POP PUSH1 0x40 MLOAD DUP1 PUSH1 0x40 ADD PUSH1 0x40 MSTORE DUP1 PUSH1 0x1 DUP2 MSTORE PUSH1 0x20 ADD PUSH32 0x3100000000000000000000000000000000000000000000000000000000000000 DUP2 MSTORE POP DUP2 DUP2 PUSH3 0xDC PUSH0 DUP4 PUSH3 0x1BF PUSH1 0x20 SHL SWAP1 SWAP2 SWAP1 PUSH1 0x20 SHR JUMP JUMPDEST PUSH2 0x120 DUP2 DUP2 MSTORE POP POP PUSH3 0xFA PUSH1 0x1 DUP3 PUSH3 0x1BF PUSH1 0x20 SHL SWAP1 SWAP2 SWAP1 PUSH1 0x20 SHR JUMP JUMPDEST PUSH2 0x140 DUP2 DUP2 MSTORE POP POP DUP2 DUP1 MLOAD SWAP1 PUSH1 0x20 ADD KECCAK256 PUSH1 0xE0 DUP2 DUP2 MSTORE POP POP DUP1 DUP1 MLOAD SWAP1 PUSH1 0x20 ADD KECCAK256 PUSH2 0x100 DUP2 DUP2 MSTORE POP POP CHAINID PUSH1 0xA0 DUP2 DUP2 MSTORE POP POP PUSH3 0x139 PUSH3 0x214 PUSH1 0x20 SHL PUSH1 0x20 SHR JUMP JUMPDEST PUSH1 0x80 DUP2 DUP2 MSTORE POP POP ADDRESS PUSH20 0xFFFFFFFFFFFFFFFFFFFFFFFFFFFFFFFFFFFFFFFF AND PUSH1 0xC0 DUP2 PUSH20 0xFFFFFFFFFFFFFFFFFFFFFFFFFFFFFFFFFFFFFFFF AND DUP2 MSTORE POP POP POP POP POP POP DUP1 PUSH1 0x6 PUSH0 PUSH2 0x100 EXP DUP2 SLOAD DUP2 PUSH20 0xFFFFFFFFFFFFFFFFFFFFFFFFFFFFFFFFFFFFFFFF MUL NOT AND SWAP1 DUP4 PUSH20 0xFFFFFFFFFFFFFFFFFFFFFFFFFFFFFFFFFFFFFFFF AND MUL OR SWAP1 SSTORE POP POP PUSH3 0x8A1 JUMP JUMPDEST PUSH0 PUSH1 0x20 DUP4 MLOAD LT ISZERO PUSH3 0x1E4 JUMPI PUSH3 0x1DC DUP4 PUSH3 0x270 PUSH1 0x20 SHL PUSH1 0x20 SHR JUMP JUMPDEST SWAP1 POP PUSH3 0x20E JUMP JUMPDEST DUP3 PUSH3 0x1F6 DUP4 PUSH3 0x2DA PUSH1 0x20 SHL PUSH1 0x20 SHR JUMP JUMPDEST PUSH0 ADD SWAP1 DUP2 PUSH3 0x206 SWAP2 SWAP1 PUSH3 0x5DC JUMP JUMPDEST POP PUSH1 0xFF PUSH0 SHL SWAP1 POP JUMPDEST SWAP3 SWAP2 POP POP JUMP JUMPDEST PUSH0 PUSH32 0x8B73C3C69BB8FE3D512ECC4CF759CC79239F7B179B0FFACAA9A75D522B39400F PUSH1 0xE0 MLOAD PUSH2 0x100 MLOAD CHAINID ADDRESS PUSH1 0x40 MLOAD PUSH1 0x20 ADD PUSH3 0x255 SWAP6 SWAP5 SWAP4 SWAP3 SWAP2 SWAP1 PUSH3 0x6FC JUMP JUMPDEST PUSH1 0x40 MLOAD PUSH1 0x20 DUP2 DUP4 SUB SUB DUP2 MSTORE SWAP1 PUSH1 0x40 MSTORE DUP1 MLOAD SWAP1 PUSH1 0x20 ADD KECCAK256 SWAP1 POP SWAP1 JUMP JUMPDEST PUSH0 DUP1 DUP3 SWAP1 POP PUSH1 0x1F DUP2 MLOAD GT ISZERO PUSH3 0x2BF JUMPI DUP3 PUSH1 0x40 MLOAD PUSH32 0x305A27A900000000000000000000000000000000000000000000000000000000 DUP2 MSTORE PUSH1 0x4 ADD PUSH3 0x2B6 SWAP2 SWAP1 PUSH3 0x7E1 JUMP JUMPDEST PUSH1 0x40 MLOAD DUP1 SWAP2 SUB SWAP1 REVERT JUMPDEST DUP1 MLOAD DUP2 PUSH3 0x2CD SWAP1 PUSH3 0x832 JUMP JUMPDEST PUSH0 SHR OR PUSH0 SHL SWAP2 POP POP SWAP2 SWAP1 POP JUMP JUMPDEST PUSH0 DUP2 SWAP1 POP SWAP2 SWAP1 POP JUMP JUMPDEST PUSH0 DUP1 REVERT JUMPDEST PUSH0 PUSH20 0xFFFFFFFFFFFFFFFFFFFFFFFFFFFFFFFFFFFFFFFF DUP3 AND SWAP1 POP SWAP2 SWAP1 POP JUMP JUMPDEST PUSH0 PUSH3 0x312 DUP3 PUSH3 0x2E7 JUMP JUMPDEST SWAP1 POP SWAP2 SWAP1 POP JUMP JUMPDEST PUSH3 0x324 DUP2 PUSH3 0x306 JUMP JUMPDEST DUP2 EQ PUSH3 0x32F JUMPI PUSH0 DUP1 REVERT JUMPDEST POP JUMP JUMPDEST PUSH0 DUP2 MLOAD SWAP1 POP PUSH3 0x342 DUP2 PUSH3 0x319 JUMP JUMPDEST SWAP3 SWAP2 POP POP JUMP JUMPDEST PUSH0 PUSH1 0x20 DUP3 DUP5 SUB SLT ISZERO PUSH3 0x360 JUMPI PUSH3 0x35F PUSH3 0x2E3 JUMP JUMPDEST JUMPDEST PUSH0 PUSH3 0x36F DUP5 DUP3 DUP6 ADD PUSH3 0x332 JUMP JUMPDEST SWAP2 POP POP SWAP3 SWAP2 POP POP JUMP JUMPDEST PUSH0 DUP2 MLOAD SWAP1 POP SWAP2 SWAP1 POP JUMP JUMPDEST PUSH32 0x4E487B7100000000000000000000000000000000000000000000000000000000 PUSH0 MSTORE PUSH1 0x41 PUSH1 0x4 MSTORE PUSH1 0x24 PUSH0 REVERT JUMPDEST PUSH32 0x4E487B7100000000000000000000000000000000000000000000000000000000 PUSH0 MSTORE PUSH1 0x22 PUSH1 0x4 MSTORE PUSH1 0x24 PUSH0 REVERT JUMPDEST PUSH0 PUSH1 0x2 DUP3 DIV SWAP1 POP PUSH1 0x1 DUP3 AND DUP1 PUSH3 0x3F4 JUMPI PUSH1 0x7F DUP3 AND SWAP2 POP JUMPDEST PUSH1 0x20 DUP3 LT DUP2 SUB PUSH3 0x40A JUMPI PUSH3 0x409 PUSH3 0x3AF JUMP JUMPDEST JUMPDEST POP SWAP2 SWAP1 POP JUMP JUMPDEST PUSH0 DUP2 SWAP1 POP DUP2 PUSH0 MSTORE PUSH1 0x20 PUSH0 KECCAK256 SWAP1 POP SWAP2 SWAP1 POP JUMP JUMPDEST PUSH0 PUSH1 0x20 PUSH1 0x1F DUP4 ADD DIV SWAP1 POP SWAP2 SWAP1 POP JUMP JUMPDEST PUSH0 DUP3 DUP3 SHL SWAP1 POP SWAP3 SWAP2 POP POP JUMP JUMPDEST PUSH0 PUSH1 0x8 DUP4 MUL PUSH3 0x46E PUSH32 0xFFFFFFFFFFFFFFFFFFFFFFFFFFFFFFFFFFFFFFFFFFFFFFFFFFFFFFFFFFFFFFFF DUP3 PUSH3 0x431 JUMP JUMPDEST PUSH3 0x47A DUP7 DUP4 PUSH3 0x431 JUMP JUMPDEST SWAP6 POP DUP1 NOT DUP5 AND SWAP4 POP DUP1 DUP7 AND DUP5 OR SWAP3 POP POP POP SWAP4 SWAP3 POP POP POP JUMP JUMPDEST PUSH0 DUP2 SWAP1 POP SWAP2 SWAP1 POP JUMP JUMPDEST PUSH0 DUP2 SWAP1 POP SWAP2 SWAP1 POP JUMP JUMPDEST PUSH0 PUSH3 0x4C4 PUSH3 0x4BE PUSH3 0x4B8 DUP5 PUSH3 0x492 JUMP JUMPDEST PUSH3 0x49B JUMP JUMPDEST PUSH3 0x492 JUMP JUMPDEST SWAP1 POP SWAP2 SWAP1 POP JUMP JUMPDEST PUSH0 DUP2 SWAP1 POP SWAP2 SWAP1 POP JUMP JUMPDEST PUSH3 0x4DF DUP4 PUSH3 0x4A4 JUMP JUMPDEST PUSH3 0x4F7 PUSH3 0x4EE DUP3 PUSH3 0x4CB JUMP JUMPDEST DUP5 DUP5 SLOAD PUSH3 0x43D JUMP JUMPDEST DUP3 SSTORE POP POP POP POP JUMP JUMPDEST PUSH0 SWAP1 JUMP JUMPDEST PUSH3 0x50D PUSH3 0x4FF JUMP JUMPDEST PUSH3 0x51A DUP2 DUP5 DUP5 PUSH3 0x4D4 JUMP JUMPDEST POP POP POP JUMP JUMPDEST JUMPDEST DUP2 DUP2 LT ISZERO PUSH3 0x541 JUMPI PUSH3 0x535 PUSH0 DUP3 PUSH3 0x503 JUMP JUMPDEST PUSH1 0x1 DUP2 ADD SWAP1 POP PUSH3 0x520 JUMP JUMPDEST POP POP JUMP JUMPDEST PUSH1 0x1F DUP3 GT ISZERO PUSH3 0x590 JUMPI PUSH3 0x55A DUP2 PUSH3 0x410 JUMP JUMPDEST PUSH3 0x565 DUP5 PUSH3 0x422 JUMP JUMPDEST DUP2 ADD PUSH1 0x20 DUP6 LT ISZERO PUSH3 0x575 JUMPI DUP2 SWAP1 POP JUMPDEST PUSH3 0x58D PUSH3 0x584 DUP6 PUSH3 0x422 JUMP JUMPDEST DUP4 ADD DUP3 PUSH3 0x51F JUMP JUMPDEST POP POP JUMPDEST POP POP POP JUMP JUMPDEST PUSH0 DUP3 DUP3 SHR SWAP1 POP SWAP3 SWAP2 POP POP JUMP JUMPDEST PUSH0 PUSH3 0x5B2 PUSH0 NOT DUP5 PUSH1 0x8 MUL PUSH3 0x595 JUMP JUMPDEST NOT DUP1 DUP4 AND SWAP2 POP POP SWAP3 SWAP2 POP POP JUMP JUMPDEST PUSH0 PUSH3 0x5CC DUP4 DUP4 PUSH3 0x5A1 JUMP JUMPDEST SWAP2 POP DUP3 PUSH1 0x2 MUL DUP3 OR SWAP1 POP SWAP3 SWAP2 POP POP JUMP JUMPDEST PUSH3 0x5E7 DUP3 PUSH3 0x378 JUMP JUMPDEST PUSH8 0xFFFFFFFFFFFFFFFF DUP2 GT ISZERO PUSH3 0x603 JUMPI PUSH3 0x602 PUSH3 0x382 JUMP JUMPDEST JUMPDEST PUSH3 0x60F DUP3 SLOAD PUSH3 0x3DC JUMP JUMPDEST PUSH3 0x61C DUP3 DUP3 DUP6 PUSH3 0x545 JUMP JUMPDEST PUSH0 PUSH1 0x20 SWAP1 POP PUSH1 0x1F DUP4 GT PUSH1 0x1 DUP2 EQ PUSH3 0x652 JUMPI PUSH0 DUP5 ISZERO PUSH3 0x63D JUMPI DUP3 DUP8 ADD MLOAD SWAP1 POP JUMPDEST PUSH3 0x649 DUP6 DUP3 PUSH3 0x5BF JUMP JUMPDEST DUP7 SSTORE POP PUSH3 0x6B8 JUMP JUMPDEST PUSH1 0x1F NOT DUP5 AND PUSH3 0x662 DUP7 PUSH3 0x410 JUMP JUMPDEST PUSH0 JUMPDEST DUP3 DUP2 LT ISZERO PUSH3 0x68B JUMPI DUP5 DUP10 ADD MLOAD DUP3 SSTORE PUSH1 0x1 DUP3 ADD SWAP2 POP PUSH1 0x20 DUP6 ADD SWAP5 POP PUSH1 0x20 DUP2 ADD SWAP1 POP PUSH3 0x664 JUMP JUMPDEST DUP7 DUP4 LT ISZERO PUSH3 0x6AB JUMPI DUP5 DUP10 ADD MLOAD PUSH3 0x6A7 PUSH1 0x1F DUP10 AND DUP3 PUSH3 0x5A1 JUMP JUMPDEST DUP4 SSTORE POP JUMPDEST PUSH1 0x1 PUSH1 0x2 DUP9 MUL ADD DUP9 SSTORE POP POP POP JUMPDEST POP POP POP POP POP POP JUMP JUMPDEST PUSH0 DUP2 SWAP1 POP SWAP2 SWAP1 POP JUMP JUMPDEST PUSH3 0x6D4 DUP2 PUSH3 0x6C0 JUMP JUMPDEST DUP3 MSTORE POP POP JUMP JUMPDEST PUSH3 0x6E5 DUP2 PUSH3 0x492 JUMP JUMPDEST DUP3 MSTORE POP POP JUMP JUMPDEST PUSH3 0x6F6 DUP2 PUSH3 0x306 JUMP JUMPDEST DUP3 MSTORE POP POP JUMP JUMPDEST PUSH0 PUSH1 0xA0 DUP3 ADD SWAP1 POP PUSH3 0x711 PUSH0 DUP4 ADD DUP9 PUSH3 0x6C9 JUMP JUMPDEST PUSH3 0x720 PUSH1 0x20 DUP4 ADD DUP8 PUSH3 0x6C9 JUMP JUMPDEST PUSH3 0x72F PUSH1 0x40 DUP4 ADD DUP7 PUSH3 0x6C9 JUMP JUMPDEST PUSH3 0x73E PUSH1 0x60 DUP4 ADD DUP6 PUSH3 0x6DA JUMP JUMPDEST PUSH3 0x74D PUSH1 0x80 DUP4 ADD DUP5 PUSH3 0x6EB JUMP JUMPDEST SWAP7 SWAP6 POP POP POP POP POP POP JUMP JUMPDEST PUSH0 DUP3 DUP3 MSTORE PUSH1 0x20 DUP3 ADD SWAP1 POP SWAP3 SWAP2 POP POP JUMP JUMPDEST PUSH0 JUMPDEST DUP4 DUP2 LT ISZERO PUSH3 0x786 JUMPI DUP1 DUP3 ADD MLOAD DUP2 DUP5 ADD MSTORE PUSH1 0x20 DUP2 ADD SWAP1 POP PUSH3 0x769 JUMP JUMPDEST PUSH0 DUP5 DUP5 ADD MSTORE POP POP POP POP JUMP JUMPDEST PUSH0 PUSH1 0x1F NOT PUSH1 0x1F DUP4 ADD AND SWAP1 POP SWAP2 SWAP1 POP JUMP JUMPDEST PUSH0 PUSH3 0x7AD DUP3 PUSH3 0x378 JUMP JUMPDEST PUSH3 0x7B9 DUP2 DUP6 PUSH3 0x757 JUMP JUMPDEST SWAP4 POP PUSH3 0x7CB DUP2 DUP6 PUSH1 0x20 DUP7 ADD PUSH3 0x767 JUMP JUMPDEST PUSH3 0x7D6 DUP2 PUSH3 0x791 JUMP JUMPDEST DUP5 ADD SWAP2 POP POP SWAP3 SWAP2 POP POP JUMP JUMPDEST PUSH0 PUSH1 0x20 DUP3 ADD SWAP1 POP DUP2 DUP2 SUB PUSH0 DUP4 ADD MSTORE PUSH3 0x7FB DUP2 DUP5 PUSH3 0x7A1 JUMP JUMPDEST SWAP1 POP SWAP3 SWAP2 POP POP JUMP JUMPDEST PUSH0 DUP2 MLOAD SWAP1 POP SWAP2 SWAP1 POP JUMP JUMPDEST PUSH0 DUP2 SWAP1 POP PUSH1 0x20 DUP3 ADD SWAP1 POP SWAP2 SWAP1 POP JUMP JUMPDEST PUSH0 PUSH3 0x829 DUP3 MLOAD PUSH3 0x6C0 JUMP JUMPDEST DUP1 SWAP2 POP POP SWAP2 SWAP1 POP JUMP JUMPDEST PUSH0 PUSH3 0x83E DUP3 PUSH3 0x803 JUMP JUMPDEST DUP3 PUSH3 0x84A DUP5 PUSH3 0x80D JUMP JUMPDEST SWAP1 POP PUSH3 0x857 DUP2 PUSH3 0x81C JUMP JUMPDEST SWAP3 POP PUSH1 0x20 DUP3 LT ISZERO PUSH3 0x89A JUMPI PUSH3 0x895 PUSH32 0xFFFFFFFFFFFFFFFFFFFFFFFFFFFFFFFFFFFFFFFFFFFFFFFFFFFFFFFFFFFFFFFF DUP4 PUSH1 0x20 SUB PUSH1 0x8 MUL PUSH3 0x431 JUMP JUMPDEST DUP4 AND SWAP3 POP JUMPDEST POP POP SWAP2 SWAP1 POP JUMP JUMPDEST PUSH1 0x80 MLOAD PUSH1 0xA0 MLOAD PUSH1 0xC0 MLOAD PUSH1 0xE0 MLOAD PUSH2 0x100 MLOAD PUSH2 0x120 MLOAD PUSH2 0x140 MLOAD PUSH2 0x4A20 PUSH3 0x8E4 PUSH0 CODECOPY PUSH0 PUSH2 0x2B6F ADD MSTORE PUSH0 PUSH2 0x2B34 ADD MSTORE PUSH0 POP POP PUSH0 POP POP PUSH0 POP POP PUSH0 POP POP PUSH0 POP POP PUSH2 0x4A20 PUSH0 RETURN INVALID PUSH1 0x80 PUSH1 0x40 MSTORE CALLVALUE DUP1 ISZERO PUSH2 0xF JUMPI PUSH0 DUP1 REVERT JUMPDEST POP PUSH1 0x4 CALLDATASIZE LT PUSH2 0x12A JUMPI PUSH0 CALLDATALOAD PUSH1 0xE0 SHR DUP1 PUSH4 0x7E51BF4B GT PUSH2 0xAB JUMPI DUP1 PUSH4 0xC036596A GT PUSH2 0x6F JUMPI DUP1 PUSH4 0xC036596A EQ PUSH2 0x3B1 JUMPI DUP1 PUSH4 0xC705AB18 EQ PUSH2 0x3E1 JUMPI DUP1 PUSH4 0xC7E63E85 EQ PUSH2 0x411 JUMPI DUP1 PUSH4 0xE93A5B98 EQ PUSH2 0x441 JUMPI DUP1 PUSH4 0xF057A5D1 EQ PUSH2 0x476 JUMPI PUSH2 0x12A JUMP JUMPDEST DUP1 PUSH4 0x7E51BF4B EQ PUSH2 0x2DF JUMPI DUP1 PUSH4 0x80DC8AE8 EQ PUSH2 0x2FD JUMPI DUP1 PUSH4 0x84B0196E EQ PUSH2 0x32D JUMPI DUP1 PUSH4 0x978DC9FD EQ PUSH2 0x351 JUMPI DUP1 PUSH4 0xA27E53DF EQ PUSH2 0x381 JUMPI PUSH2 0x12A JUMP JUMPDEST DUP1 PUSH4 0x30F37B44 GT PUSH2 0xF2 JUMPI DUP1 PUSH4 0x30F37B44 EQ PUSH2 0x1FD JUMPI DUP1 PUSH4 0x50C9ECEA EQ PUSH2 0x22D JUMPI DUP1 PUSH4 0x548EAC04 EQ PUSH2 0x249 JUMPI DUP1 PUSH4 0x59C87D70 EQ PUSH2 0x27F JUMPI DUP1 PUSH4 0x670D14B2 EQ PUSH2 0x2AF JUMPI PUSH2 0x12A JUMP JUMPDEST DUP1 PUSH4 0x280FFB6 EQ PUSH2 0x12E JUMPI DUP1 PUSH4 0x15836ADE EQ PUSH2 0x14A JUMPI DUP1 PUSH4 0x1C08248F EQ PUSH2 0x17A JUMPI DUP1 PUSH4 0x22E1F50E EQ PUSH2 0x1B1 JUMPI DUP1 PUSH4 0x283F03F0 EQ PUSH2 0x1E1 JUMPI JUMPDEST PUSH0 DUP1 REVERT JUMPDEST PUSH2 0x148 PUSH1 0x4 DUP1 CALLDATASIZE SUB DUP2 ADD SWAP1 PUSH2 0x143 SWAP2 SWAP1 PUSH2 0x3645 JUMP JUMPDEST PUSH2 0x492 JUMP JUMPDEST STOP JUMPDEST PUSH2 0x164 PUSH1 0x4 DUP1 CALLDATASIZE SUB DUP2 ADD SWAP1 PUSH2 0x15F SWAP2 SWAP1 PUSH2 0x36A2 JUMP JUMPDEST PUSH2 0x9C7 JUMP JUMPDEST PUSH1 0x40 MLOAD PUSH2 0x171 SWAP2 SWAP1 PUSH2 0x370F JUMP JUMPDEST PUSH1 0x40 MLOAD DUP1 SWAP2 SUB SWAP1 RETURN JUMPDEST PUSH2 0x194 PUSH1 0x4 DUP1 CALLDATASIZE SUB DUP2 ADD SWAP1 PUSH2 0x18F SWAP2 SWAP1 PUSH2 0x3782 JUMP JUMPDEST PUSH2 0xB6B JUMP JUMPDEST PUSH1 0x40 MLOAD PUSH2 0x1A8 SWAP9 SWAP8 SWAP7 SWAP6 SWAP5 SWAP4 SWAP3 SWAP2 SWAP1 PUSH2 0x3886 JUMP JUMPDEST PUSH1 0x40 MLOAD DUP1 SWAP2 SUB SWAP1 RETURN JUMPDEST PUSH2 0x1CB PUSH1 0x4 DUP1 CALLDATASIZE SUB DUP2 ADD SWAP1 PUSH2 0x1C6 SWAP2 SWAP1 PUSH2 0x3909 JUMP JUMPDEST PUSH2 0xC6E JUMP JUMPDEST PUSH1 0x40 MLOAD PUSH2 0x1D8 SWAP2 SWAP1 PUSH2 0x3943 JUMP JUMPDEST PUSH1 0x40 MLOAD DUP1 SWAP2 SUB SWAP1 RETURN JUMPDEST PUSH2 0x1FB PUSH1 0x4 DUP1 CALLDATASIZE SUB DUP2 ADD SWAP1 PUSH2 0x1F6 SWAP2 SWAP1 PUSH2 0x3AB3 JUMP JUMPDEST PUSH2 0xCB4 JUMP JUMPDEST STOP JUMPDEST PUSH2 0x217 PUSH1 0x4 DUP1 CALLDATASIZE SUB DUP2 ADD SWAP1 PUSH2 0x212 SWAP2 SWAP1 PUSH2 0x36A2 JUMP JUMPDEST PUSH2 0xD69 JUMP JUMPDEST PUSH1 0x40 MLOAD PUSH2 0x224 SWAP2 SWAP1 PUSH2 0x3B89 JUMP JUMPDEST PUSH1 0x40 MLOAD DUP1 SWAP2 SUB SWAP1 RETURN JUMPDEST PUSH2 0x247 PUSH1 0x4 DUP1 CALLDATASIZE SUB DUP2 ADD SWAP1 PUSH2 0x242 SWAP2 SWAP1 PUSH2 0x3BA2 JUMP JUMPDEST PUSH2 0xE65 JUMP JUMPDEST STOP JUMPDEST PUSH2 0x263 PUSH1 0x4 DUP1 CALLDATASIZE SUB DUP2 ADD SWAP1 PUSH2 0x25E SWAP2 SWAP1 PUSH2 0x36A2 JUMP JUMPDEST PUSH2 0x13D4 JUMP JUMPDEST PUSH1 0x40 MLOAD PUSH2 0x276 SWAP8 SWAP7 SWAP6 SWAP5 SWAP4 SWAP3 SWAP2 SWAP1 PUSH2 0x3C13 JUMP JUMPDEST PUSH1 0x40 MLOAD DUP1 SWAP2 SUB SWAP1 RETURN JUMPDEST PUSH2 0x299 PUSH1 0x4 DUP1 CALLDATASIZE SUB DUP2 ADD SWAP1 PUSH2 0x294 SWAP2 SWAP1 PUSH2 0x36A2 JUMP JUMPDEST PUSH2 0x1412 JUMP JUMPDEST PUSH1 0x40 MLOAD PUSH2 0x2A6 SWAP2 SWAP1 PUSH2 0x370F JUMP JUMPDEST PUSH1 0x40 MLOAD DUP1 SWAP2 SUB SWAP1 RETURN JUMPDEST PUSH2 0x2C9 PUSH1 0x4 DUP1 CALLDATASIZE SUB DUP2 ADD SWAP1 PUSH2 0x2C4 SWAP2 SWAP1 PUSH2 0x3909 JUMP JUMPDEST PUSH2 0x1A52 JUMP JUMPDEST PUSH1 0x40 MLOAD PUSH2 0x2D6 SWAP2 SWAP1 PUSH2 0x3943 JUMP JUMPDEST PUSH1 0x40 MLOAD DUP1 SWAP2 SUB SWAP1 RETURN JUMPDEST PUSH2 0x2E7 PUSH2 0x1A67 JUMP JUMPDEST PUSH1 0x40 MLOAD PUSH2 0x2F4 SWAP2 SWAP1 PUSH2 0x3C80 JUMP JUMPDEST PUSH1 0x40 MLOAD DUP1 SWAP2 SUB SWAP1 RETURN JUMPDEST PUSH2 0x317 PUSH1 0x4 DUP1 CALLDATASIZE SUB DUP2 ADD SWAP1 PUSH2 0x312 SWAP2 SWAP1 PUSH2 0x3782 JUMP JUMPDEST PUSH2 0x1A8C JUMP JUMPDEST PUSH1 0x40 MLOAD PUSH2 0x324 SWAP2 SWAP1 PUSH2 0x3DAC JUMP JUMPDEST PUSH1 0x40 MLOAD DUP1 SWAP2 SUB SWAP1 RETURN JUMPDEST PUSH2 0x335 PUSH2 0x1C2F JUMP JUMPDEST PUSH1 0x40 MLOAD PUSH2 0x348 SWAP8 SWAP7 SWAP6 SWAP5 SWAP4 SWAP3 SWAP2 SWAP1 PUSH2 0x3ECC JUMP JUMPDEST PUSH1 0x40 MLOAD DUP1 SWAP2 SUB SWAP1 RETURN JUMPDEST PUSH2 0x36B PUSH1 0x4 DUP1 CALLDATASIZE SUB DUP2 ADD SWAP1 PUSH2 0x366 SWAP2 SWAP1 PUSH2 0x4028 JUMP JUMPDEST PUSH2 0x1CD4 JUMP JUMPDEST PUSH1 0x40 MLOAD PUSH2 0x378 SWAP2 SWAP1 PUSH2 0x3943 JUMP JUMPDEST PUSH1 0x40 MLOAD DUP1 SWAP2 SUB SWAP1 RETURN JUMPDEST PUSH2 0x39B PUSH1 0x4 DUP1 CALLDATASIZE SUB DUP2 ADD SWAP1 PUSH2 0x396 SWAP2 SWAP1 PUSH2 0x3782 JUMP JUMPDEST PUSH2 0x200A JUMP JUMPDEST PUSH1 0x40 MLOAD PUSH2 0x3A8 SWAP2 SWAP1 PUSH2 0x409C JUMP JUMPDEST PUSH1 0x40 MLOAD DUP1 SWAP2 SUB SWAP1 RETURN JUMPDEST PUSH2 0x3CB PUSH1 0x4 DUP1 CALLDATASIZE SUB DUP2 ADD SWAP1 PUSH2 0x3C6 SWAP2 SWAP1 PUSH2 0x40B5 JUMP JUMPDEST PUSH2 0x2034 JUMP JUMPDEST PUSH1 0x40 MLOAD PUSH2 0x3D8 SWAP2 SWAP1 PUSH2 0x3C80 JUMP JUMPDEST PUSH1 0x40 MLOAD DUP1 SWAP2 SUB SWAP1 RETURN JUMPDEST PUSH2 0x3FB PUSH1 0x4 DUP1 CALLDATASIZE SUB DUP2 ADD SWAP1 PUSH2 0x3F6 SWAP2 SWAP1 PUSH2 0x40B5 JUMP JUMPDEST PUSH2 0x207C JUMP JUMPDEST PUSH1 0x40 MLOAD PUSH2 0x408 SWAP2 SWAP1 PUSH2 0x419B JUMP JUMPDEST PUSH1 0x40 MLOAD DUP1 SWAP2 SUB SWAP1 RETURN JUMPDEST PUSH2 0x42B PUSH1 0x4 DUP1 CALLDATASIZE SUB DUP2 ADD SWAP1 PUSH2 0x426 SWAP2 SWAP1 PUSH2 0x36A2 JUMP JUMPDEST PUSH2 0x2096 JUMP JUMPDEST PUSH1 0x40 MLOAD PUSH2 0x438 SWAP2 SWAP1 PUSH2 0x370F JUMP JUMPDEST PUSH1 0x40 MLOAD DUP1 SWAP2 SUB SWAP1 RETURN JUMPDEST PUSH2 0x45B PUSH1 0x4 DUP1 CALLDATASIZE SUB DUP2 ADD SWAP1 PUSH2 0x456 SWAP2 SWAP1 PUSH2 0x36A2 JUMP JUMPDEST PUSH2 0x223A JUMP JUMPDEST PUSH1 0x40 MLOAD PUSH2 0x46D SWAP7 SWAP6 SWAP5 SWAP4 SWAP3 SWAP2 SWAP1 PUSH2 0x41BB JUMP JUMPDEST PUSH1 0x40 MLOAD DUP1 SWAP2 SUB SWAP1 RETURN JUMPDEST PUSH2 0x490 PUSH1 0x4 DUP1 CALLDATASIZE SUB DUP2 ADD SWAP1 PUSH2 0x48B SWAP2 SWAP1 PUSH2 0x421A JUMP JUMPDEST PUSH2 0x22B0 JUMP JUMPDEST STOP JUMPDEST PUSH0 PUSH2 0x4DF DUP5 DUP5 DUP1 DUP1 PUSH1 0x1F ADD PUSH1 0x20 DUP1 SWAP2 DIV MUL PUSH1 0x20 ADD PUSH1 0x40 MLOAD SWAP1 DUP2 ADD PUSH1 0x40 MSTORE DUP1 SWAP4 SWAP3 SWAP2 SWAP1 DUP2 DUP2 MSTORE PUSH1 0x20 ADD DUP4 DUP4 DUP1 DUP3 DUP5 CALLDATACOPY PUSH0 DUP2 DUP5 ADD MSTORE PUSH1 0x1F NOT PUSH1 0x1F DUP3 ADD AND SWAP1 POP DUP1 DUP4 ADD SWAP3 POP POP POP POP POP POP POP PUSH2 0x28A9 JUMP JUMPDEST SWAP1 POP PUSH0 PUSH2 0x4EB DUP4 PUSH2 0x9C7 JUMP JUMPDEST SWAP1 POP PUSH0 PUSH1 0x4 PUSH0 DUP6 DUP2 MSTORE PUSH1 0x20 ADD SWAP1 DUP2 MSTORE PUSH1 0x20 ADD PUSH0 KECCAK256 PUSH0 CALLER PUSH20 0xFFFFFFFFFFFFFFFFFFFFFFFFFFFFFFFFFFFFFFFF AND PUSH20 0xFFFFFFFFFFFFFFFFFFFFFFFFFFFFFFFFFFFFFFFF AND DUP2 MSTORE PUSH1 0x20 ADD SWAP1 DUP2 MSTORE PUSH1 0x20 ADD PUSH0 KECCAK256 PUSH1 0x40 MLOAD DUP1 PUSH2 0x100 ADD PUSH1 0x40 MSTORE SWAP1 DUP2 PUSH0 DUP3 ADD DUP1 SLOAD PUSH2 0x555 SWAP1 PUSH2 0x42B3 JUMP JUMPDEST DUP1 PUSH1 0x1F ADD PUSH1 0x20 DUP1 SWAP2 DIV MUL PUSH1 0x20 ADD PUSH1 0x40 MLOAD SWAP1 DUP2 ADD PUSH1 0x40 MSTORE DUP1 SWAP3 SWAP2 SWAP1 DUP2 DUP2 MSTORE PUSH1 0x20 ADD DUP3 DUP1 SLOAD PUSH2 0x581 SWAP1 PUSH2 0x42B3 JUMP JUMPDEST DUP1 ISZERO PUSH2 0x5CC JUMPI DUP1 PUSH1 0x1F LT PUSH2 0x5A3 JUMPI PUSH2 0x100 DUP1 DUP4 SLOAD DIV MUL DUP4 MSTORE SWAP2 PUSH1 0x20 ADD SWAP2 PUSH2 0x5CC JUMP JUMPDEST DUP3 ADD SWAP2 SWAP1 PUSH0 MSTORE PUSH1 0x20 PUSH0 KECCAK256 SWAP1 JUMPDEST DUP2 SLOAD DUP2 MSTORE SWAP1 PUSH1 0x1 ADD SWAP1 PUSH1 0x20 ADD DUP1 DUP4 GT PUSH2 0x5AF JUMPI DUP3 SWAP1 SUB PUSH1 0x1F AND DUP3 ADD SWAP2 JUMPDEST POP POP POP POP POP DUP2 MSTORE PUSH1 0x20 ADD PUSH1 0x1 DUP3 ADD PUSH0 SWAP1 SLOAD SWAP1 PUSH2 0x100 EXP SWAP1 DIV PUSH20 0xFFFFFFFFFFFFFFFFFFFFFFFFFFFFFFFFFFFFFFFF AND PUSH20 0xFFFFFFFFFFFFFFFFFFFFFFFFFFFFFFFFFFFFFFFF AND PUSH20 0xFFFFFFFFFFFFFFFFFFFFFFFFFFFFFFFFFFFFFFFF AND DUP2 MSTORE PUSH1 0x20 ADD PUSH1 0x2 DUP3 ADD SLOAD DUP2 MSTORE PUSH1 0x20 ADD PUSH1 0x3 DUP3 ADD SLOAD DUP2 MSTORE PUSH1 0x20 ADD PUSH1 0x4 DUP3 ADD SLOAD DUP2 MSTORE PUSH1 0x20 ADD PUSH1 0x5 DUP3 ADD SLOAD DUP2 MSTORE PUSH1 0x20 ADD PUSH1 0x6 DUP3 ADD PUSH0 SWAP1 SLOAD SWAP1 PUSH2 0x100 EXP SWAP1 DIV PUSH4 0xFFFFFFFF AND PUSH4 0xFFFFFFFF AND PUSH4 0xFFFFFFFF AND DUP2 MSTORE PUSH1 0x20 ADD PUSH1 0x7 DUP3 ADD SLOAD DUP2 MSTORE POP POP SWAP1 POP PUSH0 PUSH1 0x2 PUSH0 DUP7 DUP2 MSTORE PUSH1 0x20 ADD SWAP1 DUP2 MSTORE PUSH1 0x20 ADD PUSH0 KECCAK256 PUSH1 0x40 MLOAD DUP1 PUSH1 0xC0 ADD PUSH1 0x40 MSTORE SWAP1 DUP2 PUSH0 DUP3 ADD SLOAD DUP2 MSTORE PUSH1 0x20 ADD PUSH1 0x1 DUP3 ADD PUSH0 SWAP1 SLOAD SWAP1 PUSH2 0x100 EXP SWAP1 DIV PUSH20 0xFFFFFFFFFFFFFFFFFFFFFFFFFFFFFFFFFFFFFFFF AND PUSH20 0xFFFFFFFFFFFFFFFFFFFFFFFFFFFFFFFFFFFFFFFF AND PUSH20 0xFFFFFFFFFFFFFFFFFFFFFFFFFFFFFFFFFFFFFFFF AND DUP2 MSTORE PUSH1 0x20 ADD PUSH1 0x2 DUP3 ADD SLOAD DUP2 MSTORE PUSH1 0x20 ADD PUSH1 0x3 DUP3 ADD SLOAD DUP2 MSTORE PUSH1 0x20 ADD PUSH1 0x4 DUP3 ADD SLOAD DUP2 MSTORE PUSH1 0x20 ADD PUSH1 0x5 DUP3 ADD PUSH0 SWAP1 SLOAD SWAP1 PUSH2 0x100 EXP SWAP1 DIV PUSH20 0xFFFFFFFFFFFFFFFFFFFFFFFFFFFFFFFFFFFFFFFF AND PUSH20 0xFFFFFFFFFFFFFFFFFFFFFFFFFFFFFFFFFFFFFFFF AND PUSH20 0xFFFFFFFFFFFFFFFFFFFFFFFFFFFFFFFFFFFFFFFF AND DUP2 MSTORE POP POP SWAP1 POP PUSH2 0x781 DUP3 PUSH1 0x80 ADD MLOAD DUP6 PUSH2 0x28BC JUMP JUMPDEST DUP3 PUSH1 0x80 ADD DUP2 DUP2 MSTORE POP POP PUSH2 0x7A9 PUSH5 0x100000000 TIMESTAMP PUSH2 0x79E SWAP2 SWAP1 PUSH2 0x4310 JUMP JUMPDEST PUSH4 0xFFFFFFFF AND PUSH2 0x2902 JUMP JUMPDEST DUP3 PUSH1 0xE0 ADD DUP2 DUP2 MSTORE POP POP PUSH2 0x7C0 DUP2 PUSH1 0x60 ADD MLOAD DUP6 PUSH2 0x28BC JUMP JUMPDEST DUP2 PUSH1 0x60 ADD DUP2 DUP2 MSTORE POP POP PUSH2 0x7DB PUSH2 0x7D6 DUP5 DUP7 PUSH2 0x2915 JUMP JUMPDEST PUSH2 0x2964 JUMP JUMPDEST PUSH2 0x7F5 PUSH2 0x7F0 DUP4 PUSH1 0x40 ADD MLOAD DUP5 PUSH1 0x80 ADD MLOAD PUSH2 0x2915 JUMP JUMPDEST PUSH2 0x2964 JUMP JUMPDEST DUP2 PUSH1 0x4 PUSH0 DUP8 DUP2 MSTORE PUSH1 0x20 ADD SWAP1 DUP2 MSTORE PUSH1 0x20 ADD PUSH0 KECCAK256 PUSH0 CALLER PUSH20 0xFFFFFFFFFFFFFFFFFFFFFFFFFFFFFFFFFFFFFFFF AND PUSH20 0xFFFFFFFFFFFFFFFFFFFFFFFFFFFFFFFFFFFFFFFF AND DUP2 MSTORE PUSH1 0x20 ADD SWAP1 DUP2 MSTORE PUSH1 0x20 ADD PUSH0 KECCAK256 PUSH0 DUP3 ADD MLOAD DUP2 PUSH0 ADD SWAP1 DUP2 PUSH2 0x855 SWAP2 SWAP1 PUSH2 0x44B3 JUMP JUMPDEST POP PUSH1 0x20 DUP3 ADD MLOAD DUP2 PUSH1 0x1 ADD PUSH0 PUSH2 0x100 EXP DUP2 SLOAD DUP2 PUSH20 0xFFFFFFFFFFFFFFFFFFFFFFFFFFFFFFFFFFFFFFFF MUL NOT AND SWAP1 DUP4 PUSH20 0xFFFFFFFFFFFFFFFFFFFFFFFFFFFFFFFFFFFFFFFF AND MUL OR SWAP1 SSTORE POP PUSH1 0x40 DUP3 ADD MLOAD DUP2 PUSH1 0x2 ADD SSTORE PUSH1 0x60 DUP3 ADD MLOAD DUP2 PUSH1 0x3 ADD SSTORE PUSH1 0x80 DUP3 ADD MLOAD DUP2 PUSH1 0x4 ADD SSTORE PUSH1 0xA0 DUP3 ADD MLOAD DUP2 PUSH1 0x5 ADD SSTORE PUSH1 0xC0 DUP3 ADD MLOAD DUP2 PUSH1 0x6 ADD PUSH0 PUSH2 0x100 EXP DUP2 SLOAD DUP2 PUSH4 0xFFFFFFFF MUL NOT AND SWAP1 DUP4 PUSH4 0xFFFFFFFF AND MUL OR SWAP1 SSTORE POP PUSH1 0xE0 DUP3 ADD MLOAD DUP2 PUSH1 0x7 ADD SSTORE SWAP1 POP POP DUP1 PUSH1 0x2 PUSH0 DUP8 DUP2 MSTORE PUSH1 0x20 ADD SWAP1 DUP2 MSTORE PUSH1 0x20 ADD PUSH0 KECCAK256 PUSH0 DUP3 ADD MLOAD DUP2 PUSH0 ADD SSTORE PUSH1 0x20 DUP3 ADD MLOAD DUP2 PUSH1 0x1 ADD PUSH0 PUSH2 0x100 EXP DUP2 SLOAD DUP2 PUSH20 0xFFFFFFFFFFFFFFFFFFFFFFFFFFFFFFFFFFFFFFFF MUL NOT AND SWAP1 DUP4 PUSH20 0xFFFFFFFFFFFFFFFFFFFFFFFFFFFFFFFFFFFFFFFF AND MUL OR SWAP1 SSTORE POP PUSH1 0x40 DUP3 ADD MLOAD DUP2 PUSH1 0x2 ADD SSTORE PUSH1 0x60 DUP3 ADD MLOAD DUP2 PUSH1 0x3 ADD SSTORE PUSH1 0x80 DUP3 ADD MLOAD DUP2 PUSH1 0x4 ADD SSTORE PUSH1 0xA0 DUP3 ADD MLOAD DUP2 PUSH1 0x5 ADD PUSH0 PUSH2 0x100 EXP DUP2 SLOAD DUP2 PUSH20 0xFFFFFFFFFFFFFFFFFFFFFFFFFFFFFFFFFFFFFFFF MUL NOT AND SWAP1 DUP4 PUSH20 0xFFFFFFFFFFFFFFFFFFFFFFFFFFFFFFFFFFFFFFFF AND MUL OR SWAP1 SSTORE POP SWAP1 POP POP POP POP POP POP POP POP POP JUMP JUMPDEST PUSH0 DUP1 PUSH1 0x4 PUSH0 DUP5 DUP2 MSTORE PUSH1 0x20 ADD SWAP1 DUP2 MSTORE PUSH1 0x20 ADD PUSH0 KECCAK256 PUSH0 CALLER PUSH20 0xFFFFFFFFFFFFFFFFFFFFFFFFFFFFFFFFFFFFFFFF AND PUSH20 0xFFFFFFFFFFFFFFFFFFFFFFFFFFFFFFFFFFFFFFFF AND DUP2 MSTORE PUSH1 0x20 ADD SWAP1 DUP2 MSTORE PUSH1 0x20 ADD PUSH0 KECCAK256 PUSH1 0x40 MLOAD DUP1 PUSH2 0x100 ADD PUSH1 0x40 MSTORE SWAP1 DUP2 PUSH0 DUP3 ADD DUP1 SLOAD PUSH2 0xA30 SWAP1 PUSH2 0x42B3 JUMP JUMPDEST DUP1 PUSH1 0x1F ADD PUSH1 0x20 DUP1 SWAP2 DIV MUL PUSH1 0x20 ADD PUSH1 0x40 MLOAD SWAP1 DUP2 ADD PUSH1 0x40 MSTORE DUP1 SWAP3 SWAP2 SWAP1 DUP2 DUP2 MSTORE PUSH1 0x20 ADD DUP3 DUP1 SLOAD PUSH2 0xA5C SWAP1 PUSH2 0x42B3 JUMP JUMPDEST DUP1 ISZERO PUSH2 0xAA7 JUMPI DUP1 PUSH1 0x1F LT PUSH2 0xA7E JUMPI PUSH2 0x100 DUP1 DUP4 SLOAD DIV MUL DUP4 MSTORE SWAP2 PUSH1 0x20 ADD SWAP2 PUSH2 0xAA7 JUMP JUMPDEST DUP3 ADD SWAP2 SWAP1 PUSH0 MSTORE PUSH1 0x20 PUSH0 KECCAK256 SWAP1 JUMPDEST DUP2 SLOAD DUP2 MSTORE SWAP1 PUSH1 0x1 ADD SWAP1 PUSH1 0x20 ADD DUP1 DUP4 GT PUSH2 0xA8A JUMPI DUP3 SWAP1 SUB PUSH1 0x1F AND DUP3 ADD SWAP2 JUMPDEST POP POP POP POP POP DUP2 MSTORE PUSH1 0x20 ADD PUSH1 0x1 DUP3 ADD PUSH0 SWAP1 SLOAD SWAP1 PUSH2 0x100 EXP SWAP1 DIV PUSH20 0xFFFFFFFFFFFFFFFFFFFFFFFFFFFFFFFFFFFFFFFF AND PUSH20 0xFFFFFFFFFFFFFFFFFFFFFFFFFFFFFFFFFFFFFFFF AND PUSH20 0xFFFFFFFFFFFFFFFFFFFFFFFFFFFFFFFFFFFFFFFF AND DUP2 MSTORE PUSH1 0x20 ADD PUSH1 0x2 DUP3 ADD SLOAD DUP2 MSTORE PUSH1 0x20 ADD PUSH1 0x3 DUP3 ADD SLOAD DUP2 MSTORE PUSH1 0x20 ADD PUSH1 0x4 DUP3 ADD SLOAD DUP2 MSTORE PUSH1 0x20 ADD PUSH1 0x5 DUP3 ADD SLOAD DUP2 MSTORE PUSH1 0x20 ADD PUSH1 0x6 DUP3 ADD PUSH0 SWAP1 SLOAD SWAP1 PUSH2 0x100 EXP SWAP1 DIV PUSH4 0xFFFFFFFF AND PUSH4 0xFFFFFFFF AND PUSH4 0xFFFFFFFF AND DUP2 MSTORE PUSH1 0x20 ADD PUSH1 0x7 DUP3 ADD SLOAD DUP2 MSTORE POP POP SWAP1 POP DUP1 PUSH1 0x60 ADD MLOAD SWAP2 POP POP SWAP2 SWAP1 POP JUMP JUMPDEST PUSH1 0x4 PUSH1 0x20 MSTORE DUP2 PUSH0 MSTORE PUSH1 0x40 PUSH0 KECCAK256 PUSH1 0x20 MSTORE DUP1 PUSH0 MSTORE PUSH1 0x40 PUSH0 KECCAK256 PUSH0 SWAP2 POP SWAP2 POP POP DUP1 PUSH0 ADD DUP1 SLOAD PUSH2 0xB95 SWAP1 PUSH2 0x42B3 JUMP JUMPDEST DUP1 PUSH1 0x1F ADD PUSH1 0x20 DUP1 SWAP2 DIV MUL PUSH1 0x20 ADD PUSH1 0x40 MLOAD SWAP1 DUP2 ADD PUSH1 0x40 MSTORE DUP1 SWAP3 SWAP2 SWAP1 DUP2 DUP2 MSTORE PUSH1 0x20 ADD DUP3 DUP1 SLOAD PUSH2 0xBC1 SWAP1 PUSH2 0x42B3 JUMP JUMPDEST DUP1 ISZERO PUSH2 0xC0C JUMPI DUP1 PUSH1 0x1F LT PUSH2 0xBE3 JUMPI PUSH2 0x100 DUP1 DUP4 SLOAD DIV MUL DUP4 MSTORE SWAP2 PUSH1 0x20 ADD SWAP2 PUSH2 0xC0C JUMP JUMPDEST DUP3 ADD SWAP2 SWAP1 PUSH0 MSTORE PUSH1 0x20 PUSH0 KECCAK256 SWAP1 JUMPDEST DUP2 SLOAD DUP2 MSTORE SWAP1 PUSH1 0x1 ADD SWAP1 PUSH1 0x20 ADD DUP1 DUP4 GT PUSH2 0xBEF JUMPI DUP3 SWAP1 SUB PUSH1 0x1F AND DUP3 ADD SWAP2 JUMPDEST POP POP POP POP POP SWAP1 DUP1 PUSH1 0x1 ADD PUSH0 SWAP1 SLOAD SWAP1 PUSH2 0x100 EXP SWAP1 DIV PUSH20 0xFFFFFFFFFFFFFFFFFFFFFFFFFFFFFFFFFFFFFFFF AND SWAP1 DUP1 PUSH1 0x2 ADD SLOAD SWAP1 DUP1 PUSH1 0x3 ADD SLOAD SWAP1 DUP1 PUSH1 0x4 ADD SLOAD SWAP1 DUP1 PUSH1 0x5 ADD SLOAD SWAP1 DUP1 PUSH1 0x6 ADD PUSH0 SWAP1 SLOAD SWAP1 PUSH2 0x100 EXP SWAP1 DIV PUSH4 0xFFFFFFFF AND SWAP1 DUP1 PUSH1 0x7 ADD SLOAD SWAP1 POP DUP9 JUMP JUMPDEST PUSH0 PUSH1 0x7 PUSH0 DUP4 PUSH20 0xFFFFFFFFFFFFFFFFFFFFFFFFFFFFFFFFFFFFFFFF AND PUSH20 0xFFFFFFFFFFFFFFFFFFFFFFFFFFFFFFFFFFFFFFFF AND DUP2 MSTORE PUSH1 0x20 ADD SWAP1 DUP2 MSTORE PUSH1 0x20 ADD PUSH0 KECCAK256 SLOAD SWAP1 POP SWAP2 SWAP1 POP JUMP JUMPDEST CALLER PUSH20 0xFFFFFFFFFFFFFFFFFFFFFFFFFFFFFFFFFFFFFFFF AND PUSH1 0x6 PUSH0 SWAP1 SLOAD SWAP1 PUSH2 0x100 EXP SWAP1 DIV PUSH20 0xFFFFFFFFFFFFFFFFFFFFFFFFFFFFFFFFFFFFFFFF AND PUSH20 0xFFFFFFFFFFFFFFFFFFFFFFFFFFFFFFFFFFFFFFFF AND EQ PUSH2 0xD0C JUMPI PUSH0 DUP1 REVERT JUMPDEST DUP2 PUSH1 0x5 PUSH0 DUP4 DUP2 MSTORE PUSH1 0x20 ADD SWAP1 DUP2 MSTORE PUSH1 0x20 ADD PUSH0 KECCAK256 PUSH0 DUP3 ADD MLOAD DUP2 PUSH0 ADD SSTORE PUSH1 0x20 DUP3 ADD MLOAD DUP2 PUSH1 0x1 ADD SSTORE PUSH1 0x40 DUP3 ADD MLOAD DUP2 PUSH1 0x2 ADD SSTORE PUSH1 0x60 DUP3 ADD MLOAD DUP2 PUSH1 0x3 ADD SSTORE PUSH1 0x80 DUP3 ADD MLOAD DUP2 PUSH1 0x4 ADD SSTORE PUSH1 0xA0 DUP3 ADD MLOAD DUP2 PUSH1 0x5 ADD SSTORE PUSH1 0xC0 DUP3 ADD MLOAD DUP2 PUSH1 0x6 ADD SSTORE SWAP1 POP POP POP POP JUMP JUMPDEST PUSH2 0xD71 PUSH2 0x34EA JUMP JUMPDEST PUSH1 0x2 PUSH0 DUP4 DUP2 MSTORE PUSH1 0x20 ADD SWAP1 DUP2 MSTORE PUSH1 0x20 ADD PUSH0 KECCAK256 PUSH1 0x40 MLOAD DUP1 PUSH1 0xC0 ADD PUSH1 0x40 MSTORE SWAP1 DUP2 PUSH0 DUP3 ADD SLOAD DUP2 MSTORE PUSH1 0x20 ADD PUSH1 0x1 DUP3 ADD PUSH0 SWAP1 SLOAD SWAP1 PUSH2 0x100 EXP SWAP1 DIV PUSH20 0xFFFFFFFFFFFFFFFFFFFFFFFFFFFFFFFFFFFFFFFF AND PUSH20 0xFFFFFFFFFFFFFFFFFFFFFFFFFFFFFFFFFFFFFFFF AND PUSH20 0xFFFFFFFFFFFFFFFFFFFFFFFFFFFFFFFFFFFFFFFF AND DUP2 MSTORE PUSH1 0x20 ADD PUSH1 0x2 DUP3 ADD SLOAD DUP2 MSTORE PUSH1 0x20 ADD PUSH1 0x3 DUP3 ADD SLOAD DUP2 MSTORE PUSH1 0x20 ADD PUSH1 0x4 DUP3 ADD SLOAD DUP2 MSTORE PUSH1 0x20 ADD PUSH1 0x5 DUP3 ADD PUSH0 SWAP1 SLOAD SWAP1 PUSH2 0x100 EXP SWAP1 DIV PUSH20 0xFFFFFFFFFFFFFFFFFFFFFFFFFFFFFFFFFFFFFFFF AND PUSH20 0xFFFFFFFFFFFFFFFFFFFFFFFFFFFFFFFFFFFFFFFF AND PUSH20 0xFFFFFFFFFFFFFFFFFFFFFFFFFFFFFFFFFFFFFFFF AND DUP2 MSTORE POP POP SWAP1 POP SWAP2 SWAP1 POP JUMP JUMPDEST PUSH0 PUSH2 0xEB2 DUP5 DUP5 DUP1 DUP1 PUSH1 0x1F ADD PUSH1 0x20 DUP1 SWAP2 DIV MUL PUSH1 0x20 ADD PUSH1 0x40 MLOAD SWAP1 DUP2 ADD PUSH1 0x40 MSTORE DUP1 SWAP4 SWAP3 SWAP2 SWAP1 DUP2 DUP2 MSTORE PUSH1 0x20 ADD DUP4 DUP4 DUP1 DUP3 DUP5 CALLDATACOPY PUSH0 DUP2 DUP5 ADD MSTORE PUSH1 0x1F NOT PUSH1 0x1F DUP3 ADD AND SWAP1 POP DUP1 DUP4 ADD SWAP3 POP POP POP POP POP POP POP PUSH2 0x28A9 JUMP JUMPDEST SWAP1 POP PUSH0 PUSH1 0x2 PUSH0 DUP5 DUP2 MSTORE PUSH1 0x20 ADD SWAP1 DUP2 MSTORE PUSH1 0x20 ADD PUSH0 KECCAK256 PUSH1 0x40 MLOAD DUP1 PUSH1 0xC0 ADD PUSH1 0x40 MSTORE SWAP1 DUP2 PUSH0 DUP3 ADD SLOAD DUP2 MSTORE PUSH1 0x20 ADD PUSH1 0x1 DUP3 ADD PUSH0 SWAP1 SLOAD SWAP1 PUSH2 0x100 EXP SWAP1 DIV PUSH20 0xFFFFFFFFFFFFFFFFFFFFFFFFFFFFFFFFFFFFFFFF AND PUSH20 0xFFFFFFFFFFFFFFFFFFFFFFFFFFFFFFFFFFFFFFFF AND PUSH20 0xFFFFFFFFFFFFFFFFFFFFFFFFFFFFFFFFFFFFFFFF AND DUP2 MSTORE PUSH1 0x20 ADD PUSH1 0x2 DUP3 ADD SLOAD DUP2 MSTORE PUSH1 0x20 ADD PUSH1 0x3 DUP3 ADD SLOAD DUP2 MSTORE PUSH1 0x20 ADD PUSH1 0x4 DUP3 ADD SLOAD DUP2 MSTORE PUSH1 0x20 ADD PUSH1 0x5 DUP3 ADD PUSH0 SWAP1 SLOAD SWAP1 PUSH2 0x100 EXP SWAP1 DIV PUSH20 0xFFFFFFFFFFFFFFFFFFFFFFFFFFFFFFFFFFFFFFFF AND PUSH20 0xFFFFFFFFFFFFFFFFFFFFFFFFFFFFFFFFFFFFFFFF AND PUSH20 0xFFFFFFFFFFFFFFFFFFFFFFFFFFFFFFFFFFFFFFFF AND DUP2 MSTORE POP POP SWAP1 POP DUP1 PUSH1 0x20 ADD MLOAD PUSH20 0xFFFFFFFFFFFFFFFFFFFFFFFFFFFFFFFFFFFFFFFF AND CALLER PUSH20 0xFFFFFFFFFFFFFFFFFFFFFFFFFFFFFFFFFFFFFFFF AND EQ PUSH2 0x1016 JUMPI PUSH1 0x40 MLOAD PUSH32 0x8C379A000000000000000000000000000000000000000000000000000000000 DUP2 MSTORE PUSH1 0x4 ADD PUSH2 0x100D SWAP1 PUSH2 0x45CC JUMP JUMPDEST PUSH1 0x40 MLOAD DUP1 SWAP2 SUB SWAP1 REVERT JUMPDEST PUSH0 PUSH1 0x4 PUSH0 DUP6 DUP2 MSTORE PUSH1 0x20 ADD SWAP1 DUP2 MSTORE PUSH1 0x20 ADD PUSH0 KECCAK256 PUSH0 DUP9 PUSH20 0xFFFFFFFFFFFFFFFFFFFFFFFFFFFFFFFFFFFFFFFF AND PUSH20 0xFFFFFFFFFFFFFFFFFFFFFFFFFFFFFFFFFFFFFFFF AND DUP2 MSTORE PUSH1 0x20 ADD SWAP1 DUP2 MSTORE PUSH1 0x20 ADD PUSH0 KECCAK256 PUSH1 0x40 MLOAD DUP1 PUSH2 0x100 ADD PUSH1 0x40 MSTORE SWAP1 DUP2 PUSH0 DUP3 ADD DUP1 SLOAD PUSH2 0x107E SWAP1 PUSH2 0x42B3 JUMP JUMPDEST DUP1 PUSH1 0x1F ADD PUSH1 0x20 DUP1 SWAP2 DIV MUL PUSH1 0x20 ADD PUSH1 0x40 MLOAD SWAP1 DUP2 ADD PUSH1 0x40 MSTORE DUP1 SWAP3 SWAP2 SWAP1 DUP2 DUP2 MSTORE PUSH1 0x20 ADD DUP3 DUP1 SLOAD PUSH2 0x10AA SWAP1 PUSH2 0x42B3 JUMP JUMPDEST DUP1 ISZERO PUSH2 0x10F5 JUMPI DUP1 PUSH1 0x1F LT PUSH2 0x10CC JUMPI PUSH2 0x100 DUP1 DUP4 SLOAD DIV MUL DUP4 MSTORE SWAP2 PUSH1 0x20 ADD SWAP2 PUSH2 0x10F5 JUMP JUMPDEST DUP3 ADD SWAP2 SWAP1 PUSH0 MSTORE PUSH1 0x20 PUSH0 KECCAK256 SWAP1 JUMPDEST DUP2 SLOAD DUP2 MSTORE SWAP1 PUSH1 0x1 ADD SWAP1 PUSH1 0x20 ADD DUP1 DUP4 GT PUSH2 0x10D8 JUMPI DUP3 SWAP1 SUB PUSH1 0x1F AND DUP3 ADD SWAP2 JUMPDEST POP POP POP POP POP DUP2 MSTORE PUSH1 0x20 ADD PUSH1 0x1 DUP3 ADD PUSH0 SWAP1 SLOAD SWAP1 PUSH2 0x100 EXP SWAP1 DIV PUSH20 0xFFFFFFFFFFFFFFFFFFFFFFFFFFFFFFFFFFFFFFFF AND PUSH20 0xFFFFFFFFFFFFFFFFFFFFFFFFFFFFFFFFFFFFFFFF AND PUSH20 0xFFFFFFFFFFFFFFFFFFFFFFFFFFFFFFFFFFFFFFFF AND DUP2 MSTORE PUSH1 0x20 ADD PUSH1 0x2 DUP3 ADD SLOAD DUP2 MSTORE PUSH1 0x20 ADD PUSH1 0x3 DUP3 ADD SLOAD DUP2 MSTORE PUSH1 0x20 ADD PUSH1 0x4 DUP3 ADD SLOAD DUP2 MSTORE PUSH1 0x20 ADD PUSH1 0x5 DUP3 ADD SLOAD DUP2 MSTORE PUSH1 0x20 ADD PUSH1 0x6 DUP3 ADD PUSH0 SWAP1 SLOAD SWAP1 PUSH2 0x100 EXP SWAP1 DIV PUSH4 0xFFFFFFFF AND PUSH4 0xFFFFFFFF AND PUSH4 0xFFFFFFFF AND DUP2 MSTORE PUSH1 0x20 ADD PUSH1 0x7 DUP3 ADD SLOAD DUP2 MSTORE POP POP SWAP1 POP PUSH2 0x11BA DUP4 DUP3 PUSH1 0x40 ADD MLOAD PUSH2 0x28BC JUMP JUMPDEST DUP2 PUSH1 0x40 ADD DUP2 DUP2 MSTORE POP POP PUSH2 0x11D1 DUP3 PUSH1 0x40 ADD MLOAD DUP5 PUSH2 0x28BC JUMP JUMPDEST DUP3 PUSH1 0x40 ADD DUP2 DUP2 MSTORE POP POP PUSH5 0x100000000 TIMESTAMP PUSH2 0x11EB SWAP2 SWAP1 PUSH2 0x4310 JUMP JUMPDEST DUP2 PUSH1 0xC0 ADD SWAP1 PUSH4 0xFFFFFFFF AND SWAP1 DUP2 PUSH4 0xFFFFFFFF AND DUP2 MSTORE POP POP DUP1 PUSH1 0x4 PUSH0 DUP7 DUP2 MSTORE PUSH1 0x20 ADD SWAP1 DUP2 MSTORE PUSH1 0x20 ADD PUSH0 KECCAK256 PUSH0 DUP10 PUSH20 0xFFFFFFFFFFFFFFFFFFFFFFFFFFFFFFFFFFFFFFFF AND PUSH20 0xFFFFFFFFFFFFFFFFFFFFFFFFFFFFFFFFFFFFFFFF AND DUP2 MSTORE PUSH1 0x20 ADD SWAP1 DUP2 MSTORE PUSH1 0x20 ADD PUSH0 KECCAK256 PUSH0 DUP3 ADD MLOAD DUP2 PUSH0 ADD SWAP1 DUP2 PUSH2 0x1262 SWAP2 SWAP1 PUSH2 0x44B3 JUMP JUMPDEST POP PUSH1 0x20 DUP3 ADD MLOAD DUP2 PUSH1 0x1 ADD PUSH0 PUSH2 0x100 EXP DUP2 SLOAD DUP2 PUSH20 0xFFFFFFFFFFFFFFFFFFFFFFFFFFFFFFFFFFFFFFFF MUL NOT AND SWAP1 DUP4 PUSH20 0xFFFFFFFFFFFFFFFFFFFFFFFFFFFFFFFFFFFFFFFF AND MUL OR SWAP1 SSTORE POP PUSH1 0x40 DUP3 ADD MLOAD DUP2 PUSH1 0x2 ADD SSTORE PUSH1 0x60 DUP3 ADD MLOAD DUP2 PUSH1 0x3 ADD SSTORE PUSH1 0x80 DUP3 ADD MLOAD DUP2 PUSH1 0x4 ADD SSTORE PUSH1 0xA0 DUP3 ADD MLOAD DUP2 PUSH1 0x5 ADD SSTORE PUSH1 0xC0 DUP3 ADD MLOAD DUP2 PUSH1 0x6 ADD PUSH0 PUSH2 0x100 EXP DUP2 SLOAD DUP2 PUSH4 0xFFFFFFFF MUL NOT AND SWAP1 DUP4 PUSH4 0xFFFFFFFF AND MUL OR SWAP1 SSTORE POP PUSH1 0xE0 DUP3 ADD MLOAD DUP2 PUSH1 0x7 ADD SSTORE SWAP1 POP POP DUP2 PUSH1 0x2 PUSH0 DUP7 DUP2 MSTORE PUSH1 0x20 ADD SWAP1 DUP2 MSTORE PUSH1 0x20 ADD PUSH0 KECCAK256 PUSH0 DUP3 ADD MLOAD DUP2 PUSH0 ADD SSTORE PUSH1 0x20 DUP3 ADD MLOAD DUP2 PUSH1 0x1 ADD PUSH0 PUSH2 0x100 EXP DUP2 SLOAD DUP2 PUSH20 0xFFFFFFFFFFFFFFFFFFFFFFFFFFFFFFFFFFFFFFFF MUL NOT AND SWAP1 DUP4 PUSH20 0xFFFFFFFFFFFFFFFFFFFFFFFFFFFFFFFFFFFFFFFF AND MUL OR SWAP1 SSTORE POP PUSH1 0x40 DUP3 ADD MLOAD DUP2 PUSH1 0x2 ADD SSTORE PUSH1 0x60 DUP3 ADD MLOAD DUP2 PUSH1 0x3 ADD SSTORE PUSH1 0x80 DUP3 ADD MLOAD DUP2 PUSH1 0x4 ADD SSTORE PUSH1 0xA0 DUP3 ADD MLOAD DUP2 PUSH1 0x5 ADD PUSH0 PUSH2 0x100 EXP DUP2 SLOAD DUP2 PUSH20 0xFFFFFFFFFFFFFFFFFFFFFFFFFFFFFFFFFFFFFFFF MUL NOT AND SWAP1 DUP4 PUSH20 0xFFFFFFFFFFFFFFFFFFFFFFFFFFFFFFFFFFFFFFFF AND MUL OR SWAP1 SSTORE POP SWAP1 POP POP POP POP POP POP POP POP POP JUMP JUMPDEST PUSH1 0x5 PUSH1 0x20 MSTORE DUP1 PUSH0 MSTORE PUSH1 0x40 PUSH0 KECCAK256 PUSH0 SWAP2 POP SWAP1 POP DUP1 PUSH0 ADD SLOAD SWAP1 DUP1 PUSH1 0x1 ADD SLOAD SWAP1 DUP1 PUSH1 0x2 ADD SLOAD SWAP1 DUP1 PUSH1 0x3 ADD SLOAD SWAP1 DUP1 PUSH1 0x4 ADD SLOAD SWAP1 DUP1 PUSH1 0x5 ADD SLOAD SWAP1 DUP1 PUSH1 0x6 ADD SLOAD SWAP1 POP DUP8 JUMP JUMPDEST PUSH0 DUP1 PUSH1 0x5 PUSH0 DUP5 DUP2 MSTORE PUSH1 0x20 ADD SWAP1 DUP2 MSTORE PUSH1 0x20 ADD PUSH0 KECCAK256 PUSH1 0x40 MLOAD DUP1 PUSH1 0xE0 ADD PUSH1 0x40 MSTORE SWAP1 DUP2 PUSH0 DUP3 ADD SLOAD DUP2 MSTORE PUSH1 0x20 ADD PUSH1 0x1 DUP3 ADD SLOAD DUP2 MSTORE PUSH1 0x20 ADD PUSH1 0x2 DUP3 ADD SLOAD DUP2 MSTORE PUSH1 0x20 ADD PUSH1 0x3 DUP3 ADD SLOAD DUP2 MSTORE PUSH1 0x20 ADD PUSH1 0x4 DUP3 ADD SLOAD DUP2 MSTORE PUSH1 0x20 ADD PUSH1 0x5 DUP3 ADD SLOAD DUP2 MSTORE PUSH1 0x20 ADD PUSH1 0x6 DUP3 ADD SLOAD DUP2 MSTORE POP POP SWAP1 POP PUSH0 PUSH1 0x4 PUSH0 DUP6 DUP2 MSTORE PUSH1 0x20 ADD SWAP1 DUP2 MSTORE PUSH1 0x20 ADD PUSH0 KECCAK256 PUSH0 CALLER PUSH20 0xFFFFFFFFFFFFFFFFFFFFFFFFFFFFFFFFFFFFFFFF AND PUSH20 0xFFFFFFFFFFFFFFFFFFFFFFFFFFFFFFFFFFFFFFFF AND DUP2 MSTORE PUSH1 0x20 ADD SWAP1 DUP2 MSTORE PUSH1 0x20 ADD PUSH0 KECCAK256 PUSH1 0x40 MLOAD DUP1 PUSH2 0x100 ADD PUSH1 0x40 MSTORE SWAP1 DUP2 PUSH0 DUP3 ADD DUP1 SLOAD PUSH2 0x14DF SWAP1 PUSH2 0x42B3 JUMP JUMPDEST DUP1 PUSH1 0x1F ADD PUSH1 0x20 DUP1 SWAP2 DIV MUL PUSH1 0x20 ADD PUSH1 0x40 MLOAD SWAP1 DUP2 ADD PUSH1 0x40 MSTORE DUP1 SWAP3 SWAP2 SWAP1 DUP2 DUP2 MSTORE PUSH1 0x20 ADD DUP3 DUP1 SLOAD PUSH2 0x150B SWAP1 PUSH2 0x42B3 JUMP JUMPDEST DUP1 ISZERO PUSH2 0x1556 JUMPI DUP1 PUSH1 0x1F LT PUSH2 0x152D JUMPI PUSH2 0x100 DUP1 DUP4 SLOAD DIV MUL DUP4 MSTORE SWAP2 PUSH1 0x20 ADD SWAP2 PUSH2 0x1556 JUMP JUMPDEST DUP3 ADD SWAP2 SWAP1 PUSH0 MSTORE PUSH1 0x20 PUSH0 KECCAK256 SWAP1 JUMPDEST DUP2 SLOAD DUP2 MSTORE SWAP1 PUSH1 0x1 ADD SWAP1 PUSH1 0x20 ADD DUP1 DUP4 GT PUSH2 0x1539 JUMPI DUP3 SWAP1 SUB PUSH1 0x1F AND DUP3 ADD SWAP2 JUMPDEST POP POP POP POP POP DUP2 MSTORE PUSH1 0x20 ADD PUSH1 0x1 DUP3 ADD PUSH0 SWAP1 SLOAD SWAP1 PUSH2 0x100 EXP SWAP1 DIV PUSH20 0xFFFFFFFFFFFFFFFFFFFFFFFFFFFFFFFFFFFFFFFF AND PUSH20 0xFFFFFFFFFFFFFFFFFFFFFFFFFFFFFFFFFFFFFFFF AND PUSH20 0xFFFFFFFFFFFFFFFFFFFFFFFFFFFFFFFFFFFFFFFF AND DUP2 MSTORE PUSH1 0x20 ADD PUSH1 0x2 DUP3 ADD SLOAD DUP2 MSTORE PUSH1 0x20 ADD PUSH1 0x3 DUP3 ADD SLOAD DUP2 MSTORE PUSH1 0x20 ADD PUSH1 0x4 DUP3 ADD SLOAD DUP2 MSTORE PUSH1 0x20 ADD PUSH1 0x5 DUP3 ADD SLOAD DUP2 MSTORE PUSH1 0x20 ADD PUSH1 0x6 DUP3 ADD PUSH0 SWAP1 SLOAD SWAP1 PUSH2 0x100 EXP SWAP1 DIV PUSH4 0xFFFFFFFF AND PUSH4 0xFFFFFFFF AND PUSH4 0xFFFFFFFF AND DUP2 MSTORE PUSH1 0x20 ADD PUSH1 0x7 DUP3 ADD SLOAD DUP2 MSTORE POP POP SWAP1 POP PUSH0 PUSH1 0x2 PUSH0 DUP7 DUP2 MSTORE PUSH1 0x20 ADD SWAP1 DUP2 MSTORE PUSH1 0x20 ADD PUSH0 KECCAK256 PUSH1 0x40 MLOAD DUP1 PUSH1 0xC0 ADD PUSH1 0x40 MSTORE SWAP1 DUP2 PUSH0 DUP3 ADD SLOAD DUP2 MSTORE PUSH1 0x20 ADD PUSH1 0x1 DUP3 ADD PUSH0 SWAP1 SLOAD SWAP1 PUSH2 0x100 EXP SWAP1 DIV PUSH20 0xFFFFFFFFFFFFFFFFFFFFFFFFFFFFFFFFFFFFFFFF AND PUSH20 0xFFFFFFFFFFFFFFFFFFFFFFFFFFFFFFFFFFFFFFFF AND PUSH20 0xFFFFFFFFFFFFFFFFFFFFFFFFFFFFFFFFFFFFFFFF AND DUP2 MSTORE PUSH1 0x20 ADD PUSH1 0x2 DUP3 ADD SLOAD DUP2 MSTORE PUSH1 0x20 ADD PUSH1 0x3 DUP3 ADD SLOAD DUP2 MSTORE PUSH1 0x20 ADD PUSH1 0x4 DUP3 ADD SLOAD DUP2 MSTORE PUSH1 0x20 ADD PUSH1 0x5 DUP3 ADD PUSH0 SWAP1 SLOAD SWAP1 PUSH2 0x100 EXP SWAP1 DIV PUSH20 0xFFFFFFFFFFFFFFFFFFFFFFFFFFFFFFFFFFFFFFFF AND PUSH20 0xFFFFFFFFFFFFFFFFFFFFFFFFFFFFFFFFFFFFFFFF AND PUSH20 0xFFFFFFFFFFFFFFFFFFFFFFFFFFFFFFFFFFFFFFFF AND DUP2 MSTORE POP POP SWAP1 POP PUSH1 0x3 PUSH0 DUP7 DUP2 MSTORE PUSH1 0x20 ADD SWAP1 DUP2 MSTORE PUSH1 0x20 ADD PUSH0 KECCAK256 PUSH0 CALLER PUSH20 0xFFFFFFFFFFFFFFFFFFFFFFFFFFFFFFFFFFFFFFFF AND PUSH20 0xFFFFFFFFFFFFFFFFFFFFFFFFFFFFFFFFFFFFFFFF AND DUP2 MSTORE PUSH1 0x20 ADD SWAP1 DUP2 MSTORE PUSH1 0x20 ADD PUSH0 KECCAK256 PUSH0 SWAP1 SLOAD SWAP1 PUSH2 0x100 EXP SWAP1 DIV PUSH1 0xFF AND PUSH2 0x1795 JUMPI PUSH1 0x40 MLOAD PUSH32 0x8C379A000000000000000000000000000000000000000000000000000000000 DUP2 MSTORE PUSH1 0x4 ADD PUSH2 0x178C SWAP1 PUSH2 0x4634 JUMP JUMPDEST PUSH1 0x40 MLOAD DUP1 SWAP2 SUB SWAP1 REVERT JUMPDEST PUSH0 PUSH5 0x100000000 TIMESTAMP PUSH2 0x17A7 SWAP2 SWAP1 PUSH2 0x4310 JUMP JUMPDEST SWAP1 POP PUSH0 PUSH2 0x17B9 DUP3 PUSH4 0xFFFFFFFF AND PUSH2 0x2902 JUMP JUMPDEST SWAP1 POP PUSH0 PUSH2 0x17CD DUP7 PUSH0 ADD MLOAD DUP8 PUSH1 0x20 ADD MLOAD PUSH2 0x28BC JUMP JUMPDEST SWAP1 POP PUSH0 PUSH2 0x17FB PUSH2 0x17E0 DUP5 DUP10 PUSH0 ADD MLOAD PUSH2 0x2915 JUMP JUMPDEST PUSH2 0x17ED DUP7 DUP11 PUSH0 ADD MLOAD PUSH2 0x2970 JUMP JUMPDEST PUSH2 0x17F6 PUSH0 PUSH2 0x2902 JUMP JUMPDEST PUSH2 0x29B0 JUMP JUMPDEST SWAP1 POP PUSH0 PUSH2 0x180B DUP4 DUP10 PUSH0 ADD MLOAD PUSH2 0x29C5 JUMP JUMPDEST SWAP1 POP PUSH0 PUSH2 0x181A DUP10 DUP6 DUP6 DUP12 PUSH2 0x2A0B JUMP JUMPDEST SWAP1 POP PUSH0 PUSH2 0x182B DUP10 DUP12 DUP7 DUP7 DUP11 DUP11 PUSH2 0x2A72 JUMP JUMPDEST SWAP1 POP PUSH0 PUSH2 0x1846 PUSH2 0x183F DUP13 PUSH1 0x20 ADD MLOAD DUP8 PUSH2 0x2915 JUMP JUMPDEST DUP5 DUP5 PUSH2 0x29B0 JUMP JUMPDEST SWAP1 POP PUSH2 0x1856 DUP11 PUSH1 0x60 ADD MLOAD DUP3 PUSH2 0x28BC JUMP JUMPDEST DUP11 PUSH1 0x60 ADD DUP2 DUP2 MSTORE POP POP PUSH2 0x186D DUP10 PUSH1 0x80 ADD MLOAD DUP3 PUSH2 0x29C5 JUMP JUMPDEST DUP10 PUSH1 0x80 ADD DUP2 DUP2 MSTORE POP POP DUP10 PUSH1 0x4 PUSH0 DUP16 DUP2 MSTORE PUSH1 0x20 ADD SWAP1 DUP2 MSTORE PUSH1 0x20 ADD PUSH0 KECCAK256 PUSH0 CALLER PUSH20 0xFFFFFFFFFFFFFFFFFFFFFFFFFFFFFFFFFFFFFFFF AND PUSH20 0xFFFFFFFFFFFFFFFFFFFFFFFFFFFFFFFFFFFFFFFF AND DUP2 MSTORE PUSH1 0x20 ADD SWAP1 DUP2 MSTORE PUSH1 0x20 ADD PUSH0 KECCAK256 PUSH0 DUP3 ADD MLOAD DUP2 PUSH0 ADD SWAP1 DUP2 PUSH2 0x18D6 SWAP2 SWAP1 PUSH2 0x44B3 JUMP JUMPDEST POP PUSH1 0x20 DUP3 ADD MLOAD DUP2 PUSH1 0x1 ADD PUSH0 PUSH2 0x100 EXP DUP2 SLOAD DUP2 PUSH20 0xFFFFFFFFFFFFFFFFFFFFFFFFFFFFFFFFFFFFFFFF MUL NOT AND SWAP1 DUP4 PUSH20 0xFFFFFFFFFFFFFFFFFFFFFFFFFFFFFFFFFFFFFFFF AND MUL OR SWAP1 SSTORE POP PUSH1 0x40 DUP3 ADD MLOAD DUP2 PUSH1 0x2 ADD SSTORE PUSH1 0x60 DUP3 ADD MLOAD DUP2 PUSH1 0x3 ADD SSTORE PUSH1 0x80 DUP3 ADD MLOAD DUP2 PUSH1 0x4 ADD SSTORE PUSH1 0xA0 DUP3 ADD MLOAD DUP2 PUSH1 0x5 ADD SSTORE PUSH1 0xC0 DUP3 ADD MLOAD DUP2 PUSH1 0x6 ADD PUSH0 PUSH2 0x100 EXP DUP2 SLOAD DUP2 PUSH4 0xFFFFFFFF MUL NOT AND SWAP1 DUP4 PUSH4 0xFFFFFFFF AND MUL OR SWAP1 SSTORE POP PUSH1 0xE0 DUP3 ADD MLOAD DUP2 PUSH1 0x7 ADD SSTORE SWAP1 POP POP DUP9 PUSH1 0x2 PUSH0 DUP16 DUP2 MSTORE PUSH1 0x20 ADD SWAP1 DUP2 MSTORE PUSH1 0x20 ADD PUSH0 KECCAK256 PUSH0 DUP3 ADD MLOAD DUP2 PUSH0 ADD SSTORE PUSH1 0x20 DUP3 ADD MLOAD DUP2 PUSH1 0x1 ADD PUSH0 PUSH2 0x100 EXP DUP2 SLOAD DUP2 PUSH20 0xFFFFFFFFFFFFFFFFFFFFFFFFFFFFFFFFFFFFFFFF MUL NOT AND SWAP1 DUP4 PUSH20 0xFFFFFFFFFFFFFFFFFFFFFFFFFFFFFFFFFFFFFFFF AND MUL OR SWAP1 SSTORE POP PUSH1 0x40 DUP3 ADD MLOAD DUP2 PUSH1 0x2 ADD SSTORE PUSH1 0x60 DUP3 ADD MLOAD DUP2 PUSH1 0x3 ADD SSTORE PUSH1 0x80 DUP3 ADD MLOAD DUP2 PUSH1 0x4 ADD SSTORE PUSH1 0xA0 DUP3 ADD MLOAD DUP2 PUSH1 0x5 ADD PUSH0 PUSH2 0x100 EXP DUP2 SLOAD DUP2 PUSH20 0xFFFFFFFFFFFFFFFFFFFFFFFFFFFFFFFFFFFFFFFF MUL NOT AND SWAP1 DUP4 PUSH20 0xFFFFFFFFFFFFFFFFFFFFFFFFFFFFFFFFFFFFFFFF AND MUL OR SWAP1 SSTORE POP SWAP1 POP POP DUP1 SWAP12 POP POP POP POP POP POP POP POP POP POP POP POP SWAP2 SWAP1 POP JUMP JUMPDEST PUSH1 0x7 PUSH1 0x20 MSTORE DUP1 PUSH0 MSTORE PUSH1 0x40 PUSH0 KECCAK256 PUSH0 SWAP2 POP SWAP1 POP SLOAD DUP2 JUMP JUMPDEST PUSH1 0x6 PUSH0 SWAP1 SLOAD SWAP1 PUSH2 0x100 EXP SWAP1 DIV PUSH20 0xFFFFFFFFFFFFFFFFFFFFFFFFFFFFFFFFFFFFFFFF AND DUP2 JUMP JUMPDEST PUSH2 0x1A94 PUSH2 0x3546 JUMP JUMPDEST PUSH1 0x4 PUSH0 DUP5 DUP2 MSTORE PUSH1 0x20 ADD SWAP1 DUP2 MSTORE PUSH1 0x20 ADD PUSH0 KECCAK256 PUSH0 DUP4 PUSH20 0xFFFFFFFFFFFFFFFFFFFFFFFFFFFFFFFFFFFFFFFF AND PUSH20 0xFFFFFFFFFFFFFFFFFFFFFFFFFFFFFFFFFFFFFFFF AND DUP2 MSTORE PUSH1 0x20 ADD SWAP1 DUP2 MSTORE PUSH1 0x20 ADD PUSH0 KECCAK256 PUSH1 0x40 MLOAD DUP1 PUSH2 0x100 ADD PUSH1 0x40 MSTORE SWAP1 DUP2 PUSH0 DUP3 ADD DUP1 SLOAD PUSH2 0x1AFB SWAP1 PUSH2 0x42B3 JUMP JUMPDEST DUP1 PUSH1 0x1F ADD PUSH1 0x20 DUP1 SWAP2 DIV MUL PUSH1 0x20 ADD PUSH1 0x40 MLOAD SWAP1 DUP2 ADD PUSH1 0x40 MSTORE DUP1 SWAP3 SWAP2 SWAP1 DUP2 DUP2 MSTORE PUSH1 0x20 ADD DUP3 DUP1 SLOAD PUSH2 0x1B27 SWAP1 PUSH2 0x42B3 JUMP JUMPDEST DUP1 ISZERO PUSH2 0x1B72 JUMPI DUP1 PUSH1 0x1F LT PUSH2 0x1B49 JUMPI PUSH2 0x100 DUP1 DUP4 SLOAD DIV MUL DUP4 MSTORE SWAP2 PUSH1 0x20 ADD SWAP2 PUSH2 0x1B72 JUMP JUMPDEST DUP3 ADD SWAP2 SWAP1 PUSH0 MSTORE PUSH1 0x20 PUSH0 KECCAK256 SWAP1 JUMPDEST DUP2 SLOAD DUP2 MSTORE SWAP1 PUSH1 0x1 ADD SWAP1 PUSH1 0x20 ADD DUP1 DUP4 GT PUSH2 0x1B55 JUMPI DUP3 SWAP1 SUB PUSH1 0x1F AND DUP3 ADD SWAP2 JUMPDEST POP POP POP POP POP DUP2 MSTORE PUSH1 0x20 ADD PUSH1 0x1 DUP3 ADD PUSH0 SWAP1 SLOAD SWAP1 PUSH2 0x100 EXP SWAP1 DIV PUSH20 0xFFFFFFFFFFFFFFFFFFFFFFFFFFFFFFFFFFFFFFFF AND PUSH20 0xFFFFFFFFFFFFFFFFFFFFFFFFFFFFFFFFFFFFFFFF AND PUSH20 0xFFFFFFFFFFFFFFFFFFFFFFFFFFFFFFFFFFFFFFFF AND DUP2 MSTORE PUSH1 0x20 ADD PUSH1 0x2 DUP3 ADD SLOAD DUP2 MSTORE PUSH1 0x20 ADD PUSH1 0x3 DUP3 ADD SLOAD DUP2 MSTORE PUSH1 0x20 ADD PUSH1 0x4 DUP3 ADD SLOAD DUP2 MSTORE PUSH1 0x20 ADD PUSH1 0x5 DUP3 ADD SLOAD DUP2 MSTORE PUSH1 0x20 ADD PUSH1 0x6 DUP3 ADD PUSH0 SWAP1 SLOAD SWAP1 PUSH2 0x100 EXP SWAP1 DIV PUSH4 0xFFFFFFFF AND PUSH4 0xFFFFFFFF AND PUSH4 0xFFFFFFFF AND DUP2 MSTORE PUSH1 0x20 ADD PUSH1 0x7 DUP3 ADD SLOAD DUP2 MSTORE POP POP SWAP1 POP SWAP3 SWAP2 POP POP JUMP JUMPDEST PUSH0 PUSH1 0x60 DUP1 PUSH0 DUP1 PUSH0 PUSH1 0x60 PUSH2 0x1C40 PUSH2 0x2B2C JUMP JUMPDEST PUSH2 0x1C48 PUSH2 0x2B66 JUMP JUMPDEST CHAINID ADDRESS PUSH0 DUP1 SHL PUSH0 PUSH8 0xFFFFFFFFFFFFFFFF DUP2 GT ISZERO PUSH2 0x1C67 JUMPI PUSH2 0x1C66 PUSH2 0x3960 JUMP JUMPDEST JUMPDEST PUSH1 0x40 MLOAD SWAP1 DUP1 DUP3 MSTORE DUP1 PUSH1 0x20 MUL PUSH1 0x20 ADD DUP3 ADD PUSH1 0x40 MSTORE DUP1 ISZERO PUSH2 0x1C95 JUMPI DUP2 PUSH1 0x20 ADD PUSH1 0x20 DUP3 MUL DUP1 CALLDATASIZE DUP4 CALLDATACOPY DUP1 DUP3 ADD SWAP2 POP POP SWAP1 POP JUMPDEST POP PUSH32 0xF00000000000000000000000000000000000000000000000000000000000000 SWAP6 SWAP5 SWAP4 SWAP3 SWAP2 SWAP1 SWAP7 POP SWAP7 POP SWAP7 POP SWAP7 POP SWAP7 POP SWAP7 POP SWAP7 POP SWAP1 SWAP2 SWAP3 SWAP4 SWAP5 SWAP6 SWAP7 JUMP JUMPDEST PUSH0 DUP1 DUP4 PUSH1 0x40 MLOAD PUSH1 0x20 ADD PUSH2 0x1CE7 SWAP2 SWAP1 PUSH2 0x46D6 JUMP JUMPDEST PUSH1 0x40 MLOAD PUSH1 0x20 DUP2 DUP4 SUB SUB DUP2 MSTORE SWAP1 PUSH1 0x40 MSTORE SWAP1 POP PUSH0 DUP5 DUP5 PUSH1 0x40 MLOAD PUSH1 0x20 ADD PUSH2 0x1D0C SWAP3 SWAP2 SWAP1 PUSH2 0x4717 JUMP JUMPDEST PUSH1 0x40 MLOAD PUSH1 0x20 DUP2 DUP4 SUB SUB DUP2 MSTORE SWAP1 PUSH1 0x40 MSTORE DUP1 MLOAD SWAP1 PUSH1 0x20 ADD KECCAK256 SWAP1 POP PUSH0 PUSH1 0x2 PUSH0 DUP4 DUP2 MSTORE PUSH1 0x20 ADD SWAP1 DUP2 MSTORE PUSH1 0x20 ADD PUSH0 KECCAK256 PUSH1 0x40 MLOAD DUP1 PUSH1 0xC0 ADD PUSH1 0x40 MSTORE SWAP1 DUP2 PUSH0 DUP3 ADD SLOAD DUP2 MSTORE PUSH1 0x20 ADD PUSH1 0x1 DUP3 ADD PUSH0 SWAP1 SLOAD SWAP1 PUSH2 0x100 EXP SWAP1 DIV PUSH20 0xFFFFFFFFFFFFFFFFFFFFFFFFFFFFFFFFFFFFFFFF AND PUSH20 0xFFFFFFFFFFFFFFFFFFFFFFFFFFFFFFFFFFFFFFFF AND PUSH20 0xFFFFFFFFFFFFFFFFFFFFFFFFFFFFFFFFFFFFFFFF AND DUP2 MSTORE PUSH1 0x20 ADD PUSH1 0x2 DUP3 ADD SLOAD DUP2 MSTORE PUSH1 0x20 ADD PUSH1 0x3 DUP3 ADD SLOAD DUP2 MSTORE PUSH1 0x20 ADD PUSH1 0x4 DUP3 ADD SLOAD DUP2 MSTORE PUSH1 0x20 ADD PUSH1 0x5 DUP3 ADD PUSH0 SWAP1 SLOAD SWAP1 PUSH2 0x100 EXP SWAP1 DIV PUSH20 0xFFFFFFFFFFFFFFFFFFFFFFFFFFFFFFFFFFFFFFFF AND PUSH20 0xFFFFFFFFFFFFFFFFFFFFFFFFFFFFFFFFFFFFFFFF AND PUSH20 0xFFFFFFFFFFFFFFFFFFFFFFFFFFFFFFFFFFFFFFFF AND DUP2 MSTORE POP POP SWAP1 POP PUSH0 PUSH20 0xFFFFFFFFFFFFFFFFFFFFFFFFFFFFFFFFFFFFFFFF AND DUP2 PUSH1 0x20 ADD MLOAD PUSH20 0xFFFFFFFFFFFFFFFFFFFFFFFFFFFFFFFFFFFFFFFF AND EQ PUSH2 0x1E86 JUMPI PUSH1 0x40 MLOAD PUSH32 0x8C379A000000000000000000000000000000000000000000000000000000000 DUP2 MSTORE PUSH1 0x4 ADD PUSH2 0x1E7D SWAP1 PUSH2 0x4788 JUMP JUMPDEST PUSH1 0x40 MLOAD DUP1 SWAP2 SUB SWAP1 REVERT JUMPDEST CALLER DUP2 PUSH1 0x20 ADD SWAP1 PUSH20 0xFFFFFFFFFFFFFFFFFFFFFFFFFFFFFFFFFFFFFFFF AND SWAP1 DUP2 PUSH20 0xFFFFFFFFFFFFFFFFFFFFFFFFFFFFFFFFFFFFFFFF AND DUP2 MSTORE POP POP DUP1 PUSH1 0x2 PUSH0 DUP5 DUP2 MSTORE PUSH1 0x20 ADD SWAP1 DUP2 MSTORE PUSH1 0x20 ADD PUSH0 KECCAK256 PUSH0 DUP3 ADD MLOAD DUP2 PUSH0 ADD SSTORE PUSH1 0x20 DUP3 ADD MLOAD DUP2 PUSH1 0x1 ADD PUSH0 PUSH2 0x100 EXP DUP2 SLOAD DUP2 PUSH20 0xFFFFFFFFFFFFFFFFFFFFFFFFFFFFFFFFFFFFFFFF MUL NOT AND SWAP1 DUP4 PUSH20 0xFFFFFFFFFFFFFFFFFFFFFFFFFFFFFFFFFFFFFFFF AND MUL OR SWAP1 SSTORE POP PUSH1 0x40 DUP3 ADD MLOAD DUP2 PUSH1 0x2 ADD SSTORE PUSH1 0x60 DUP3 ADD MLOAD DUP2 PUSH1 0x3 ADD SSTORE PUSH1 0x80 DUP3 ADD MLOAD DUP2 PUSH1 0x4 ADD SSTORE PUSH1 0xA0 DUP3 ADD MLOAD DUP2 PUSH1 0x5 ADD PUSH0 PUSH2 0x100 EXP DUP2 SLOAD DUP2 PUSH20 0xFFFFFFFFFFFFFFFFFFFFFFFFFFFFFFFFFFFFFFFF MUL NOT AND SWAP1 DUP4 PUSH20 0xFFFFFFFFFFFFFFFFFFFFFFFFFFFFFFFFFFFFFFFF AND MUL OR SWAP1 SSTORE POP SWAP1 POP POP DUP2 PUSH1 0x7 PUSH0 CALLER PUSH20 0xFFFFFFFFFFFFFFFFFFFFFFFFFFFFFFFFFFFFFFFF AND PUSH20 0xFFFFFFFFFFFFFFFFFFFFFFFFFFFFFFFFFFFFFFFF AND DUP2 MSTORE PUSH1 0x20 ADD SWAP1 DUP2 MSTORE PUSH1 0x20 ADD PUSH0 KECCAK256 DUP2 SWAP1 SSTORE POP PUSH32 0x79668E0BB3C4AB3E76F43F6C88EA8B293853965A07C19AC1465C0B9341CFE55F DUP3 PUSH1 0x40 MLOAD PUSH2 0x1FF6 SWAP2 SWAP1 PUSH2 0x3943 JUMP JUMPDEST PUSH1 0x40 MLOAD DUP1 SWAP2 SUB SWAP1 LOG1 DUP2 SWAP4 POP POP POP POP SWAP3 SWAP2 POP POP JUMP JUMPDEST PUSH1 0x3 PUSH1 0x20 MSTORE DUP2 PUSH0 MSTORE PUSH1 0x40 PUSH0 KECCAK256 PUSH1 0x20 MSTORE DUP1 PUSH0 MSTORE PUSH1 0x40 PUSH0 KECCAK256 PUSH0 SWAP2 POP SWAP2 POP SWAP1 SLOAD SWAP1 PUSH2 0x100 EXP SWAP1 DIV PUSH1 0xFF AND DUP2 JUMP JUMPDEST PUSH1 0x8 PUSH1 0x20 MSTORE DUP2 PUSH0 MSTORE PUSH1 0x40 PUSH0 KECCAK256 DUP2 DUP2 SLOAD DUP2 LT PUSH2 0x204D JUMPI PUSH0 DUP1 REVERT JUMPDEST SWAP1 PUSH0 MSTORE PUSH1 0x20 PUSH0 KECCAK256 ADD PUSH0 SWAP2 POP SWAP2 POP SWAP1 SLOAD SWAP1 PUSH2 0x100 EXP SWAP1 DIV PUSH20 0xFFFFFFFFFFFFFFFFFFFFFFFFFFFFFFFFFFFFFFFF AND DUP2 JUMP JUMPDEST PUSH1 0x60 PUSH1 0x8 PUSH0 DUP5 DUP2 MSTORE PUSH1 0x20 ADD SWAP1 DUP2 MSTORE PUSH1 0x20 ADD PUSH0 KECCAK256 POP SWAP3 SWAP2 POP POP JUMP JUMPDEST PUSH0 DUP1 PUSH1 0x4 PUSH0 DUP5 DUP2 MSTORE PUSH1 0x20 ADD SWAP1 DUP2 MSTORE PUSH1 0x20 ADD PUSH0 KECCAK256 PUSH0 CALLER PUSH20 0xFFFFFFFFFFFFFFFFFFFFFFFFFFFFFFFFFFFFFFFF AND PUSH20 0xFFFFFFFFFFFFFFFFFFFFFFFFFFFFFFFFFFFFFFFF AND DUP2 MSTORE PUSH1 0x20 ADD SWAP1 DUP2 MSTORE PUSH1 0x20 ADD PUSH0 KECCAK256 PUSH1 0x40 MLOAD DUP1 PUSH2 0x100 ADD PUSH1 0x40 MSTORE SWAP1 DUP2 PUSH0 DUP3 ADD DUP1 SLOAD PUSH2 0x20FF SWAP1 PUSH2 0x42B3 JUMP JUMPDEST DUP1 PUSH1 0x1F ADD PUSH1 0x20 DUP1 SWAP2 DIV MUL PUSH1 0x20 ADD PUSH1 0x40 MLOAD SWAP1 DUP2 ADD PUSH1 0x40 MSTORE DUP1 SWAP3 SWAP2 SWAP1 DUP2 DUP2 MSTORE PUSH1 0x20 ADD DUP3 DUP1 SLOAD PUSH2 0x212B SWAP1 PUSH2 0x42B3 JUMP JUMPDEST DUP1 ISZERO PUSH2 0x2176 JUMPI DUP1 PUSH1 0x1F LT PUSH2 0x214D JUMPI PUSH2 0x100 DUP1 DUP4 SLOAD DIV MUL DUP4 MSTORE SWAP2 PUSH1 0x20 ADD SWAP2 PUSH2 0x2176 JUMP JUMPDEST DUP3 ADD SWAP2 SWAP1 PUSH0 MSTORE PUSH1 0x20 PUSH0 KECCAK256 SWAP1 JUMPDEST DUP2 SLOAD DUP2 MSTORE SWAP1 PUSH1 0x1 ADD SWAP1 PUSH1 0x20 ADD DUP1 DUP4 GT PUSH2 0x2159 JUMPI DUP3 SWAP1 SUB PUSH1 0x1F AND DUP3 ADD SWAP2 JUMPDEST POP POP POP POP POP DUP2 MSTORE PUSH1 0x20 ADD PUSH1 0x1 DUP3 ADD PUSH0 SWAP1 SLOAD SWAP1 PUSH2 0x100 EXP SWAP1 DIV PUSH20 0xFFFFFFFFFFFFFFFFFFFFFFFFFFFFFFFFFFFFFFFF AND PUSH20 0xFFFFFFFFFFFFFFFFFFFFFFFFFFFFFFFFFFFFFFFF AND PUSH20 0xFFFFFFFFFFFFFFFFFFFFFFFFFFFFFFFFFFFFFFFF AND DUP2 MSTORE PUSH1 0x20 ADD PUSH1 0x2 DUP3 ADD SLOAD DUP2 MSTORE PUSH1 0x20 ADD PUSH1 0x3 DUP3 ADD SLOAD DUP2 MSTORE PUSH1 0x20 ADD PUSH1 0x4 DUP3 ADD SLOAD DUP2 MSTORE PUSH1 0x20 ADD PUSH1 0x5 DUP3 ADD SLOAD DUP2 MSTORE PUSH1 0x20 ADD PUSH1 0x6 DUP3 ADD PUSH0 SWAP1 SLOAD SWAP1 PUSH2 0x100 EXP SWAP1 DIV PUSH4 0xFFFFFFFF AND PUSH4 0xFFFFFFFF AND PUSH4 0xFFFFFFFF AND DUP2 MSTORE PUSH1 0x20 ADD PUSH1 0x7 DUP3 ADD SLOAD DUP2 MSTORE POP POP SWAP1 POP DUP1 PUSH1 0x80 ADD MLOAD SWAP2 POP POP SWAP2 SWAP1 POP JUMP JUMPDEST PUSH1 0x2 PUSH1 0x20 MSTORE DUP1 PUSH0 MSTORE PUSH1 0x40 PUSH0 KECCAK256 PUSH0 SWAP2 POP SWAP1 POP DUP1 PUSH0 ADD SLOAD SWAP1 DUP1 PUSH1 0x1 ADD PUSH0 SWAP1 SLOAD SWAP1 PUSH2 0x100 EXP SWAP1 DIV PUSH20 0xFFFFFFFFFFFFFFFFFFFFFFFFFFFFFFFFFFFFFFFF AND SWAP1 DUP1 PUSH1 0x2 ADD SLOAD SWAP1 DUP1 PUSH1 0x3 ADD SLOAD SWAP1 DUP1 PUSH1 0x4 ADD SLOAD SWAP1 DUP1 PUSH1 0x5 ADD PUSH0 SWAP1 SLOAD SWAP1 PUSH2 0x100 EXP SWAP1 DIV PUSH20 0xFFFFFFFFFFFFFFFFFFFFFFFFFFFFFFFFFFFFFFFF AND SWAP1 POP DUP7 JUMP JUMPDEST PUSH0 PUSH1 0x2 PUSH0 DUP4 DUP2 MSTORE PUSH1 0x20 ADD SWAP1 DUP2 MSTORE PUSH1 0x20 ADD PUSH0 KECCAK256 PUSH1 0x40 MLOAD DUP1 PUSH1 0xC0 ADD PUSH1 0x40 MSTORE SWAP1 DUP2 PUSH0 DUP3 ADD SLOAD DUP2 MSTORE PUSH1 0x20 ADD PUSH1 0x1 DUP3 ADD PUSH0 SWAP1 SLOAD SWAP1 PUSH2 0x100 EXP SWAP1 DIV PUSH20 0xFFFFFFFFFFFFFFFFFFFFFFFFFFFFFFFFFFFFFFFF AND PUSH20 0xFFFFFFFFFFFFFFFFFFFFFFFFFFFFFFFFFFFFFFFF AND PUSH20 0xFFFFFFFFFFFFFFFFFFFFFFFFFFFFFFFFFFFFFFFF AND DUP2 MSTORE PUSH1 0x20 ADD PUSH1 0x2 DUP3 ADD SLOAD DUP2 MSTORE PUSH1 0x20 ADD PUSH1 0x3 DUP3 ADD SLOAD DUP2 MSTORE PUSH1 0x20 ADD PUSH1 0x4 DUP3 ADD SLOAD DUP2 MSTORE PUSH1 0x20 ADD PUSH1 0x5 DUP3 ADD PUSH0 SWAP1 SLOAD SWAP1 PUSH2 0x100 EXP SWAP1 DIV PUSH20 0xFFFFFFFFFFFFFFFFFFFFFFFFFFFFFFFFFFFFFFFF AND PUSH20 0xFFFFFFFFFFFFFFFFFFFFFFFFFFFFFFFFFFFFFFFF AND PUSH20 0xFFFFFFFFFFFFFFFFFFFFFFFFFFFFFFFFFFFFFFFF AND DUP2 MSTORE POP POP SWAP1 POP DUP1 PUSH1 0x20 ADD MLOAD PUSH20 0xFFFFFFFFFFFFFFFFFFFFFFFFFFFFFFFFFFFFFFFF AND CALLER PUSH20 0xFFFFFFFFFFFFFFFFFFFFFFFFFFFFFFFFFFFFFFFF AND EQ PUSH2 0x2412 JUMPI PUSH1 0x40 MLOAD PUSH32 0x8C379A000000000000000000000000000000000000000000000000000000000 DUP2 MSTORE PUSH1 0x4 ADD PUSH2 0x2409 SWAP1 PUSH2 0x47F0 JUMP JUMPDEST PUSH1 0x40 MLOAD DUP1 SWAP2 SUB SWAP1 REVERT JUMPDEST PUSH1 0x1 PUSH1 0x3 PUSH0 DUP5 DUP2 MSTORE PUSH1 0x20 ADD SWAP1 DUP2 MSTORE PUSH1 0x20 ADD PUSH0 KECCAK256 PUSH0 DUP6 PUSH20 0xFFFFFFFFFFFFFFFFFFFFFFFFFFFFFFFFFFFFFFFF AND PUSH20 0xFFFFFFFFFFFFFFFFFFFFFFFFFFFFFFFFFFFFFFFF AND DUP2 MSTORE PUSH1 0x20 ADD SWAP1 DUP2 MSTORE PUSH1 0x20 ADD PUSH0 KECCAK256 PUSH0 PUSH2 0x100 EXP DUP2 SLOAD DUP2 PUSH1 0xFF MUL NOT AND SWAP1 DUP4 ISZERO ISZERO MUL OR SWAP1 SSTORE POP PUSH2 0x248C DUP2 PUSH0 ADD MLOAD PUSH2 0x2487 PUSH1 0x1 PUSH2 0x2902 JUMP JUMPDEST PUSH2 0x28BC JUMP JUMPDEST DUP2 PUSH0 ADD DUP2 DUP2 MSTORE POP POP DUP1 PUSH1 0x2 PUSH0 DUP5 DUP2 MSTORE PUSH1 0x20 ADD SWAP1 DUP2 MSTORE PUSH1 0x20 ADD PUSH0 KECCAK256 PUSH0 DUP3 ADD MLOAD DUP2 PUSH0 ADD SSTORE PUSH1 0x20 DUP3 ADD MLOAD DUP2 PUSH1 0x1 ADD PUSH0 PUSH2 0x100 EXP DUP2 SLOAD DUP2 PUSH20 0xFFFFFFFFFFFFFFFFFFFFFFFFFFFFFFFFFFFFFFFF MUL NOT AND SWAP1 DUP4 PUSH20 0xFFFFFFFFFFFFFFFFFFFFFFFFFFFFFFFFFFFFFFFF AND MUL OR SWAP1 SSTORE POP PUSH1 0x40 DUP3 ADD MLOAD DUP2 PUSH1 0x2 ADD SSTORE PUSH1 0x60 DUP3 ADD MLOAD DUP2 PUSH1 0x3 ADD SSTORE PUSH1 0x80 DUP3 ADD MLOAD DUP2 PUSH1 0x4 ADD SSTORE PUSH1 0xA0 DUP3 ADD MLOAD DUP2 PUSH1 0x5 ADD PUSH0 PUSH2 0x100 EXP DUP2 SLOAD DUP2 PUSH20 0xFFFFFFFFFFFFFFFFFFFFFFFFFFFFFFFFFFFFFFFF MUL NOT AND SWAP1 DUP4 PUSH20 0xFFFFFFFFFFFFFFFFFFFFFFFFFFFFFFFFFFFFFFFF AND MUL OR SWAP1 SSTORE POP SWAP1 POP POP PUSH0 PUSH1 0x4 PUSH0 DUP5 DUP2 MSTORE PUSH1 0x20 ADD SWAP1 DUP2 MSTORE PUSH1 0x20 ADD PUSH0 KECCAK256 PUSH0 DUP6 PUSH20 0xFFFFFFFFFFFFFFFFFFFFFFFFFFFFFFFFFFFFFFFF AND PUSH20 0xFFFFFFFFFFFFFFFFFFFFFFFFFFFFFFFFFFFFFFFF AND DUP2 MSTORE PUSH1 0x20 ADD SWAP1 DUP2 MSTORE PUSH1 0x20 ADD PUSH0 KECCAK256 PUSH1 0x40 MLOAD DUP1 PUSH2 0x100 ADD PUSH1 0x40 MSTORE SWAP1 DUP2 PUSH0 DUP3 ADD DUP1 SLOAD PUSH2 0x25C3 SWAP1 PUSH2 0x42B3 JUMP JUMPDEST DUP1 PUSH1 0x1F ADD PUSH1 0x20 DUP1 SWAP2 DIV MUL PUSH1 0x20 ADD PUSH1 0x40 MLOAD SWAP1 DUP2 ADD PUSH1 0x40 MSTORE DUP1 SWAP3 SWAP2 SWAP1 DUP2 DUP2 MSTORE PUSH1 0x20 ADD DUP3 DUP1 SLOAD PUSH2 0x25EF SWAP1 PUSH2 0x42B3 JUMP JUMPDEST DUP1 ISZERO PUSH2 0x263A JUMPI DUP1 PUSH1 0x1F LT PUSH2 0x2611 JUMPI PUSH2 0x100 DUP1 DUP4 SLOAD DIV MUL DUP4 MSTORE SWAP2 PUSH1 0x20 ADD SWAP2 PUSH2 0x263A JUMP JUMPDEST DUP3 ADD SWAP2 SWAP1 PUSH0 MSTORE PUSH1 0x20 PUSH0 KECCAK256 SWAP1 JUMPDEST DUP2 SLOAD DUP2 MSTORE SWAP1 PUSH1 0x1 ADD SWAP1 PUSH1 0x20 ADD DUP1 DUP4 GT PUSH2 0x261D JUMPI DUP3 SWAP1 SUB PUSH1 0x1F AND DUP3 ADD SWAP2 JUMPDEST POP POP POP POP POP DUP2 MSTORE PUSH1 0x20 ADD PUSH1 0x1 DUP3 ADD PUSH0 SWAP1 SLOAD SWAP1 PUSH2 0x100 EXP SWAP1 DIV PUSH20 0xFFFFFFFFFFFFFFFFFFFFFFFFFFFFFFFFFFFFFFFF AND PUSH20 0xFFFFFFFFFFFFFFFFFFFFFFFFFFFFFFFFFFFFFFFF AND PUSH20 0xFFFFFFFFFFFFFFFFFFFFFFFFFFFFFFFFFFFFFFFF AND DUP2 MSTORE PUSH1 0x20 ADD PUSH1 0x2 DUP3 ADD SLOAD DUP2 MSTORE PUSH1 0x20 ADD PUSH1 0x3 DUP3 ADD SLOAD DUP2 MSTORE PUSH1 0x20 ADD PUSH1 0x4 DUP3 ADD SLOAD DUP2 MSTORE PUSH1 0x20 ADD PUSH1 0x5 DUP3 ADD SLOAD DUP2 MSTORE PUSH1 0x20 ADD PUSH1 0x6 DUP3 ADD PUSH0 SWAP1 SLOAD SWAP1 PUSH2 0x100 EXP SWAP1 DIV PUSH4 0xFFFFFFFF AND PUSH4 0xFFFFFFFF AND PUSH4 0xFFFFFFFF AND DUP2 MSTORE PUSH1 0x20 ADD PUSH1 0x7 DUP3 ADD SLOAD DUP2 MSTORE POP POP SWAP1 POP DUP4 DUP2 PUSH1 0x20 ADD SWAP1 PUSH20 0xFFFFFFFFFFFFFFFFFFFFFFFFFFFFFFFFFFFFFFFF AND SWAP1 DUP2 PUSH20 0xFFFFFFFFFFFFFFFFFFFFFFFFFFFFFFFFFFFFFFFF AND DUP2 MSTORE POP POP DUP5 DUP2 PUSH0 ADD DUP2 SWAP1 MSTORE POP PUSH1 0x8 PUSH0 DUP5 DUP2 MSTORE PUSH1 0x20 ADD SWAP1 DUP2 MSTORE PUSH1 0x20 ADD PUSH0 KECCAK256 DUP5 SWAP1 DUP1 PUSH1 0x1 DUP2 SLOAD ADD DUP1 DUP3 SSTORE DUP1 SWAP2 POP POP PUSH1 0x1 SWAP1 SUB SWAP1 PUSH0 MSTORE PUSH1 0x20 PUSH0 KECCAK256 ADD PUSH0 SWAP1 SWAP2 SWAP1 SWAP2 SWAP1 SWAP2 PUSH2 0x100 EXP DUP2 SLOAD DUP2 PUSH20 0xFFFFFFFFFFFFFFFFFFFFFFFFFFFFFFFFFFFFFFFF MUL NOT AND SWAP1 DUP4 PUSH20 0xFFFFFFFFFFFFFFFFFFFFFFFFFFFFFFFFFFFFFFFF AND MUL OR SWAP1 SSTORE POP DUP1 PUSH1 0x4 PUSH0 DUP6 DUP2 MSTORE PUSH1 0x20 ADD SWAP1 DUP2 MSTORE PUSH1 0x20 ADD PUSH0 KECCAK256 PUSH0 DUP7 PUSH20 0xFFFFFFFFFFFFFFFFFFFFFFFFFFFFFFFFFFFFFFFF AND PUSH20 0xFFFFFFFFFFFFFFFFFFFFFFFFFFFFFFFFFFFFFFFF AND DUP2 MSTORE PUSH1 0x20 ADD SWAP1 DUP2 MSTORE PUSH1 0x20 ADD PUSH0 KECCAK256 PUSH0 DUP3 ADD MLOAD DUP2 PUSH0 ADD SWAP1 DUP2 PUSH2 0x2800 SWAP2 SWAP1 PUSH2 0x44B3 JUMP JUMPDEST POP PUSH1 0x20 DUP3 ADD MLOAD DUP2 PUSH1 0x1 ADD PUSH0 PUSH2 0x100 EXP DUP2 SLOAD DUP2 PUSH20 0xFFFFFFFFFFFFFFFFFFFFFFFFFFFFFFFFFFFFFFFF MUL NOT AND SWAP1 DUP4 PUSH20 0xFFFFFFFFFFFFFFFFFFFFFFFFFFFFFFFFFFFFFFFF AND MUL OR SWAP1 SSTORE POP PUSH1 0x40 DUP3 ADD MLOAD DUP2 PUSH1 0x2 ADD SSTORE PUSH1 0x60 DUP3 ADD MLOAD DUP2 PUSH1 0x3 ADD SSTORE PUSH1 0x80 DUP3 ADD MLOAD DUP2 PUSH1 0x4 ADD SSTORE PUSH1 0xA0 DUP3 ADD MLOAD DUP2 PUSH1 0x5 ADD SSTORE PUSH1 0xC0 DUP3 ADD MLOAD DUP2 PUSH1 0x6 ADD PUSH0 PUSH2 0x100 EXP DUP2 SLOAD DUP2 PUSH4 0xFFFFFFFF MUL NOT AND SWAP1 DUP4 PUSH4 0xFFFFFFFF AND MUL OR SWAP1 SSTORE POP PUSH1 0xE0 DUP3 ADD MLOAD DUP2 PUSH1 0x7 ADD SSTORE SWAP1 POP POP POP POP POP POP POP JUMP JUMPDEST PUSH0 PUSH2 0x28B5 DUP3 PUSH1 0x2 PUSH2 0x2BA1 JUMP JUMPDEST SWAP1 POP SWAP2 SWAP1 POP JUMP JUMPDEST PUSH0 PUSH2 0x28C6 DUP4 PUSH2 0x2C4C JUMP JUMPDEST PUSH2 0x28D6 JUMPI PUSH2 0x28D3 PUSH0 PUSH2 0x2902 JUMP JUMPDEST SWAP3 POP JUMPDEST PUSH2 0x28DF DUP3 PUSH2 0x2C4C JUMP JUMPDEST PUSH2 0x28EF JUMPI PUSH2 0x28EC PUSH0 PUSH2 0x2902 JUMP JUMPDEST SWAP2 POP JUMPDEST PUSH2 0x28FA DUP4 DUP4 PUSH0 PUSH2 0x2C58 JUMP JUMPDEST SWAP1 POP SWAP3 SWAP2 POP POP JUMP JUMPDEST PUSH0 PUSH2 0x290E DUP3 PUSH1 0x2 PUSH2 0x2CFA JUMP JUMPDEST SWAP1 POP SWAP2 SWAP1 POP JUMP JUMPDEST PUSH0 PUSH2 0x291F DUP4 PUSH2 0x2C4C JUMP JUMPDEST PUSH2 0x292F JUMPI PUSH2 0x292C PUSH0 PUSH2 0x2902 JUMP JUMPDEST SWAP3 POP JUMPDEST PUSH2 0x2938 DUP3 PUSH2 0x2C4C JUMP JUMPDEST PUSH2 0x2948 JUMPI PUSH2 0x2945 PUSH0 PUSH2 0x2902 JUMP JUMPDEST SWAP2 POP JUMPDEST PUSH2 0x295C PUSH2 0x2956 DUP5 DUP5 PUSH0 PUSH2 0x2D81 JUMP JUMPDEST PUSH0 PUSH2 0x2E23 JUMP JUMPDEST SWAP1 POP SWAP3 SWAP2 POP POP JUMP JUMPDEST PUSH2 0x296D DUP2 PUSH2 0x2EAA JUMP JUMPDEST POP JUMP JUMPDEST PUSH0 DUP1 PUSH2 0x2981 DUP5 PUSH4 0xFFFFFFFF AND PUSH2 0x2902 JUMP JUMPDEST SWAP1 POP PUSH2 0x298C DUP4 PUSH2 0x2C4C JUMP JUMPDEST PUSH2 0x299C JUMPI PUSH2 0x2999 PUSH0 PUSH2 0x2902 JUMP JUMPDEST SWAP3 POP JUMPDEST PUSH2 0x29A7 DUP2 DUP5 PUSH0 PUSH2 0x2F5D JUMP JUMPDEST SWAP2 POP POP SWAP3 SWAP2 POP POP JUMP JUMPDEST PUSH0 PUSH2 0x29BC DUP5 DUP5 DUP5 PUSH2 0x2FFF JUMP JUMPDEST SWAP1 POP SWAP4 SWAP3 POP POP POP JUMP JUMPDEST PUSH0 PUSH2 0x29CF DUP4 PUSH2 0x2C4C JUMP JUMPDEST PUSH2 0x29DF JUMPI PUSH2 0x29DC PUSH0 PUSH2 0x2902 JUMP JUMPDEST SWAP3 POP JUMPDEST PUSH2 0x29E8 DUP3 PUSH2 0x2C4C JUMP JUMPDEST PUSH2 0x29F8 JUMPI PUSH2 0x29F5 PUSH0 PUSH2 0x2902 JUMP JUMPDEST SWAP2 POP JUMPDEST PUSH2 0x2A03 DUP4 DUP4 PUSH0 PUSH2 0x2F5D JUMP JUMPDEST SWAP1 POP SWAP3 SWAP2 POP POP JUMP JUMPDEST PUSH0 DUP1 PUSH2 0x2A3A PUSH2 0x2A22 DUP8 PUSH1 0x80 ADD MLOAD DUP6 PUSH1 0x40 ADD MLOAD PUSH2 0x3086 JUMP JUMPDEST PUSH1 0x6 PUSH1 0x14 SWAP1 SLOAD SWAP1 PUSH2 0x100 EXP SWAP1 DIV PUSH4 0xFFFFFFFF AND PUSH2 0x30CC JUMP JUMPDEST SWAP1 POP PUSH2 0x2A64 PUSH2 0x2A55 DUP5 PUSH1 0xE0 ADD MLOAD PUSH2 0x2A50 PUSH0 PUSH2 0x2902 JUMP JUMPDEST PUSH2 0x30FE JUMP JUMPDEST PUSH2 0x2A5E PUSH0 PUSH2 0x2902 JUMP JUMPDEST DUP4 PUSH2 0x29B0 JUMP JUMPDEST SWAP1 POP DUP1 SWAP2 POP POP SWAP5 SWAP4 POP POP POP POP JUMP JUMPDEST PUSH0 DUP1 PUSH2 0x2A80 DUP8 DUP5 DUP9 DUP12 PUSH2 0x2A0B JUMP JUMPDEST SWAP1 POP PUSH0 PUSH2 0x2A8E DUP9 DUP11 DUP7 PUSH2 0x314D JUMP JUMPDEST SWAP1 POP PUSH0 PUSH2 0x2AAD PUSH2 0x2AA2 DUP12 PUSH1 0xE0 ADD MLOAD DUP8 PUSH2 0x2915 JUMP JUMPDEST DUP12 PUSH1 0xE0 ADD MLOAD DUP8 PUSH2 0x29B0 JUMP JUMPDEST SWAP1 POP PUSH0 PUSH2 0x2AD5 PUSH2 0x2ABD DUP9 DUP5 PUSH2 0x2915 JUMP JUMPDEST PUSH2 0x2AC7 DUP10 DUP6 PUSH2 0x29C5 JUMP JUMPDEST PUSH2 0x2AD0 PUSH0 PUSH2 0x2902 JUMP JUMPDEST PUSH2 0x29B0 JUMP JUMPDEST SWAP1 POP PUSH0 PUSH2 0x2B01 PUSH2 0x2AE9 DUP4 DUP15 PUSH1 0x40 ADD MLOAD PUSH2 0x3086 JUMP JUMPDEST PUSH1 0x6 PUSH1 0x14 SWAP1 SLOAD SWAP1 PUSH2 0x100 EXP SWAP1 DIV PUSH4 0xFFFFFFFF AND PUSH2 0x30CC JUMP JUMPDEST SWAP1 POP PUSH0 PUSH2 0x2B17 DUP3 PUSH2 0x2B12 DUP9 DUP9 PUSH2 0x28BC JUMP JUMPDEST PUSH2 0x28BC JUMP JUMPDEST SWAP1 POP DUP1 SWAP7 POP POP POP POP POP POP POP SWAP7 SWAP6 POP POP POP POP POP POP JUMP JUMPDEST PUSH1 0x60 PUSH2 0x2B61 PUSH0 PUSH32 0x0 PUSH2 0x31AA SWAP1 SWAP2 SWAP1 PUSH4 0xFFFFFFFF AND JUMP JUMPDEST SWAP1 POP SWAP1 JUMP JUMPDEST PUSH1 0x60 PUSH2 0x2B9C PUSH1 0x1 PUSH32 0x0 PUSH2 0x31AA SWAP1 SWAP2 SWAP1 PUSH4 0xFFFFFFFF AND JUMP JUMPDEST SWAP1 POP SWAP1 JUMP JUMPDEST PUSH0 DUP1 DUP4 DUP4 PUSH1 0xF8 SHL PUSH1 0x40 MLOAD PUSH1 0x20 ADD PUSH2 0x2BB9 SWAP3 SWAP2 SWAP1 PUSH2 0x4872 JUMP JUMPDEST PUSH1 0x40 MLOAD PUSH1 0x20 DUP2 DUP4 SUB SUB DUP2 MSTORE SWAP1 PUSH1 0x40 MSTORE SWAP1 POP PUSH1 0x5D PUSH20 0xFFFFFFFFFFFFFFFFFFFFFFFFFFFFFFFFFFFFFFFF AND PUSH4 0x4B252EC8 DUP3 PUSH1 0x40 MLOAD DUP3 PUSH4 0xFFFFFFFF AND PUSH1 0xE0 SHL DUP2 MSTORE PUSH1 0x4 ADD PUSH2 0x2C04 SWAP2 SWAP1 PUSH2 0x48E1 JUMP JUMPDEST PUSH1 0x20 PUSH1 0x40 MLOAD DUP1 DUP4 SUB DUP2 DUP7 GAS STATICCALL ISZERO DUP1 ISZERO PUSH2 0x2C1F JUMPI RETURNDATASIZE PUSH0 DUP1 RETURNDATACOPY RETURNDATASIZE PUSH0 REVERT JUMPDEST POP POP POP POP PUSH1 0x40 MLOAD RETURNDATASIZE PUSH1 0x1F NOT PUSH1 0x1F DUP3 ADD AND DUP3 ADD DUP1 PUSH1 0x40 MSTORE POP DUP2 ADD SWAP1 PUSH2 0x2C43 SWAP2 SWAP1 PUSH2 0x4915 JUMP JUMPDEST SWAP2 POP POP SWAP3 SWAP2 POP POP JUMP JUMPDEST PUSH0 DUP1 DUP3 EQ ISZERO SWAP1 POP SWAP2 SWAP1 POP JUMP JUMPDEST PUSH0 DUP1 DUP3 ISZERO PUSH2 0x2C6C JUMPI PUSH1 0x1 PUSH1 0xF8 SHL SWAP1 POP PUSH2 0x2C73 JUMP JUMPDEST PUSH0 PUSH1 0xF8 SHL SWAP1 POP JUMPDEST PUSH1 0x5D PUSH20 0xFFFFFFFFFFFFFFFFFFFFFFFFFFFFFFFFFFFFFFFF AND PUSH4 0xF953E427 DUP7 DUP7 DUP5 PUSH1 0x40 MLOAD DUP5 PUSH4 0xFFFFFFFF AND PUSH1 0xE0 SHL DUP2 MSTORE PUSH1 0x4 ADD PUSH2 0x2CB1 SWAP4 SWAP3 SWAP2 SWAP1 PUSH2 0x4940 JUMP JUMPDEST PUSH1 0x20 PUSH1 0x40 MLOAD DUP1 DUP4 SUB DUP2 DUP7 GAS STATICCALL ISZERO DUP1 ISZERO PUSH2 0x2CCC JUMPI RETURNDATASIZE PUSH0 DUP1 RETURNDATACOPY RETURNDATASIZE PUSH0 REVERT JUMPDEST POP POP POP POP PUSH1 0x40 MLOAD RETURNDATASIZE PUSH1 0x1F NOT PUSH1 0x1F DUP3 ADD AND DUP3 ADD DUP1 PUSH1 0x40 MSTORE POP DUP2 ADD SWAP1 PUSH2 0x2CF0 SWAP2 SWAP1 PUSH2 0x4915 JUMP JUMPDEST SWAP2 POP POP SWAP4 SWAP3 POP POP POP JUMP JUMPDEST PUSH0 PUSH1 0x5D PUSH20 0xFFFFFFFFFFFFFFFFFFFFFFFFFFFFFFFFFFFFFFFF AND PUSH4 0xE71746B8 DUP5 DUP5 PUSH1 0xF8 SHL PUSH1 0x40 MLOAD DUP4 PUSH4 0xFFFFFFFF AND PUSH1 0xE0 SHL DUP2 MSTORE PUSH1 0x4 ADD PUSH2 0x2D3A SWAP3 SWAP2 SWAP1 PUSH2 0x4975 JUMP JUMPDEST PUSH1 0x20 PUSH1 0x40 MLOAD DUP1 DUP4 SUB DUP2 DUP7 GAS STATICCALL ISZERO DUP1 ISZERO PUSH2 0x2D55 JUMPI RETURNDATASIZE PUSH0 DUP1 RETURNDATACOPY RETURNDATASIZE PUSH0 REVERT JUMPDEST POP POP POP POP PUSH1 0x40 MLOAD RETURNDATASIZE PUSH1 0x1F NOT PUSH1 0x1F DUP3 ADD AND DUP3 ADD DUP1 PUSH1 0x40 MSTORE POP DUP2 ADD SWAP1 PUSH2 0x2D79 SWAP2 SWAP1 PUSH2 0x4915 JUMP JUMPDEST SWAP1 POP SWAP3 SWAP2 POP POP JUMP JUMPDEST PUSH0 DUP1 DUP3 ISZERO PUSH2 0x2D95 JUMPI PUSH1 0x1 PUSH1 0xF8 SHL SWAP1 POP PUSH2 0x2D9C JUMP JUMPDEST PUSH0 PUSH1 0xF8 SHL SWAP1 POP JUMPDEST PUSH1 0x5D PUSH20 0xFFFFFFFFFFFFFFFFFFFFFFFFFFFFFFFFFFFFFFFF AND PUSH4 0x52896F1 DUP7 DUP7 DUP5 PUSH1 0x40 MLOAD DUP5 PUSH4 0xFFFFFFFF AND PUSH1 0xE0 SHL DUP2 MSTORE PUSH1 0x4 ADD PUSH2 0x2DDA SWAP4 SWAP3 SWAP2 SWAP1 PUSH2 0x4940 JUMP JUMPDEST PUSH1 0x20 PUSH1 0x40 MLOAD DUP1 DUP4 SUB DUP2 DUP7 GAS STATICCALL ISZERO DUP1 ISZERO PUSH2 0x2DF5 JUMPI RETURNDATASIZE PUSH0 DUP1 RETURNDATACOPY RETURNDATASIZE PUSH0 REVERT JUMPDEST POP POP POP POP PUSH1 0x40 MLOAD RETURNDATASIZE PUSH1 0x1F NOT PUSH1 0x1F DUP3 ADD AND DUP3 ADD DUP1 PUSH1 0x40 MSTORE POP DUP2 ADD SWAP1 PUSH2 0x2E19 SWAP2 SWAP1 PUSH2 0x4915 JUMP JUMPDEST SWAP2 POP POP SWAP4 SWAP3 POP POP POP JUMP JUMPDEST PUSH0 PUSH1 0x5D PUSH20 0xFFFFFFFFFFFFFFFFFFFFFFFFFFFFFFFFFFFFFFFF AND PUSH4 0x4BE68D20 DUP5 DUP5 PUSH1 0xF8 SHL PUSH1 0x40 MLOAD DUP4 PUSH4 0xFFFFFFFF AND PUSH1 0xE0 SHL DUP2 MSTORE PUSH1 0x4 ADD PUSH2 0x2E63 SWAP3 SWAP2 SWAP1 PUSH2 0x4975 JUMP JUMPDEST PUSH1 0x20 PUSH1 0x40 MLOAD DUP1 DUP4 SUB DUP2 DUP7 GAS STATICCALL ISZERO DUP1 ISZERO PUSH2 0x2E7E JUMPI RETURNDATASIZE PUSH0 DUP1 RETURNDATACOPY RETURNDATASIZE PUSH0 REVERT JUMPDEST POP POP POP POP PUSH1 0x40 MLOAD RETURNDATASIZE PUSH1 0x1F NOT PUSH1 0x1F DUP3 ADD AND DUP3 ADD DUP1 PUSH1 0x40 MSTORE POP DUP2 ADD SWAP1 PUSH2 0x2EA2 SWAP2 SWAP1 PUSH2 0x4915 JUMP JUMPDEST SWAP1 POP SWAP3 SWAP2 POP POP JUMP JUMPDEST PUSH0 DUP2 PUSH1 0x40 MLOAD PUSH1 0x24 ADD PUSH2 0x2EBC SWAP2 SWAP1 PUSH2 0x499C JUMP JUMPDEST PUSH1 0x40 MLOAD PUSH1 0x20 DUP2 DUP4 SUB SUB DUP2 MSTORE SWAP1 PUSH1 0x40 MSTORE PUSH32 0x4EE071A100000000000000000000000000000000000000000000000000000000 PUSH28 0xFFFFFFFFFFFFFFFFFFFFFFFFFFFFFFFFFFFFFFFFFFFFFFFFFFFFFFFF NOT AND PUSH1 0x20 DUP3 ADD DUP1 MLOAD PUSH28 0xFFFFFFFFFFFFFFFFFFFFFFFFFFFFFFFFFFFFFFFFFFFFFFFFFFFFFFFF DUP4 DUP2 DUP4 AND OR DUP4 MSTORE POP POP POP POP SWAP1 POP PUSH0 DUP2 MLOAD SWAP1 POP PUSH0 PUSH1 0x5D SWAP1 POP PUSH0 DUP1 DUP4 PUSH1 0x20 DUP7 ADD DUP5 GAS STATICCALL PUSH2 0x2F57 JUMPI PUSH0 DUP1 REVERT JUMPDEST POP POP POP POP JUMP JUMPDEST PUSH0 DUP1 DUP3 ISZERO PUSH2 0x2F71 JUMPI PUSH1 0x1 PUSH1 0xF8 SHL SWAP1 POP PUSH2 0x2F78 JUMP JUMPDEST PUSH0 PUSH1 0xF8 SHL SWAP1 POP JUMPDEST PUSH1 0x5D PUSH20 0xFFFFFFFFFFFFFFFFFFFFFFFFFFFFFFFFFFFFFFFF AND PUSH4 0x8C14CC21 DUP7 DUP7 DUP5 PUSH1 0x40 MLOAD DUP5 PUSH4 0xFFFFFFFF AND PUSH1 0xE0 SHL DUP2 MSTORE PUSH1 0x4 ADD PUSH2 0x2FB6 SWAP4 SWAP3 SWAP2 SWAP1 PUSH2 0x4940 JUMP JUMPDEST PUSH1 0x20 PUSH1 0x40 MLOAD DUP1 DUP4 SUB DUP2 DUP7 GAS STATICCALL ISZERO DUP1 ISZERO PUSH2 0x2FD1 JUMPI RETURNDATASIZE PUSH0 DUP1 RETURNDATACOPY RETURNDATASIZE PUSH0 REVERT JUMPDEST POP POP POP POP PUSH1 0x40 MLOAD RETURNDATASIZE PUSH1 0x1F NOT PUSH1 0x1F DUP3 ADD AND DUP3 ADD DUP1 PUSH1 0x40 MSTORE POP DUP2 ADD SWAP1 PUSH2 0x2FF5 SWAP2 SWAP1 PUSH2 0x4915 JUMP JUMPDEST SWAP2 POP POP SWAP4 SWAP3 POP POP POP JUMP JUMPDEST PUSH0 PUSH1 0x5D PUSH20 0xFFFFFFFFFFFFFFFFFFFFFFFFFFFFFFFFFFFFFFFF AND PUSH4 0xCB3B9407 DUP6 DUP6 DUP6 PUSH1 0x40 MLOAD DUP5 PUSH4 0xFFFFFFFF AND PUSH1 0xE0 SHL DUP2 MSTORE PUSH1 0x4 ADD PUSH2 0x303E SWAP4 SWAP3 SWAP2 SWAP1 PUSH2 0x49B5 JUMP JUMPDEST PUSH1 0x20 PUSH1 0x40 MLOAD DUP1 DUP4 SUB DUP2 DUP7 GAS STATICCALL ISZERO DUP1 ISZERO PUSH2 0x3059 JUMPI RETURNDATASIZE PUSH0 DUP1 RETURNDATACOPY RETURNDATASIZE PUSH0 REVERT JUMPDEST POP POP POP POP PUSH1 0x40 MLOAD RETURNDATASIZE PUSH1 0x1F NOT PUSH1 0x1F DUP3 ADD AND DUP3 ADD DUP1 PUSH1 0x40 MSTORE POP DUP2 ADD SWAP1 PUSH2 0x307D SWAP2 SWAP1 PUSH2 0x4915 JUMP JUMPDEST SWAP1 POP SWAP4 SWAP3 POP POP POP JUMP JUMPDEST PUSH0 PUSH2 0x3090 DUP4 PUSH2 0x2C4C JUMP JUMPDEST PUSH2 0x30A0 JUMPI PUSH2 0x309D PUSH0 PUSH2 0x2902 JUMP JUMPDEST SWAP3 POP JUMPDEST PUSH2 0x30A9 DUP3 PUSH2 0x2C4C JUMP JUMPDEST PUSH2 0x30B9 JUMPI PUSH2 0x30B6 PUSH0 PUSH2 0x2902 JUMP JUMPDEST SWAP2 POP JUMPDEST PUSH2 0x30C4 DUP4 DUP4 PUSH0 PUSH2 0x3257 JUMP JUMPDEST SWAP1 POP SWAP3 SWAP2 POP POP JUMP JUMPDEST PUSH0 PUSH2 0x30D6 DUP4 PUSH2 0x2C4C JUMP JUMPDEST PUSH2 0x30E6 JUMPI PUSH2 0x30E3 PUSH0 PUSH2 0x2902 JUMP JUMPDEST SWAP3 POP JUMPDEST PUSH2 0x30F6 DUP4 DUP4 PUSH4 0xFFFFFFFF AND PUSH2 0x32F9 JUMP JUMPDEST SWAP1 POP SWAP3 SWAP2 POP POP JUMP JUMPDEST PUSH0 PUSH2 0x3108 DUP4 PUSH2 0x2C4C JUMP JUMPDEST PUSH2 0x3118 JUMPI PUSH2 0x3115 PUSH0 PUSH2 0x2902 JUMP JUMPDEST SWAP3 POP JUMPDEST PUSH2 0x3121 DUP3 PUSH2 0x2C4C JUMP JUMPDEST PUSH2 0x3131 JUMPI PUSH2 0x312E PUSH0 PUSH2 0x2902 JUMP JUMPDEST SWAP2 POP JUMPDEST PUSH2 0x3145 PUSH2 0x313F DUP5 DUP5 PUSH0 PUSH2 0x3388 JUMP JUMPDEST PUSH0 PUSH2 0x2E23 JUMP JUMPDEST SWAP1 POP SWAP3 SWAP2 POP POP JUMP JUMPDEST PUSH0 DUP1 PUSH2 0x317C PUSH2 0x3164 DUP7 PUSH1 0xA0 ADD MLOAD DUP7 PUSH1 0x40 ADD MLOAD PUSH2 0x3086 JUMP JUMPDEST PUSH1 0x6 PUSH1 0x14 SWAP1 SLOAD SWAP1 PUSH2 0x100 EXP SWAP1 DIV PUSH4 0xFFFFFFFF AND PUSH2 0x30CC JUMP JUMPDEST SWAP1 POP PUSH2 0x319E PUSH2 0x318F DUP6 PUSH1 0xE0 ADD MLOAD DUP6 PUSH2 0x2915 JUMP JUMPDEST PUSH2 0x3198 PUSH0 PUSH2 0x2902 JUMP JUMPDEST DUP4 PUSH2 0x29B0 JUMP JUMPDEST POP DUP1 SWAP2 POP POP SWAP4 SWAP3 POP POP POP JUMP JUMPDEST PUSH1 0x60 PUSH1 0xFF PUSH0 SHL DUP4 EQ PUSH2 0x31C6 JUMPI PUSH2 0x31BF DUP4 PUSH2 0x342A JUMP JUMPDEST SWAP1 POP PUSH2 0x3251 JUMP JUMPDEST DUP2 DUP1 SLOAD PUSH2 0x31D2 SWAP1 PUSH2 0x42B3 JUMP JUMPDEST DUP1 PUSH1 0x1F ADD PUSH1 0x20 DUP1 SWAP2 DIV MUL PUSH1 0x20 ADD PUSH1 0x40 MLOAD SWAP1 DUP2 ADD PUSH1 0x40 MSTORE DUP1 SWAP3 SWAP2 SWAP1 DUP2 DUP2 MSTORE PUSH1 0x20 ADD DUP3 DUP1 SLOAD PUSH2 0x31FE SWAP1 PUSH2 0x42B3 JUMP JUMPDEST DUP1 ISZERO PUSH2 0x3249 JUMPI DUP1 PUSH1 0x1F LT PUSH2 0x3220 JUMPI PUSH2 0x100 DUP1 DUP4 SLOAD DIV MUL DUP4 MSTORE SWAP2 PUSH1 0x20 ADD SWAP2 PUSH2 0x3249 JUMP JUMPDEST DUP3 ADD SWAP2 SWAP1 PUSH0 MSTORE PUSH1 0x20 PUSH0 KECCAK256 SWAP1 JUMPDEST DUP2 SLOAD DUP2 MSTORE SWAP1 PUSH1 0x1 ADD SWAP1 PUSH1 0x20 ADD DUP1 DUP4 GT PUSH2 0x322C JUMPI DUP3 SWAP1 SUB PUSH1 0x1F AND DUP3 ADD SWAP2 JUMPDEST POP POP POP POP POP SWAP1 POP JUMPDEST SWAP3 SWAP2 POP POP JUMP JUMPDEST PUSH0 DUP1 DUP3 ISZERO PUSH2 0x326B JUMPI PUSH1 0x1 PUSH1 0xF8 SHL SWAP1 POP PUSH2 0x3272 JUMP JUMPDEST PUSH0 PUSH1 0xF8 SHL SWAP1 POP JUMPDEST PUSH1 0x5D PUSH20 0xFFFFFFFFFFFFFFFFFFFFFFFFFFFFFFFFFFFFFFFF AND PUSH4 0x816D57D3 DUP7 DUP7 DUP5 PUSH1 0x40 MLOAD DUP5 PUSH4 0xFFFFFFFF AND PUSH1 0xE0 SHL DUP2 MSTORE PUSH1 0x4 ADD PUSH2 0x32B0 SWAP4 SWAP3 SWAP2 SWAP1 PUSH2 0x4940 JUMP JUMPDEST PUSH1 0x20 PUSH1 0x40 MLOAD DUP1 DUP4 SUB DUP2 DUP7 GAS STATICCALL ISZERO DUP1 ISZERO PUSH2 0x32CB JUMPI RETURNDATASIZE PUSH0 DUP1 RETURNDATACOPY RETURNDATASIZE PUSH0 REVERT JUMPDEST POP POP POP POP PUSH1 0x40 MLOAD RETURNDATASIZE PUSH1 0x1F NOT PUSH1 0x1F DUP3 ADD AND DUP3 ADD DUP1 PUSH1 0x40 MSTORE POP DUP2 ADD SWAP1 PUSH2 0x32EF SWAP2 SWAP1 PUSH2 0x4915 JUMP JUMPDEST SWAP2 POP POP SWAP4 SWAP3 POP POP POP JUMP JUMPDEST PUSH0 DUP1 PUSH1 0x1 PUSH1 0xF8 SHL SWAP1 POP PUSH1 0x5D PUSH20 0xFFFFFFFFFFFFFFFFFFFFFFFFFFFFFFFFFFFFFFFF AND PUSH4 0x36CDD31B DUP6 DUP6 DUP5 PUSH1 0x40 MLOAD DUP5 PUSH4 0xFFFFFFFF AND PUSH1 0xE0 SHL DUP2 MSTORE PUSH1 0x4 ADD PUSH2 0x3340 SWAP4 SWAP3 SWAP2 SWAP1 PUSH2 0x4940 JUMP JUMPDEST PUSH1 0x20 PUSH1 0x40 MLOAD DUP1 DUP4 SUB DUP2 DUP7 GAS STATICCALL ISZERO DUP1 ISZERO PUSH2 0x335B JUMPI RETURNDATASIZE PUSH0 DUP1 RETURNDATACOPY RETURNDATASIZE PUSH0 REVERT JUMPDEST POP POP POP POP PUSH1 0x40 MLOAD RETURNDATASIZE PUSH1 0x1F NOT PUSH1 0x1F DUP3 ADD AND DUP3 ADD DUP1 PUSH1 0x40 MSTORE POP DUP2 ADD SWAP1 PUSH2 0x337F SWAP2 SWAP1 PUSH2 0x4915 JUMP JUMPDEST SWAP2 POP POP SWAP3 SWAP2 POP POP JUMP JUMPDEST PUSH0 DUP1 DUP3 ISZERO PUSH2 0x339C JUMPI PUSH1 0x1 PUSH1 0xF8 SHL SWAP1 POP PUSH2 0x33A3 JUMP JUMPDEST PUSH0 PUSH1 0xF8 SHL SWAP1 POP JUMPDEST PUSH1 0x5D PUSH20 0xFFFFFFFFFFFFFFFFFFFFFFFFFFFFFFFFFFFFFFFF AND PUSH4 0x19271081 DUP7 DUP7 DUP5 PUSH1 0x40 MLOAD DUP5 PUSH4 0xFFFFFFFF AND PUSH1 0xE0 SHL DUP2 MSTORE PUSH1 0x4 ADD PUSH2 0x33E1 SWAP4 SWAP3 SWAP2 SWAP1 PUSH2 0x4940 JUMP JUMPDEST PUSH1 0x20 PUSH1 0x40 MLOAD DUP1 DUP4 SUB DUP2 DUP7 GAS STATICCALL ISZERO DUP1 ISZERO PUSH2 0x33FC JUMPI RETURNDATASIZE PUSH0 DUP1 RETURNDATACOPY RETURNDATASIZE PUSH0 REVERT JUMPDEST POP POP POP POP PUSH1 0x40 MLOAD RETURNDATASIZE PUSH1 0x1F NOT PUSH1 0x1F DUP3 ADD AND DUP3 ADD DUP1 PUSH1 0x40 MSTORE POP DUP2 ADD SWAP1 PUSH2 0x3420 SWAP2 SWAP1 PUSH2 0x4915 JUMP JUMPDEST SWAP2 POP POP SWAP4 SWAP3 POP POP POP JUMP JUMPDEST PUSH1 0x60 PUSH0 PUSH2 0x3436 DUP4 PUSH2 0x349C JUMP JUMPDEST SWAP1 POP PUSH0 PUSH1 0x20 PUSH8 0xFFFFFFFFFFFFFFFF DUP2 GT ISZERO PUSH2 0x3454 JUMPI PUSH2 0x3453 PUSH2 0x3960 JUMP JUMPDEST JUMPDEST PUSH1 0x40 MLOAD SWAP1 DUP1 DUP3 MSTORE DUP1 PUSH1 0x1F ADD PUSH1 0x1F NOT AND PUSH1 0x20 ADD DUP3 ADD PUSH1 0x40 MSTORE DUP1 ISZERO PUSH2 0x3486 JUMPI DUP2 PUSH1 0x20 ADD PUSH1 0x1 DUP3 MUL DUP1 CALLDATASIZE DUP4 CALLDATACOPY DUP1 DUP3 ADD SWAP2 POP POP SWAP1 POP JUMPDEST POP SWAP1 POP DUP2 DUP2 MSTORE DUP4 PUSH1 0x20 DUP3 ADD MSTORE DUP1 SWAP3 POP POP POP SWAP2 SWAP1 POP JUMP JUMPDEST PUSH0 DUP1 PUSH1 0xFF DUP4 PUSH0 SHR AND SWAP1 POP PUSH1 0x1F DUP2 GT ISZERO PUSH2 0x34E1 JUMPI PUSH1 0x40 MLOAD PUSH32 0xB3512B0C00000000000000000000000000000000000000000000000000000000 DUP2 MSTORE PUSH1 0x4 ADD PUSH1 0x40 MLOAD DUP1 SWAP2 SUB SWAP1 REVERT JUMPDEST DUP1 SWAP2 POP POP SWAP2 SWAP1 POP JUMP JUMPDEST PUSH1 0x40 MLOAD DUP1 PUSH1 0xC0 ADD PUSH1 0x40 MSTORE DUP1 PUSH0 DUP2 MSTORE PUSH1 0x20 ADD PUSH0 PUSH20 0xFFFFFFFFFFFFFFFFFFFFFFFFFFFFFFFFFFFFFFFF AND DUP2 MSTORE PUSH1 0x20 ADD PUSH0 DUP2 MSTORE PUSH1 0x20 ADD PUSH0 DUP2 MSTORE PUSH1 0x20 ADD PUSH0 DUP2 MSTORE PUSH1 0x20 ADD PUSH0 PUSH20 0xFFFFFFFFFFFFFFFFFFFFFFFFFFFFFFFFFFFFFFFF AND DUP2 MSTORE POP SWAP1 JUMP JUMPDEST PUSH1 0x40 MLOAD DUP1 PUSH2 0x100 ADD PUSH1 0x40 MSTORE DUP1 PUSH1 0x60 DUP2 MSTORE PUSH1 0x20 ADD PUSH0 PUSH20 0xFFFFFFFFFFFFFFFFFFFFFFFFFFFFFFFFFFFFFFFF AND DUP2 MSTORE PUSH1 0x20 ADD PUSH0 DUP2 MSTORE PUSH1 0x20 ADD PUSH0 DUP2 MSTORE PUSH1 0x20 ADD PUSH0 DUP2 MSTORE PUSH1 0x20 ADD PUSH0 DUP2 MSTORE PUSH1 0x20 ADD PUSH0 PUSH4 0xFFFFFFFF AND DUP2 MSTORE PUSH1 0x20 ADD PUSH0 DUP2 MSTORE POP SWAP1 JUMP JUMPDEST PUSH0 PUSH1 0x40 MLOAD SWAP1 POP SWAP1 JUMP JUMPDEST PUSH0 DUP1 REVERT JUMPDEST PUSH0 DUP1 REVERT JUMPDEST PUSH0 DUP1 REVERT JUMPDEST PUSH0 DUP1 REVERT JUMPDEST PUSH0 DUP1 REVERT JUMPDEST PUSH0 DUP1 DUP4 PUSH1 0x1F DUP5 ADD SLT PUSH2 0x35D2 JUMPI PUSH2 0x35D1 PUSH2 0x35B1 JUMP JUMPDEST JUMPDEST DUP3 CALLDATALOAD SWAP1 POP PUSH8 0xFFFFFFFFFFFFFFFF DUP2 GT ISZERO PUSH2 0x35EF JUMPI PUSH2 0x35EE PUSH2 0x35B5 JUMP JUMPDEST JUMPDEST PUSH1 0x20 DUP4 ADD SWAP2 POP DUP4 PUSH1 0x1 DUP3 MUL DUP4 ADD GT ISZERO PUSH2 0x360B JUMPI PUSH2 0x360A PUSH2 0x35B9 JUMP JUMPDEST JUMPDEST SWAP3 POP SWAP3 SWAP1 POP JUMP JUMPDEST PUSH0 DUP2 SWAP1 POP SWAP2 SWAP1 POP JUMP JUMPDEST PUSH2 0x3624 DUP2 PUSH2 0x3612 JUMP JUMPDEST DUP2 EQ PUSH2 0x362E JUMPI PUSH0 DUP1 REVERT JUMPDEST POP JUMP JUMPDEST PUSH0 DUP2 CALLDATALOAD SWAP1 POP PUSH2 0x363F DUP2 PUSH2 0x361B JUMP JUMPDEST SWAP3 SWAP2 POP POP JUMP JUMPDEST PUSH0 DUP1 PUSH0 PUSH1 0x40 DUP5 DUP7 SUB SLT ISZERO PUSH2 0x365C JUMPI PUSH2 0x365B PUSH2 0x35A9 JUMP JUMPDEST JUMPDEST PUSH0 DUP5 ADD CALLDATALOAD PUSH8 0xFFFFFFFFFFFFFFFF DUP2 GT ISZERO PUSH2 0x3679 JUMPI PUSH2 0x3678 PUSH2 0x35AD JUMP JUMPDEST JUMPDEST PUSH2 0x3685 DUP7 DUP3 DUP8 ADD PUSH2 0x35BD JUMP JUMPDEST SWAP4 POP SWAP4 POP POP PUSH1 0x20 PUSH2 0x3698 DUP7 DUP3 DUP8 ADD PUSH2 0x3631 JUMP JUMPDEST SWAP2 POP POP SWAP3 POP SWAP3 POP SWAP3 JUMP JUMPDEST PUSH0 PUSH1 0x20 DUP3 DUP5 SUB SLT ISZERO PUSH2 0x36B7 JUMPI PUSH2 0x36B6 PUSH2 0x35A9 JUMP JUMPDEST JUMPDEST PUSH0 PUSH2 0x36C4 DUP5 DUP3 DUP6 ADD PUSH2 0x3631 JUMP JUMPDEST SWAP2 POP POP SWAP3 SWAP2 POP POP JUMP JUMPDEST PUSH0 DUP2 SWAP1 POP SWAP2 SWAP1 POP JUMP JUMPDEST PUSH0 DUP2 SWAP1 POP SWAP2 SWAP1 POP JUMP JUMPDEST PUSH0 PUSH2 0x36F9 PUSH2 0x36F4 PUSH2 0x36EF DUP5 PUSH2 0x36CD JUMP JUMPDEST PUSH2 0x36D6 JUMP JUMPDEST PUSH2 0x36CD JUMP JUMPDEST SWAP1 POP SWAP2 SWAP1 POP JUMP JUMPDEST PUSH2 0x3709 DUP2 PUSH2 0x36DF JUMP JUMPDEST DUP3 MSTORE POP POP JUMP JUMPDEST PUSH0 PUSH1 0x20 DUP3 ADD SWAP1 POP PUSH2 0x3722 PUSH0 DUP4 ADD DUP5 PUSH2 0x3700 JUMP JUMPDEST SWAP3 SWAP2 POP POP JUMP JUMPDEST PUSH0 PUSH20 0xFFFFFFFFFFFFFFFFFFFFFFFFFFFFFFFFFFFFFFFF DUP3 AND SWAP1 POP SWAP2 SWAP1 POP JUMP JUMPDEST PUSH0 PUSH2 0x3751 DUP3 PUSH2 0x3728 JUMP JUMPDEST SWAP1 POP SWAP2 SWAP1 POP JUMP JUMPDEST PUSH2 0x3761 DUP2 PUSH2 0x3747 JUMP JUMPDEST DUP2 EQ PUSH2 0x376B JUMPI PUSH0 DUP1 REVERT JUMPDEST POP JUMP JUMPDEST PUSH0 DUP2 CALLDATALOAD SWAP1 POP PUSH2 0x377C DUP2 PUSH2 0x3758 JUMP JUMPDEST SWAP3 SWAP2 POP POP JUMP JUMPDEST PUSH0 DUP1 PUSH1 0x40 DUP4 DUP6 SUB SLT ISZERO PUSH2 0x3798 JUMPI PUSH2 0x3797 PUSH2 0x35A9 JUMP JUMPDEST JUMPDEST PUSH0 PUSH2 0x37A5 DUP6 DUP3 DUP7 ADD PUSH2 0x3631 JUMP JUMPDEST SWAP3 POP POP PUSH1 0x20 PUSH2 0x37B6 DUP6 DUP3 DUP7 ADD PUSH2 0x376E JUMP JUMPDEST SWAP2 POP POP SWAP3 POP SWAP3 SWAP1 POP JUMP JUMPDEST PUSH0 DUP2 MLOAD SWAP1 POP SWAP2 SWAP1 POP JUMP JUMPDEST PUSH0 DUP3 DUP3 MSTORE PUSH1 0x20 DUP3 ADD SWAP1 POP SWAP3 SWAP2 POP POP JUMP JUMPDEST PUSH0 JUMPDEST DUP4 DUP2 LT ISZERO PUSH2 0x37F7 JUMPI DUP1 DUP3 ADD MLOAD DUP2 DUP5 ADD MSTORE PUSH1 0x20 DUP2 ADD SWAP1 POP PUSH2 0x37DC JUMP JUMPDEST PUSH0 DUP5 DUP5 ADD MSTORE POP POP POP POP JUMP JUMPDEST PUSH0 PUSH1 0x1F NOT PUSH1 0x1F DUP4 ADD AND SWAP1 POP SWAP2 SWAP1 POP JUMP JUMPDEST PUSH0 PUSH2 0x381C DUP3 PUSH2 0x37C0 JUMP JUMPDEST PUSH2 0x3826 DUP2 DUP6 PUSH2 0x37CA JUMP JUMPDEST SWAP4 POP PUSH2 0x3836 DUP2 DUP6 PUSH1 0x20 DUP7 ADD PUSH2 0x37DA JUMP JUMPDEST PUSH2 0x383F DUP2 PUSH2 0x3802 JUMP JUMPDEST DUP5 ADD SWAP2 POP POP SWAP3 SWAP2 POP POP JUMP JUMPDEST PUSH2 0x3853 DUP2 PUSH2 0x3747 JUMP JUMPDEST DUP3 MSTORE POP POP JUMP JUMPDEST PUSH2 0x3862 DUP2 PUSH2 0x36DF JUMP JUMPDEST DUP3 MSTORE POP POP JUMP JUMPDEST PUSH0 PUSH4 0xFFFFFFFF DUP3 AND SWAP1 POP SWAP2 SWAP1 POP JUMP JUMPDEST PUSH2 0x3880 DUP2 PUSH2 0x3868 JUMP JUMPDEST DUP3 MSTORE POP POP JUMP JUMPDEST PUSH0 PUSH2 0x100 DUP3 ADD SWAP1 POP DUP2 DUP2 SUB PUSH0 DUP4 ADD MSTORE PUSH2 0x389F DUP2 DUP12 PUSH2 0x3812 JUMP JUMPDEST SWAP1 POP PUSH2 0x38AE PUSH1 0x20 DUP4 ADD DUP11 PUSH2 0x384A JUMP JUMPDEST PUSH2 0x38BB PUSH1 0x40 DUP4 ADD DUP10 PUSH2 0x3700 JUMP JUMPDEST PUSH2 0x38C8 PUSH1 0x60 DUP4 ADD DUP9 PUSH2 0x3700 JUMP JUMPDEST PUSH2 0x38D5 PUSH1 0x80 DUP4 ADD DUP8 PUSH2 0x3700 JUMP JUMPDEST PUSH2 0x38E2 PUSH1 0xA0 DUP4 ADD DUP7 PUSH2 0x3859 JUMP JUMPDEST PUSH2 0x38EF PUSH1 0xC0 DUP4 ADD DUP6 PUSH2 0x3877 JUMP JUMPDEST PUSH2 0x38FC PUSH1 0xE0 DUP4 ADD DUP5 PUSH2 0x3700 JUMP JUMPDEST SWAP10 SWAP9 POP POP POP POP POP POP POP POP POP JUMP JUMPDEST PUSH0 PUSH1 0x20 DUP3 DUP5 SUB SLT ISZERO PUSH2 0x391E JUMPI PUSH2 0x391D PUSH2 0x35A9 JUMP JUMPDEST JUMPDEST PUSH0 PUSH2 0x392B DUP5 DUP3 DUP6 ADD PUSH2 0x376E JUMP JUMPDEST SWAP2 POP POP SWAP3 SWAP2 POP POP JUMP JUMPDEST PUSH2 0x393D DUP2 PUSH2 0x3612 JUMP JUMPDEST DUP3 MSTORE POP POP JUMP JUMPDEST PUSH0 PUSH1 0x20 DUP3 ADD SWAP1 POP PUSH2 0x3956 PUSH0 DUP4 ADD DUP5 PUSH2 0x3934 JUMP JUMPDEST SWAP3 SWAP2 POP POP JUMP JUMPDEST PUSH0 DUP1 REVERT JUMPDEST PUSH32 0x4E487B7100000000000000000000000000000000000000000000000000000000 PUSH0 MSTORE PUSH1 0x41 PUSH1 0x4 MSTORE PUSH1 0x24 PUSH0 REVERT JUMPDEST PUSH2 0x3996 DUP3 PUSH2 0x3802 JUMP JUMPDEST DUP2 ADD DUP2 DUP2 LT PUSH8 0xFFFFFFFFFFFFFFFF DUP3 GT OR ISZERO PUSH2 0x39B5 JUMPI PUSH2 0x39B4 PUSH2 0x3960 JUMP JUMPDEST JUMPDEST DUP1 PUSH1 0x40 MSTORE POP POP POP JUMP JUMPDEST PUSH0 PUSH2 0x39C7 PUSH2 0x35A0 JUMP JUMPDEST SWAP1 POP PUSH2 0x39D3 DUP3 DUP3 PUSH2 0x398D JUMP JUMPDEST SWAP2 SWAP1 POP JUMP JUMPDEST PUSH2 0x39E1 DUP2 PUSH2 0x36CD JUMP JUMPDEST DUP2 EQ PUSH2 0x39EB JUMPI PUSH0 DUP1 REVERT JUMPDEST POP JUMP JUMPDEST PUSH0 DUP2 CALLDATALOAD SWAP1 POP PUSH2 0x39FC DUP2 PUSH2 0x39D8 JUMP JUMPDEST SWAP3 SWAP2 POP POP JUMP JUMPDEST PUSH0 PUSH1 0xE0 DUP3 DUP5 SUB SLT ISZERO PUSH2 0x3A17 JUMPI PUSH2 0x3A16 PUSH2 0x395C JUMP JUMPDEST JUMPDEST PUSH2 0x3A21 PUSH1 0xE0 PUSH2 0x39BE JUMP JUMPDEST SWAP1 POP PUSH0 PUSH2 0x3A30 DUP5 DUP3 DUP6 ADD PUSH2 0x39EE JUMP JUMPDEST PUSH0 DUP4 ADD MSTORE POP PUSH1 0x20 PUSH2 0x3A43 DUP5 DUP3 DUP6 ADD PUSH2 0x39EE JUMP JUMPDEST PUSH1 0x20 DUP4 ADD MSTORE POP PUSH1 0x40 PUSH2 0x3A57 DUP5 DUP3 DUP6 ADD PUSH2 0x39EE JUMP JUMPDEST PUSH1 0x40 DUP4 ADD MSTORE POP PUSH1 0x60 PUSH2 0x3A6B DUP5 DUP3 DUP6 ADD PUSH2 0x39EE JUMP JUMPDEST PUSH1 0x60 DUP4 ADD MSTORE POP PUSH1 0x80 PUSH2 0x3A7F DUP5 DUP3 DUP6 ADD PUSH2 0x39EE JUMP JUMPDEST PUSH1 0x80 DUP4 ADD MSTORE POP PUSH1 0xA0 PUSH2 0x3A93 DUP5 DUP3 DUP6 ADD PUSH2 0x39EE JUMP JUMPDEST PUSH1 0xA0 DUP4 ADD MSTORE POP PUSH1 0xC0 PUSH2 0x3AA7 DUP5 DUP3 DUP6 ADD PUSH2 0x39EE JUMP JUMPDEST PUSH1 0xC0 DUP4 ADD MSTORE POP SWAP3 SWAP2 POP POP JUMP JUMPDEST PUSH0 DUP1 PUSH2 0x100 DUP4 DUP6 SUB SLT ISZERO PUSH2 0x3ACA JUMPI PUSH2 0x3AC9 PUSH2 0x35A9 JUMP JUMPDEST JUMPDEST PUSH0 PUSH2 0x3AD7 DUP6 DUP3 DUP7 ADD PUSH2 0x3A02 JUMP JUMPDEST SWAP3 POP POP PUSH1 0xE0 PUSH2 0x3AE8 DUP6 DUP3 DUP7 ADD PUSH2 0x3631 JUMP JUMPDEST SWAP2 POP POP SWAP3 POP SWAP3 SWAP1 POP JUMP JUMPDEST PUSH2 0x3AFB DUP2 PUSH2 0x36DF JUMP JUMPDEST DUP3 MSTORE POP POP JUMP JUMPDEST PUSH2 0x3B0A DUP2 PUSH2 0x3747 JUMP JUMPDEST DUP3 MSTORE POP POP JUMP JUMPDEST PUSH1 0xC0 DUP3 ADD PUSH0 DUP3 ADD MLOAD PUSH2 0x3B24 PUSH0 DUP6 ADD DUP3 PUSH2 0x3AF2 JUMP JUMPDEST POP PUSH1 0x20 DUP3 ADD MLOAD PUSH2 0x3B37 PUSH1 0x20 DUP6 ADD DUP3 PUSH2 0x3B01 JUMP JUMPDEST POP PUSH1 0x40 DUP3 ADD MLOAD PUSH2 0x3B4A PUSH1 0x40 DUP6 ADD DUP3 PUSH2 0x3AF2 JUMP JUMPDEST POP PUSH1 0x60 DUP3 ADD MLOAD PUSH2 0x3B5D PUSH1 0x60 DUP6 ADD DUP3 PUSH2 0x3AF2 JUMP JUMPDEST POP PUSH1 0x80 DUP3 ADD MLOAD PUSH2 0x3B70 PUSH1 0x80 DUP6 ADD DUP3 PUSH2 0x3AF2 JUMP JUMPDEST POP PUSH1 0xA0 DUP3 ADD MLOAD PUSH2 0x3B83 PUSH1 0xA0 DUP6 ADD DUP3 PUSH2 0x3B01 JUMP JUMPDEST POP POP POP POP JUMP JUMPDEST PUSH0 PUSH1 0xC0 DUP3 ADD SWAP1 POP PUSH2 0x3B9C PUSH0 DUP4 ADD DUP5 PUSH2 0x3B10 JUMP JUMPDEST SWAP3 SWAP2 POP POP JUMP JUMPDEST PUSH0 DUP1 PUSH0 DUP1 PUSH1 0x60 DUP6 DUP8 SUB SLT ISZERO PUSH2 0x3BBA JUMPI PUSH2 0x3BB9 PUSH2 0x35A9 JUMP JUMPDEST JUMPDEST PUSH0 PUSH2 0x3BC7 DUP8 DUP3 DUP9 ADD PUSH2 0x376E JUMP JUMPDEST SWAP5 POP POP PUSH1 0x20 DUP6 ADD CALLDATALOAD PUSH8 0xFFFFFFFFFFFFFFFF DUP2 GT ISZERO PUSH2 0x3BE8 JUMPI PUSH2 0x3BE7 PUSH2 0x35AD JUMP JUMPDEST JUMPDEST PUSH2 0x3BF4 DUP8 DUP3 DUP9 ADD PUSH2 0x35BD JUMP JUMPDEST SWAP4 POP SWAP4 POP POP PUSH1 0x40 PUSH2 0x3C07 DUP8 DUP3 DUP9 ADD PUSH2 0x3631 JUMP JUMPDEST SWAP2 POP POP SWAP3 SWAP6 SWAP2 SWAP5 POP SWAP3 POP JUMP JUMPDEST PUSH0 PUSH1 0xE0 DUP3 ADD SWAP1 POP PUSH2 0x3C26 PUSH0 DUP4 ADD DUP11 PUSH2 0x3700 JUMP JUMPDEST PUSH2 0x3C33 PUSH1 0x20 DUP4 ADD DUP10 PUSH2 0x3700 JUMP JUMPDEST PUSH2 0x3C40 PUSH1 0x40 DUP4 ADD DUP9 PUSH2 0x3700 JUMP JUMPDEST PUSH2 0x3C4D PUSH1 0x60 DUP4 ADD DUP8 PUSH2 0x3700 JUMP JUMPDEST PUSH2 0x3C5A PUSH1 0x80 DUP4 ADD DUP7 PUSH2 0x3700 JUMP JUMPDEST PUSH2 0x3C67 PUSH1 0xA0 DUP4 ADD DUP6 PUSH2 0x3700 JUMP JUMPDEST PUSH2 0x3C74 PUSH1 0xC0 DUP4 ADD DUP5 PUSH2 0x3700 JUMP JUMPDEST SWAP9 SWAP8 POP POP POP POP POP POP POP POP JUMP JUMPDEST PUSH0 PUSH1 0x20 DUP3 ADD SWAP1 POP PUSH2 0x3C93 PUSH0 DUP4 ADD DUP5 PUSH2 0x384A JUMP JUMPDEST SWAP3 SWAP2 POP POP JUMP JUMPDEST PUSH0 DUP3 DUP3 MSTORE PUSH1 0x20 DUP3 ADD SWAP1 POP SWAP3 SWAP2 POP POP JUMP JUMPDEST PUSH0 PUSH2 0x3CB3 DUP3 PUSH2 0x37C0 JUMP JUMPDEST PUSH2 0x3CBD DUP2 DUP6 PUSH2 0x3C99 JUMP JUMPDEST SWAP4 POP PUSH2 0x3CCD DUP2 DUP6 PUSH1 0x20 DUP7 ADD PUSH2 0x37DA JUMP JUMPDEST PUSH2 0x3CD6 DUP2 PUSH2 0x3802 JUMP JUMPDEST DUP5 ADD SWAP2 POP POP SWAP3 SWAP2 POP POP JUMP JUMPDEST PUSH2 0x3CEA DUP2 PUSH2 0x36DF JUMP JUMPDEST DUP3 MSTORE POP POP JUMP JUMPDEST PUSH2 0x3CF9 DUP2 PUSH2 0x3868 JUMP JUMPDEST DUP3 MSTORE POP POP JUMP JUMPDEST PUSH0 PUSH2 0x100 DUP4 ADD PUSH0 DUP4 ADD MLOAD DUP5 DUP3 SUB PUSH0 DUP7 ADD MSTORE PUSH2 0x3D1A DUP3 DUP3 PUSH2 0x3CA9 JUMP JUMPDEST SWAP2 POP POP PUSH1 0x20 DUP4 ADD MLOAD PUSH2 0x3D2F PUSH1 0x20 DUP7 ADD DUP3 PUSH2 0x3B01 JUMP JUMPDEST POP PUSH1 0x40 DUP4 ADD MLOAD PUSH2 0x3D42 PUSH1 0x40 DUP7 ADD DUP3 PUSH2 0x3AF2 JUMP JUMPDEST POP PUSH1 0x60 DUP4 ADD MLOAD PUSH2 0x3D55 PUSH1 0x60 DUP7 ADD DUP3 PUSH2 0x3AF2 JUMP JUMPDEST POP PUSH1 0x80 DUP4 ADD MLOAD PUSH2 0x3D68 PUSH1 0x80 DUP7 ADD DUP3 PUSH2 0x3AF2 JUMP JUMPDEST POP PUSH1 0xA0 DUP4 ADD MLOAD PUSH2 0x3D7B PUSH1 0xA0 DUP7 ADD DUP3 PUSH2 0x3CE1 JUMP JUMPDEST POP PUSH1 0xC0 DUP4 ADD MLOAD PUSH2 0x3D8E PUSH1 0xC0 DUP7 ADD DUP3 PUSH2 0x3CF0 JUMP JUMPDEST POP PUSH1 0xE0 DUP4 ADD MLOAD PUSH2 0x3DA1 PUSH1 0xE0 DUP7 ADD DUP3 PUSH2 0x3AF2 JUMP JUMPDEST POP DUP1 SWAP2 POP POP SWAP3 SWAP2 POP POP JUMP JUMPDEST PUSH0 PUSH1 0x20 DUP3 ADD SWAP1 POP DUP2 DUP2 SUB PUSH0 DUP4 ADD MSTORE PUSH2 0x3DC4 DUP2 DUP5 PUSH2 0x3CFF JUMP JUMPDEST SWAP1 POP SWAP3 SWAP2 POP POP JUMP JUMPDEST PUSH0 PUSH32 0xFF00000000000000000000000000000000000000000000000000000000000000 DUP3 AND SWAP1 POP SWAP2 SWAP1 POP JUMP JUMPDEST PUSH2 0x3E00 DUP2 PUSH2 0x3DCC JUMP JUMPDEST DUP3 MSTORE POP POP JUMP JUMPDEST PUSH2 0x3E0F DUP2 PUSH2 0x36CD JUMP JUMPDEST DUP3 MSTORE POP POP JUMP JUMPDEST PUSH0 DUP2 MLOAD SWAP1 POP SWAP2 SWAP1 POP JUMP JUMPDEST PUSH0 DUP3 DUP3 MSTORE PUSH1 0x20 DUP3 ADD SWAP1 POP SWAP3 SWAP2 POP POP JUMP JUMPDEST PUSH0 DUP2 SWAP1 POP PUSH1 0x20 DUP3 ADD SWAP1 POP SWAP2 SWAP1 POP JUMP JUMPDEST PUSH2 0x3E47 DUP2 PUSH2 0x36CD JUMP JUMPDEST DUP3 MSTORE POP POP JUMP JUMPDEST PUSH0 PUSH2 0x3E58 DUP4 DUP4 PUSH2 0x3E3E JUMP JUMPDEST PUSH1 0x20 DUP4 ADD SWAP1 POP SWAP3 SWAP2 POP POP JUMP JUMPDEST PUSH0 PUSH1 0x20 DUP3 ADD SWAP1 POP SWAP2 SWAP1 POP JUMP JUMPDEST PUSH0 PUSH2 0x3E7A DUP3 PUSH2 0x3E15 JUMP JUMPDEST PUSH2 0x3E84 DUP2 DUP6 PUSH2 0x3E1F JUMP JUMPDEST SWAP4 POP PUSH2 0x3E8F DUP4 PUSH2 0x3E2F JUMP JUMPDEST DUP1 PUSH0 JUMPDEST DUP4 DUP2 LT ISZERO PUSH2 0x3EBF JUMPI DUP2 MLOAD PUSH2 0x3EA6 DUP9 DUP3 PUSH2 0x3E4D JUMP JUMPDEST SWAP8 POP PUSH2 0x3EB1 DUP4 PUSH2 0x3E64 JUMP JUMPDEST SWAP3 POP POP PUSH1 0x1 DUP2 ADD SWAP1 POP PUSH2 0x3E92 JUMP JUMPDEST POP DUP6 SWAP4 POP POP POP POP SWAP3 SWAP2 POP POP JUMP JUMPDEST PUSH0 PUSH1 0xE0 DUP3 ADD SWAP1 POP PUSH2 0x3EDF PUSH0 DUP4 ADD DUP11 PUSH2 0x3DF7 JUMP JUMPDEST DUP2 DUP2 SUB PUSH1 0x20 DUP4 ADD MSTORE PUSH2 0x3EF1 DUP2 DUP10 PUSH2 0x3812 JUMP JUMPDEST SWAP1 POP DUP2 DUP2 SUB PUSH1 0x40 DUP4 ADD MSTORE PUSH2 0x3F05 DUP2 DUP9 PUSH2 0x3812 JUMP JUMPDEST SWAP1 POP PUSH2 0x3F14 PUSH1 0x60 DUP4 ADD DUP8 PUSH2 0x3E06 JUMP JUMPDEST PUSH2 0x3F21 PUSH1 0x80 DUP4 ADD DUP7 PUSH2 0x384A JUMP JUMPDEST PUSH2 0x3F2E PUSH1 0xA0 DUP4 ADD DUP6 PUSH2 0x3934 JUMP JUMPDEST DUP2 DUP2 SUB PUSH1 0xC0 DUP4 ADD MSTORE PUSH2 0x3F40 DUP2 DUP5 PUSH2 0x3E70 JUMP JUMPDEST SWAP1 POP SWAP9 SWAP8 POP POP POP POP POP POP POP POP JUMP JUMPDEST PUSH0 DUP1 REVERT JUMPDEST PUSH0 PUSH8 0xFFFFFFFFFFFFFFFF DUP3 GT ISZERO PUSH2 0x3F6C JUMPI PUSH2 0x3F6B PUSH2 0x3960 JUMP JUMPDEST JUMPDEST PUSH2 0x3F75 DUP3 PUSH2 0x3802 JUMP JUMPDEST SWAP1 POP PUSH1 0x20 DUP2 ADD SWAP1 POP SWAP2 SWAP1 POP JUMP JUMPDEST DUP3 DUP2 DUP4 CALLDATACOPY PUSH0 DUP4 DUP4 ADD MSTORE POP POP POP JUMP JUMPDEST PUSH0 PUSH2 0x3FA2 PUSH2 0x3F9D DUP5 PUSH2 0x3F52 JUMP JUMPDEST PUSH2 0x39BE JUMP JUMPDEST SWAP1 POP DUP3 DUP2 MSTORE PUSH1 0x20 DUP2 ADD DUP5 DUP5 DUP5 ADD GT ISZERO PUSH2 0x3FBE JUMPI PUSH2 0x3FBD PUSH2 0x3F4E JUMP JUMPDEST JUMPDEST PUSH2 0x3FC9 DUP5 DUP3 DUP6 PUSH2 0x3F82 JUMP JUMPDEST POP SWAP4 SWAP3 POP POP POP JUMP JUMPDEST PUSH0 DUP3 PUSH1 0x1F DUP4 ADD SLT PUSH2 0x3FE5 JUMPI PUSH2 0x3FE4 PUSH2 0x35B1 JUMP JUMPDEST JUMPDEST DUP2 CALLDATALOAD PUSH2 0x3FF5 DUP5 DUP3 PUSH1 0x20 DUP7 ADD PUSH2 0x3F90 JUMP JUMPDEST SWAP2 POP POP SWAP3 SWAP2 POP POP JUMP JUMPDEST PUSH2 0x4007 DUP2 PUSH2 0x36CD JUMP JUMPDEST DUP2 EQ PUSH2 0x4011 JUMPI PUSH0 DUP1 REVERT JUMPDEST POP JUMP JUMPDEST PUSH0 DUP2 CALLDATALOAD SWAP1 POP PUSH2 0x4022 DUP2 PUSH2 0x3FFE JUMP JUMPDEST SWAP3 SWAP2 POP POP JUMP JUMPDEST PUSH0 DUP1 PUSH1 0x40 DUP4 DUP6 SUB SLT ISZERO PUSH2 0x403E JUMPI PUSH2 0x403D PUSH2 0x35A9 JUMP JUMPDEST JUMPDEST PUSH0 DUP4 ADD CALLDATALOAD PUSH8 0xFFFFFFFFFFFFFFFF DUP2 GT ISZERO PUSH2 0x405B JUMPI PUSH2 0x405A PUSH2 0x35AD JUMP JUMPDEST JUMPDEST PUSH2 0x4067 DUP6 DUP3 DUP7 ADD PUSH2 0x3FD1 JUMP JUMPDEST SWAP3 POP POP PUSH1 0x20 PUSH2 0x4078 DUP6 DUP3 DUP7 ADD PUSH2 0x4014 JUMP JUMPDEST SWAP2 POP POP SWAP3 POP SWAP3 SWAP1 POP JUMP JUMPDEST PUSH0 DUP2 ISZERO ISZERO SWAP1 POP SWAP2 SWAP1 POP JUMP JUMPDEST PUSH2 0x4096 DUP2 PUSH2 0x4082 JUMP JUMPDEST DUP3 MSTORE POP POP JUMP JUMPDEST PUSH0 PUSH1 0x20 DUP3 ADD SWAP1 POP PUSH2 0x40AF PUSH0 DUP4 ADD DUP5 PUSH2 0x408D JUMP JUMPDEST SWAP3 SWAP2 POP POP JUMP JUMPDEST PUSH0 DUP1 PUSH1 0x40 DUP4 DUP6 SUB SLT ISZERO PUSH2 0x40CB JUMPI PUSH2 0x40CA PUSH2 0x35A9 JUMP JUMPDEST JUMPDEST PUSH0 PUSH2 0x40D8 DUP6 DUP3 DUP7 ADD PUSH2 0x3631 JUMP JUMPDEST SWAP3 POP POP PUSH1 0x20 PUSH2 0x40E9 DUP6 DUP3 DUP7 ADD PUSH2 0x4014 JUMP JUMPDEST SWAP2 POP POP SWAP3 POP SWAP3 SWAP1 POP JUMP JUMPDEST PUSH0 DUP2 MLOAD SWAP1 POP SWAP2 SWAP1 POP JUMP JUMPDEST PUSH0 DUP3 DUP3 MSTORE PUSH1 0x20 DUP3 ADD SWAP1 POP SWAP3 SWAP2 POP POP JUMP JUMPDEST PUSH0 DUP2 SWAP1 POP PUSH1 0x20 DUP3 ADD SWAP1 POP SWAP2 SWAP1 POP JUMP JUMPDEST PUSH0 PUSH2 0x4127 DUP4 DUP4 PUSH2 0x3B01 JUMP JUMPDEST PUSH1 0x20 DUP4 ADD SWAP1 POP SWAP3 SWAP2 POP POP JUMP JUMPDEST PUSH0 PUSH1 0x20 DUP3 ADD SWAP1 POP SWAP2 SWAP1 POP JUMP JUMPDEST PUSH0 PUSH2 0x4149 DUP3 PUSH2 0x40F3 JUMP JUMPDEST PUSH2 0x4153 DUP2 DUP6 PUSH2 0x40FD JUMP JUMPDEST SWAP4 POP PUSH2 0x415E DUP4 PUSH2 0x410D JUMP JUMPDEST DUP1 PUSH0 JUMPDEST DUP4 DUP2 LT ISZERO PUSH2 0x418E JUMPI DUP2 MLOAD PUSH2 0x4175 DUP9 DUP3 PUSH2 0x411C JUMP JUMPDEST SWAP8 POP PUSH2 0x4180 DUP4 PUSH2 0x4133 JUMP JUMPDEST SWAP3 POP POP PUSH1 0x1 DUP2 ADD SWAP1 POP PUSH2 0x4161 JUMP JUMPDEST POP DUP6 SWAP4 POP POP POP POP SWAP3 SWAP2 POP POP JUMP JUMPDEST PUSH0 PUSH1 0x20 DUP3 ADD SWAP1 POP DUP2 DUP2 SUB PUSH0 DUP4 ADD MSTORE PUSH2 0x41B3 DUP2 DUP5 PUSH2 0x413F JUMP JUMPDEST SWAP1 POP SWAP3 SWAP2 POP POP JUMP JUMPDEST PUSH0 PUSH1 0xC0 DUP3 ADD SWAP1 POP PUSH2 0x41CE PUSH0 DUP4 ADD DUP10 PUSH2 0x3700 JUMP JUMPDEST PUSH2 0x41DB PUSH1 0x20 DUP4 ADD DUP9 PUSH2 0x384A JUMP JUMPDEST PUSH2 0x41E8 PUSH1 0x40 DUP4 ADD DUP8 PUSH2 0x3700 JUMP JUMPDEST PUSH2 0x41F5 PUSH1 0x60 DUP4 ADD DUP7 PUSH2 0x3700 JUMP JUMPDEST PUSH2 0x4202 PUSH1 0x80 DUP4 ADD DUP6 PUSH2 0x3700 JUMP JUMPDEST PUSH2 0x420F PUSH1 0xA0 DUP4 ADD DUP5 PUSH2 0x384A JUMP JUMPDEST SWAP8 SWAP7 POP POP POP POP POP POP POP JUMP JUMPDEST PUSH0 DUP1 PUSH0 PUSH1 0x60 DUP5 DUP7 SUB SLT ISZERO PUSH2 0x4231 JUMPI PUSH2 0x4230 PUSH2 0x35A9 JUMP JUMPDEST JUMPDEST PUSH0 DUP5 ADD CALLDATALOAD PUSH8 0xFFFFFFFFFFFFFFFF DUP2 GT ISZERO PUSH2 0x424E JUMPI PUSH2 0x424D PUSH2 0x35AD JUMP JUMPDEST JUMPDEST PUSH2 0x425A DUP7 DUP3 DUP8 ADD PUSH2 0x3FD1 JUMP JUMPDEST SWAP4 POP POP PUSH1 0x20 PUSH2 0x426B DUP7 DUP3 DUP8 ADD PUSH2 0x376E JUMP JUMPDEST SWAP3 POP POP PUSH1 0x40 PUSH2 0x427C DUP7 DUP3 DUP8 ADD PUSH2 0x3631 JUMP JUMPDEST SWAP2 POP POP SWAP3 POP SWAP3 POP SWAP3 JUMP JUMPDEST PUSH32 0x4E487B7100000000000000000000000000000000000000000000000000000000 PUSH0 MSTORE PUSH1 0x22 PUSH1 0x4 MSTORE PUSH1 0x24 PUSH0 REVERT JUMPDEST PUSH0 PUSH1 0x2 DUP3 DIV SWAP1 POP PUSH1 0x1 DUP3 AND DUP1 PUSH2 0x42CA JUMPI PUSH1 0x7F DUP3 AND SWAP2 POP JUMPDEST PUSH1 0x20 DUP3 LT DUP2 SUB PUSH2 0x42DD JUMPI PUSH2 0x42DC PUSH2 0x4286 JUMP JUMPDEST JUMPDEST POP SWAP2 SWAP1 POP JUMP JUMPDEST PUSH32 0x4E487B7100000000000000000000000000000000000000000000000000000000 PUSH0 MSTORE PUSH1 0x12 PUSH1 0x4 MSTORE PUSH1 0x24 PUSH0 REVERT JUMPDEST PUSH0 PUSH2 0x431A DUP3 PUSH2 0x36CD JUMP JUMPDEST SWAP2 POP PUSH2 0x4325 DUP4 PUSH2 0x36CD JUMP JUMPDEST SWAP3 POP DUP3 PUSH2 0x4335 JUMPI PUSH2 0x4334 PUSH2 0x42E3 JUMP JUMPDEST JUMPDEST DUP3 DUP3 MOD SWAP1 POP SWAP3 SWAP2 POP POP JUMP JUMPDEST PUSH0 DUP2 SWAP1 POP DUP2 PUSH0 MSTORE PUSH1 0x20 PUSH0 KECCAK256 SWAP1 POP SWAP2 SWAP1 POP JUMP JUMPDEST PUSH0 PUSH1 0x20 PUSH1 0x1F DUP4 ADD DIV SWAP1 POP SWAP2 SWAP1 POP JUMP JUMPDEST PUSH0 DUP3 DUP3 SHL SWAP1 POP SWAP3 SWAP2 POP POP JUMP JUMPDEST PUSH0 PUSH1 0x8 DUP4 MUL PUSH2 0x439C PUSH32 0xFFFFFFFFFFFFFFFFFFFFFFFFFFFFFFFFFFFFFFFFFFFFFFFFFFFFFFFFFFFFFFFF DUP3 PUSH2 0x4361 JUMP JUMPDEST PUSH2 0x43A6 DUP7 DUP4 PUSH2 0x4361 JUMP JUMPDEST SWAP6 POP DUP1 NOT DUP5 AND SWAP4 POP DUP1 DUP7 AND DUP5 OR SWAP3 POP POP POP SWAP4 SWAP3 POP POP POP JUMP JUMPDEST PUSH0 DUP2 SWAP1 POP SWAP2 SWAP1 POP JUMP JUMPDEST PUSH2 0x43D0 DUP4 PUSH2 0x36DF JUMP JUMPDEST PUSH2 0x43E4 PUSH2 0x43DC DUP3 PUSH2 0x43BE JUMP JUMPDEST DUP5 DUP5 SLOAD PUSH2 0x436D JUMP JUMPDEST DUP3 SSTORE POP POP POP POP JUMP JUMPDEST PUSH0 SWAP1 JUMP JUMPDEST PUSH2 0x43F8 PUSH2 0x43EC JUMP JUMPDEST PUSH2 0x4403 DUP2 DUP5 DUP5 PUSH2 0x43C7 JUMP JUMPDEST POP POP POP JUMP JUMPDEST JUMPDEST DUP2 DUP2 LT ISZERO PUSH2 0x4426 JUMPI PUSH2 0x441B PUSH0 DUP3 PUSH2 0x43F0 JUMP JUMPDEST PUSH1 0x1 DUP2 ADD SWAP1 POP PUSH2 0x4409 JUMP JUMPDEST POP POP JUMP JUMPDEST PUSH1 0x1F DUP3 GT ISZERO PUSH2 0x446B JUMPI PUSH2 0x443C DUP2 PUSH2 0x4340 JUMP JUMPDEST PUSH2 0x4445 DUP5 PUSH2 0x4352 JUMP JUMPDEST DUP2 ADD PUSH1 0x20 DUP6 LT ISZERO PUSH2 0x4454 JUMPI DUP2 SWAP1 POP JUMPDEST PUSH2 0x4468 PUSH2 0x4460 DUP6 PUSH2 0x4352 JUMP JUMPDEST DUP4 ADD DUP3 PUSH2 0x4408 JUMP JUMPDEST POP POP JUMPDEST POP POP POP JUMP JUMPDEST PUSH0 DUP3 DUP3 SHR SWAP1 POP SWAP3 SWAP2 POP POP JUMP JUMPDEST PUSH0 PUSH2 0x448B PUSH0 NOT DUP5 PUSH1 0x8 MUL PUSH2 0x4470 JUMP JUMPDEST NOT DUP1 DUP4 AND SWAP2 POP POP SWAP3 SWAP2 POP POP JUMP JUMPDEST PUSH0 PUSH2 0x44A3 DUP4 DUP4 PUSH2 0x447C JUMP JUMPDEST SWAP2 POP DUP3 PUSH1 0x2 MUL DUP3 OR SWAP1 POP SWAP3 SWAP2 POP POP JUMP JUMPDEST PUSH2 0x44BC DUP3 PUSH2 0x37C0 JUMP JUMPDEST PUSH8 0xFFFFFFFFFFFFFFFF DUP2 GT ISZERO PUSH2 0x44D5 JUMPI PUSH2 0x44D4 PUSH2 0x3960 JUMP JUMPDEST JUMPDEST PUSH2 0x44DF DUP3 SLOAD PUSH2 0x42B3 JUMP JUMPDEST PUSH2 0x44EA DUP3 DUP3 DUP6 PUSH2 0x442A JUMP JUMPDEST PUSH0 PUSH1 0x20 SWAP1 POP PUSH1 0x1F DUP4 GT PUSH1 0x1 DUP2 EQ PUSH2 0x451B JUMPI PUSH0 DUP5 ISZERO PUSH2 0x4509 JUMPI DUP3 DUP8 ADD MLOAD SWAP1 POP JUMPDEST PUSH2 0x4513 DUP6 DUP3 PUSH2 0x4498 JUMP JUMPDEST DUP7 SSTORE POP PUSH2 0x457A JUMP JUMPDEST PUSH1 0x1F NOT DUP5 AND PUSH2 0x4529 DUP7 PUSH2 0x4340 JUMP JUMPDEST PUSH0 JUMPDEST DUP3 DUP2 LT ISZERO PUSH2 0x4550 JUMPI DUP5 DUP10 ADD MLOAD DUP3 SSTORE PUSH1 0x1 DUP3 ADD SWAP2 POP PUSH1 0x20 DUP6 ADD SWAP5 POP PUSH1 0x20 DUP2 ADD SWAP1 POP PUSH2 0x452B JUMP JUMPDEST DUP7 DUP4 LT ISZERO PUSH2 0x456D JUMPI DUP5 DUP10 ADD MLOAD PUSH2 0x4569 PUSH1 0x1F DUP10 AND DUP3 PUSH2 0x447C JUMP JUMPDEST DUP4 SSTORE POP JUMPDEST PUSH1 0x1 PUSH1 0x2 DUP9 MUL ADD DUP9 SSTORE POP POP POP JUMPDEST POP POP POP POP POP POP JUMP JUMPDEST PUSH32 0x6E6F7420612076616C69642061646D696E000000000000000000000000000000 PUSH0 DUP3 ADD MSTORE POP JUMP JUMPDEST PUSH0 PUSH2 0x45B6 PUSH1 0x11 DUP4 PUSH2 0x37CA JUMP JUMPDEST SWAP2 POP PUSH2 0x45C1 DUP3 PUSH2 0x4582 JUMP JUMPDEST PUSH1 0x20 DUP3 ADD SWAP1 POP SWAP2 SWAP1 POP JUMP JUMPDEST PUSH0 PUSH1 0x20 DUP3 ADD SWAP1 POP DUP2 DUP2 SUB PUSH0 DUP4 ADD MSTORE PUSH2 0x45E3 DUP2 PUSH2 0x45AA JUMP JUMPDEST SWAP1 POP SWAP2 SWAP1 POP JUMP JUMPDEST PUSH32 0x6E6F74206120656D706C6F796565000000000000000000000000000000000000 PUSH0 DUP3 ADD MSTORE POP JUMP JUMPDEST PUSH0 PUSH2 0x461E PUSH1 0xE DUP4 PUSH2 0x37CA JUMP JUMPDEST SWAP2 POP PUSH2 0x4629 DUP3 PUSH2 0x45EA JUMP JUMPDEST PUSH1 0x20 DUP3 ADD SWAP1 POP SWAP2 SWAP1 POP JUMP JUMPDEST PUSH0 PUSH1 0x20 DUP3 ADD SWAP1 POP DUP2 DUP2 SUB PUSH0 DUP4 ADD MSTORE PUSH2 0x464B DUP2 PUSH2 0x4612 JUMP JUMPDEST SWAP1 POP SWAP2 SWAP1 POP JUMP JUMPDEST PUSH0 DUP2 SWAP1 POP SWAP3 SWAP2 POP POP JUMP JUMPDEST PUSH32 0x4545524332300000000000000000000000000000000000000000000000000000 PUSH0 DUP3 ADD MSTORE POP JUMP JUMPDEST PUSH0 PUSH2 0x4690 PUSH1 0x6 DUP4 PUSH2 0x4652 JUMP JUMPDEST SWAP2 POP PUSH2 0x469B DUP3 PUSH2 0x465C JUMP JUMPDEST PUSH1 0x6 DUP3 ADD SWAP1 POP SWAP2 SWAP1 POP JUMP JUMPDEST PUSH0 PUSH2 0x46B0 DUP3 PUSH2 0x37C0 JUMP JUMPDEST PUSH2 0x46BA DUP2 DUP6 PUSH2 0x4652 JUMP JUMPDEST SWAP4 POP PUSH2 0x46CA DUP2 DUP6 PUSH1 0x20 DUP7 ADD PUSH2 0x37DA JUMP JUMPDEST DUP1 DUP5 ADD SWAP2 POP POP SWAP3 SWAP2 POP POP JUMP JUMPDEST PUSH0 PUSH2 0x46E0 DUP3 PUSH2 0x4684 JUMP JUMPDEST SWAP2 POP PUSH2 0x46EC DUP3 DUP5 PUSH2 0x46A6 JUMP JUMPDEST SWAP2 POP DUP2 SWAP1 POP SWAP3 SWAP2 POP POP JUMP JUMPDEST PUSH0 DUP2 SWAP1 POP SWAP2 SWAP1 POP JUMP JUMPDEST PUSH2 0x4711 PUSH2 0x470C DUP3 PUSH2 0x36CD JUMP JUMPDEST PUSH2 0x46F7 JUMP JUMPDEST DUP3 MSTORE POP POP JUMP JUMPDEST PUSH0 PUSH2 0x4722 DUP3 DUP6 PUSH2 0x46A6 JUMP JUMPDEST SWAP2 POP PUSH2 0x472E DUP3 DUP5 PUSH2 0x4700 JUMP JUMPDEST PUSH1 0x20 DUP3 ADD SWAP2 POP DUP2 SWAP1 POP SWAP4 SWAP3 POP POP POP JUMP JUMPDEST PUSH32 0x636F6D61706E7920616C72656164792065786973740000000000000000000000 PUSH0 DUP3 ADD MSTORE POP JUMP JUMPDEST PUSH0 PUSH2 0x4772 PUSH1 0x15 DUP4 PUSH2 0x37CA JUMP JUMPDEST SWAP2 POP PUSH2 0x477D DUP3 PUSH2 0x473E JUMP JUMPDEST PUSH1 0x20 DUP3 ADD SWAP1 POP SWAP2 SWAP1 POP JUMP JUMPDEST PUSH0 PUSH1 0x20 DUP3 ADD SWAP1 POP DUP2 DUP2 SUB PUSH0 DUP4 ADD MSTORE PUSH2 0x479F DUP2 PUSH2 0x4766 JUMP JUMPDEST SWAP1 POP SWAP2 SWAP1 POP JUMP JUMPDEST PUSH32 0x63616C6C6572206973206E6F742061646D696E00000000000000000000000000 PUSH0 DUP3 ADD MSTORE POP JUMP JUMPDEST PUSH0 PUSH2 0x47DA PUSH1 0x13 DUP4 PUSH2 0x37CA JUMP JUMPDEST SWAP2 POP PUSH2 0x47E5 DUP3 PUSH2 0x47A6 JUMP JUMPDEST PUSH1 0x20 DUP3 ADD SWAP1 POP SWAP2 SWAP1 POP JUMP JUMPDEST PUSH0 PUSH1 0x20 DUP3 ADD SWAP1 POP DUP2 DUP2 SUB PUSH0 DUP4 ADD MSTORE PUSH2 0x4807 DUP2 PUSH2 0x47CE JUMP JUMPDEST SWAP1 POP SWAP2 SWAP1 POP JUMP JUMPDEST PUSH0 DUP2 MLOAD SWAP1 POP SWAP2 SWAP1 POP JUMP JUMPDEST PUSH0 DUP2 SWAP1 POP SWAP3 SWAP2 POP POP JUMP JUMPDEST PUSH0 PUSH2 0x482C DUP3 PUSH2 0x480E JUMP JUMPDEST PUSH2 0x4836 DUP2 DUP6 PUSH2 0x4818 JUMP JUMPDEST SWAP4 POP PUSH2 0x4846 DUP2 DUP6 PUSH1 0x20 DUP7 ADD PUSH2 0x37DA JUMP JUMPDEST DUP1 DUP5 ADD SWAP2 POP POP SWAP3 SWAP2 POP POP JUMP JUMPDEST PUSH0 DUP2 SWAP1 POP SWAP2 SWAP1 POP JUMP JUMPDEST PUSH2 0x486C PUSH2 0x4867 DUP3 PUSH2 0x3DCC JUMP JUMPDEST PUSH2 0x4852 JUMP JUMPDEST DUP3 MSTORE POP POP JUMP JUMPDEST PUSH0 PUSH2 0x487D DUP3 DUP6 PUSH2 0x4822 JUMP JUMPDEST SWAP2 POP PUSH2 0x4889 DUP3 DUP5 PUSH2 0x485B JUMP JUMPDEST PUSH1 0x1 DUP3 ADD SWAP2 POP DUP2 SWAP1 POP SWAP4 SWAP3 POP POP POP JUMP JUMPDEST PUSH0 DUP3 DUP3 MSTORE PUSH1 0x20 DUP3 ADD SWAP1 POP SWAP3 SWAP2 POP POP JUMP JUMPDEST PUSH0 PUSH2 0x48B3 DUP3 PUSH2 0x480E JUMP JUMPDEST PUSH2 0x48BD DUP2 DUP6 PUSH2 0x4899 JUMP JUMPDEST SWAP4 POP PUSH2 0x48CD DUP2 DUP6 PUSH1 0x20 DUP7 ADD PUSH2 0x37DA JUMP JUMPDEST PUSH2 0x48D6 DUP2 PUSH2 0x3802 JUMP JUMPDEST DUP5 ADD SWAP2 POP POP SWAP3 SWAP2 POP POP JUMP JUMPDEST PUSH0 PUSH1 0x20 DUP3 ADD SWAP1 POP DUP2 DUP2 SUB PUSH0 DUP4 ADD MSTORE PUSH2 0x48F9 DUP2 DUP5 PUSH2 0x48A9 JUMP JUMPDEST SWAP1 POP SWAP3 SWAP2 POP POP JUMP JUMPDEST PUSH0 DUP2 MLOAD SWAP1 POP PUSH2 0x490F DUP2 PUSH2 0x3FFE JUMP JUMPDEST SWAP3 SWAP2 POP POP JUMP JUMPDEST PUSH0 PUSH1 0x20 DUP3 DUP5 SUB SLT ISZERO PUSH2 0x492A JUMPI PUSH2 0x4929 PUSH2 0x35A9 JUMP JUMPDEST JUMPDEST PUSH0 PUSH2 0x4937 DUP5 DUP3 DUP6 ADD PUSH2 0x4901 JUMP JUMPDEST SWAP2 POP POP SWAP3 SWAP2 POP POP JUMP JUMPDEST PUSH0 PUSH1 0x60 DUP3 ADD SWAP1 POP PUSH2 0x4953 PUSH0 DUP4 ADD DUP7 PUSH2 0x3E06 JUMP JUMPDEST PUSH2 0x4960 PUSH1 0x20 DUP4 ADD DUP6 PUSH2 0x3E06 JUMP JUMPDEST PUSH2 0x496D PUSH1 0x40 DUP4 ADD DUP5 PUSH2 0x3DF7 JUMP JUMPDEST SWAP5 SWAP4 POP POP POP POP JUMP JUMPDEST PUSH0 PUSH1 0x40 DUP3 ADD SWAP1 POP PUSH2 0x4988 PUSH0 DUP4 ADD DUP6 PUSH2 0x3E06 JUMP JUMPDEST PUSH2 0x4995 PUSH1 0x20 DUP4 ADD DUP5 PUSH2 0x3DF7 JUMP JUMPDEST SWAP4 SWAP3 POP POP POP JUMP JUMPDEST PUSH0 PUSH1 0x20 DUP3 ADD SWAP1 POP PUSH2 0x49AF PUSH0 DUP4 ADD DUP5 PUSH2 0x3E06 JUMP JUMPDEST SWAP3 SWAP2 POP POP JUMP JUMPDEST PUSH0 PUSH1 0x60 DUP3 ADD SWAP1 POP PUSH2 0x49C8 PUSH0 DUP4 ADD DUP7 PUSH2 0x3E06 JUMP JUMPDEST PUSH2 0x49D5 PUSH1 0x20 DUP4 ADD DUP6 PUSH2 0x3E06 JUMP JUMPDEST PUSH2 0x49E2 PUSH1 0x40 DUP4 ADD DUP5 PUSH2 0x3E06 JUMP JUMPDEST SWAP5 SWAP4 POP POP POP POP JUMP INVALID LOG2 PUSH5 0x6970667358 0x22 SLT KECCAK256 0xD6 0xD4 PUSH24 0x23455818B49925DDBA013887587A199D472FFB81AB7653E1 SWAP7 0xA7 EXP 0x1F LT PUSH5 0x736F6C6343 STOP ADDMOD XOR STOP CALLER "
		},
		"gasEstimates": {
			"creation": {
				"codeDepositCost": "3795200",
				"executionCost": "infinite",
				"totalCost": "infinite"
			},
			"external": {
				"addAllocation(address,bytes,bytes32)": "infinite",
				"addEmploy(string,address,bytes32)": "infinite",
				"addSchedule((uint256,uint256,uint256,uint256,uint256,uint256,uint256),bytes32)": "infinite",
				"adminKey(address)": "2919",
				"claim(bytes,bytes32)": "infinite",
				"claimAmount(bytes32)": "infinite",
				"claimableAmount(bytes32)": "infinite",
				"company(bytes32)": "infinite",
				"createCompanykey(string,uint256)": "infinite",
				"eip712Domain()": "infinite",
				"employDetails(bytes32,address)": "infinite",
				"getEmployeeList(bytes32,uint256)": "infinite",
				"getcompany(bytes32)": "infinite",
				"getemployee(bytes32,address)": "infinite",
				"isEmpoloyee(bytes32,address)": "3182",
				"keys(address)": "2913",
				"request(bytes32)": "infinite",
				"schedule(bytes32)": "infinite",
				"stakeHolders(bytes32,uint256)": "5204",
				"vestingAddr()": "2531"
			},
			"internal": {
				"valueAfterCliff(struct IEncryptedCapTable.EmployeeDetails memory,struct IVesting.VestingSchedule memory,euint32,euint32,euint32,euint32)": "infinite",
				"valueAtCliff(struct IVesting.VestingSchedule memory,struct IEncryptedCapTable.EmployeeDetails memory,euint32)": "infinite",
				"valueBeforeCliff(struct IVesting.VestingSchedule memory,euint32,euint32,struct IEncryptedCapTable.EmployeeDetails memory)": "infinite"
			}
		},
		"methodIdentifiers": {
			"addAllocation(address,bytes,bytes32)": "50c9ecea",
			"addEmploy(string,address,bytes32)": "f057a5d1",
			"addSchedule((uint256,uint256,uint256,uint256,uint256,uint256,uint256),bytes32)": "283f03f0",
			"adminKey(address)": "22e1f50e",
			"claim(bytes,bytes32)": "0280ffb6",
			"claimAmount(bytes32)": "c7e63e85",
			"claimableAmount(bytes32)": "15836ade",
			"company(bytes32)": "e93a5b98",
			"createCompanykey(string,uint256)": "978dc9fd",
			"eip712Domain()": "84b0196e",
			"employDetails(bytes32,address)": "1c08248f",
			"getEmployeeList(bytes32,uint256)": "c705ab18",
			"getcompany(bytes32)": "30f37b44",
			"getemployee(bytes32,address)": "80dc8ae8",
			"isEmpoloyee(bytes32,address)": "a27e53df",
			"keys(address)": "670d14b2",
			"request(bytes32)": "59c87d70",
			"schedule(bytes32)": "548eac04",
			"stakeHolders(bytes32,uint256)": "c036596a",
			"vestingAddr()": "7e51bf4b"
		}
	},
	"abi": [
		{
			"inputs": [
				{
					"internalType": "address",
					"name": "_vestingContract",
					"type": "address"
				}
			],
			"stateMutability": "nonpayable",
			"type": "constructor"
		},
		{
			"inputs": [],
			"name": "InvalidShortString",
			"type": "error"
		},
		{
			"inputs": [
				{
					"internalType": "string",
					"name": "str",
					"type": "string"
				}
			],
			"name": "StringTooLong",
			"type": "error"
		},
		{
			"anonymous": false,
			"inputs": [],
			"name": "EIP712DomainChanged",
			"type": "event"
		},
		{
			"anonymous": false,
			"inputs": [
				{
					"indexed": false,
					"internalType": "bytes32",
					"name": "key",
					"type": "bytes32"
				}
			],
			"name": "NewKey",
			"type": "event"
		},
		{
			"inputs": [
				{
					"internalType": "address",
					"name": "_address",
					"type": "address"
				},
				{
					"internalType": "bytes",
					"name": "_eAmount",
					"type": "bytes"
				},
				{
					"internalType": "bytes32",
					"name": "_key",
					"type": "bytes32"
				}
			],
			"name": "addAllocation",
			"outputs": [],
			"stateMutability": "nonpayable",
			"type": "function"
		},
		{
			"inputs": [
				{
					"internalType": "string",
					"name": "_name",
					"type": "string"
				},
				{
					"internalType": "address",
					"name": "_address",
					"type": "address"
				},
				{
					"internalType": "bytes32",
					"name": "_key",
					"type": "bytes32"
				}
			],
			"name": "addEmploy",
			"outputs": [],
			"stateMutability": "nonpayable",
			"type": "function"
		},
		{
			"inputs": [
				{
					"components": [
						{
							"internalType": "euint32",
							"name": "start",
							"type": "uint256"
						},
						{
							"internalType": "euint32",
							"name": "cliffDuration",
							"type": "uint256"
						},
						{
							"internalType": "euint32",
							"name": "totalDuration",
							"type": "uint256"
						},
						{
							"internalType": "euint32",
							"name": "amountTotal",
							"type": "uint256"
						},
						{
							"internalType": "euint32",
							"name": "releaseAtStartPercentage",
							"type": "uint256"
						},
						{
							"internalType": "euint32",
							"name": "releaseAtCliffPercentage",
							"type": "uint256"
						},
						{
							"internalType": "euint32",
							"name": "linearReleasePercentage",
							"type": "uint256"
						}
					],
					"internalType": "struct IVesting.VestingSchedule",
					"name": "vesting",
					"type": "tuple"
				},
				{
					"internalType": "bytes32",
					"name": "_key",
					"type": "bytes32"
				}
			],
			"name": "addSchedule",
			"outputs": [],
			"stateMutability": "nonpayable",
			"type": "function"
		},
		{
			"inputs": [
				{
					"internalType": "address",
					"name": "_address",
					"type": "address"
				}
			],
			"name": "adminKey",
			"outputs": [
				{
					"internalType": "bytes32",
					"name": "",
					"type": "bytes32"
				}
			],
			"stateMutability": "view",
			"type": "function"
		},
		{
			"inputs": [
				{
					"internalType": "bytes",
					"name": "_amount",
					"type": "bytes"
				},
				{
					"internalType": "bytes32",
					"name": "_key",
					"type": "bytes32"
				}
			],
			"name": "claim",
			"outputs": [],
			"stateMutability": "nonpayable",
			"type": "function"
		},
		{
			"inputs": [
				{
					"internalType": "bytes32",
					"name": "key",
					"type": "bytes32"
				}
			],
			"name": "claimAmount",
			"outputs": [
				{
					"internalType": "euint32",
					"name": "",
					"type": "uint256"
				}
			],
			"stateMutability": "view",
			"type": "function"
		},
		{
			"inputs": [
				{
					"internalType": "bytes32",
					"name": "key",
					"type": "bytes32"
				}
			],
			"name": "claimableAmount",
			"outputs": [
				{
					"internalType": "euint32",
					"name": "",
					"type": "uint256"
				}
			],
			"stateMutability": "view",
			"type": "function"
		},
		{
			"inputs": [
				{
					"internalType": "bytes32",
					"name": "",
					"type": "bytes32"
				}
			],
			"name": "company",
			"outputs": [
				{
					"internalType": "euint32",
					"name": "employs",
					"type": "uint256"
				},
				{
					"internalType": "address",
					"name": "admin",
					"type": "address"
				},
				{
					"internalType": "euint32",
					"name": "totalFund",
					"type": "uint256"
				},
				{
					"internalType": "euint32",
					"name": "totalClaimedFund",
					"type": "uint256"
				},
				{
					"internalType": "euint32",
					"name": "totalLocked",
					"type": "uint256"
				},
				{
					"internalType": "address",
					"name": "ercAddres",
					"type": "address"
				}
			],
			"stateMutability": "view",
			"type": "function"
		},
		{
			"inputs": [
				{
					"internalType": "string",
					"name": "_string",
					"type": "string"
				},
				{
					"internalType": "uint256",
					"name": "_registeryear",
					"type": "uint256"
				}
			],
			"name": "createCompanykey",
			"outputs": [
				{
					"internalType": "bytes32",
					"name": "",
					"type": "bytes32"
				}
			],
			"stateMutability": "nonpayable",
			"type": "function"
		},
		{
			"inputs": [],
			"name": "eip712Domain",
			"outputs": [
				{
					"internalType": "bytes1",
					"name": "fields",
					"type": "bytes1"
				},
				{
					"internalType": "string",
					"name": "name",
					"type": "string"
				},
				{
					"internalType": "string",
					"name": "version",
					"type": "string"
				},
				{
					"internalType": "uint256",
					"name": "chainId",
					"type": "uint256"
				},
				{
					"internalType": "address",
					"name": "verifyingContract",
					"type": "address"
				},
				{
					"internalType": "bytes32",
					"name": "salt",
					"type": "bytes32"
				},
				{
					"internalType": "uint256[]",
					"name": "extensions",
					"type": "uint256[]"
				}
			],
			"stateMutability": "view",
			"type": "function"
		},
		{
			"inputs": [
				{
					"internalType": "bytes32",
					"name": "",
					"type": "bytes32"
				},
				{
					"internalType": "address",
					"name": "",
					"type": "address"
				}
			],
			"name": "employDetails",
			"outputs": [
				{
					"internalType": "string",
					"name": "name",
					"type": "string"
				},
				{
					"internalType": "address",
					"name": "stakeholder",
					"type": "address"
				},
				{
					"internalType": "euint32",
					"name": "totalAllocation",
					"type": "uint256"
				},
				{
					"internalType": "euint32",
					"name": "unlocked",
					"type": "uint256"
				},
				{
					"internalType": "euint32",
					"name": "claimed",
					"type": "uint256"
				},
				{
					"internalType": "ebool",
					"name": "isClaimAvailable",
					"type": "uint256"
				},
				{
					"internalType": "uint32",
					"name": "allocationTime",
					"type": "uint32"
				},
				{
					"internalType": "euint32",
					"name": "lastClaimed",
					"type": "uint256"
				}
			],
			"stateMutability": "view",
			"type": "function"
		},
		{
			"inputs": [
				{
					"internalType": "bytes32",
					"name": "_key",
					"type": "bytes32"
				},
				{
					"internalType": "uint256",
					"name": "_index",
					"type": "uint256"
				}
			],
			"name": "getEmployeeList",
			"outputs": [
				{
					"internalType": "address[]",
					"name": "",
					"type": "address[]"
				}
			],
			"stateMutability": "nonpayable",
			"type": "function"
		},
		{
			"inputs": [
				{
					"internalType": "bytes32",
					"name": "key",
					"type": "bytes32"
				}
			],
			"name": "getcompany",
			"outputs": [
				{
					"components": [
						{
							"internalType": "euint32",
							"name": "employs",
							"type": "uint256"
						},
						{
							"internalType": "address",
							"name": "admin",
							"type": "address"
						},
						{
							"internalType": "euint32",
							"name": "totalFund",
							"type": "uint256"
						},
						{
							"internalType": "euint32",
							"name": "totalClaimedFund",
							"type": "uint256"
						},
						{
							"internalType": "euint32",
							"name": "totalLocked",
							"type": "uint256"
						},
						{
							"internalType": "address",
							"name": "ercAddres",
							"type": "address"
						}
					],
					"internalType": "struct IEncryptedCapTable.CompanyDetails",
					"name": "",
					"type": "tuple"
				}
			],
			"stateMutability": "view",
			"type": "function"
		},
		{
			"inputs": [
				{
					"internalType": "bytes32",
					"name": "key",
					"type": "bytes32"
				},
				{
					"internalType": "address",
					"name": "employee",
					"type": "address"
				}
			],
			"name": "getemployee",
			"outputs": [
				{
					"components": [
						{
							"internalType": "string",
							"name": "name",
							"type": "string"
						},
						{
							"internalType": "address",
							"name": "stakeholder",
							"type": "address"
						},
						{
							"internalType": "euint32",
							"name": "totalAllocation",
							"type": "uint256"
						},
						{
							"internalType": "euint32",
							"name": "unlocked",
							"type": "uint256"
						},
						{
							"internalType": "euint32",
							"name": "claimed",
							"type": "uint256"
						},
						{
							"internalType": "ebool",
							"name": "isClaimAvailable",
							"type": "uint256"
						},
						{
							"internalType": "uint32",
							"name": "allocationTime",
							"type": "uint32"
						},
						{
							"internalType": "euint32",
							"name": "lastClaimed",
							"type": "uint256"
						}
					],
					"internalType": "struct IEncryptedCapTable.EmployeeDetails",
					"name": "",
					"type": "tuple"
				}
			],
			"stateMutability": "view",
			"type": "function"
		},
		{
			"inputs": [
				{
					"internalType": "bytes32",
					"name": "",
					"type": "bytes32"
				},
				{
					"internalType": "address",
					"name": "",
					"type": "address"
				}
			],
			"name": "isEmpoloyee",
			"outputs": [
				{
					"internalType": "bool",
					"name": "",
					"type": "bool"
				}
			],
			"stateMutability": "view",
			"type": "function"
		},
		{
			"inputs": [
				{
					"internalType": "address",
					"name": "",
					"type": "address"
				}
			],
			"name": "keys",
			"outputs": [
				{
					"internalType": "bytes32",
					"name": "",
					"type": "bytes32"
				}
			],
			"stateMutability": "view",
			"type": "function"
		},
		{
			"inputs": [
				{
					"internalType": "bytes32",
					"name": "key",
					"type": "bytes32"
				}
			],
			"name": "request",
			"outputs": [
				{
					"internalType": "euint32",
					"name": "",
					"type": "uint256"
				}
			],
			"stateMutability": "nonpayable",
			"type": "function"
		},
		{
			"inputs": [
				{
					"internalType": "bytes32",
					"name": "",
					"type": "bytes32"
				}
			],
			"name": "schedule",
			"outputs": [
				{
					"internalType": "euint32",
					"name": "start",
					"type": "uint256"
				},
				{
					"internalType": "euint32",
					"name": "cliffDuration",
					"type": "uint256"
				},
				{
					"internalType": "euint32",
					"name": "totalDuration",
					"type": "uint256"
				},
				{
					"internalType": "euint32",
					"name": "amountTotal",
					"type": "uint256"
				},
				{
					"internalType": "euint32",
					"name": "releaseAtStartPercentage",
					"type": "uint256"
				},
				{
					"internalType": "euint32",
					"name": "releaseAtCliffPercentage",
					"type": "uint256"
				},
				{
					"internalType": "euint32",
					"name": "linearReleasePercentage",
					"type": "uint256"
				}
			],
			"stateMutability": "view",
			"type": "function"
		},
		{
			"inputs": [
				{
					"internalType": "bytes32",
					"name": "",
					"type": "bytes32"
				},
				{
					"internalType": "uint256",
					"name": "",
					"type": "uint256"
				}
			],
			"name": "stakeHolders",
			"outputs": [
				{
					"internalType": "address",
					"name": "",
					"type": "address"
				}
			],
			"stateMutability": "view",
			"type": "function"
		},
		{
			"inputs": [],
			"name": "vestingAddr",
			"outputs": [
				{
					"internalType": "address",
					"name": "",
					"type": "address"
				}
			],
			"stateMutability": "view",
			"type": "function"
		}
	]
}