{
	"data": {
		"bytecode": {
			"linkReferences": {},
			"object": "608060405234801561000f575f80fd5b506109308061001d5f395ff3fe608060405234801561000f575f80fd5b5060043610610034575f3560e01c80635a373db514610038578063709df5ee14610054575b5f80fd5b610052600480360381019061004d9190610502565b610070565b005b61006e60048036038101906100699190610582565b6100b2565b005b805f806101000a81548173ffffffffffffffffffffffffffffffffffffffff021916908373ffffffffffffffffffffffffffffffffffffffff16021790555050565b5f6040518060e0016040528061011784805f01906100d091906105e8565b8080601f0160208091040260200160405190810160405280939291908181526020018383808284375f81840152601f19601f820116905080830192505050505050506103e2565b815260200161017684806020019061012f91906105e8565b8080601f0160208091040260200160405190810160405280939291908181526020018383808284375f81840152601f19601f820116905080830192505050505050506103e2565b81526020016101d584806040019061018e91906105e8565b8080601f0160208091040260200160405190810160405280939291908181526020018383808284375f81840152601f19601f820116905080830192505050505050506103e2565b81526020016102348480606001906101ed91906105e8565b8080601f0160208091040260200160405190810160405280939291908181526020018383808284375f81840152601f19601f820116905080830192505050505050506103e2565b815260200161029384806080019061024c91906105e8565b8080601f0160208091040260200160405190810160405280939291908181526020018383808284375f81840152601f19601f820116905080830192505050505050506103e2565b81526020016102f2848060a001906102ab91906105e8565b8080601f0160208091040260200160405190810160405280939291908181526020018383808284375f81840152601f19601f820116905080830192505050505050506103e2565b8152602001610351848060c0019061030a91906105e8565b8080601f0160208091040260200160405190810160405280939291908181526020018383808284375f81840152601f19601f820116905080830192505050505050506103e2565b81525090505f8054906101000a900473ffffffffffffffffffffffffffffffffffffffff1673ffffffffffffffffffffffffffffffffffffffff1663283f03f082856040518363ffffffff1660e01b81526004016103b0929190610727565b5f604051808303815f87803b1580156103c7575f80fd5b505af11580156103d9573d5f803e3d5ffd5b50505050505050565b5f6103ee8260026103f5565b9050919050565b5f80838360f81b60405160200161040d929190610806565b6040516020818303038152906040529050605d73ffffffffffffffffffffffffffffffffffffffff16634b252ec8826040518263ffffffff1660e01b81526004016104589190610885565b602060405180830381865afa158015610473573d5f803e3d5ffd5b505050506040513d601f19601f8201168201806040525081019061049791906108cf565b91505092915050565b5f80fd5b5f80fd5b5f73ffffffffffffffffffffffffffffffffffffffff82169050919050565b5f6104d1826104a8565b9050919050565b6104e1816104c7565b81146104eb575f80fd5b50565b5f813590506104fc816104d8565b92915050565b5f60208284031215610517576105166104a0565b5b5f610524848285016104ee565b91505092915050565b5f819050919050565b61053f8161052d565b8114610549575f80fd5b50565b5f8135905061055a81610536565b92915050565b5f80fd5b5f60e0828403121561057957610578610560565b5b81905092915050565b5f8060408385031215610598576105976104a0565b5b5f6105a58582860161054c565b925050602083013567ffffffffffffffff8111156105c6576105c56104a4565b5b6105d285828601610564565b9150509250929050565b5f80fd5b5f80fd5b5f80fd5b5f8083356001602003843603038112610604576106036105dc565b5b80840192508235915067ffffffffffffffff821115610626576106256105e0565b5b602083019250600182023603831315610642576106416105e4565b5b509250929050565b5f819050919050565b5f819050919050565b5f61067661067161066c8461064a565b610653565b61064a565b9050919050565b6106868161065c565b82525050565b60e082015f8201516106a05f85018261067d565b5060208201516106b3602085018261067d565b5060408201516106c6604085018261067d565b5060608201516106d9606085018261067d565b5060808201516106ec608085018261067d565b5060a08201516106ff60a085018261067d565b5060c082015161071260c085018261067d565b50505050565b6107218161052d565b82525050565b5f6101008201905061073b5f83018561068c565b61074860e0830184610718565b9392505050565b5f81519050919050565b5f81905092915050565b5f5b83811015610780578082015181840152602081019050610765565b5f8484015250505050565b5f6107958261074f565b61079f8185610759565b93506107af818560208601610763565b80840191505092915050565b5f7fff0000000000000000000000000000000000000000000000000000000000000082169050919050565b5f819050919050565b6108006107fb826107bb565b6107e6565b82525050565b5f610811828561078b565b915061081d82846107ef565b6001820191508190509392505050565b5f82825260208201905092915050565b5f601f19601f8301169050919050565b5f6108578261074f565b610861818561082d565b9350610871818560208601610763565b61087a8161083d565b840191505092915050565b5f6020820190508181035f83015261089d818461084d565b905092915050565b6108ae8161064a565b81146108b8575f80fd5b50565b5f815190506108c9816108a5565b92915050565b5f602082840312156108e4576108e36104a0565b5b5f6108f1848285016108bb565b9150509291505056fea26469706673582212206242c2e2574d2448147b8c51a0240ddc235f365632d4a9ea2bfa179d6aa123a664736f6c63430008180033",
			"opcodes": "PUSH1 0x80 PUSH1 0x40 MSTORE CALLVALUE DUP1 ISZERO PUSH2 0xF JUMPI PUSH0 DUP1 REVERT JUMPDEST POP PUSH2 0x930 DUP1 PUSH2 0x1D PUSH0 CODECOPY PUSH0 RETURN INVALID PUSH1 0x80 PUSH1 0x40 MSTORE CALLVALUE DUP1 ISZERO PUSH2 0xF JUMPI PUSH0 DUP1 REVERT JUMPDEST POP PUSH1 0x4 CALLDATASIZE LT PUSH2 0x34 JUMPI PUSH0 CALLDATALOAD PUSH1 0xE0 SHR DUP1 PUSH4 0x5A373DB5 EQ PUSH2 0x38 JUMPI DUP1 PUSH4 0x709DF5EE EQ PUSH2 0x54 JUMPI JUMPDEST PUSH0 DUP1 REVERT JUMPDEST PUSH2 0x52 PUSH1 0x4 DUP1 CALLDATASIZE SUB DUP2 ADD SWAP1 PUSH2 0x4D SWAP2 SWAP1 PUSH2 0x502 JUMP JUMPDEST PUSH2 0x70 JUMP JUMPDEST STOP JUMPDEST PUSH2 0x6E PUSH1 0x4 DUP1 CALLDATASIZE SUB DUP2 ADD SWAP1 PUSH2 0x69 SWAP2 SWAP1 PUSH2 0x582 JUMP JUMPDEST PUSH2 0xB2 JUMP JUMPDEST STOP JUMPDEST DUP1 PUSH0 DUP1 PUSH2 0x100 EXP DUP2 SLOAD DUP2 PUSH20 0xFFFFFFFFFFFFFFFFFFFFFFFFFFFFFFFFFFFFFFFF MUL NOT AND SWAP1 DUP4 PUSH20 0xFFFFFFFFFFFFFFFFFFFFFFFFFFFFFFFFFFFFFFFF AND MUL OR SWAP1 SSTORE POP POP JUMP JUMPDEST PUSH0 PUSH1 0x40 MLOAD DUP1 PUSH1 0xE0 ADD PUSH1 0x40 MSTORE DUP1 PUSH2 0x117 DUP5 DUP1 PUSH0 ADD SWAP1 PUSH2 0xD0 SWAP2 SWAP1 PUSH2 0x5E8 JUMP JUMPDEST DUP1 DUP1 PUSH1 0x1F ADD PUSH1 0x20 DUP1 SWAP2 DIV MUL PUSH1 0x20 ADD PUSH1 0x40 MLOAD SWAP1 DUP2 ADD PUSH1 0x40 MSTORE DUP1 SWAP4 SWAP3 SWAP2 SWAP1 DUP2 DUP2 MSTORE PUSH1 0x20 ADD DUP4 DUP4 DUP1 DUP3 DUP5 CALLDATACOPY PUSH0 DUP2 DUP5 ADD MSTORE PUSH1 0x1F NOT PUSH1 0x1F DUP3 ADD AND SWAP1 POP DUP1 DUP4 ADD SWAP3 POP POP POP POP POP POP POP PUSH2 0x3E2 JUMP JUMPDEST DUP2 MSTORE PUSH1 0x20 ADD PUSH2 0x176 DUP5 DUP1 PUSH1 0x20 ADD SWAP1 PUSH2 0x12F SWAP2 SWAP1 PUSH2 0x5E8 JUMP JUMPDEST DUP1 DUP1 PUSH1 0x1F ADD PUSH1 0x20 DUP1 SWAP2 DIV MUL PUSH1 0x20 ADD PUSH1 0x40 MLOAD SWAP1 DUP2 ADD PUSH1 0x40 MSTORE DUP1 SWAP4 SWAP3 SWAP2 SWAP1 DUP2 DUP2 MSTORE PUSH1 0x20 ADD DUP4 DUP4 DUP1 DUP3 DUP5 CALLDATACOPY PUSH0 DUP2 DUP5 ADD MSTORE PUSH1 0x1F NOT PUSH1 0x1F DUP3 ADD AND SWAP1 POP DUP1 DUP4 ADD SWAP3 POP POP POP POP POP POP POP PUSH2 0x3E2 JUMP JUMPDEST DUP2 MSTORE PUSH1 0x20 ADD PUSH2 0x1D5 DUP5 DUP1 PUSH1 0x40 ADD SWAP1 PUSH2 0x18E SWAP2 SWAP1 PUSH2 0x5E8 JUMP JUMPDEST DUP1 DUP1 PUSH1 0x1F ADD PUSH1 0x20 DUP1 SWAP2 DIV MUL PUSH1 0x20 ADD PUSH1 0x40 MLOAD SWAP1 DUP2 ADD PUSH1 0x40 MSTORE DUP1 SWAP4 SWAP3 SWAP2 SWAP1 DUP2 DUP2 MSTORE PUSH1 0x20 ADD DUP4 DUP4 DUP1 DUP3 DUP5 CALLDATACOPY PUSH0 DUP2 DUP5 ADD MSTORE PUSH1 0x1F NOT PUSH1 0x1F DUP3 ADD AND SWAP1 POP DUP1 DUP4 ADD SWAP3 POP POP POP POP POP POP POP PUSH2 0x3E2 JUMP JUMPDEST DUP2 MSTORE PUSH1 0x20 ADD PUSH2 0x234 DUP5 DUP1 PUSH1 0x60 ADD SWAP1 PUSH2 0x1ED SWAP2 SWAP1 PUSH2 0x5E8 JUMP JUMPDEST DUP1 DUP1 PUSH1 0x1F ADD PUSH1 0x20 DUP1 SWAP2 DIV MUL PUSH1 0x20 ADD PUSH1 0x40 MLOAD SWAP1 DUP2 ADD PUSH1 0x40 MSTORE DUP1 SWAP4 SWAP3 SWAP2 SWAP1 DUP2 DUP2 MSTORE PUSH1 0x20 ADD DUP4 DUP4 DUP1 DUP3 DUP5 CALLDATACOPY PUSH0 DUP2 DUP5 ADD MSTORE PUSH1 0x1F NOT PUSH1 0x1F DUP3 ADD AND SWAP1 POP DUP1 DUP4 ADD SWAP3 POP POP POP POP POP POP POP PUSH2 0x3E2 JUMP JUMPDEST DUP2 MSTORE PUSH1 0x20 ADD PUSH2 0x293 DUP5 DUP1 PUSH1 0x80 ADD SWAP1 PUSH2 0x24C SWAP2 SWAP1 PUSH2 0x5E8 JUMP JUMPDEST DUP1 DUP1 PUSH1 0x1F ADD PUSH1 0x20 DUP1 SWAP2 DIV MUL PUSH1 0x20 ADD PUSH1 0x40 MLOAD SWAP1 DUP2 ADD PUSH1 0x40 MSTORE DUP1 SWAP4 SWAP3 SWAP2 SWAP1 DUP2 DUP2 MSTORE PUSH1 0x20 ADD DUP4 DUP4 DUP1 DUP3 DUP5 CALLDATACOPY PUSH0 DUP2 DUP5 ADD MSTORE PUSH1 0x1F NOT PUSH1 0x1F DUP3 ADD AND SWAP1 POP DUP1 DUP4 ADD SWAP3 POP POP POP POP POP POP POP PUSH2 0x3E2 JUMP JUMPDEST DUP2 MSTORE PUSH1 0x20 ADD PUSH2 0x2F2 DUP5 DUP1 PUSH1 0xA0 ADD SWAP1 PUSH2 0x2AB SWAP2 SWAP1 PUSH2 0x5E8 JUMP JUMPDEST DUP1 DUP1 PUSH1 0x1F ADD PUSH1 0x20 DUP1 SWAP2 DIV MUL PUSH1 0x20 ADD PUSH1 0x40 MLOAD SWAP1 DUP2 ADD PUSH1 0x40 MSTORE DUP1 SWAP4 SWAP3 SWAP2 SWAP1 DUP2 DUP2 MSTORE PUSH1 0x20 ADD DUP4 DUP4 DUP1 DUP3 DUP5 CALLDATACOPY PUSH0 DUP2 DUP5 ADD MSTORE PUSH1 0x1F NOT PUSH1 0x1F DUP3 ADD AND SWAP1 POP DUP1 DUP4 ADD SWAP3 POP POP POP POP POP POP POP PUSH2 0x3E2 JUMP JUMPDEST DUP2 MSTORE PUSH1 0x20 ADD PUSH2 0x351 DUP5 DUP1 PUSH1 0xC0 ADD SWAP1 PUSH2 0x30A SWAP2 SWAP1 PUSH2 0x5E8 JUMP JUMPDEST DUP1 DUP1 PUSH1 0x1F ADD PUSH1 0x20 DUP1 SWAP2 DIV MUL PUSH1 0x20 ADD PUSH1 0x40 MLOAD SWAP1 DUP2 ADD PUSH1 0x40 MSTORE DUP1 SWAP4 SWAP3 SWAP2 SWAP1 DUP2 DUP2 MSTORE PUSH1 0x20 ADD DUP4 DUP4 DUP1 DUP3 DUP5 CALLDATACOPY PUSH0 DUP2 DUP5 ADD MSTORE PUSH1 0x1F NOT PUSH1 0x1F DUP3 ADD AND SWAP1 POP DUP1 DUP4 ADD SWAP3 POP POP POP POP POP POP POP PUSH2 0x3E2 JUMP JUMPDEST DUP2 MSTORE POP SWAP1 POP PUSH0 DUP1 SLOAD SWAP1 PUSH2 0x100 EXP SWAP1 DIV PUSH20 0xFFFFFFFFFFFFFFFFFFFFFFFFFFFFFFFFFFFFFFFF AND PUSH20 0xFFFFFFFFFFFFFFFFFFFFFFFFFFFFFFFFFFFFFFFF AND PUSH4 0x283F03F0 DUP3 DUP6 PUSH1 0x40 MLOAD DUP4 PUSH4 0xFFFFFFFF AND PUSH1 0xE0 SHL DUP2 MSTORE PUSH1 0x4 ADD PUSH2 0x3B0 SWAP3 SWAP2 SWAP1 PUSH2 0x727 JUMP JUMPDEST PUSH0 PUSH1 0x40 MLOAD DUP1 DUP4 SUB DUP2 PUSH0 DUP8 DUP1 EXTCODESIZE ISZERO DUP1 ISZERO PUSH2 0x3C7 JUMPI PUSH0 DUP1 REVERT JUMPDEST POP GAS CALL ISZERO DUP1 ISZERO PUSH2 0x3D9 JUMPI RETURNDATASIZE PUSH0 DUP1 RETURNDATACOPY RETURNDATASIZE PUSH0 REVERT JUMPDEST POP POP POP POP POP POP POP JUMP JUMPDEST PUSH0 PUSH2 0x3EE DUP3 PUSH1 0x2 PUSH2 0x3F5 JUMP JUMPDEST SWAP1 POP SWAP2 SWAP1 POP JUMP JUMPDEST PUSH0 DUP1 DUP4 DUP4 PUSH1 0xF8 SHL PUSH1 0x40 MLOAD PUSH1 0x20 ADD PUSH2 0x40D SWAP3 SWAP2 SWAP1 PUSH2 0x806 JUMP JUMPDEST PUSH1 0x40 MLOAD PUSH1 0x20 DUP2 DUP4 SUB SUB DUP2 MSTORE SWAP1 PUSH1 0x40 MSTORE SWAP1 POP PUSH1 0x5D PUSH20 0xFFFFFFFFFFFFFFFFFFFFFFFFFFFFFFFFFFFFFFFF AND PUSH4 0x4B252EC8 DUP3 PUSH1 0x40 MLOAD DUP3 PUSH4 0xFFFFFFFF AND PUSH1 0xE0 SHL DUP2 MSTORE PUSH1 0x4 ADD PUSH2 0x458 SWAP2 SWAP1 PUSH2 0x885 JUMP JUMPDEST PUSH1 0x20 PUSH1 0x40 MLOAD DUP1 DUP4 SUB DUP2 DUP7 GAS STATICCALL ISZERO DUP1 ISZERO PUSH2 0x473 JUMPI RETURNDATASIZE PUSH0 DUP1 RETURNDATACOPY RETURNDATASIZE PUSH0 REVERT JUMPDEST POP POP POP POP PUSH1 0x40 MLOAD RETURNDATASIZE PUSH1 0x1F NOT PUSH1 0x1F DUP3 ADD AND DUP3 ADD DUP1 PUSH1 0x40 MSTORE POP DUP2 ADD SWAP1 PUSH2 0x497 SWAP2 SWAP1 PUSH2 0x8CF JUMP JUMPDEST SWAP2 POP POP SWAP3 SWAP2 POP POP JUMP JUMPDEST PUSH0 DUP1 REVERT JUMPDEST PUSH0 DUP1 REVERT JUMPDEST PUSH0 PUSH20 0xFFFFFFFFFFFFFFFFFFFFFFFFFFFFFFFFFFFFFFFF DUP3 AND SWAP1 POP SWAP2 SWAP1 POP JUMP JUMPDEST PUSH0 PUSH2 0x4D1 DUP3 PUSH2 0x4A8 JUMP JUMPDEST SWAP1 POP SWAP2 SWAP1 POP JUMP JUMPDEST PUSH2 0x4E1 DUP2 PUSH2 0x4C7 JUMP JUMPDEST DUP2 EQ PUSH2 0x4EB JUMPI PUSH0 DUP1 REVERT JUMPDEST POP JUMP JUMPDEST PUSH0 DUP2 CALLDATALOAD SWAP1 POP PUSH2 0x4FC DUP2 PUSH2 0x4D8 JUMP JUMPDEST SWAP3 SWAP2 POP POP JUMP JUMPDEST PUSH0 PUSH1 0x20 DUP3 DUP5 SUB SLT ISZERO PUSH2 0x517 JUMPI PUSH2 0x516 PUSH2 0x4A0 JUMP JUMPDEST JUMPDEST PUSH0 PUSH2 0x524 DUP5 DUP3 DUP6 ADD PUSH2 0x4EE JUMP JUMPDEST SWAP2 POP POP SWAP3 SWAP2 POP POP JUMP JUMPDEST PUSH0 DUP2 SWAP1 POP SWAP2 SWAP1 POP JUMP JUMPDEST PUSH2 0x53F DUP2 PUSH2 0x52D JUMP JUMPDEST DUP2 EQ PUSH2 0x549 JUMPI PUSH0 DUP1 REVERT JUMPDEST POP JUMP JUMPDEST PUSH0 DUP2 CALLDATALOAD SWAP1 POP PUSH2 0x55A DUP2 PUSH2 0x536 JUMP JUMPDEST SWAP3 SWAP2 POP POP JUMP JUMPDEST PUSH0 DUP1 REVERT JUMPDEST PUSH0 PUSH1 0xE0 DUP3 DUP5 SUB SLT ISZERO PUSH2 0x579 JUMPI PUSH2 0x578 PUSH2 0x560 JUMP JUMPDEST JUMPDEST DUP2 SWAP1 POP SWAP3 SWAP2 POP POP JUMP JUMPDEST PUSH0 DUP1 PUSH1 0x40 DUP4 DUP6 SUB SLT ISZERO PUSH2 0x598 JUMPI PUSH2 0x597 PUSH2 0x4A0 JUMP JUMPDEST JUMPDEST PUSH0 PUSH2 0x5A5 DUP6 DUP3 DUP7 ADD PUSH2 0x54C JUMP JUMPDEST SWAP3 POP POP PUSH1 0x20 DUP4 ADD CALLDATALOAD PUSH8 0xFFFFFFFFFFFFFFFF DUP2 GT ISZERO PUSH2 0x5C6 JUMPI PUSH2 0x5C5 PUSH2 0x4A4 JUMP JUMPDEST JUMPDEST PUSH2 0x5D2 DUP6 DUP3 DUP7 ADD PUSH2 0x564 JUMP JUMPDEST SWAP2 POP POP SWAP3 POP SWAP3 SWAP1 POP JUMP JUMPDEST PUSH0 DUP1 REVERT JUMPDEST PUSH0 DUP1 REVERT JUMPDEST PUSH0 DUP1 REVERT JUMPDEST PUSH0 DUP1 DUP4 CALLDATALOAD PUSH1 0x1 PUSH1 0x20 SUB DUP5 CALLDATASIZE SUB SUB DUP2 SLT PUSH2 0x604 JUMPI PUSH2 0x603 PUSH2 0x5DC JUMP JUMPDEST JUMPDEST DUP1 DUP5 ADD SWAP3 POP DUP3 CALLDATALOAD SWAP2 POP PUSH8 0xFFFFFFFFFFFFFFFF DUP3 GT ISZERO PUSH2 0x626 JUMPI PUSH2 0x625 PUSH2 0x5E0 JUMP JUMPDEST JUMPDEST PUSH1 0x20 DUP4 ADD SWAP3 POP PUSH1 0x1 DUP3 MUL CALLDATASIZE SUB DUP4 SGT ISZERO PUSH2 0x642 JUMPI PUSH2 0x641 PUSH2 0x5E4 JUMP JUMPDEST JUMPDEST POP SWAP3 POP SWAP3 SWAP1 POP JUMP JUMPDEST PUSH0 DUP2 SWAP1 POP SWAP2 SWAP1 POP JUMP JUMPDEST PUSH0 DUP2 SWAP1 POP SWAP2 SWAP1 POP JUMP JUMPDEST PUSH0 PUSH2 0x676 PUSH2 0x671 PUSH2 0x66C DUP5 PUSH2 0x64A JUMP JUMPDEST PUSH2 0x653 JUMP JUMPDEST PUSH2 0x64A JUMP JUMPDEST SWAP1 POP SWAP2 SWAP1 POP JUMP JUMPDEST PUSH2 0x686 DUP2 PUSH2 0x65C JUMP JUMPDEST DUP3 MSTORE POP POP JUMP JUMPDEST PUSH1 0xE0 DUP3 ADD PUSH0 DUP3 ADD MLOAD PUSH2 0x6A0 PUSH0 DUP6 ADD DUP3 PUSH2 0x67D JUMP JUMPDEST POP PUSH1 0x20 DUP3 ADD MLOAD PUSH2 0x6B3 PUSH1 0x20 DUP6 ADD DUP3 PUSH2 0x67D JUMP JUMPDEST POP PUSH1 0x40 DUP3 ADD MLOAD PUSH2 0x6C6 PUSH1 0x40 DUP6 ADD DUP3 PUSH2 0x67D JUMP JUMPDEST POP PUSH1 0x60 DUP3 ADD MLOAD PUSH2 0x6D9 PUSH1 0x60 DUP6 ADD DUP3 PUSH2 0x67D JUMP JUMPDEST POP PUSH1 0x80 DUP3 ADD MLOAD PUSH2 0x6EC PUSH1 0x80 DUP6 ADD DUP3 PUSH2 0x67D JUMP JUMPDEST POP PUSH1 0xA0 DUP3 ADD MLOAD PUSH2 0x6FF PUSH1 0xA0 DUP6 ADD DUP3 PUSH2 0x67D JUMP JUMPDEST POP PUSH1 0xC0 DUP3 ADD MLOAD PUSH2 0x712 PUSH1 0xC0 DUP6 ADD DUP3 PUSH2 0x67D JUMP JUMPDEST POP POP POP POP JUMP JUMPDEST PUSH2 0x721 DUP2 PUSH2 0x52D JUMP JUMPDEST DUP3 MSTORE POP POP JUMP JUMPDEST PUSH0 PUSH2 0x100 DUP3 ADD SWAP1 POP PUSH2 0x73B PUSH0 DUP4 ADD DUP6 PUSH2 0x68C JUMP JUMPDEST PUSH2 0x748 PUSH1 0xE0 DUP4 ADD DUP5 PUSH2 0x718 JUMP JUMPDEST SWAP4 SWAP3 POP POP POP JUMP JUMPDEST PUSH0 DUP2 MLOAD SWAP1 POP SWAP2 SWAP1 POP JUMP JUMPDEST PUSH0 DUP2 SWAP1 POP SWAP3 SWAP2 POP POP JUMP JUMPDEST PUSH0 JUMPDEST DUP4 DUP2 LT ISZERO PUSH2 0x780 JUMPI DUP1 DUP3 ADD MLOAD DUP2 DUP5 ADD MSTORE PUSH1 0x20 DUP2 ADD SWAP1 POP PUSH2 0x765 JUMP JUMPDEST PUSH0 DUP5 DUP5 ADD MSTORE POP POP POP POP JUMP JUMPDEST PUSH0 PUSH2 0x795 DUP3 PUSH2 0x74F JUMP JUMPDEST PUSH2 0x79F DUP2 DUP6 PUSH2 0x759 JUMP JUMPDEST SWAP4 POP PUSH2 0x7AF DUP2 DUP6 PUSH1 0x20 DUP7 ADD PUSH2 0x763 JUMP JUMPDEST DUP1 DUP5 ADD SWAP2 POP POP SWAP3 SWAP2 POP POP JUMP JUMPDEST PUSH0 PUSH32 0xFF00000000000000000000000000000000000000000000000000000000000000 DUP3 AND SWAP1 POP SWAP2 SWAP1 POP JUMP JUMPDEST PUSH0 DUP2 SWAP1 POP SWAP2 SWAP1 POP JUMP JUMPDEST PUSH2 0x800 PUSH2 0x7FB DUP3 PUSH2 0x7BB JUMP JUMPDEST PUSH2 0x7E6 JUMP JUMPDEST DUP3 MSTORE POP POP JUMP JUMPDEST PUSH0 PUSH2 0x811 DUP3 DUP6 PUSH2 0x78B JUMP JUMPDEST SWAP2 POP PUSH2 0x81D DUP3 DUP5 PUSH2 0x7EF JUMP JUMPDEST PUSH1 0x1 DUP3 ADD SWAP2 POP DUP2 SWAP1 POP SWAP4 SWAP3 POP POP POP JUMP JUMPDEST PUSH0 DUP3 DUP3 MSTORE PUSH1 0x20 DUP3 ADD SWAP1 POP SWAP3 SWAP2 POP POP JUMP JUMPDEST PUSH0 PUSH1 0x1F NOT PUSH1 0x1F DUP4 ADD AND SWAP1 POP SWAP2 SWAP1 POP JUMP JUMPDEST PUSH0 PUSH2 0x857 DUP3 PUSH2 0x74F JUMP JUMPDEST PUSH2 0x861 DUP2 DUP6 PUSH2 0x82D JUMP JUMPDEST SWAP4 POP PUSH2 0x871 DUP2 DUP6 PUSH1 0x20 DUP7 ADD PUSH2 0x763 JUMP JUMPDEST PUSH2 0x87A DUP2 PUSH2 0x83D JUMP JUMPDEST DUP5 ADD SWAP2 POP POP SWAP3 SWAP2 POP POP JUMP JUMPDEST PUSH0 PUSH1 0x20 DUP3 ADD SWAP1 POP DUP2 DUP2 SUB PUSH0 DUP4 ADD MSTORE PUSH2 0x89D DUP2 DUP5 PUSH2 0x84D JUMP JUMPDEST SWAP1 POP SWAP3 SWAP2 POP POP JUMP JUMPDEST PUSH2 0x8AE DUP2 PUSH2 0x64A JUMP JUMPDEST DUP2 EQ PUSH2 0x8B8 JUMPI PUSH0 DUP1 REVERT JUMPDEST POP JUMP JUMPDEST PUSH0 DUP2 MLOAD SWAP1 POP PUSH2 0x8C9 DUP2 PUSH2 0x8A5 JUMP JUMPDEST SWAP3 SWAP2 POP POP JUMP JUMPDEST PUSH0 PUSH1 0x20 DUP3 DUP5 SUB SLT ISZERO PUSH2 0x8E4 JUMPI PUSH2 0x8E3 PUSH2 0x4A0 JUMP JUMPDEST JUMPDEST PUSH0 PUSH2 0x8F1 DUP5 DUP3 DUP6 ADD PUSH2 0x8BB JUMP JUMPDEST SWAP2 POP POP SWAP3 SWAP2 POP POP JUMP INVALID LOG2 PUSH5 0x6970667358 0x22 SLT KECCAK256 PUSH3 0x42C2E2 JUMPI 0x4D 0x24 BASEFEE EQ PUSH28 0x8C51A0240DDC235F365632D4A9EA2BFA179D6AA123A664736F6C6343 STOP ADDMOD XOR STOP CALLER "
		},
		"gasEstimates": {
			"creation": {
				"codeDepositCost": "470400",
				"executionCost": "503",
				"totalCost": "470903"
			},
			"external": {
				"addCaptable(address)": "24693",
				"addVestingSchedule(bytes32,(bytes,bytes,bytes,bytes,bytes,bytes,bytes))": "infinite"
			}
		},
		"methodIdentifiers": {
			"addCaptable(address)": "5a373db5",
			"addVestingSchedule(bytes32,(bytes,bytes,bytes,bytes,bytes,bytes,bytes))": "709df5ee"
		}
	},
	"abi": [
		{
			"anonymous": false,
			"inputs": [
				{
					"indexed": false,
					"internalType": "address",
					"name": "beneficiary",
					"type": "address"
				},
				{
					"indexed": false,
					"internalType": "uint256",
					"name": "amount",
					"type": "uint256"
				}
			],
			"name": "TokensReleased",
			"type": "event"
		},
		{
			"inputs": [
				{
					"internalType": "address",
					"name": "_address",
					"type": "address"
				}
			],
			"name": "addCaptable",
			"outputs": [],
			"stateMutability": "nonpayable",
			"type": "function"
		},
		{
			"inputs": [
				{
					"internalType": "bytes32",
					"name": "_key",
					"type": "bytes32"
				},
				{
					"components": [
						{
							"internalType": "bytes",
							"name": "startTimestamp",
							"type": "bytes"
						},
						{
							"internalType": "bytes",
							"name": "cliffDurationInSeconds",
							"type": "bytes"
						},
						{
							"internalType": "bytes",
							"name": "totalVestingDurationInSeconds",
							"type": "bytes"
						},
						{
							"internalType": "bytes",
							"name": "totalAmount",
							"type": "bytes"
						},
						{
							"internalType": "bytes",
							"name": "EreleaseAtStartPercentage",
							"type": "bytes"
						},
						{
							"internalType": "bytes",
							"name": "EreleaseAtCliffPercentage",
							"type": "bytes"
						},
						{
							"internalType": "bytes",
							"name": "ElinearReleasePercentage",
							"type": "bytes"
						}
					],
					"internalType": "struct Vesting.VestingParams",
					"name": "params",
					"type": "tuple"
				}
			],
			"name": "addVestingSchedule",
			"outputs": [],
			"stateMutability": "nonpayable",
			"type": "function"
		}
	]
}